{
  "address": "0xF44f582cdfA75F05e1d8Fd02dEeA9858030938D6",
  "abi": [
    {
      "inputs": [],
      "stateMutability": "nonpayable",
      "type": "constructor"
    },
    {
      "anonymous": false,
      "inputs": [
        {
          "indexed": true,
          "internalType": "address",
          "name": "owner",
          "type": "address"
        },
        {
          "indexed": true,
          "internalType": "address",
          "name": "approved",
          "type": "address"
        },
        {
          "indexed": true,
          "internalType": "uint256",
          "name": "tokenId",
          "type": "uint256"
        }
      ],
      "name": "Approval",
      "type": "event"
    },
    {
      "anonymous": false,
      "inputs": [
        {
          "indexed": true,
          "internalType": "address",
          "name": "owner",
          "type": "address"
        },
        {
          "indexed": true,
          "internalType": "address",
          "name": "operator",
          "type": "address"
        },
        {
          "indexed": false,
          "internalType": "bool",
          "name": "approved",
          "type": "bool"
        }
      ],
      "name": "ApprovalForAll",
      "type": "event"
    },
    {
      "anonymous": false,
      "inputs": [
        {
          "indexed": false,
          "internalType": "uint256",
          "name": "_fromTokenId",
          "type": "uint256"
        },
        {
          "indexed": false,
          "internalType": "uint256",
          "name": "_toTokenId",
          "type": "uint256"
        }
      ],
      "name": "BatchMetadataUpdate",
      "type": "event"
    },
    {
      "anonymous": false,
      "inputs": [],
      "name": "DisableAllowList",
      "type": "event"
    },
    {
      "anonymous": false,
      "inputs": [],
      "name": "EnabledAllowList",
      "type": "event"
    },
    {
      "anonymous": false,
      "inputs": [
        {
          "indexed": false,
          "internalType": "uint256",
          "name": "_tokenId",
          "type": "uint256"
        }
      ],
      "name": "MetadataUpdate",
      "type": "event"
    },
    {
      "anonymous": false,
      "inputs": [
        {
          "indexed": true,
          "internalType": "address",
          "name": "previousOwner",
          "type": "address"
        },
        {
          "indexed": true,
          "internalType": "address",
          "name": "newOwner",
          "type": "address"
        }
      ],
      "name": "OwnershipTransferred",
      "type": "event"
    },
    {
      "anonymous": false,
      "inputs": [
        {
          "indexed": false,
          "internalType": "address",
          "name": "account",
          "type": "address"
        }
      ],
      "name": "Paused",
      "type": "event"
    },
    {
      "anonymous": false,
      "inputs": [
        {
          "indexed": true,
          "internalType": "address",
          "name": "from",
          "type": "address"
        },
        {
          "indexed": true,
          "internalType": "address",
          "name": "to",
          "type": "address"
        },
        {
          "indexed": true,
          "internalType": "uint256",
          "name": "tokenId",
          "type": "uint256"
        }
      ],
      "name": "Transfer",
      "type": "event"
    },
    {
      "anonymous": false,
      "inputs": [
        {
          "indexed": false,
          "internalType": "address",
          "name": "account",
          "type": "address"
        }
      ],
      "name": "Unpaused",
      "type": "event"
    },
    {
      "anonymous": false,
      "inputs": [
        {
          "indexed": false,
          "internalType": "address",
          "name": "account",
          "type": "address"
        },
        {
          "indexed": false,
          "internalType": "bool",
          "name": "isAllowed",
          "type": "bool"
        }
      ],
      "name": "UserAllowList",
      "type": "event"
    },
    {
      "inputs": [],
      "name": "allowListEnabled",
      "outputs": [
        {
          "internalType": "bool",
          "name": "",
          "type": "bool"
        }
      ],
      "stateMutability": "view",
      "type": "function"
    },
    {
      "inputs": [
        {
          "internalType": "address",
          "name": "",
          "type": "address"
        }
      ],
      "name": "allowlist",
      "outputs": [
        {
          "internalType": "bool",
          "name": "",
          "type": "bool"
        }
      ],
      "stateMutability": "view",
      "type": "function"
    },
    {
      "inputs": [
        {
          "internalType": "address",
          "name": "to",
          "type": "address"
        },
        {
          "internalType": "uint256",
          "name": "tokenId",
          "type": "uint256"
        }
      ],
      "name": "approve",
      "outputs": [],
      "stateMutability": "nonpayable",
      "type": "function"
    },
    {
      "inputs": [
        {
          "internalType": "uint256",
          "name": "amount",
          "type": "uint256"
        }
      ],
      "name": "approveTokenSpend",
      "outputs": [
        {
          "internalType": "bool",
          "name": "success",
          "type": "bool"
        }
      ],
      "stateMutability": "nonpayable",
      "type": "function"
    },
    {
      "inputs": [
        {
          "internalType": "uint256",
          "name": "tokenId",
          "type": "uint256"
        }
      ],
      "name": "authorizedBurn",
      "outputs": [],
      "stateMutability": "nonpayable",
      "type": "function"
    },
    {
      "inputs": [
        {
          "internalType": "address",
          "name": "from",
          "type": "address"
        },
        {
          "internalType": "address",
          "name": "to",
          "type": "address"
        },
        {
          "internalType": "uint256",
          "name": "tokenId",
          "type": "uint256"
        }
      ],
      "name": "authorizedTransferFrom",
      "outputs": [],
      "stateMutability": "nonpayable",
      "type": "function"
    },
    {
      "inputs": [
        {
          "internalType": "address",
          "name": "owner",
          "type": "address"
        }
      ],
      "name": "balanceOf",
      "outputs": [
        {
          "internalType": "uint256",
          "name": "",
          "type": "uint256"
        }
      ],
      "stateMutability": "view",
      "type": "function"
    },
    {
      "inputs": [],
      "name": "baseURI",
      "outputs": [
        {
          "internalType": "string",
          "name": "",
          "type": "string"
        }
      ],
      "stateMutability": "view",
      "type": "function"
    },
    {
      "inputs": [
        {
          "internalType": "address",
          "name": "to",
          "type": "address"
        },
        {
          "internalType": "uint256",
          "name": "amount",
          "type": "uint256"
        }
      ],
      "name": "bulkMintVault",
      "outputs": [],
      "stateMutability": "nonpayable",
      "type": "function"
    },
    {
      "inputs": [
        {
          "internalType": "uint256",
          "name": "tokenId",
          "type": "uint256"
        }
      ],
      "name": "burn",
      "outputs": [],
      "stateMutability": "nonpayable",
      "type": "function"
    },
    {
      "inputs": [
        {
          "internalType": "address",
          "name": "owner",
          "type": "address"
        }
      ],
      "name": "checkTokenApproval",
      "outputs": [
        {
          "internalType": "uint256",
          "name": "remaining",
          "type": "uint256"
        }
      ],
      "stateMutability": "view",
      "type": "function"
    },
    {
      "inputs": [],
      "name": "destination",
      "outputs": [
        {
          "internalType": "address payable",
          "name": "",
          "type": "address"
        }
      ],
      "stateMutability": "view",
      "type": "function"
    },
    {
      "inputs": [],
      "name": "disableAllowList",
      "outputs": [],
      "stateMutability": "nonpayable",
      "type": "function"
    },
    {
      "inputs": [],
      "name": "enableAllowList",
      "outputs": [],
      "stateMutability": "nonpayable",
      "type": "function"
    },
    {
      "inputs": [
        {
          "internalType": "uint256",
          "name": "tokenId",
          "type": "uint256"
        }
      ],
      "name": "getApproved",
      "outputs": [
        {
          "internalType": "address",
          "name": "",
          "type": "address"
        }
      ],
      "stateMutability": "view",
      "type": "function"
    },
    {
      "inputs": [
        {
          "internalType": "address",
          "name": "addr",
          "type": "address"
        }
      ],
      "name": "isAllowlisted",
      "outputs": [
        {
          "internalType": "bool",
          "name": "",
          "type": "bool"
        }
      ],
      "stateMutability": "view",
      "type": "function"
    },
    {
      "inputs": [
        {
          "internalType": "address",
          "name": "owner",
          "type": "address"
        },
        {
          "internalType": "address",
          "name": "operator",
          "type": "address"
        }
      ],
      "name": "isApprovedForAll",
      "outputs": [
        {
          "internalType": "bool",
          "name": "",
          "type": "bool"
        }
      ],
      "stateMutability": "view",
      "type": "function"
    },
    {
      "inputs": [
        {
          "internalType": "address",
          "name": "addr",
          "type": "address"
        }
      ],
      "name": "isOwnerOrInAllowlisted",
      "outputs": [
        {
          "internalType": "bool",
          "name": "",
          "type": "bool"
        }
      ],
      "stateMutability": "view",
      "type": "function"
    },
    {
      "inputs": [],
      "name": "maxBatchMint",
      "outputs": [
        {
          "internalType": "uint256",
          "name": "",
          "type": "uint256"
        }
      ],
      "stateMutability": "view",
      "type": "function"
    },
    {
      "inputs": [],
      "name": "maxSupply",
      "outputs": [
        {
          "internalType": "uint256",
          "name": "",
          "type": "uint256"
        }
      ],
      "stateMutability": "view",
      "type": "function"
    },
    {
      "inputs": [],
      "name": "mintFee",
      "outputs": [
        {
          "internalType": "uint256",
          "name": "",
          "type": "uint256"
        }
      ],
      "stateMutability": "view",
      "type": "function"
    },
    {
      "inputs": [
        {
          "internalType": "address",
          "name": "to",
          "type": "address"
        }
      ],
      "name": "mintVault",
      "outputs": [],
      "stateMutability": "nonpayable",
      "type": "function"
    },
    {
      "inputs": [],
      "name": "name",
      "outputs": [
        {
          "internalType": "string",
          "name": "",
          "type": "string"
        }
      ],
      "stateMutability": "view",
      "type": "function"
    },
    {
      "inputs": [],
      "name": "owner",
      "outputs": [
        {
          "internalType": "address",
          "name": "",
          "type": "address"
        }
      ],
      "stateMutability": "view",
      "type": "function"
    },
    {
      "inputs": [
        {
          "internalType": "uint256",
          "name": "tokenId",
          "type": "uint256"
        }
      ],
      "name": "ownerOf",
      "outputs": [
        {
          "internalType": "address",
          "name": "",
          "type": "address"
        }
      ],
      "stateMutability": "view",
      "type": "function"
    },
    {
      "inputs": [],
      "name": "pause",
      "outputs": [],
      "stateMutability": "nonpayable",
      "type": "function"
    },
    {
      "inputs": [],
      "name": "paused",
      "outputs": [
        {
          "internalType": "bool",
          "name": "",
          "type": "bool"
        }
      ],
      "stateMutability": "view",
      "type": "function"
    },
    {
      "inputs": [
        {
          "internalType": "address",
          "name": "authorizer",
          "type": "address"
        }
      ],
      "name": "preAuthorizeRedeemer",
      "outputs": [],
      "stateMutability": "nonpayable",
      "type": "function"
    },
    {
      "inputs": [],
      "name": "redeemAuthorizer",
      "outputs": [
        {
          "internalType": "address",
          "name": "",
          "type": "address"
        }
      ],
      "stateMutability": "view",
      "type": "function"
    },
    {
      "inputs": [],
      "name": "renounceOwnership",
      "outputs": [],
      "stateMutability": "nonpayable",
      "type": "function"
    },
    {
      "inputs": [
        {
          "internalType": "address",
          "name": "to",
          "type": "address"
        }
      ],
      "name": "safeMint",
      "outputs": [],
      "stateMutability": "nonpayable",
      "type": "function"
    },
    {
      "inputs": [
        {
          "internalType": "address",
          "name": "to",
          "type": "address"
        },
        {
          "internalType": "string",
          "name": "uri",
          "type": "string"
        }
      ],
      "name": "safeMintUri",
      "outputs": [],
      "stateMutability": "nonpayable",
      "type": "function"
    },
    {
      "inputs": [
        {
          "internalType": "address",
          "name": "from",
          "type": "address"
        },
        {
          "internalType": "address",
          "name": "to",
          "type": "address"
        },
        {
          "internalType": "uint256",
          "name": "tokenId",
          "type": "uint256"
        }
      ],
      "name": "safeTransferFrom",
      "outputs": [],
      "stateMutability": "nonpayable",
      "type": "function"
    },
    {
      "inputs": [
        {
          "internalType": "address",
          "name": "from",
          "type": "address"
        },
        {
          "internalType": "address",
          "name": "to",
          "type": "address"
        },
        {
          "internalType": "uint256",
          "name": "tokenId",
          "type": "uint256"
        },
        {
          "internalType": "bytes",
          "name": "data",
          "type": "bytes"
        }
      ],
      "name": "safeTransferFrom",
      "outputs": [],
      "stateMutability": "nonpayable",
      "type": "function"
    },
    {
      "inputs": [
        {
          "internalType": "address",
          "name": "addr",
          "type": "address"
        },
        {
          "internalType": "bool",
          "name": "isAllowed",
          "type": "bool"
        }
      ],
      "name": "setAllowlistUser",
      "outputs": [],
      "stateMutability": "nonpayable",
      "type": "function"
    },
    {
      "inputs": [
        {
          "internalType": "address",
          "name": "operator",
          "type": "address"
        },
        {
          "internalType": "bool",
          "name": "approved",
          "type": "bool"
        }
      ],
      "name": "setApprovalForAll",
      "outputs": [],
      "stateMutability": "nonpayable",
      "type": "function"
    },
    {
      "inputs": [
        {
          "internalType": "string",
          "name": "baseUri",
          "type": "string"
        }
      ],
      "name": "setBaseUri",
      "outputs": [],
      "stateMutability": "nonpayable",
      "type": "function"
    },
    {
      "inputs": [
        {
          "internalType": "address payable",
          "name": "_destination",
          "type": "address"
        }
      ],
      "name": "setDestination",
      "outputs": [],
      "stateMutability": "nonpayable",
      "type": "function"
    },
    {
      "inputs": [
        {
          "internalType": "uint256",
          "name": "newMaxBatchMint",
          "type": "uint256"
        }
      ],
      "name": "setMaxBatchMint",
      "outputs": [],
      "stateMutability": "nonpayable",
      "type": "function"
    },
    {
      "inputs": [
        {
          "internalType": "uint256",
          "name": "newMaxSupply",
          "type": "uint256"
        }
      ],
      "name": "setMaxSupply",
      "outputs": [],
      "stateMutability": "nonpayable",
      "type": "function"
    },
    {
      "inputs": [
        {
          "internalType": "uint256",
          "name": "_mintFee",
          "type": "uint256"
        }
      ],
      "name": "setMintFee",
      "outputs": [],
      "stateMutability": "nonpayable",
      "type": "function"
    },
    {
      "inputs": [
        {
          "internalType": "bool",
          "name": "_singleNftMeta",
          "type": "bool"
        }
      ],
      "name": "setSingleNftMeta",
      "outputs": [],
      "stateMutability": "nonpayable",
      "type": "function"
    },
    {
      "inputs": [
        {
          "internalType": "contract IERC20",
          "name": "_token",
          "type": "address"
        }
      ],
      "name": "setToken",
      "outputs": [],
      "stateMutability": "nonpayable",
      "type": "function"
    },
    {
      "inputs": [],
      "name": "singleNftMeta",
      "outputs": [
        {
          "internalType": "bool",
          "name": "",
          "type": "bool"
        }
      ],
      "stateMutability": "view",
      "type": "function"
    },
    {
      "inputs": [
        {
          "internalType": "bytes4",
          "name": "interfaceId",
          "type": "bytes4"
        }
      ],
      "name": "supportsInterface",
      "outputs": [
        {
          "internalType": "bool",
          "name": "",
          "type": "bool"
        }
      ],
      "stateMutability": "view",
      "type": "function"
    },
    {
      "inputs": [],
      "name": "symbol",
      "outputs": [
        {
          "internalType": "string",
          "name": "",
          "type": "string"
        }
      ],
      "stateMutability": "view",
      "type": "function"
    },
    {
      "inputs": [],
      "name": "token",
      "outputs": [
        {
          "internalType": "contract IERC20",
          "name": "",
          "type": "address"
        }
      ],
      "stateMutability": "view",
      "type": "function"
    },
    {
      "inputs": [
        {
          "internalType": "uint256",
          "name": "index",
          "type": "uint256"
        }
      ],
      "name": "tokenByIndex",
      "outputs": [
        {
          "internalType": "uint256",
          "name": "",
          "type": "uint256"
        }
      ],
      "stateMutability": "view",
      "type": "function"
    },
    {
      "inputs": [
        {
          "internalType": "address",
          "name": "owner",
          "type": "address"
        },
        {
          "internalType": "uint256",
          "name": "index",
          "type": "uint256"
        }
      ],
      "name": "tokenOfOwnerByIndex",
      "outputs": [
        {
          "internalType": "uint256",
          "name": "",
          "type": "uint256"
        }
      ],
      "stateMutability": "view",
      "type": "function"
    },
    {
      "inputs": [
        {
          "internalType": "uint256",
          "name": "tokenId",
          "type": "uint256"
        }
      ],
      "name": "tokenURI",
      "outputs": [
        {
          "internalType": "string",
          "name": "",
          "type": "string"
        }
      ],
      "stateMutability": "view",
      "type": "function"
    },
    {
      "inputs": [],
      "name": "totalSupply",
      "outputs": [
        {
          "internalType": "uint256",
          "name": "",
          "type": "uint256"
        }
      ],
      "stateMutability": "view",
      "type": "function"
    },
    {
      "inputs": [
        {
          "internalType": "address",
          "name": "from",
          "type": "address"
        },
        {
          "internalType": "address",
          "name": "to",
          "type": "address"
        },
        {
          "internalType": "uint256",
          "name": "tokenId",
          "type": "uint256"
        }
      ],
      "name": "transferFrom",
      "outputs": [],
      "stateMutability": "nonpayable",
      "type": "function"
    },
    {
      "inputs": [
        {
          "internalType": "address",
          "name": "newOwner",
          "type": "address"
        }
      ],
      "name": "transferOwnership",
      "outputs": [],
      "stateMutability": "nonpayable",
      "type": "function"
    },
    {
      "inputs": [],
      "name": "unpause",
      "outputs": [],
      "stateMutability": "nonpayable",
      "type": "function"
    },
    {
      "inputs": [
        {
          "internalType": "uint256",
          "name": "amount",
          "type": "uint256"
        }
      ],
      "name": "withdraw",
      "outputs": [],
      "stateMutability": "nonpayable",
      "type": "function"
    }
  ],
  "transactionHash": "0xfc6ed39b47a2137a50e883689a71d447874e941cfc421a1dbec9ef1447643435",
  "args": [],
  "numDeployments": 1,
  "solcInputHash": "6d9fc9cb33c2bce31192c50fc358b71a",
  "bytecode": "0x60806040526001600d60006101000a81548160ff021916908315150217905550662386f26fc10000600f5561303960105560056011556001601260006101000a81548160ff021916908315150217905550739fe46736679d2d9a65f0992f2272de9f3c7fa6e0601560006101000a81548173ffffffffffffffffffffffffffffffffffffffff021916908373ffffffffffffffffffffffffffffffffffffffff160217905550348015620000b257600080fd5b506040518060400160405280600881526020017f5661756c744e66740000000000000000000000000000000000000000000000008152506040518060400160405280600381526020017f564c5400000000000000000000000000000000000000000000000000000000008152508160009081620001309190620004f9565b508060019081620001429190620004f9565b5050506000600b60006101000a81548160ff0219169083151502179055506200018062000174620001b160201b60201c565b620001b960201b60201c565b604051806080016040528060428152602001620062cc6042913960149081620001aa9190620004f9565b50620005e0565b600033905090565b6000600b60019054906101000a900473ffffffffffffffffffffffffffffffffffffffff16905081600b60016101000a81548173ffffffffffffffffffffffffffffffffffffffff021916908373ffffffffffffffffffffffffffffffffffffffff1602179055508173ffffffffffffffffffffffffffffffffffffffff168173ffffffffffffffffffffffffffffffffffffffff167f8be0079c531659141344cd1fd0a4f28419497f9722a3daafe3b4186f6b6457e060405160405180910390a35050565b600081519050919050565b7f4e487b7100000000000000000000000000000000000000000000000000000000600052604160045260246000fd5b7f4e487b7100000000000000000000000000000000000000000000000000000000600052602260045260246000fd5b600060028204905060018216806200030157607f821691505b602082108103620003175762000316620002b9565b5b50919050565b60008190508160005260206000209050919050565b60006020601f8301049050919050565b600082821b905092915050565b600060088302620003817fffffffffffffffffffffffffffffffffffffffffffffffffffffffffffffffff8262000342565b6200038d868362000342565b95508019841693508086168417925050509392505050565b6000819050919050565b6000819050919050565b6000620003da620003d4620003ce84620003a5565b620003af565b620003a5565b9050919050565b6000819050919050565b620003f683620003b9565b6200040e6200040582620003e1565b8484546200034f565b825550505050565b600090565b6200042562000416565b62000432818484620003eb565b505050565b5b818110156200045a576200044e6000826200041b565b60018101905062000438565b5050565b601f821115620004a95762000473816200031d565b6200047e8462000332565b810160208510156200048e578190505b620004a66200049d8562000332565b83018262000437565b50505b505050565b600082821c905092915050565b6000620004ce60001984600802620004ae565b1980831691505092915050565b6000620004e98383620004bb565b9150826002028217905092915050565b62000504826200027f565b67ffffffffffffffff81111562000520576200051f6200028a565b5b6200052c8254620002e8565b620005398282856200045e565b600060209050601f8311600181146200057157600084156200055c578287015190505b620005688582620004db565b865550620005d8565b601f19841662000581866200031d565b60005b82811015620005ab5784890151825560018201915060208501945060208101905062000584565b86831015620005cb5784890151620005c7601f891682620004bb565b8355505b6001600288020188555050505b505050505050565b615cdc80620005f06000396000f3fe608060405234801561001057600080fd5b506004361061035d5760003560e01c80636c0360eb116101d3578063a7adf96411610104578063d5abeb01116100a2578063eddd0d9c1161007c578063eddd0d9c146109ba578063f2afd399146109d6578063f2fde38b146109f2578063fc0c546a14610a0e5761035d565b8063d5abeb0114610962578063dc2fbaee14610980578063e985e9c51461098a5761035d565b8063b88d4fde116100de578063b88d4fde146108ca578063c1a7fcc0146108e6578063c87b56dd14610916578063d31f9395146109465761035d565b8063a7adf9641461085e578063a7cd52cb1461087c578063b269681d146108ac5761035d565b80638456cb591161017157806395d89b411161014b57806395d89b41146107d8578063990c006d146107f6578063a0bcfc7f14610826578063a22cb465146108425761035d565b80638456cb59146107945780638b38d27c1461079e5780638da5cb5b146107ba5761035d565b806370a08231116101ad57806370a0823114610720578063715018a6146107505780637a3680301461075a578063834029ba1461078a5761035d565b80636c0360eb146106ca5780636f8b44b0146106e85780637065ec39146107045761035d565b80632f745c59116102ad578063471676bb1161024b5780635a9c787f116102255780635a9c787f146106425780635c975abb146106605780636352211e1461067e5780636494a5be146106ae5761035d565b8063471676bb146105da5780634f6ccce7146105f6578063582d6422146106265761035d565b806340d097c31161028757806340d097c31461056a57806342842e0e1461058657806342966c68146105a2578063450d624d146105be5761035d565b80632f745c59146105145780633045b241146105445780633f4ba83a146105605761035d565b80630a0a05e61161031a57806318160ddd116102f457806318160ddd146104a057806322bd5c1c146104be57806323b872dd146104dc5780632e1a7d4d146104f85761035d565b80630a0a05e61461044a57806313966db514610466578063144fa6d7146104845761035d565b806301ffc9a71461036257806305a3b8091461039257806306fdde03146103c2578063081812fc146103e0578063095ea7b31461041057806309a3a9c11461042c575b600080fd5b61037c60048036038101906103779190613d4b565b610a2c565b6040516103899190613d93565b60405180910390f35b6103ac60048036038101906103a79190613e0c565b610a3e565b6040516103b99190613d93565b60405180910390f35b6103ca610a94565b6040516103d79190613ec9565b60405180910390f35b6103fa60048036038101906103f59190613f21565b610b26565b6040516104079190613f5d565b60405180910390f35b61042a60048036038101906104259190613f78565b610b6c565b005b610434610c83565b6040516104419190613fc7565b60405180910390f35b610464600480360381019061045f9190614020565b610c89565b005b61046e610cd5565b60405161047b9190613fc7565b60405180910390f35b61049e6004803603810190610499919061408b565b610cdb565b005b6104a8610e2c565b6040516104b59190613fc7565b60405180910390f35b6104c6610e39565b6040516104d39190613d93565b60405180910390f35b6104f660048036038101906104f191906140b8565b610e4c565b005b610512600480360381019061050d9190613f21565b610eac565b005b61052e60048036038101906105299190613f78565b610fbe565b60405161053b9190613fc7565b60405180910390f35b61055e60048036038101906105599190614137565b611063565b005b610568611079565b005b610584600480360381019061057f9190613e0c565b61108b565b005b6105a0600480360381019061059b91906140b8565b6110b9565b005b6105bc60048036038101906105b79190613f21565b6110d9565b005b6105d860048036038101906105d39190614177565b611135565b005b6105f460048036038101906105ef91906142d9565b61115a565b005b610610600480360381019061060b9190613f21565b611193565b60405161061d9190613fc7565b60405180910390f35b610640600480360381019061063b9190613f78565b611204565b005b61064a611445565b6040516106579190613f5d565b60405180910390f35b61066861146b565b6040516106759190613d93565b60405180910390f35b61069860048036038101906106939190613f21565b611482565b6040516106a59190613f5d565b60405180910390f35b6106c860048036038101906106c39190613e0c565b611508565b005b6106d2611554565b6040516106df9190613ec9565b60405180910390f35b61070260048036038101906106fd9190613f21565b6115e2565b005b61071e60048036038101906107199190613f21565b611638565b005b61073a60048036038101906107359190613e0c565b6116d4565b6040516107479190613fc7565b60405180910390f35b61075861178b565b005b610774600480360381019061076f9190613e0c565b61179f565b6040516107819190613fc7565b60405180910390f35b610792611846565b005b61079c611858565b005b6107b860048036038101906107b391906140b8565b61186a565b005b6107c261191a565b6040516107cf9190613f5d565b60405180910390f35b6107e0611944565b6040516107ed9190613ec9565b60405180910390f35b610810600480360381019061080b9190613e0c565b6119d6565b60405161081d9190613d93565b60405180910390f35b610840600480360381019061083b9190614395565b611a77565b005b61085c60048036038101906108579190614137565b611a95565b005b610866611aab565b6040516108739190613d93565b60405180910390f35b61089660048036038101906108919190613e0c565b611abe565b6040516108a39190613d93565b60405180910390f35b6108b4611ade565b6040516108c191906143f1565b60405180910390f35b6108e460048036038101906108df91906144ad565b611b04565b005b61090060048036038101906108fb9190613f21565b611b66565b60405161090d9190613d93565b60405180910390f35b610930600480360381019061092b9190613f21565b611c0f565b60405161093d9190613ec9565b60405180910390f35b610960600480360381019061095b9190613f21565b611c61565b005b61096a611cb7565b6040516109779190613fc7565b60405180910390f35b610988611cbd565b005b6109a4600480360381019061099f9190614530565b611ccf565b6040516109b19190613d93565b60405180910390f35b6109d460048036038101906109cf9190613f21565b611d63565b005b6109f060048036038101906109eb9190613e0c565b611d75565b005b610a0c6004803603810190610a079190613e0c565b611f34565b005b610a16611fb7565b604051610a2391906145cf565b60405180910390f35b6000610a3782611fdd565b9050919050565b6000600c60008373ffffffffffffffffffffffffffffffffffffffff1673ffffffffffffffffffffffffffffffffffffffff16815260200190815260200160002060009054906101000a900460ff169050919050565b606060008054610aa390614619565b80601f0160208091040260200160405190810160405280929190818152602001828054610acf90614619565b8015610b1c5780601f10610af157610100808354040283529160200191610b1c565b820191906000526020600020905b815481529060010190602001808311610aff57829003601f168201915b5050505050905090565b6000610b318261203e565b6004600083815260200190815260200160002060009054906101000a900473ffffffffffffffffffffffffffffffffffffffff169050919050565b6000610b7782611482565b90508073ffffffffffffffffffffffffffffffffffffffff168373ffffffffffffffffffffffffffffffffffffffff1603610be7576040517f08c379a0000000000000000000000000000000000000000000000000000000008152600401610bde906146bc565b60405180910390fd5b8073ffffffffffffffffffffffffffffffffffffffff16610c06612089565b73ffffffffffffffffffffffffffffffffffffffff161480610c355750610c3481610c2f612089565b611ccf565b5b610c74576040517f08c379a0000000000000000000000000000000000000000000000000000000008152600401610c6b9061474e565b60405180910390fd5b610c7e8383612091565b505050565b60115481565b610c9161214a565b80601360006101000a81548173ffffffffffffffffffffffffffffffffffffffff021916908373ffffffffffffffffffffffffffffffffffffffff16021790555050565b600f5481565b610ce361214a565b80601560006101000a81548173ffffffffffffffffffffffffffffffffffffffff021916908373ffffffffffffffffffffffffffffffffffffffff1602179055506000601560009054906101000a900473ffffffffffffffffffffffffffffffffffffffff1673ffffffffffffffffffffffffffffffffffffffff1663095ea7b3307fffffffffffffffffffffffffffffffffffffffffffffffffffffffffffffffff6040518363ffffffff1660e01b8152600401610da392919061476e565b6020604051808303816000875af1158015610dc2573d6000803e3d6000fd5b505050506040513d601f19601f82011682018060405250810190610de691906147ac565b905080610e28576040517f08c379a0000000000000000000000000000000000000000000000000000000008152600401610e1f90614825565b60405180910390fd5b5050565b6000600880549050905090565b600d60009054906101000a900460ff1681565b610e5d610e57612089565b826121c8565b610e9c576040517f08c379a0000000000000000000000000000000000000000000000000000000008152600401610e93906148b7565b60405180910390fd5b610ea783838361225d565b505050565b610eb461214a565b6000601560009054906101000a900473ffffffffffffffffffffffffffffffffffffffff1673ffffffffffffffffffffffffffffffffffffffff1663a9059cbb601360009054906101000a900473ffffffffffffffffffffffffffffffffffffffff16846040518363ffffffff1660e01b8152600401610f359291906148f8565b6020604051808303816000875af1158015610f54573d6000803e3d6000fd5b505050506040513d601f19601f82011682018060405250810190610f7891906147ac565b905080610fba576040517f08c379a0000000000000000000000000000000000000000000000000000000008152600401610fb19061496d565b60405180910390fd5b5050565b6000610fc9836116d4565b821061100a576040517f08c379a0000000000000000000000000000000000000000000000000000000008152600401611001906149ff565b60405180910390fd5b600660008473ffffffffffffffffffffffffffffffffffffffff1673ffffffffffffffffffffffffffffffffffffffff168152602001908152602001600020600083815260200190815260200160002054905092915050565b61106b61214a565b6110758282612556565b5050565b61108161214a565b611089612659565b565b61109361214a565b600061109f600e6126bc565b90506110ab600e6126ca565b6110b582826126e0565b5050565b6110d483838360405180602001604052806000815250611b04565b505050565b6110ea6110e4612089565b826121c8565b611129576040517f08c379a0000000000000000000000000000000000000000000000000000000008152600401611120906148b7565b60405180910390fd5b611132816126fe565b50565b61113d61214a565b80601260006101000a81548160ff02191690831515021790555050565b61116261214a565b600061116e600e6126bc565b905061117a600e6126ca565b61118483826126e0565b61118e818361270a565b505050565b600061119d610e2c565b82106111de576040517f08c379a00000000000000000000000000000000000000000000000000000000081526004016111d590614a91565b60405180910390fd5b600882815481106111f2576111f1614ab1565b5b90600052602060002001549050919050565b600d60009054906101000a900460ff161561126957611229611224612089565b610a3e565b611268576040517f08c379a000000000000000000000000000000000000000000000000000000000815260040161125f90614b52565b60405180910390fd5b5b6011548111156112ae576040517f08c379a00000000000000000000000000000000000000000000000000000000081526004016112a590614be4565b60405180910390fd5b601054816112ba610e2c565b6112c49190614c33565b1115611305576040517f08c379a00000000000000000000000000000000000000000000000000000000081526004016112fc90614cb3565b60405180910390fd5b6000600f54826113159190614cd3565b90506000601560009054906101000a900473ffffffffffffffffffffffffffffffffffffffff1673ffffffffffffffffffffffffffffffffffffffff166323b872dd3330856040518463ffffffff1660e01b815260040161137893929190614d15565b6020604051808303816000875af1158015611397573d6000803e3d6000fd5b505050506040513d601f19601f820116820180604052508101906113bb91906147ac565b9050806113fd576040517f08c379a00000000000000000000000000000000000000000000000000000000081526004016113f49061496d565b60405180910390fd5b60005b8381101561143e576000611414600e6126bc565b9050611420600e6126ca565b61142a86826126e0565b50808061143690614d4c565b915050611400565b5050505050565b601260019054906101000a900473ffffffffffffffffffffffffffffffffffffffff1681565b6000600b60009054906101000a900460ff16905090565b60008061148e836127ae565b9050600073ffffffffffffffffffffffffffffffffffffffff168173ffffffffffffffffffffffffffffffffffffffff16036114ff576040517f08c379a00000000000000000000000000000000000000000000000000000000081526004016114f690614de0565b60405180910390fd5b80915050919050565b61151061214a565b80601260016101000a81548173ffffffffffffffffffffffffffffffffffffffff021916908373ffffffffffffffffffffffffffffffffffffffff16021790555050565b6014805461156190614619565b80601f016020809104026020016040519081016040528092919081815260200182805461158d90614619565b80156115da5780601f106115af576101008083540402835291602001916115da565b820191906000526020600020905b8154815290600101906020018083116115bd57829003601f168201915b505050505081565b6115ea61214a565b600081101561162e576040517f08c379a000000000000000000000000000000000000000000000000000000000815260040161162590614e4c565b60405180910390fd5b8060108190555050565b601260019054906101000a900473ffffffffffffffffffffffffffffffffffffffff1673ffffffffffffffffffffffffffffffffffffffff163373ffffffffffffffffffffffffffffffffffffffff16146116c8576040517f08c379a00000000000000000000000000000000000000000000000000000000081526004016116bf90614eb8565b60405180910390fd5b6116d1816126fe565b50565b60008073ffffffffffffffffffffffffffffffffffffffff168273ffffffffffffffffffffffffffffffffffffffff1603611744576040517f08c379a000000000000000000000000000000000000000000000000000000000815260040161173b90614f4a565b60405180910390fd5b600360008373ffffffffffffffffffffffffffffffffffffffff1673ffffffffffffffffffffffffffffffffffffffff168152602001908152602001600020549050919050565b61179361214a565b61179d60006127eb565b565b6000601560009054906101000a900473ffffffffffffffffffffffffffffffffffffffff1673ffffffffffffffffffffffffffffffffffffffff1663dd62ed3e83306040518363ffffffff1660e01b81526004016117fe929190614f6a565b602060405180830381865afa15801561181b573d6000803e3d6000fd5b505050506040513d601f19601f8201168201806040525081019061183f9190614fa8565b9050919050565b61184e61214a565b6118566128b1565b565b61186061214a565b6118686128fa565b565b601260019054906101000a900473ffffffffffffffffffffffffffffffffffffffff1673ffffffffffffffffffffffffffffffffffffffff163373ffffffffffffffffffffffffffffffffffffffff16146118fa576040517f08c379a00000000000000000000000000000000000000000000000000000000081526004016118f190615047565b60405180910390fd5b6119158383836040518060200160405280600081525061295d565b505050565b6000600b60019054906101000a900473ffffffffffffffffffffffffffffffffffffffff16905090565b60606001805461195390614619565b80601f016020809104026020016040519081016040528092919081815260200182805461197f90614619565b80156119cc5780601f106119a1576101008083540402835291602001916119cc565b820191906000526020600020905b8154815290600101906020018083116119af57829003601f168201915b5050505050905090565b60006119e0612089565b73ffffffffffffffffffffffffffffffffffffffff166119fe61191a565b73ffffffffffffffffffffffffffffffffffffffff1603611a225760019050611a72565b600c60008373ffffffffffffffffffffffffffffffffffffffff1673ffffffffffffffffffffffffffffffffffffffff16815260200190815260200160002060009054906101000a900460ff1690505b919050565b611a7f61214a565b818160149182611a90929190615214565b505050565b611aa7611aa0612089565b83836129b9565b5050565b601260009054906101000a900460ff1681565b600c6020528060005260406000206000915054906101000a900460ff1681565b601360009054906101000a900473ffffffffffffffffffffffffffffffffffffffff1681565b611b15611b0f612089565b836121c8565b611b54576040517f08c379a0000000000000000000000000000000000000000000000000000000008152600401611b4b906148b7565b60405180910390fd5b611b608484848461295d565b50505050565b6000601560009054906101000a900473ffffffffffffffffffffffffffffffffffffffff1673ffffffffffffffffffffffffffffffffffffffff1663095ea7b330846040518363ffffffff1660e01b8152600401611bc592919061476e565b6020604051808303816000875af1158015611be4573d6000803e3d6000fd5b505050506040513d601f19601f82011682018060405250810190611c0891906147ac565b9050919050565b6060611c1a8261203e565b6000611c24612b25565b9050601260009054906101000a900460ff1615611c4f57600081511115611c4e5780915050611c5c565b5b611c5883612bb7565b9150505b919050565b611c6961214a565b6000811015611cad576040517f08c379a0000000000000000000000000000000000000000000000000000000008152600401611ca490615330565b60405180910390fd5b8060118190555050565b60105481565b611cc561214a565b611ccd612cc9565b565b6000600560008473ffffffffffffffffffffffffffffffffffffffff1673ffffffffffffffffffffffffffffffffffffffff16815260200190815260200160002060008373ffffffffffffffffffffffffffffffffffffffff1673ffffffffffffffffffffffffffffffffffffffff16815260200190815260200160002060009054906101000a900460ff16905092915050565b611d6b61214a565b80600f8190555050565b600d60009054906101000a900460ff1615611dda57611d9a611d95612089565b610a3e565b611dd9576040517f08c379a0000000000000000000000000000000000000000000000000000000008152600401611dd090614b52565b60405180910390fd5b5b601054611de5610e2c565b10611e25576040517f08c379a0000000000000000000000000000000000000000000000000000000008152600401611e1c90614cb3565b60405180910390fd5b6000601560009054906101000a900473ffffffffffffffffffffffffffffffffffffffff1673ffffffffffffffffffffffffffffffffffffffff166323b872dd3330600f546040518463ffffffff1660e01b8152600401611e8893929190614d15565b6020604051808303816000875af1158015611ea7573d6000803e3d6000fd5b505050506040513d601f19601f82011682018060405250810190611ecb91906147ac565b905080611f0d576040517f08c379a0000000000000000000000000000000000000000000000000000000008152600401611f049061496d565b60405180910390fd5b6000611f19600e6126bc565b9050611f25600e6126ca565b611f2f83826126e0565b505050565b611f3c61214a565b600073ffffffffffffffffffffffffffffffffffffffff168173ffffffffffffffffffffffffffffffffffffffff1603611fab576040517f08c379a0000000000000000000000000000000000000000000000000000000008152600401611fa2906153c2565b60405180910390fd5b611fb4816127eb565b50565b601560009054906101000a900473ffffffffffffffffffffffffffffffffffffffff1681565b6000634906490660e01b7bffffffffffffffffffffffffffffffffffffffffffffffffffffffff1916827bffffffffffffffffffffffffffffffffffffffffffffffffffffffff19161480612037575061203682612d12565b5b9050919050565b61204781612d8c565b612086576040517f08c379a000000000000000000000000000000000000000000000000000000000815260040161207d90614de0565b60405180910390fd5b50565b600033905090565b816004600083815260200190815260200160002060006101000a81548173ffffffffffffffffffffffffffffffffffffffff021916908373ffffffffffffffffffffffffffffffffffffffff160217905550808273ffffffffffffffffffffffffffffffffffffffff1661210483611482565b73ffffffffffffffffffffffffffffffffffffffff167f8c5be1e5ebec7d5bd14f71427d1e84f3dd0314c0f7b2291e5b200ac8c7c3b92560405160405180910390a45050565b612152612089565b73ffffffffffffffffffffffffffffffffffffffff1661217061191a565b73ffffffffffffffffffffffffffffffffffffffff16146121c6576040517f08c379a00000000000000000000000000000000000000000000000000000000081526004016121bd9061542e565b60405180910390fd5b565b6000806121d483611482565b90508073ffffffffffffffffffffffffffffffffffffffff168473ffffffffffffffffffffffffffffffffffffffff16148061221657506122158185611ccf565b5b8061225457508373ffffffffffffffffffffffffffffffffffffffff1661223c84610b26565b73ffffffffffffffffffffffffffffffffffffffff16145b91505092915050565b8273ffffffffffffffffffffffffffffffffffffffff1661227d82611482565b73ffffffffffffffffffffffffffffffffffffffff16146122d3576040517f08c379a00000000000000000000000000000000000000000000000000000000081526004016122ca906154c0565b60405180910390fd5b600073ffffffffffffffffffffffffffffffffffffffff168273ffffffffffffffffffffffffffffffffffffffff1603612342576040517f08c379a000000000000000000000000000000000000000000000000000000000815260040161233990615552565b60405180910390fd5b61234f8383836001612dcd565b8273ffffffffffffffffffffffffffffffffffffffff1661236f82611482565b73ffffffffffffffffffffffffffffffffffffffff16146123c5576040517f08c379a00000000000000000000000000000000000000000000000000000000081526004016123bc906154c0565b60405180910390fd5b6004600082815260200190815260200160002060006101000a81549073ffffffffffffffffffffffffffffffffffffffff02191690556001600360008573ffffffffffffffffffffffffffffffffffffffff1673ffffffffffffffffffffffffffffffffffffffff168152602001908152602001600020600082825403925050819055506001600360008473ffffffffffffffffffffffffffffffffffffffff1673ffffffffffffffffffffffffffffffffffffffff16815260200190815260200160002060008282540192505081905550816002600083815260200190815260200160002060006101000a81548173ffffffffffffffffffffffffffffffffffffffff021916908373ffffffffffffffffffffffffffffffffffffffff160217905550808273ffffffffffffffffffffffffffffffffffffffff168473ffffffffffffffffffffffffffffffffffffffff167fddf252ad1be2c89b69c2b068fc378daa952ba7f163c4a11628f55a4df523b3ef60405160405180910390a46125518383836001612de7565b505050565b600073ffffffffffffffffffffffffffffffffffffffff168273ffffffffffffffffffffffffffffffffffffffff16036125c5576040517f08c379a00000000000000000000000000000000000000000000000000000000081526004016125bc906155e4565b60405180910390fd5b80600c60008473ffffffffffffffffffffffffffffffffffffffff1673ffffffffffffffffffffffffffffffffffffffff16815260200190815260200160002060006101000a81548160ff0219169083151502179055507f01883a2ded2d11a676263b3edca3878eec2c68618ae55db0314bebd4b9561b23828260405161264d929190615604565b60405180910390a15050565b612661612ded565b6000600b60006101000a81548160ff0219169083151502179055507f5db9ee0a495bf2e6ff9c91a7834c1ba4fdd244a5e8aa4e537bd38aeae4b073aa6126a5612089565b6040516126b29190613f5d565b60405180910390a1565b600081600001549050919050565b6001816000016000828254019250508190555050565b6126fa828260405180602001604052806000815250612e36565b5050565b61270781612e91565b50565b61271382612d8c565b612752576040517f08c379a00000000000000000000000000000000000000000000000000000000081526004016127499061569f565b60405180910390fd5b80600a6000848152602001908152602001600020908161277291906156bf565b507ff8e1a15aba9398e019f0b49df1a4fde98ee17ae345cb5f6b5e2c27f5033e8ce7826040516127a29190613fc7565b60405180910390a15050565b60006002600083815260200190815260200160002060009054906101000a900473ffffffffffffffffffffffffffffffffffffffff169050919050565b6000600b60019054906101000a900473ffffffffffffffffffffffffffffffffffffffff16905081600b60016101000a81548173ffffffffffffffffffffffffffffffffffffffff021916908373ffffffffffffffffffffffffffffffffffffffff1602179055508173ffffffffffffffffffffffffffffffffffffffff168173ffffffffffffffffffffffffffffffffffffffff167f8be0079c531659141344cd1fd0a4f28419497f9722a3daafe3b4186f6b6457e060405160405180910390a35050565b6000600d60006101000a81548160ff0219169083151502179055507f17deb57f2c665512f91ec43836987faa802c8cd173a69f704a39155e48a40a2560405160405180910390a1565b612902612ee4565b6001600b60006101000a81548160ff0219169083151502179055507f62e78cea01bee320cd4e420270b5ea74000d11b0c9f74754ebdbfc544b05a258612946612089565b6040516129539190613f5d565b60405180910390a1565b61296884848461225d565b61297484848484612f2e565b6129b3576040517f08c379a00000000000000000000000000000000000000000000000000000000081526004016129aa90615803565b60405180910390fd5b50505050565b8173ffffffffffffffffffffffffffffffffffffffff168373ffffffffffffffffffffffffffffffffffffffff1603612a27576040517f08c379a0000000000000000000000000000000000000000000000000000000008152600401612a1e9061586f565b60405180910390fd5b80600560008573ffffffffffffffffffffffffffffffffffffffff1673ffffffffffffffffffffffffffffffffffffffff16815260200190815260200160002060008473ffffffffffffffffffffffffffffffffffffffff1673ffffffffffffffffffffffffffffffffffffffff16815260200190815260200160002060006101000a81548160ff0219169083151502179055508173ffffffffffffffffffffffffffffffffffffffff168373ffffffffffffffffffffffffffffffffffffffff167f17307eab39ab6107e8899845ad3d59bd9653f200f220920489ca2b5937696c3183604051612b189190613d93565b60405180910390a3505050565b606060148054612b3490614619565b80601f0160208091040260200160405190810160405280929190818152602001828054612b6090614619565b8015612bad5780601f10612b8257610100808354040283529160200191612bad565b820191906000526020600020905b815481529060010190602001808311612b9057829003601f168201915b5050505050905090565b6060612bc28261203e565b6000600a60008481526020019081526020016000208054612be290614619565b80601f0160208091040260200160405190810160405280929190818152602001828054612c0e90614619565b8015612c5b5780601f10612c3057610100808354040283529160200191612c5b565b820191906000526020600020905b815481529060010190602001808311612c3e57829003601f168201915b505050505090506000612c6c612b25565b90506000815103612c81578192505050612cc4565b600082511115612cb6578082604051602001612c9e9291906158cb565b60405160208183030381529060405292505050612cc4565b612cbf846130b5565b925050505b919050565b6001600d60006101000a81548160ff0219169083151502179055507ff1917d42b61041c8a637919d5c23a9a559d72e57633d21cfe88c46b0fa01b6b960405160405180910390a1565b60007f780e9d63000000000000000000000000000000000000000000000000000000007bffffffffffffffffffffffffffffffffffffffffffffffffffffffff1916827bffffffffffffffffffffffffffffffffffffffffffffffffffffffff19161480612d855750612d848261311d565b5b9050919050565b60008073ffffffffffffffffffffffffffffffffffffffff16612dae836127ae565b73ffffffffffffffffffffffffffffffffffffffff1614159050919050565b612dd5612ee4565b612de1848484846131ff565b50505050565b50505050565b612df561146b565b612e34576040517f08c379a0000000000000000000000000000000000000000000000000000000008152600401612e2b9061593b565b60405180910390fd5b565b612e40838361335d565b612e4d6000848484612f2e565b612e8c576040517f08c379a0000000000000000000000000000000000000000000000000000000008152600401612e8390615803565b60405180910390fd5b505050565b612e9a8161357a565b6000600a60008381526020019081526020016000208054612eba90614619565b905014612ee157600a60008281526020019081526020016000206000612ee09190613c82565b5b50565b612eec61146b565b15612f2c576040517f08c379a0000000000000000000000000000000000000000000000000000000008152600401612f23906159a7565b60405180910390fd5b565b6000612f4f8473ffffffffffffffffffffffffffffffffffffffff166136c8565b156130a8578373ffffffffffffffffffffffffffffffffffffffff1663150b7a02612f78612089565b8786866040518563ffffffff1660e01b8152600401612f9a9493929190615a1c565b6020604051808303816000875af1925050508015612fd657506040513d601f19601f82011682018060405250810190612fd39190615a7d565b60015b613058573d8060008114613006576040519150601f19603f3d011682016040523d82523d6000602084013e61300b565b606091505b506000815103613050576040517f08c379a000000000000000000000000000000000000000000000000000000000815260040161304790615803565b60405180910390fd5b805181602001fd5b63150b7a0260e01b7bffffffffffffffffffffffffffffffffffffffffffffffffffffffff1916817bffffffffffffffffffffffffffffffffffffffffffffffffffffffff1916149150506130ad565b600190505b949350505050565b60606130c08261203e565b60006130ca612b25565b905060008151116130ea5760405180602001604052806000815250613115565b806130f4846136eb565b6040516020016131059291906158cb565b6040516020818303038152906040525b915050919050565b60007f80ac58cd000000000000000000000000000000000000000000000000000000007bffffffffffffffffffffffffffffffffffffffffffffffffffffffff1916827bffffffffffffffffffffffffffffffffffffffffffffffffffffffff191614806131e857507f5b5e139f000000000000000000000000000000000000000000000000000000007bffffffffffffffffffffffffffffffffffffffffffffffffffffffff1916827bffffffffffffffffffffffffffffffffffffffffffffffffffffffff1916145b806131f857506131f7826137b9565b5b9050919050565b61320b84848484613823565b600181111561324f576040517f08c379a000000000000000000000000000000000000000000000000000000000815260040161324690615b1c565b60405180910390fd5b6000829050600073ffffffffffffffffffffffffffffffffffffffff168573ffffffffffffffffffffffffffffffffffffffff16036132965761329181613829565b6132d5565b8373ffffffffffffffffffffffffffffffffffffffff168573ffffffffffffffffffffffffffffffffffffffff16146132d4576132d38582613872565b5b5b600073ffffffffffffffffffffffffffffffffffffffff168473ffffffffffffffffffffffffffffffffffffffff160361331757613312816139df565b613356565b8473ffffffffffffffffffffffffffffffffffffffff168473ffffffffffffffffffffffffffffffffffffffff1614613355576133548482613ab0565b5b5b5050505050565b600073ffffffffffffffffffffffffffffffffffffffff168273ffffffffffffffffffffffffffffffffffffffff16036133cc576040517f08c379a00000000000000000000000000000000000000000000000000000000081526004016133c390615b88565b60405180910390fd5b6133d581612d8c565b15613415576040517f08c379a000000000000000000000000000000000000000000000000000000000815260040161340c90615bf4565b60405180910390fd5b613423600083836001612dcd565b61342c81612d8c565b1561346c576040517f08c379a000000000000000000000000000000000000000000000000000000000815260040161346390615bf4565b60405180910390fd5b6001600360008473ffffffffffffffffffffffffffffffffffffffff1673ffffffffffffffffffffffffffffffffffffffff16815260200190815260200160002060008282540192505081905550816002600083815260200190815260200160002060006101000a81548173ffffffffffffffffffffffffffffffffffffffff021916908373ffffffffffffffffffffffffffffffffffffffff160217905550808273ffffffffffffffffffffffffffffffffffffffff16600073ffffffffffffffffffffffffffffffffffffffff167fddf252ad1be2c89b69c2b068fc378daa952ba7f163c4a11628f55a4df523b3ef60405160405180910390a4613576600083836001612de7565b5050565b600061358582611482565b9050613595816000846001612dcd565b61359e82611482565b90506004600083815260200190815260200160002060006101000a81549073ffffffffffffffffffffffffffffffffffffffff02191690556001600360008373ffffffffffffffffffffffffffffffffffffffff1673ffffffffffffffffffffffffffffffffffffffff168152602001908152602001600020600082825403925050819055506002600083815260200190815260200160002060006101000a81549073ffffffffffffffffffffffffffffffffffffffff021916905581600073ffffffffffffffffffffffffffffffffffffffff168273ffffffffffffffffffffffffffffffffffffffff167fddf252ad1be2c89b69c2b068fc378daa952ba7f163c4a11628f55a4df523b3ef60405160405180910390a46136c4816000846001612de7565b5050565b6000808273ffffffffffffffffffffffffffffffffffffffff163b119050919050565b6060600060016136fa84613b2f565b01905060008167ffffffffffffffff811115613719576137186141ae565b5b6040519080825280601f01601f19166020018201604052801561374b5781602001600182028036833780820191505090505b509050600082602001820190505b6001156137ae578080600190039150507f3031323334353637383961626364656600000000000000000000000000000000600a86061a8153600a85816137a2576137a1615c14565b5b04945060008503613759575b819350505050919050565b60007f01ffc9a7000000000000000000000000000000000000000000000000000000007bffffffffffffffffffffffffffffffffffffffffffffffffffffffff1916827bffffffffffffffffffffffffffffffffffffffffffffffffffffffff1916149050919050565b50505050565b6008805490506009600083815260200190815260200160002081905550600881908060018154018082558091505060019003906000526020600020016000909190919091505550565b6000600161387f846116d4565b6138899190615c43565b905060006007600084815260200190815260200160002054905081811461396e576000600660008673ffffffffffffffffffffffffffffffffffffffff1673ffffffffffffffffffffffffffffffffffffffff168152602001908152602001600020600084815260200190815260200160002054905080600660008773ffffffffffffffffffffffffffffffffffffffff1673ffffffffffffffffffffffffffffffffffffffff168152602001908152602001600020600084815260200190815260200160002081905550816007600083815260200190815260200160002081905550505b6007600084815260200190815260200160002060009055600660008573ffffffffffffffffffffffffffffffffffffffff1673ffffffffffffffffffffffffffffffffffffffff16815260200190815260200160002060008381526020019081526020016000206000905550505050565b600060016008805490506139f39190615c43565b9050600060096000848152602001908152602001600020549050600060088381548110613a2357613a22614ab1565b5b906000526020600020015490508060088381548110613a4557613a44614ab1565b5b906000526020600020018190555081600960008381526020019081526020016000208190555060096000858152602001908152602001600020600090556008805480613a9457613a93615c77565b5b6001900381819060005260206000200160009055905550505050565b6000613abb836116d4565b905081600660008573ffffffffffffffffffffffffffffffffffffffff1673ffffffffffffffffffffffffffffffffffffffff168152602001908152602001600020600083815260200190815260200160002081905550806007600084815260200190815260200160002081905550505050565b600080600090507a184f03e93ff9f4daa797ed6e38ed64bf6a1f0100000000000000008310613b8d577a184f03e93ff9f4daa797ed6e38ed64bf6a1f0100000000000000008381613b8357613b82615c14565b5b0492506040810190505b6d04ee2d6d415b85acef81000000008310613bca576d04ee2d6d415b85acef81000000008381613bc057613bbf615c14565b5b0492506020810190505b662386f26fc100008310613bf957662386f26fc100008381613bef57613bee615c14565b5b0492506010810190505b6305f5e1008310613c22576305f5e1008381613c1857613c17615c14565b5b0492506008810190505b6127108310613c47576127108381613c3d57613c3c615c14565b5b0492506004810190505b60648310613c6a5760648381613c6057613c5f615c14565b5b0492506002810190505b600a8310613c79576001810190505b80915050919050565b508054613c8e90614619565b6000825580601f10613ca05750613cbf565b601f016020900490600052602060002090810190613cbe9190613cc2565b5b50565b5b80821115613cdb576000816000905550600101613cc3565b5090565b6000604051905090565b600080fd5b600080fd5b60007fffffffff0000000000000000000000000000000000000000000000000000000082169050919050565b613d2881613cf3565b8114613d3357600080fd5b50565b600081359050613d4581613d1f565b92915050565b600060208284031215613d6157613d60613ce9565b5b6000613d6f84828501613d36565b91505092915050565b60008115159050919050565b613d8d81613d78565b82525050565b6000602082019050613da86000830184613d84565b92915050565b600073ffffffffffffffffffffffffffffffffffffffff82169050919050565b6000613dd982613dae565b9050919050565b613de981613dce565b8114613df457600080fd5b50565b600081359050613e0681613de0565b92915050565b600060208284031215613e2257613e21613ce9565b5b6000613e3084828501613df7565b91505092915050565b600081519050919050565b600082825260208201905092915050565b60005b83811015613e73578082015181840152602081019050613e58565b60008484015250505050565b6000601f19601f8301169050919050565b6000613e9b82613e39565b613ea58185613e44565b9350613eb5818560208601613e55565b613ebe81613e7f565b840191505092915050565b60006020820190508181036000830152613ee38184613e90565b905092915050565b6000819050919050565b613efe81613eeb565b8114613f0957600080fd5b50565b600081359050613f1b81613ef5565b92915050565b600060208284031215613f3757613f36613ce9565b5b6000613f4584828501613f0c565b91505092915050565b613f5781613dce565b82525050565b6000602082019050613f726000830184613f4e565b92915050565b60008060408385031215613f8f57613f8e613ce9565b5b6000613f9d85828601613df7565b9250506020613fae85828601613f0c565b9150509250929050565b613fc181613eeb565b82525050565b6000602082019050613fdc6000830184613fb8565b92915050565b6000613fed82613dae565b9050919050565b613ffd81613fe2565b811461400857600080fd5b50565b60008135905061401a81613ff4565b92915050565b60006020828403121561403657614035613ce9565b5b60006140448482850161400b565b91505092915050565b600061405882613dce565b9050919050565b6140688161404d565b811461407357600080fd5b50565b6000813590506140858161405f565b92915050565b6000602082840312156140a1576140a0613ce9565b5b60006140af84828501614076565b91505092915050565b6000806000606084860312156140d1576140d0613ce9565b5b60006140df86828701613df7565b93505060206140f086828701613df7565b925050604061410186828701613f0c565b9150509250925092565b61411481613d78565b811461411f57600080fd5b50565b6000813590506141318161410b565b92915050565b6000806040838503121561414e5761414d613ce9565b5b600061415c85828601613df7565b925050602061416d85828601614122565b9150509250929050565b60006020828403121561418d5761418c613ce9565b5b600061419b84828501614122565b91505092915050565b600080fd5b600080fd5b7f4e487b7100000000000000000000000000000000000000000000000000000000600052604160045260246000fd5b6141e682613e7f565b810181811067ffffffffffffffff82111715614205576142046141ae565b5b80604052505050565b6000614218613cdf565b905061422482826141dd565b919050565b600067ffffffffffffffff821115614244576142436141ae565b5b61424d82613e7f565b9050602081019050919050565b82818337600083830152505050565b600061427c61427784614229565b61420e565b905082815260208101848484011115614298576142976141a9565b5b6142a384828561425a565b509392505050565b600082601f8301126142c0576142bf6141a4565b5b81356142d0848260208601614269565b91505092915050565b600080604083850312156142f0576142ef613ce9565b5b60006142fe85828601613df7565b925050602083013567ffffffffffffffff81111561431f5761431e613cee565b5b61432b858286016142ab565b9150509250929050565b600080fd5b600080fd5b60008083601f840112614355576143546141a4565b5b8235905067ffffffffffffffff81111561437257614371614335565b5b60208301915083600182028301111561438e5761438d61433a565b5b9250929050565b600080602083850312156143ac576143ab613ce9565b5b600083013567ffffffffffffffff8111156143ca576143c9613cee565b5b6143d68582860161433f565b92509250509250929050565b6143eb81613fe2565b82525050565b600060208201905061440660008301846143e2565b92915050565b600067ffffffffffffffff821115614427576144266141ae565b5b61443082613e7f565b9050602081019050919050565b600061445061444b8461440c565b61420e565b90508281526020810184848401111561446c5761446b6141a9565b5b61447784828561425a565b509392505050565b600082601f830112614494576144936141a4565b5b81356144a484826020860161443d565b91505092915050565b600080600080608085870312156144c7576144c6613ce9565b5b60006144d587828801613df7565b94505060206144e687828801613df7565b93505060406144f787828801613f0c565b925050606085013567ffffffffffffffff81111561451857614517613cee565b5b6145248782880161447f565b91505092959194509250565b6000806040838503121561454757614546613ce9565b5b600061455585828601613df7565b925050602061456685828601613df7565b9150509250929050565b6000819050919050565b600061459561459061458b84613dae565b614570565b613dae565b9050919050565b60006145a78261457a565b9050919050565b60006145b98261459c565b9050919050565b6145c9816145ae565b82525050565b60006020820190506145e460008301846145c0565b92915050565b7f4e487b7100000000000000000000000000000000000000000000000000000000600052602260045260246000fd5b6000600282049050600182168061463157607f821691505b602082108103614644576146436145ea565b5b50919050565b7f4552433732313a20617070726f76616c20746f2063757272656e74206f776e6560008201527f7200000000000000000000000000000000000000000000000000000000000000602082015250565b60006146a6602183613e44565b91506146b18261464a565b604082019050919050565b600060208201905081810360008301526146d581614699565b9050919050565b7f4552433732313a20617070726f76652063616c6c6572206973206e6f7420746f60008201527f6b656e206f776e6572206f7220617070726f76656420666f7220616c6c000000602082015250565b6000614738603d83613e44565b9150614743826146dc565b604082019050919050565b600060208201905081810360008301526147678161472b565b9050919050565b60006040820190506147836000830185613f4e565b6147906020830184613fb8565b9392505050565b6000815190506147a68161410b565b92915050565b6000602082840312156147c2576147c1613ce9565b5b60006147d084828501614797565b91505092915050565b7f4661696c656420746f20746e7820746f6b656e73000000000000000000000000600082015250565b600061480f601483613e44565b915061481a826147d9565b602082019050919050565b6000602082019050818103600083015261483e81614802565b9050919050565b7f4552433732313a2063616c6c6572206973206e6f7420746f6b656e206f776e6560008201527f72206f7220617070726f76656400000000000000000000000000000000000000602082015250565b60006148a1602d83613e44565b91506148ac82614845565b604082019050919050565b600060208201905081810360008301526148d081614894565b9050919050565b60006148e28261459c565b9050919050565b6148f2816148d7565b82525050565b600060408201905061490d60008301856148e9565b61491a6020830184613fb8565b9392505050565b7f4661696c656420746f207472616e7366657220746f6b656e7300000000000000600082015250565b6000614957601983613e44565b915061496282614921565b602082019050919050565b600060208201905081810360008301526149868161494a565b9050919050565b7f455243373231456e756d657261626c653a206f776e657220696e646578206f7560008201527f74206f6620626f756e6473000000000000000000000000000000000000000000602082015250565b60006149e9602b83613e44565b91506149f48261498d565b604082019050919050565b60006020820190508181036000830152614a18816149dc565b9050919050565b7f455243373231456e756d657261626c653a20676c6f62616c20696e646578206f60008201527f7574206f6620626f756e64730000000000000000000000000000000000000000602082015250565b6000614a7b602c83613e44565b9150614a8682614a1f565b604082019050919050565b60006020820190508181036000830152614aaa81614a6e565b9050919050565b7f4e487b7100000000000000000000000000000000000000000000000000000000600052603260045260246000fd5b7f416c6c6c6f776c6973744f776e65723a2063616c6c6572206973206e6f74206960008201527f6e2074686520416c6c6f774c6973740000000000000000000000000000000000602082015250565b6000614b3c602f83613e44565b9150614b4782614ae0565b604082019050919050565b60006020820190508181036000830152614b6b81614b2f565b9050919050565b7f616d6f756e74206d757374206265206c657373207468616e206f72206571756160008201527f6c20746f20746865206d617842617463684d696e746564000000000000000000602082015250565b6000614bce603783613e44565b9150614bd982614b72565b604082019050919050565b60006020820190508181036000830152614bfd81614bc1565b9050919050565b7f4e487b7100000000000000000000000000000000000000000000000000000000600052601160045260246000fd5b6000614c3e82613eeb565b9150614c4983613eeb565b9250828201905080821115614c6157614c60614c04565b5b92915050565b7f4d617820737570706c7920726561636865640000000000000000000000000000600082015250565b6000614c9d601283613e44565b9150614ca882614c67565b602082019050919050565b60006020820190508181036000830152614ccc81614c90565b9050919050565b6000614cde82613eeb565b9150614ce983613eeb565b9250828202614cf781613eeb565b91508282048414831517614d0e57614d0d614c04565b5b5092915050565b6000606082019050614d2a6000830186613f4e565b614d376020830185613f4e565b614d446040830184613fb8565b949350505050565b6000614d5782613eeb565b91507fffffffffffffffffffffffffffffffffffffffffffffffffffffffffffffffff8203614d8957614d88614c04565b5b600182019050919050565b7f4552433732313a20696e76616c696420746f6b656e2049440000000000000000600082015250565b6000614dca601883613e44565b9150614dd582614d94565b602082019050919050565b60006020820190508181036000830152614df981614dbd565b9050919050565b7f4e65656420612076616c6964206e6577206d617820737570706c790000000000600082015250565b6000614e36601b83613e44565b9150614e4182614e00565b602082019050919050565b60006020820190508181036000830152614e6581614e29565b9050919050565b7f63616c6c6572206973206e6f7420617574686f72697a656420746f206275726e600082015250565b6000614ea2602083613e44565b9150614ead82614e6c565b602082019050919050565b60006020820190508181036000830152614ed181614e95565b9050919050565b7f4552433732313a2061646472657373207a65726f206973206e6f74206120766160008201527f6c6964206f776e65720000000000000000000000000000000000000000000000602082015250565b6000614f34602983613e44565b9150614f3f82614ed8565b604082019050919050565b60006020820190508181036000830152614f6381614f27565b9050919050565b6000604082019050614f7f6000830185613f4e565b614f8c6020830184613f4e565b9392505050565b600081519050614fa281613ef5565b92915050565b600060208284031215614fbe57614fbd613ce9565b5b6000614fcc84828501614f93565b91505092915050565b7f63616c6c6572206973206e6f7420617574686f72697a656420746f207472616e60008201527f7366657200000000000000000000000000000000000000000000000000000000602082015250565b6000615031602483613e44565b915061503c82614fd5565b604082019050919050565b6000602082019050818103600083015261506081615024565b9050919050565b600082905092915050565b60008190508160005260206000209050919050565b60006020601f8301049050919050565b600082821b905092915050565b6000600883026150d47fffffffffffffffffffffffffffffffffffffffffffffffffffffffffffffffff82615097565b6150de8683615097565b95508019841693508086168417925050509392505050565b600061511161510c61510784613eeb565b614570565b613eeb565b9050919050565b6000819050919050565b61512b836150f6565b61513f61513782615118565b8484546150a4565b825550505050565b600090565b615154615147565b61515f818484615122565b505050565b5b818110156151835761517860008261514c565b600181019050615165565b5050565b601f8211156151c85761519981615072565b6151a284615087565b810160208510156151b1578190505b6151c56151bd85615087565b830182615164565b50505b505050565b600082821c905092915050565b60006151eb600019846008026151cd565b1980831691505092915050565b600061520483836151da565b9150826002028217905092915050565b61521e8383615067565b67ffffffffffffffff811115615237576152366141ae565b5b6152418254614619565b61524c828285615187565b6000601f83116001811461527b5760008415615269578287013590505b61527385826151f8565b8655506152db565b601f19841661528986615072565b60005b828110156152b15784890135825560018201915060208501945060208101905061528c565b868310156152ce57848901356152ca601f8916826151da565b8355505b6001600288020188555050505b50505050505050565b7f4e65656420612076616c6964206e6577206d6178206d696e74206c696d697400600082015250565b600061531a601f83613e44565b9150615325826152e4565b602082019050919050565b600060208201905081810360008301526153498161530d565b9050919050565b7f4f776e61626c653a206e6577206f776e657220697320746865207a65726f206160008201527f6464726573730000000000000000000000000000000000000000000000000000602082015250565b60006153ac602683613e44565b91506153b782615350565b604082019050919050565b600060208201905081810360008301526153db8161539f565b9050919050565b7f4f776e61626c653a2063616c6c6572206973206e6f7420746865206f776e6572600082015250565b6000615418602083613e44565b9150615423826153e2565b602082019050919050565b600060208201905081810360008301526154478161540b565b9050919050565b7f4552433732313a207472616e736665722066726f6d20696e636f72726563742060008201527f6f776e6572000000000000000000000000000000000000000000000000000000602082015250565b60006154aa602583613e44565b91506154b58261544e565b604082019050919050565b600060208201905081810360008301526154d98161549d565b9050919050565b7f4552433732313a207472616e7366657220746f20746865207a65726f2061646460008201527f7265737300000000000000000000000000000000000000000000000000000000602082015250565b600061553c602483613e44565b9150615547826154e0565b604082019050919050565b6000602082019050818103600083015261556b8161552f565b9050919050565b7f416c6c6c6f776c6973744f776e65723a204e65656420612076616c696420616460008201527f6472657373000000000000000000000000000000000000000000000000000000602082015250565b60006155ce602583613e44565b91506155d982615572565b604082019050919050565b600060208201905081810360008301526155fd816155c1565b9050919050565b60006040820190506156196000830185613f4e565b6156266020830184613d84565b9392505050565b7f45524337323155524953746f726167653a2055524920736574206f66206e6f6e60008201527f6578697374656e7420746f6b656e000000000000000000000000000000000000602082015250565b6000615689602e83613e44565b91506156948261562d565b604082019050919050565b600060208201905081810360008301526156b88161567c565b9050919050565b6156c882613e39565b67ffffffffffffffff8111156156e1576156e06141ae565b5b6156eb8254614619565b6156f6828285615187565b600060209050601f8311600181146157295760008415615717578287015190505b61572185826151f8565b865550615789565b601f19841661573786615072565b60005b8281101561575f5784890151825560018201915060208501945060208101905061573a565b8683101561577c5784890151615778601f8916826151da565b8355505b6001600288020188555050505b505050505050565b7f4552433732313a207472616e7366657220746f206e6f6e20455243373231526560008201527f63656976657220696d706c656d656e7465720000000000000000000000000000602082015250565b60006157ed603283613e44565b91506157f882615791565b604082019050919050565b6000602082019050818103600083015261581c816157e0565b9050919050565b7f4552433732313a20617070726f766520746f2063616c6c657200000000000000600082015250565b6000615859601983613e44565b915061586482615823565b602082019050919050565b600060208201905081810360008301526158888161584c565b9050919050565b600081905092915050565b60006158a582613e39565b6158af818561588f565b93506158bf818560208601613e55565b80840191505092915050565b60006158d7828561589a565b91506158e3828461589a565b91508190509392505050565b7f5061757361626c653a206e6f7420706175736564000000000000000000000000600082015250565b6000615925601483613e44565b9150615930826158ef565b602082019050919050565b6000602082019050818103600083015261595481615918565b9050919050565b7f5061757361626c653a2070617573656400000000000000000000000000000000600082015250565b6000615991601083613e44565b915061599c8261595b565b602082019050919050565b600060208201905081810360008301526159c081615984565b9050919050565b600081519050919050565b600082825260208201905092915050565b60006159ee826159c7565b6159f881856159d2565b9350615a08818560208601613e55565b615a1181613e7f565b840191505092915050565b6000608082019050615a316000830187613f4e565b615a3e6020830186613f4e565b615a4b6040830185613fb8565b8181036060830152615a5d81846159e3565b905095945050505050565b600081519050615a7781613d1f565b92915050565b600060208284031215615a9357615a92613ce9565b5b6000615aa184828501615a68565b91505092915050565b7f455243373231456e756d657261626c653a20636f6e736563757469766520747260008201527f616e7366657273206e6f7420737570706f727465640000000000000000000000602082015250565b6000615b06603583613e44565b9150615b1182615aaa565b604082019050919050565b60006020820190508181036000830152615b3581615af9565b9050919050565b7f4552433732313a206d696e7420746f20746865207a65726f2061646472657373600082015250565b6000615b72602083613e44565b9150615b7d82615b3c565b602082019050919050565b60006020820190508181036000830152615ba181615b65565b9050919050565b7f4552433732313a20746f6b656e20616c7265616479206d696e74656400000000600082015250565b6000615bde601c83613e44565b9150615be982615ba8565b602082019050919050565b60006020820190508181036000830152615c0d81615bd1565b9050919050565b7f4e487b7100000000000000000000000000000000000000000000000000000000600052601260045260246000fd5b6000615c4e82613eeb565b9150615c5983613eeb565b9250828203905081811115615c7157615c70614c04565b5b92915050565b7f4e487b7100000000000000000000000000000000000000000000000000000000600052603160045260246000fdfea2646970667358221220d83542effa3be0651a92f25f2b434a7e8fe7b8d97ca1b9b3a705bcfe6692cdb064736f6c63430008130033697066733a2f2f6261666b726569627270353361717136656c74706a6f746d347370617a767134326e3535356171777477636b36376d6f6e777a756f676d797a7961",
  "devdoc": {
    "events": {
      "Approval(address,address,uint256)": {
        "details": "Emitted when `owner` enables `approved` to manage the `tokenId` token."
      },
      "ApprovalForAll(address,address,bool)": {
        "details": "Emitted when `owner` enables or disables (`approved`) `operator` to manage all of its assets."
      },
      "BatchMetadataUpdate(uint256,uint256)": {
        "details": "This event emits when the metadata of a range of tokens is changed. So that the third-party platforms such as NFT market could timely update the images and related attributes of the NFTs."
      },
      "MetadataUpdate(uint256)": {
        "details": "This event emits when the metadata of a token is changed. So that the third-party platforms such as NFT market could timely update the images and related attributes of the NFT."
      },
      "Paused(address)": {
        "details": "Emitted when the pause is triggered by `account`."
      },
      "Transfer(address,address,uint256)": {
        "details": "Emitted when `tokenId` token is transferred from `from` to `to`."
      },
      "Unpaused(address)": {
        "details": "Emitted when the pause is lifted by `account`."
      }
    },
    "kind": "dev",
    "methods": {
      "approve(address,uint256)": {
        "details": "See {IERC721-approve}."
      },
      "balanceOf(address)": {
        "details": "See {IERC721-balanceOf}."
      },
      "burn(uint256)": {
        "details": "Burns `tokenId`. See {ERC721-_burn}. Requirements: - The caller must own `tokenId` or be an approved operator."
      },
      "getApproved(uint256)": {
        "details": "See {IERC721-getApproved}."
      },
      "isApprovedForAll(address,address)": {
        "details": "See {IERC721-isApprovedForAll}."
      },
      "name()": {
        "details": "See {IERC721Metadata-name}."
      },
      "owner()": {
        "details": "Returns the address of the current owner."
      },
      "ownerOf(uint256)": {
        "details": "See {IERC721-ownerOf}."
      },
      "paused()": {
        "details": "Returns true if the contract is paused, and false otherwise."
      },
      "renounceOwnership()": {
        "details": "Leaves the contract without owner. It will not be possible to call `onlyOwner` functions. Can only be called by the current owner. NOTE: Renouncing ownership will leave the contract without an owner, thereby disabling any functionality that is only available to the owner."
      },
      "safeTransferFrom(address,address,uint256)": {
        "details": "See {IERC721-safeTransferFrom}."
      },
      "safeTransferFrom(address,address,uint256,bytes)": {
        "details": "See {IERC721-safeTransferFrom}."
      },
      "setApprovalForAll(address,bool)": {
        "details": "See {IERC721-setApprovalForAll}."
      },
      "symbol()": {
        "details": "See {IERC721Metadata-symbol}."
      },
      "tokenByIndex(uint256)": {
        "details": "See {IERC721Enumerable-tokenByIndex}."
      },
      "tokenOfOwnerByIndex(address,uint256)": {
        "details": "See {IERC721Enumerable-tokenOfOwnerByIndex}."
      },
      "totalSupply()": {
        "details": "See {IERC721Enumerable-totalSupply}."
      },
      "transferFrom(address,address,uint256)": {
        "details": "See {IERC721-transferFrom}."
      },
      "transferOwnership(address)": {
        "details": "Transfers ownership of the contract to a new account (`newOwner`). Can only be called by the current owner."
      }
    },
    "version": 1
  },
  "userdoc": {
    "kind": "user",
    "methods": {},
    "version": 1
  },
  "storageLayout": {
    "storage": [
      {
        "astId": 352,
        "contract": "contracts/VaultNftToken.sol:VaultNftToken",
        "label": "_name",
        "offset": 0,
        "slot": "0",
        "type": "t_string_storage"
      },
      {
        "astId": 354,
        "contract": "contracts/VaultNftToken.sol:VaultNftToken",
        "label": "_symbol",
        "offset": 0,
        "slot": "1",
        "type": "t_string_storage"
      },
      {
        "astId": 358,
        "contract": "contracts/VaultNftToken.sol:VaultNftToken",
        "label": "_owners",
        "offset": 0,
        "slot": "2",
        "type": "t_mapping(t_uint256,t_address)"
      },
      {
        "astId": 362,
        "contract": "contracts/VaultNftToken.sol:VaultNftToken",
        "label": "_balances",
        "offset": 0,
        "slot": "3",
        "type": "t_mapping(t_address,t_uint256)"
      },
      {
        "astId": 366,
        "contract": "contracts/VaultNftToken.sol:VaultNftToken",
        "label": "_tokenApprovals",
        "offset": 0,
        "slot": "4",
        "type": "t_mapping(t_uint256,t_address)"
      },
      {
        "astId": 372,
        "contract": "contracts/VaultNftToken.sol:VaultNftToken",
        "label": "_operatorApprovals",
        "offset": 0,
        "slot": "5",
        "type": "t_mapping(t_address,t_mapping(t_address,t_bool))"
      },
      {
        "astId": 1432,
        "contract": "contracts/VaultNftToken.sol:VaultNftToken",
        "label": "_ownedTokens",
        "offset": 0,
        "slot": "6",
        "type": "t_mapping(t_address,t_mapping(t_uint256,t_uint256))"
      },
      {
        "astId": 1436,
        "contract": "contracts/VaultNftToken.sol:VaultNftToken",
        "label": "_ownedTokensIndex",
        "offset": 0,
        "slot": "7",
        "type": "t_mapping(t_uint256,t_uint256)"
      },
      {
        "astId": 1439,
        "contract": "contracts/VaultNftToken.sol:VaultNftToken",
        "label": "_allTokens",
        "offset": 0,
        "slot": "8",
        "type": "t_array(t_uint256)dyn_storage"
      },
      {
        "astId": 1443,
        "contract": "contracts/VaultNftToken.sol:VaultNftToken",
        "label": "_allTokensIndex",
        "offset": 0,
        "slot": "9",
        "type": "t_mapping(t_uint256,t_uint256)"
      },
      {
        "astId": 1787,
        "contract": "contracts/VaultNftToken.sol:VaultNftToken",
        "label": "_tokenURIs",
        "offset": 0,
        "slot": "10",
        "type": "t_mapping(t_uint256,t_string_storage)"
      },
      {
        "astId": 158,
        "contract": "contracts/VaultNftToken.sol:VaultNftToken",
        "label": "_paused",
        "offset": 0,
        "slot": "11",
        "type": "t_bool"
      },
      {
        "astId": 7,
        "contract": "contracts/VaultNftToken.sol:VaultNftToken",
        "label": "_owner",
        "offset": 1,
        "slot": "11",
        "type": "t_address"
      },
      {
        "astId": 3656,
        "contract": "contracts/VaultNftToken.sol:VaultNftToken",
        "label": "allowlist",
        "offset": 0,
        "slot": "12",
        "type": "t_mapping(t_address,t_bool)"
      },
      {
        "astId": 3659,
        "contract": "contracts/VaultNftToken.sol:VaultNftToken",
        "label": "allowListEnabled",
        "offset": 0,
        "slot": "13",
        "type": "t_bool"
      },
      {
        "astId": 3885,
        "contract": "contracts/VaultNftToken.sol:VaultNftToken",
        "label": "_tokenIdCounter",
        "offset": 0,
        "slot": "14",
        "type": "t_struct(Counter)2343_storage"
      },
      {
        "astId": 3888,
        "contract": "contracts/VaultNftToken.sol:VaultNftToken",
        "label": "mintFee",
        "offset": 0,
        "slot": "15",
        "type": "t_uint256"
      },
      {
        "astId": 3891,
        "contract": "contracts/VaultNftToken.sol:VaultNftToken",
        "label": "maxSupply",
        "offset": 0,
        "slot": "16",
        "type": "t_uint256"
      },
      {
        "astId": 3894,
        "contract": "contracts/VaultNftToken.sol:VaultNftToken",
        "label": "maxBatchMint",
        "offset": 0,
        "slot": "17",
        "type": "t_uint256"
      },
      {
        "astId": 3897,
        "contract": "contracts/VaultNftToken.sol:VaultNftToken",
        "label": "singleNftMeta",
        "offset": 0,
        "slot": "18",
        "type": "t_bool"
      },
      {
        "astId": 3899,
        "contract": "contracts/VaultNftToken.sol:VaultNftToken",
        "label": "redeemAuthorizer",
        "offset": 1,
        "slot": "18",
        "type": "t_address"
      },
      {
        "astId": 3901,
        "contract": "contracts/VaultNftToken.sol:VaultNftToken",
        "label": "destination",
        "offset": 0,
        "slot": "19",
        "type": "t_address_payable"
      },
      {
        "astId": 3903,
        "contract": "contracts/VaultNftToken.sol:VaultNftToken",
        "label": "baseURI",
        "offset": 0,
        "slot": "20",
        "type": "t_string_storage"
      },
      {
        "astId": 3909,
        "contract": "contracts/VaultNftToken.sol:VaultNftToken",
        "label": "token",
        "offset": 0,
        "slot": "21",
        "type": "t_contract(IERC20)326"
      }
    ],
    "types": {
      "t_address": {
        "encoding": "inplace",
        "label": "address",
        "numberOfBytes": "20"
      },
      "t_address_payable": {
        "encoding": "inplace",
        "label": "address payable",
        "numberOfBytes": "20"
      },
      "t_array(t_uint256)dyn_storage": {
        "base": "t_uint256",
        "encoding": "dynamic_array",
        "label": "uint256[]",
        "numberOfBytes": "32"
      },
      "t_bool": {
        "encoding": "inplace",
        "label": "bool",
        "numberOfBytes": "1"
      },
      "t_contract(IERC20)326": {
        "encoding": "inplace",
        "label": "contract IERC20",
        "numberOfBytes": "20"
      },
      "t_mapping(t_address,t_bool)": {
        "encoding": "mapping",
        "key": "t_address",
        "label": "mapping(address => bool)",
        "numberOfBytes": "32",
        "value": "t_bool"
      },
      "t_mapping(t_address,t_mapping(t_address,t_bool))": {
        "encoding": "mapping",
        "key": "t_address",
        "label": "mapping(address => mapping(address => bool))",
        "numberOfBytes": "32",
        "value": "t_mapping(t_address,t_bool)"
      },
      "t_mapping(t_address,t_mapping(t_uint256,t_uint256))": {
        "encoding": "mapping",
        "key": "t_address",
        "label": "mapping(address => mapping(uint256 => uint256))",
        "numberOfBytes": "32",
        "value": "t_mapping(t_uint256,t_uint256)"
      },
      "t_mapping(t_address,t_uint256)": {
        "encoding": "mapping",
        "key": "t_address",
        "label": "mapping(address => uint256)",
        "numberOfBytes": "32",
        "value": "t_uint256"
      },
      "t_mapping(t_uint256,t_address)": {
        "encoding": "mapping",
        "key": "t_uint256",
        "label": "mapping(uint256 => address)",
        "numberOfBytes": "32",
        "value": "t_address"
      },
      "t_mapping(t_uint256,t_string_storage)": {
        "encoding": "mapping",
        "key": "t_uint256",
        "label": "mapping(uint256 => string)",
        "numberOfBytes": "32",
        "value": "t_string_storage"
      },
      "t_mapping(t_uint256,t_uint256)": {
        "encoding": "mapping",
        "key": "t_uint256",
        "label": "mapping(uint256 => uint256)",
        "numberOfBytes": "32",
        "value": "t_uint256"
      },
      "t_string_storage": {
        "encoding": "bytes",
        "label": "string",
        "numberOfBytes": "32"
      },
      "t_struct(Counter)2343_storage": {
        "encoding": "inplace",
        "label": "struct Counters.Counter",
        "members": [
          {
            "astId": 2342,
            "contract": "contracts/VaultNftToken.sol:VaultNftToken",
            "label": "_value",
            "offset": 0,
            "slot": "0",
            "type": "t_uint256"
          }
        ],
        "numberOfBytes": "32"
      },
      "t_uint256": {
        "encoding": "inplace",
        "label": "uint256",
        "numberOfBytes": "32"
      }
    }
  }
}