{
  "address": "0xe7f1725E7734CE288F8367e1Bb143E90bb3F0512",
  "abi": [
    {
      "anonymous": false,
      "inputs": [],
      "name": "DisableAllowList",
      "type": "event"
    },
    {
      "anonymous": false,
      "inputs": [],
      "name": "EnabledAllowList",
      "type": "event"
    },
    {
      "anonymous": false,
      "inputs": [
        {
          "indexed": true,
          "internalType": "uint256",
          "name": "tokenId",
          "type": "uint256"
        },
        {
          "indexed": true,
          "internalType": "address",
          "name": "owner",
          "type": "address"
        }
      ],
      "name": "EscrowCancelled",
      "type": "event"
    },
    {
      "anonymous": false,
      "inputs": [
        {
          "indexed": true,
          "internalType": "uint256",
          "name": "tokenId",
          "type": "uint256"
        },
        {
          "indexed": true,
          "internalType": "address",
          "name": "owner",
          "type": "address"
        }
      ],
      "name": "EscrowCreated",
      "type": "event"
    },
    {
      "anonymous": false,
      "inputs": [
        {
          "indexed": true,
          "internalType": "uint256",
          "name": "tokenId",
          "type": "uint256"
        },
        {
          "indexed": false,
          "internalType": "uint256",
          "name": "amount",
          "type": "uint256"
        },
        {
          "indexed": false,
          "internalType": "uint256",
          "name": "deadline",
          "type": "uint256"
        }
      ],
      "name": "EscrowOffer",
      "type": "event"
    },
    {
      "anonymous": false,
      "inputs": [
        {
          "indexed": true,
          "internalType": "uint256",
          "name": "tokenId",
          "type": "uint256"
        },
        {
          "indexed": true,
          "internalType": "address",
          "name": "owner",
          "type": "address"
        },
        {
          "indexed": false,
          "internalType": "uint256",
          "name": "amount",
          "type": "uint256"
        }
      ],
      "name": "EscrowRedeemed",
      "type": "event"
    },
    {
      "anonymous": false,
      "inputs": [
        {
          "indexed": true,
          "internalType": "address",
          "name": "previousOwner",
          "type": "address"
        },
        {
          "indexed": true,
          "internalType": "address",
          "name": "newOwner",
          "type": "address"
        }
      ],
      "name": "OwnershipTransferred",
      "type": "event"
    },
    {
      "anonymous": false,
      "inputs": [
        {
          "indexed": false,
          "internalType": "address",
          "name": "account",
          "type": "address"
        },
        {
          "indexed": false,
          "internalType": "bool",
          "name": "isAllowed",
          "type": "bool"
        }
      ],
      "name": "UserAllowList",
      "type": "event"
    },
    {
      "inputs": [],
      "name": "allowListEnabled",
      "outputs": [
        {
          "internalType": "bool",
          "name": "",
          "type": "bool"
        }
      ],
      "stateMutability": "view",
      "type": "function"
    },
    {
      "inputs": [
        {
          "internalType": "address",
          "name": "",
          "type": "address"
        }
      ],
      "name": "allowlist",
      "outputs": [
        {
          "internalType": "bool",
          "name": "",
          "type": "bool"
        }
      ],
      "stateMutability": "view",
      "type": "function"
    },
    {
      "inputs": [
        {
          "internalType": "uint256",
          "name": "tokenId",
          "type": "uint256"
        }
      ],
      "name": "cancelEscrow",
      "outputs": [
        {
          "internalType": "bool",
          "name": "",
          "type": "bool"
        }
      ],
      "stateMutability": "nonpayable",
      "type": "function"
    },
    {
      "inputs": [
        {
          "internalType": "uint256",
          "name": "tokenId",
          "type": "uint256"
        }
      ],
      "name": "createEscrow",
      "outputs": [
        {
          "internalType": "bool",
          "name": "",
          "type": "bool"
        }
      ],
      "stateMutability": "nonpayable",
      "type": "function"
    },
    {
      "inputs": [],
      "name": "disableAllowList",
      "outputs": [],
      "stateMutability": "nonpayable",
      "type": "function"
    },
    {
      "inputs": [],
      "name": "enableAllowList",
      "outputs": [],
      "stateMutability": "nonpayable",
      "type": "function"
    },
    {
      "inputs": [
        {
          "internalType": "uint256",
          "name": "tokenId",
          "type": "uint256"
        }
      ],
      "name": "escrowStatus",
      "outputs": [
        {
          "components": [
            {
              "internalType": "uint256",
              "name": "tokenId",
              "type": "uint256"
            },
            {
              "internalType": "address",
              "name": "owner",
              "type": "address"
            },
            {
              "internalType": "uint256",
              "name": "amount",
              "type": "uint256"
            },
            {
              "internalType": "uint256",
              "name": "deadline",
              "type": "uint256"
            },
            {
              "internalType": "enum NftRedemption.EscrowStatus",
              "name": "status",
              "type": "uint8"
            }
          ],
          "internalType": "struct NftRedemption.Escrow",
          "name": "",
          "type": "tuple"
        }
      ],
      "stateMutability": "view",
      "type": "function"
    },
    {
      "inputs": [],
      "name": "fund",
      "outputs": [],
      "stateMutability": "payable",
      "type": "function"
    },
    {
      "inputs": [],
      "name": "getEscrowedTokenId",
      "outputs": [
        {
          "internalType": "uint256[]",
          "name": "",
          "type": "uint256[]"
        }
      ],
      "stateMutability": "view",
      "type": "function"
    },
    {
      "inputs": [
        {
          "internalType": "address",
          "name": "user",
          "type": "address"
        }
      ],
      "name": "getUserEscrows",
      "outputs": [
        {
          "components": [
            {
              "internalType": "uint256",
              "name": "tokenId",
              "type": "uint256"
            },
            {
              "internalType": "address",
              "name": "owner",
              "type": "address"
            },
            {
              "internalType": "uint256",
              "name": "amount",
              "type": "uint256"
            },
            {
              "internalType": "uint256",
              "name": "deadline",
              "type": "uint256"
            },
            {
              "internalType": "enum NftRedemption.EscrowStatus",
              "name": "status",
              "type": "uint8"
            }
          ],
          "internalType": "struct NftRedemption.Escrow[]",
          "name": "",
          "type": "tuple[]"
        }
      ],
      "stateMutability": "view",
      "type": "function"
    },
    {
      "inputs": [
        {
          "internalType": "address",
          "name": "user",
          "type": "address"
        }
      ],
      "name": "getUserEscrowsId",
      "outputs": [
        {
          "internalType": "uint256[]",
          "name": "",
          "type": "uint256[]"
        }
      ],
      "stateMutability": "view",
      "type": "function"
    },
    {
      "inputs": [
        {
          "internalType": "address",
          "name": "addr",
          "type": "address"
        }
      ],
      "name": "isAllowlisted",
      "outputs": [
        {
          "internalType": "bool",
          "name": "",
          "type": "bool"
        }
      ],
      "stateMutability": "view",
      "type": "function"
    },
    {
      "inputs": [
        {
          "internalType": "address",
          "name": "addr",
          "type": "address"
        }
      ],
      "name": "isOwnerOrInAllowlisted",
      "outputs": [
        {
          "internalType": "bool",
          "name": "",
          "type": "bool"
        }
      ],
      "stateMutability": "view",
      "type": "function"
    },
    {
      "inputs": [],
      "name": "nftAddress",
      "outputs": [
        {
          "internalType": "address",
          "name": "",
          "type": "address"
        }
      ],
      "stateMutability": "view",
      "type": "function"
    },
    {
      "inputs": [
        {
          "internalType": "uint256",
          "name": "tokenId",
          "type": "uint256"
        },
        {
          "internalType": "uint256",
          "name": "amount",
          "type": "uint256"
        },
        {
          "internalType": "uint256",
          "name": "deadline",
          "type": "uint256"
        }
      ],
      "name": "offerEscrow",
      "outputs": [
        {
          "internalType": "bool",
          "name": "",
          "type": "bool"
        }
      ],
      "stateMutability": "nonpayable",
      "type": "function"
    },
    {
      "inputs": [
        {
          "internalType": "address",
          "name": "",
          "type": "address"
        },
        {
          "internalType": "address",
          "name": "",
          "type": "address"
        },
        {
          "internalType": "uint256",
          "name": "",
          "type": "uint256"
        },
        {
          "internalType": "bytes",
          "name": "",
          "type": "bytes"
        }
      ],
      "name": "onERC721Received",
      "outputs": [
        {
          "internalType": "bytes4",
          "name": "",
          "type": "bytes4"
        }
      ],
      "stateMutability": "nonpayable",
      "type": "function"
    },
    {
      "inputs": [],
      "name": "owner",
      "outputs": [
        {
          "internalType": "address",
          "name": "",
          "type": "address"
        }
      ],
      "stateMutability": "view",
      "type": "function"
    },
    {
      "inputs": [
        {
          "internalType": "address",
          "name": "_nftAddress",
          "type": "address"
        }
      ],
      "name": "preAuthorizeBurn",
      "outputs": [],
      "stateMutability": "nonpayable",
      "type": "function"
    },
    {
      "inputs": [
        {
          "internalType": "uint256",
          "name": "tokenId",
          "type": "uint256"
        },
        {
          "internalType": "uint256",
          "name": "amount",
          "type": "uint256"
        },
        {
          "internalType": "uint256",
          "name": "deadline",
          "type": "uint256"
        }
      ],
      "name": "redeemEscrow",
      "outputs": [
        {
          "internalType": "bool",
          "name": "",
          "type": "bool"
        }
      ],
      "stateMutability": "nonpayable",
      "type": "function"
    },
    {
      "inputs": [],
      "name": "renounceOwnership",
      "outputs": [],
      "stateMutability": "nonpayable",
      "type": "function"
    },
    {
      "inputs": [
        {
          "internalType": "address",
          "name": "addr",
          "type": "address"
        },
        {
          "internalType": "bool",
          "name": "isAllowed",
          "type": "bool"
        }
      ],
      "name": "setAllowlistUser",
      "outputs": [],
      "stateMutability": "nonpayable",
      "type": "function"
    },
    {
      "inputs": [
        {
          "internalType": "address",
          "name": "newOwner",
          "type": "address"
        }
      ],
      "name": "transferOwnership",
      "outputs": [],
      "stateMutability": "nonpayable",
      "type": "function"
    },
    {
      "inputs": [
        {
          "internalType": "address payable",
          "name": "destination",
          "type": "address"
        },
        {
          "internalType": "uint256",
          "name": "amount",
          "type": "uint256"
        }
      ],
      "name": "withdraw",
      "outputs": [],
      "stateMutability": "nonpayable",
      "type": "function"
    },
    {
      "stateMutability": "payable",
      "type": "receive"
    }
  ],
  "transactionHash": "0x09eb03fa5c871520df0d3108923cb86f512e3f13dd279a5d50b0760cfb000b17",
  "args": [],
  "numDeployments": 1,
  "solcInputHash": "e601c1cdd376138a2a1e629408f19585",
  "bytecode": "0x60806040526001600260006101000a81548160ff0219169083151502179055503480156200002c57600080fd5b506200004d620000416200005360201b60201c565b6200005b60201b60201c565b6200011f565b600033905090565b60008060009054906101000a900473ffffffffffffffffffffffffffffffffffffffff169050816000806101000a81548173ffffffffffffffffffffffffffffffffffffffff021916908373ffffffffffffffffffffffffffffffffffffffff1602179055508173ffffffffffffffffffffffffffffffffffffffff168173ffffffffffffffffffffffffffffffffffffffff167f8be0079c531659141344cd1fd0a4f28419497f9722a3daafe3b4186f6b6457e060405160405180910390a35050565b61349b806200012f6000396000f3fe6080604052600436106101445760003560e01c806385a91959116100b6578063b60d42881161006f578063b60d4288146104a1578063d9c7d857146104ab578063dc2fbaee146104e8578063e0182436146104ff578063f2fde38b1461053c578063f3fef3a3146105655761014b565b806385a91959146103455780638da2c873146103825780638da5cb5b146103bf57806395ae78b0146103ea578063990c006d14610427578063a7cd52cb146104645761014b565b806322bd5c1c1161010857806322bd5c1c1461025b5780633045b241146102865780635bf8633a146102af5780635ccea85e146102da578063715018a614610317578063834029ba1461032e5761014b565b806305a3b80914610150578063150b7a021461018d57806315b06d91146101ca5780631c5c7b38146101f357806321b5e2c2146102305761014b565b3661014b57005b600080fd5b34801561015c57600080fd5b5061017760048036038101906101729190612113565b61058e565b604051610184919061215b565b60405180910390f35b34801561019957600080fd5b506101b460048036038101906101af91906122f2565b6105e4565b6040516101c191906123b0565b60405180910390f35b3480156101d657600080fd5b506101f160048036038101906101ec9190612113565b6105f8565b005b3480156101ff57600080fd5b5061021a600480360381019061021591906123cb565b610644565b604051610227919061215b565b60405180910390f35b34801561023c57600080fd5b50610245610995565b60405161025291906124dc565b60405180910390f35b34801561026757600080fd5b506102706109ac565b60405161027d919061215b565b60405180910390f35b34801561029257600080fd5b506102ad60048036038101906102a8919061252a565b6109bf565b005b3480156102bb57600080fd5b506102c46109d5565b6040516102d19190612579565b60405180910390f35b3480156102e657600080fd5b5061030160048036038101906102fc9190612113565b6109fb565b60405161030e9190612731565b60405180910390f35b34801561032357600080fd5b5061032c610bf9565b005b34801561033a57600080fd5b50610343610c0d565b005b34801561035157600080fd5b5061036c600480360381019061036791906123cb565b610c1f565b604051610379919061215b565b60405180910390f35b34801561038e57600080fd5b506103a960048036038101906103a49190612753565b6110c7565b6040516103b6919061215b565b60405180910390f35b3480156103cb57600080fd5b506103d4611445565b6040516103e19190612579565b60405180910390f35b3480156103f657600080fd5b50610411600480360381019061040c9190612753565b61146e565b60405161041e91906127e8565b60405180910390f35b34801561043357600080fd5b5061044e60048036038101906104499190612113565b61154a565b60405161045b919061215b565b60405180910390f35b34801561047057600080fd5b5061048b60048036038101906104869190612113565b6115eb565b604051610498919061215b565b60405180910390f35b6104a961160b565b005b3480156104b757600080fd5b506104d260048036038101906104cd9190612113565b61160d565b6040516104df91906124dc565b60405180910390f35b3480156104f457600080fd5b506104fd611663565b005b34801561050b57600080fd5b5061052660048036038101906105219190612753565b611675565b604051610533919061215b565b60405180910390f35b34801561054857600080fd5b50610563600480360381019061055e9190612113565b611a71565b005b34801561057157600080fd5b5061058c60048036038101906105879190612841565b611af4565b005b6000600160008373ffffffffffffffffffffffffffffffffffffffff1673ffffffffffffffffffffffffffffffffffffffff16815260200190815260200160002060009054906101000a900460ff169050919050565b600063150b7a0260e01b9050949350505050565b610600611b4d565b80600260016101000a81548173ffffffffffffffffffffffffffffffffffffffff021916908373ffffffffffffffffffffffffffffffffffffffff16021790555050565b600061064e611bcb565b73ffffffffffffffffffffffffffffffffffffffff1661066c611445565b73ffffffffffffffffffffffffffffffffffffffff16146106ed57600260009054906101000a900460ff16156106ec576106ac6106a7611bcb565b61058e565b6106eb576040517f08c379a00000000000000000000000000000000000000000000000000000000081526004016106e290612904565b60405180910390fd5b5b5b6000600260019054906101000a900473ffffffffffffffffffffffffffffffffffffffff1690503073ffffffffffffffffffffffffffffffffffffffff168173ffffffffffffffffffffffffffffffffffffffff16636352211e876040518263ffffffff1660e01b81526004016107649190612933565b602060405180830381865afa158015610781573d6000803e3d6000fd5b505050506040513d601f19601f820116820180604052508101906107a59190612963565b73ffffffffffffffffffffffffffffffffffffffff16146107fb576040517f08c379a00000000000000000000000000000000000000000000000000000000081526004016107f290612a02565b60405180910390fd5b600060056000878152602001908152602001600020905060036004811115610826576108256125cf565b5b8160040160009054906101000a900460ff16600481111561084a576108496125cf565b5b1415801561088d5750600480811115610866576108656125cf565b5b8160040160009054906101000a900460ff16600481111561088a576108896125cf565b5b14155b6108cc576040517f08c379a00000000000000000000000000000000000000000000000000000000081526004016108c390612a94565b60405180910390fd5b4785111561090f576040517f08c379a000000000000000000000000000000000000000000000000000000000815260040161090690612b26565b60405180910390fd5b84816002018190555083816003018190555060028160040160006101000a81548160ff02191690836004811115610949576109486125cf565b5b0217905550857f81118abaa8c2a1e22656d8a2ddaedc183b1b17259c42ff47f18d05e168baa89f8686604051610980929190612b46565b60405180910390a26001925050509392505050565b606060006109a36003611bd3565b90508091505090565b600260009054906101000a900460ff1681565b6109c7611b4d565b6109d18282611bf4565b5050565b600260019054906101000a900473ffffffffffffffffffffffffffffffffffffffff1681565b60606000610a088361160d565b90506000815103610a7057600067ffffffffffffffff811115610a2e57610a2d6121c7565b5b604051908082528060200260200182016040528015610a6757816020015b610a5461204a565b815260200190600190039081610a4c5790505b50915050610bf4565b6000815167ffffffffffffffff811115610a8d57610a8c6121c7565b5b604051908082528060200260200182016040528015610ac657816020015b610ab361204a565b815260200190600190039081610aab5790505b50905060005b8251811015610bed5760056000848381518110610aec57610aeb612b6f565b5b602002602001015181526020019081526020016000206040518060a0016040529081600082015481526020016001820160009054906101000a900473ffffffffffffffffffffffffffffffffffffffff1673ffffffffffffffffffffffffffffffffffffffff1673ffffffffffffffffffffffffffffffffffffffff16815260200160028201548152602001600382015481526020016004820160009054906101000a900460ff166004811115610ba657610ba56125cf565b5b6004811115610bb857610bb76125cf565b5b81525050828281518110610bcf57610bce612b6f565b5b60200260200101819052508080610be590612bcd565b915050610acc565b5080925050505b919050565b610c01611b4d565b610c0b6000611cf7565b565b610c15611b4d565b610c1d611dbb565b565b600080600260019054906101000a900473ffffffffffffffffffffffffffffffffffffffff1690503073ffffffffffffffffffffffffffffffffffffffff168173ffffffffffffffffffffffffffffffffffffffff16636352211e876040518263ffffffff1660e01b8152600401610c979190612933565b602060405180830381865afa158015610cb4573d6000803e3d6000fd5b505050506040513d601f19601f82011682018060405250810190610cd89190612963565b73ffffffffffffffffffffffffffffffffffffffff1614610d2e576040517f08c379a0000000000000000000000000000000000000000000000000000000008152600401610d2590612a02565b60405180910390fd5b600060056000878152602001908152602001600020905084816002015414610d8b576040517f08c379a0000000000000000000000000000000000000000000000000000000008152600401610d8290612c87565b60405180910390fd5b83816003015414610dd1576040517f08c379a0000000000000000000000000000000000000000000000000000000008152600401610dc890612d19565b60405180910390fd5b4281600301541015610e18576040517f08c379a0000000000000000000000000000000000000000000000000000000008152600401610e0f90612dab565b60405180910390fd5b610e20611bcb565b73ffffffffffffffffffffffffffffffffffffffff168160010160009054906101000a900473ffffffffffffffffffffffffffffffffffffffff1673ffffffffffffffffffffffffffffffffffffffff1614610eb1576040517f08c379a0000000000000000000000000000000000000000000000000000000008152600401610ea890612e3d565b60405180910390fd5b60026004811115610ec557610ec46125cf565b5b8160040160009054906101000a900460ff166004811115610ee957610ee86125cf565b5b14610f29576040517f08c379a0000000000000000000000000000000000000000000000000000000008152600401610f2090612ea9565b60405180910390fd5b8060020154471015610f70576040517f08c379a0000000000000000000000000000000000000000000000000000000008152600401610f6790612f15565b60405180910390fd5b8173ffffffffffffffffffffffffffffffffffffffff166342966c68876040518263ffffffff1660e01b8152600401610fa99190612933565b600060405180830381600087803b158015610fc357600080fd5b505af1158015610fd7573d6000803e3d6000fd5b5050505061100d8160010160009054906101000a900473ffffffffffffffffffffffffffffffffffffffff168260020154611e04565b60038160040160006101000a81548160ff02191690836004811115611035576110346125cf565b5b02179055504281600301819055508060010160009054906101000a900473ffffffffffffffffffffffffffffffffffffffff1673ffffffffffffffffffffffffffffffffffffffff16867fc952a7736ec2f67b2051c1bd1b219dce1be902ca836c7c7115b48261604708ce83600201546040516110b29190612933565b60405180910390a36001925050509392505050565b600080600260019054906101000a900473ffffffffffffffffffffffffffffffffffffffff1690506110f7611bcb565b73ffffffffffffffffffffffffffffffffffffffff168173ffffffffffffffffffffffffffffffffffffffff16636352211e856040518263ffffffff1660e01b81526004016111469190612933565b602060405180830381865afa158015611163573d6000803e3d6000fd5b505050506040513d601f19601f820116820180604052508101906111879190612963565b73ffffffffffffffffffffffffffffffffffffffff16146111dd576040517f08c379a00000000000000000000000000000000000000000000000000000000081526004016111d490612f81565b60405180910390fd5b8073ffffffffffffffffffffffffffffffffffffffff16638b38d27c611201611bcb565b30866040518463ffffffff1660e01b815260040161122193929190612fa1565b600060405180830381600087803b15801561123b57600080fd5b505af115801561124f573d6000803e3d6000fd5b5050505060006005600085815260200190815260200160002090506003600481111561127e5761127d6125cf565b5b8160040160009054906101000a900460ff1660048111156112a2576112a16125cf565b5b036112e2576040517f08c379a00000000000000000000000000000000000000000000000000000000081526004016112d990613024565b60405180910390fd5b6000600660006112f0611bcb565b73ffffffffffffffffffffffffffffffffffffffff1673ffffffffffffffffffffffffffffffffffffffff168152602001908152602001600020905061133f8582611ef890919063ffffffff16565b506000600390506113598682611ef890919063ffffffff16565b5085836000018190555061136b611bcb565b8360010160006101000a81548173ffffffffffffffffffffffffffffffffffffffff021916908373ffffffffffffffffffffffffffffffffffffffff1602179055506000836002018190555060018360040160006101000a81548160ff021916908360048111156113df576113de6125cf565b5b02179055504283600301819055506113f5611bcb565b73ffffffffffffffffffffffffffffffffffffffff16867f10cef5ec72e57e7983d937eb064757a668131fb3c724a8a7b1ee3fbd334fa3d660405160405180910390a36001945050505050919050565b60008060009054906101000a900473ffffffffffffffffffffffffffffffffffffffff16905090565b61147661204a565b600560008381526020019081526020016000206040518060a0016040529081600082015481526020016001820160009054906101000a900473ffffffffffffffffffffffffffffffffffffffff1673ffffffffffffffffffffffffffffffffffffffff1673ffffffffffffffffffffffffffffffffffffffff16815260200160028201548152602001600382015481526020016004820160009054906101000a900460ff16600481111561152d5761152c6125cf565b5b600481111561153f5761153e6125cf565b5b815250509050919050565b6000611554611bcb565b73ffffffffffffffffffffffffffffffffffffffff16611572611445565b73ffffffffffffffffffffffffffffffffffffffff160361159657600190506115e6565b600160008373ffffffffffffffffffffffffffffffffffffffff1673ffffffffffffffffffffffffffffffffffffffff16815260200190815260200160002060009054906101000a900460ff1690505b919050565b60016020528060005260406000206000915054906101000a900460ff1681565b565b60606000611658600660008573ffffffffffffffffffffffffffffffffffffffff1673ffffffffffffffffffffffffffffffffffffffff168152602001908152602001600020611bd3565b905080915050919050565b61166b611b4d565b611673611f12565b565b600080600260019054906101000a900473ffffffffffffffffffffffffffffffffffffffff1690503073ffffffffffffffffffffffffffffffffffffffff168173ffffffffffffffffffffffffffffffffffffffff16636352211e856040518263ffffffff1660e01b81526004016116ed9190612933565b602060405180830381865afa15801561170a573d6000803e3d6000fd5b505050506040513d601f19601f8201168201806040525081019061172e9190612963565b73ffffffffffffffffffffffffffffffffffffffff1614611784576040517f08c379a000000000000000000000000000000000000000000000000000000000815260040161177b90612a02565b60405180910390fd5b60006005600085815260200190815260200160002090508060010160009054906101000a900473ffffffffffffffffffffffffffffffffffffffff1673ffffffffffffffffffffffffffffffffffffffff166117de611bcb565b73ffffffffffffffffffffffffffffffffffffffff16148061180c575061180b611806611bcb565b61154a565b5b61184b576040517f08c379a0000000000000000000000000000000000000000000000000000000008152600401611842906130b6565b60405180910390fd5b6002600481111561185f5761185e6125cf565b5b8160040160009054906101000a900460ff166004811115611883576118826125cf565b5b14806118c457506001600481111561189e5761189d6125cf565b5b8160040160009054906101000a900460ff1660048111156118c2576118c16125cf565b5b145b611903576040517f08c379a00000000000000000000000000000000000000000000000000000000081526004016118fa90612ea9565b60405180910390fd5b8173ffffffffffffffffffffffffffffffffffffffff166342842e0e30611928611bcb565b876040518463ffffffff1660e01b815260040161194793929190612fa1565b600060405180830381600087803b15801561196157600080fd5b505af1158015611975573d6000803e3d6000fd5b505050506000816003018190555060008160010160006101000a81548173ffffffffffffffffffffffffffffffffffffffff021916908373ffffffffffffffffffffffffffffffffffffffff1602179055506000816002018190555060048160040160006101000a81548160ff021916908360048111156119f9576119f86125cf565b5b02179055508060010160009054906101000a900473ffffffffffffffffffffffffffffffffffffffff1673ffffffffffffffffffffffffffffffffffffffff16847f6f44c80719cb2f74bdbd68b7af10147acb9b52e2675ad02f9c87f0985995993860405160405180910390a3600192505050919050565b611a79611b4d565b600073ffffffffffffffffffffffffffffffffffffffff168173ffffffffffffffffffffffffffffffffffffffff1603611ae8576040517f08c379a0000000000000000000000000000000000000000000000000000000008152600401611adf90613148565b60405180910390fd5b611af181611cf7565b50565b611afc611b4d565b80471015611b3f576040517f08c379a0000000000000000000000000000000000000000000000000000000008152600401611b36906131da565b60405180910390fd5b611b498282611e04565b5050565b611b55611bcb565b73ffffffffffffffffffffffffffffffffffffffff16611b73611445565b73ffffffffffffffffffffffffffffffffffffffff1614611bc9576040517f08c379a0000000000000000000000000000000000000000000000000000000008152600401611bc090613246565b60405180910390fd5b565b600033905090565b60606000611be383600001611f5b565b905060608190508092505050919050565b600073ffffffffffffffffffffffffffffffffffffffff168273ffffffffffffffffffffffffffffffffffffffff1603611c63576040517f08c379a0000000000000000000000000000000000000000000000000000000008152600401611c5a906132d8565b60405180910390fd5b80600160008473ffffffffffffffffffffffffffffffffffffffff1673ffffffffffffffffffffffffffffffffffffffff16815260200190815260200160002060006101000a81548160ff0219169083151502179055507f01883a2ded2d11a676263b3edca3878eec2c68618ae55db0314bebd4b9561b238282604051611ceb9291906132f8565b60405180910390a15050565b60008060009054906101000a900473ffffffffffffffffffffffffffffffffffffffff169050816000806101000a81548173ffffffffffffffffffffffffffffffffffffffff021916908373ffffffffffffffffffffffffffffffffffffffff1602179055508173ffffffffffffffffffffffffffffffffffffffff168173ffffffffffffffffffffffffffffffffffffffff167f8be0079c531659141344cd1fd0a4f28419497f9722a3daafe3b4186f6b6457e060405160405180910390a35050565b6000600260006101000a81548160ff0219169083151502179055507f17deb57f2c665512f91ec43836987faa802c8cd173a69f704a39155e48a40a2560405160405180910390a1565b80471015611e47576040517f08c379a0000000000000000000000000000000000000000000000000000000008152600401611e3e9061336d565b60405180910390fd5b60008273ffffffffffffffffffffffffffffffffffffffff1682604051611e6d906133be565b60006040518083038185875af1925050503d8060008114611eaa576040519150601f19603f3d011682016040523d82523d6000602084013e611eaf565b606091505b5050905080611ef3576040517f08c379a0000000000000000000000000000000000000000000000000000000008152600401611eea90613445565b60405180910390fd5b505050565b6000611f0a836000018360001b611fb7565b905092915050565b6001600260006101000a81548160ff0219169083151502179055507ff1917d42b61041c8a637919d5c23a9a559d72e57633d21cfe88c46b0fa01b6b960405160405180910390a1565b606081600001805480602002602001604051908101604052809291908181526020018280548015611fab57602002820191906000526020600020905b815481526020019060010190808311611f97575b50505050509050919050565b6000611fc38383612027565b61201c578260000182908060018154018082558091505060019003906000526020600020016000909190919091505582600001805490508360010160008481526020019081526020016000208190555060019050612021565b600090505b92915050565b600080836001016000848152602001908152602001600020541415905092915050565b6040518060a0016040528060008152602001600073ffffffffffffffffffffffffffffffffffffffff16815260200160008152602001600081526020016000600481111561209b5761209a6125cf565b5b81525090565b6000604051905090565b600080fd5b600080fd5b600073ffffffffffffffffffffffffffffffffffffffff82169050919050565b60006120e0826120b5565b9050919050565b6120f0816120d5565b81146120fb57600080fd5b50565b60008135905061210d816120e7565b92915050565b600060208284031215612129576121286120ab565b5b6000612137848285016120fe565b91505092915050565b60008115159050919050565b61215581612140565b82525050565b6000602082019050612170600083018461214c565b92915050565b6000819050919050565b61218981612176565b811461219457600080fd5b50565b6000813590506121a681612180565b92915050565b600080fd5b600080fd5b6000601f19601f8301169050919050565b7f4e487b7100000000000000000000000000000000000000000000000000000000600052604160045260246000fd5b6121ff826121b6565b810181811067ffffffffffffffff8211171561221e5761221d6121c7565b5b80604052505050565b60006122316120a1565b905061223d82826121f6565b919050565b600067ffffffffffffffff82111561225d5761225c6121c7565b5b612266826121b6565b9050602081019050919050565b82818337600083830152505050565b600061229561229084612242565b612227565b9050828152602081018484840111156122b1576122b06121b1565b5b6122bc848285612273565b509392505050565b600082601f8301126122d9576122d86121ac565b5b81356122e9848260208601612282565b91505092915050565b6000806000806080858703121561230c5761230b6120ab565b5b600061231a878288016120fe565b945050602061232b878288016120fe565b935050604061233c87828801612197565b925050606085013567ffffffffffffffff81111561235d5761235c6120b0565b5b612369878288016122c4565b91505092959194509250565b60007fffffffff0000000000000000000000000000000000000000000000000000000082169050919050565b6123aa81612375565b82525050565b60006020820190506123c560008301846123a1565b92915050565b6000806000606084860312156123e4576123e36120ab565b5b60006123f286828701612197565b935050602061240386828701612197565b925050604061241486828701612197565b9150509250925092565b600081519050919050565b600082825260208201905092915050565b6000819050602082019050919050565b61245381612176565b82525050565b6000612465838361244a565b60208301905092915050565b6000602082019050919050565b60006124898261241e565b6124938185612429565b935061249e8361243a565b8060005b838110156124cf5781516124b68882612459565b97506124c183612471565b9250506001810190506124a2565b5085935050505092915050565b600060208201905081810360008301526124f6818461247e565b905092915050565b61250781612140565b811461251257600080fd5b50565b600081359050612524816124fe565b92915050565b60008060408385031215612541576125406120ab565b5b600061254f858286016120fe565b925050602061256085828601612515565b9150509250929050565b612573816120d5565b82525050565b600060208201905061258e600083018461256a565b92915050565b600081519050919050565b600082825260208201905092915050565b6000819050602082019050919050565b6125c9816120d5565b82525050565b7f4e487b7100000000000000000000000000000000000000000000000000000000600052602160045260246000fd5b6005811061260f5761260e6125cf565b5b50565b6000819050612620826125fe565b919050565b600061263082612612565b9050919050565b61264081612625565b82525050565b60a08201600082015161265c600085018261244a565b50602082015161266f60208501826125c0565b506040820151612682604085018261244a565b506060820151612695606085018261244a565b5060808201516126a86080850182612637565b50505050565b60006126ba8383612646565b60a08301905092915050565b6000602082019050919050565b60006126de82612594565b6126e8818561259f565b93506126f3836125b0565b8060005b8381101561272457815161270b88826126ae565b9750612716836126c6565b9250506001810190506126f7565b5085935050505092915050565b6000602082019050818103600083015261274b81846126d3565b905092915050565b600060208284031215612769576127686120ab565b5b600061277784828501612197565b91505092915050565b60a082016000820151612796600085018261244a565b5060208201516127a960208501826125c0565b5060408201516127bc604085018261244a565b5060608201516127cf606085018261244a565b5060808201516127e26080850182612637565b50505050565b600060a0820190506127fd6000830184612780565b92915050565b600061280e826120b5565b9050919050565b61281e81612803565b811461282957600080fd5b50565b60008135905061283b81612815565b92915050565b60008060408385031215612858576128576120ab565b5b60006128668582860161282c565b925050602061287785828601612197565b9150509250929050565b600082825260208201905092915050565b7f416c6c6c6f776c6973744f776e65723a2063616c6c6572206973206e6f74207460008201527f6865204f776e6572206f7220696e2074686520416c6c6f774c69737400000000602082015250565b60006128ee603c83612881565b91506128f982612892565b604082019050919050565b6000602082019050818103600083015261291d816128e1565b9050919050565b61292d81612176565b82525050565b60006020820190506129486000830184612924565b92915050565b60008151905061295d816120e7565b92915050565b600060208284031215612979576129786120ab565b5b60006129878482850161294e565b91505092915050565b7f4e6674457363726f773a20636f6e7472616374206e6f74204e4654206f776e6560008201527f7200000000000000000000000000000000000000000000000000000000000000602082015250565b60006129ec602183612881565b91506129f782612990565b604082019050919050565b60006020820190508181036000830152612a1b816129df565b9050919050565b7f4e6674526564656d7074696f6e3a20657363726f7720697320616c726561647960008201527f2072656465656d6564206f722063616e63656c6c656400000000000000000000602082015250565b6000612a7e603683612881565b9150612a8982612a22565b604082019050919050565b60006020820190508181036000830152612aad81612a71565b9050919050565b7f4e6674457363726f773a20616d6f756e74206e6565647320737566666963656e60008201527f742066756e647320696e20636f6e747261637400000000000000000000000000602082015250565b6000612b10603383612881565b9150612b1b82612ab4565b604082019050919050565b60006020820190508181036000830152612b3f81612b03565b9050919050565b6000604082019050612b5b6000830185612924565b612b686020830184612924565b9392505050565b7f4e487b7100000000000000000000000000000000000000000000000000000000600052603260045260246000fd5b7f4e487b7100000000000000000000000000000000000000000000000000000000600052601160045260246000fd5b6000612bd882612176565b91507fffffffffffffffffffffffffffffffffffffffffffffffffffffffffffffffff8203612c0a57612c09612b9e565b5b600182019050919050565b7f4e6674457363726f773a20616d6f756e747320646f6573206e6f74206d61746360008201527f682c2065787069726564206f6666657220646174610000000000000000000000602082015250565b6000612c71603583612881565b9150612c7c82612c15565b604082019050919050565b60006020820190508181036000830152612ca081612c64565b9050919050565b7f4e6674457363726f773a20646561646c696e6520646f6573206e6f74206d617460008201527f63682c2065787069726564206f66666572206461746100000000000000000000602082015250565b6000612d03603683612881565b9150612d0e82612ca7565b604082019050919050565b60006020820190508181036000830152612d3281612cf6565b9050919050565b7f4e6674457363726f773a20646561646c696e652068617320657870697265642c60008201527f2063616e63656c20616e6420726563726561746520657363726f770000000000602082015250565b6000612d95603b83612881565b9150612da082612d39565b604082019050919050565b60006020820190508181036000830152612dc481612d88565b9050919050565b7f4e6674457363726f773a206e657720746f206265204e465420657363726f772060008201527f6f776e6572000000000000000000000000000000000000000000000000000000602082015250565b6000612e27602583612881565b9150612e3282612dcb565b604082019050919050565b60006020820190508181036000830152612e5681612e1a565b9050919050565b7f4e6674457363726f773a206973206e6f74206f66666572656400000000000000600082015250565b6000612e93601983612881565b9150612e9e82612e5d565b602082019050919050565b60006020820190508181036000830152612ec281612e86565b9050919050565b7f4e6674457363726f773a20696e73756666696369656e742066756e6473000000600082015250565b6000612eff601d83612881565b9150612f0a82612ec9565b602082019050919050565b60006020820190508181036000830152612f2e81612ef2565b9050919050565b7f4e6674457363726f773a2073656e646572206973206e6f74206f776e65720000600082015250565b6000612f6b601e83612881565b9150612f7682612f35565b602082019050919050565b60006020820190508181036000830152612f9a81612f5e565b9050919050565b6000606082019050612fb6600083018661256a565b612fc3602083018561256a565b612fd06040830184612924565b949350505050565b7f4e6674457363726f773a204e4654206973206e6f742072656465656d65640000600082015250565b600061300e601e83612881565b915061301982612fd8565b602082019050919050565b6000602082019050818103600083015261303d81613001565b9050919050565b7f4e6674457363726f773a206e6f7420657363726f77206f776e6572206f72206960008201527f734f776e65724f72496e416c6c6f776c69737465640000000000000000000000602082015250565b60006130a0603583612881565b91506130ab82613044565b604082019050919050565b600060208201905081810360008301526130cf81613093565b9050919050565b7f4f776e61626c653a206e6577206f776e657220697320746865207a65726f206160008201527f6464726573730000000000000000000000000000000000000000000000000000602082015250565b6000613132602683612881565b915061313d826130d6565b604082019050919050565b6000602082019050818103600083015261316181613125565b9050919050565b7f62616c616e63652076616c7565206e6565647320746f206265203e3d20616d6f60008201527f756e740000000000000000000000000000000000000000000000000000000000602082015250565b60006131c4602383612881565b91506131cf82613168565b604082019050919050565b600060208201905081810360008301526131f3816131b7565b9050919050565b7f4f776e61626c653a2063616c6c6572206973206e6f7420746865206f776e6572600082015250565b6000613230602083612881565b915061323b826131fa565b602082019050919050565b6000602082019050818103600083015261325f81613223565b9050919050565b7f416c6c6c6f776c6973744f776e65723a204e65656420612076616c696420616460008201527f6472657373000000000000000000000000000000000000000000000000000000602082015250565b60006132c2602583612881565b91506132cd82613266565b604082019050919050565b600060208201905081810360008301526132f1816132b5565b9050919050565b600060408201905061330d600083018561256a565b61331a602083018461214c565b9392505050565b7f416464726573733a20696e73756666696369656e742062616c616e6365000000600082015250565b6000613357601d83612881565b915061336282613321565b602082019050919050565b600060208201905081810360008301526133868161334a565b9050919050565b600081905092915050565b50565b60006133a860008361338d565b91506133b382613398565b600082019050919050565b60006133c98261339b565b9150819050919050565b7f416464726573733a20756e61626c6520746f2073656e642076616c75652c207260008201527f6563697069656e74206d61792068617665207265766572746564000000000000602082015250565b600061342f603a83612881565b915061343a826133d3565b604082019050919050565b6000602082019050818103600083015261345e81613422565b905091905056fea264697066735822122050dc17f7478ffbd23f25dd6659ddfb3709a554a5aa01b989b8f16129bdf3e43964736f6c63430008130033",
  "devdoc": {
    "kind": "dev",
    "methods": {
      "onERC721Received(address,address,uint256,bytes)": {
        "details": "See {IERC721Receiver-onERC721Received}. Always returns `IERC721Receiver.onERC721Received.selector`."
      },
      "owner()": {
        "details": "Returns the address of the current owner."
      },
      "renounceOwnership()": {
        "details": "Leaves the contract without owner. It will not be possible to call `onlyOwner` functions. Can only be called by the current owner. NOTE: Renouncing ownership will leave the contract without an owner, thereby disabling any functionality that is only available to the owner."
      },
      "transferOwnership(address)": {
        "details": "Transfers ownership of the contract to a new account (`newOwner`). Can only be called by the current owner."
      }
    },
    "version": 1
  },
  "userdoc": {
    "kind": "user",
    "methods": {},
    "version": 1
  },
  "storageLayout": {
    "storage": [
      {
        "astId": 7,
        "contract": "contracts/NftRedemption.sol:NftRedemption",
        "label": "_owner",
        "offset": 0,
        "slot": "0",
        "type": "t_address"
      },
      {
        "astId": 4218,
        "contract": "contracts/NftRedemption.sol:NftRedemption",
        "label": "allowlist",
        "offset": 0,
        "slot": "1",
        "type": "t_mapping(t_address,t_bool)"
      },
      {
        "astId": 4221,
        "contract": "contracts/NftRedemption.sol:NftRedemption",
        "label": "allowListEnabled",
        "offset": 0,
        "slot": "2",
        "type": "t_bool"
      },
      {
        "astId": 4453,
        "contract": "contracts/NftRedemption.sol:NftRedemption",
        "label": "nftAddress",
        "offset": 1,
        "slot": "2",
        "type": "t_address"
      },
      {
        "astId": 4456,
        "contract": "contracts/NftRedemption.sol:NftRedemption",
        "label": "tokensInEscrow",
        "offset": 0,
        "slot": "3",
        "type": "t_struct(UintSet)4079_storage"
      },
      {
        "astId": 4461,
        "contract": "contracts/NftRedemption.sol:NftRedemption",
        "label": "escrows",
        "offset": 0,
        "slot": "5",
        "type": "t_mapping(t_uint256,t_struct(Escrow)4451_storage)"
      },
      {
        "astId": 4466,
        "contract": "contracts/NftRedemption.sol:NftRedemption",
        "label": "userEscrows",
        "offset": 0,
        "slot": "6",
        "type": "t_mapping(t_address,t_struct(UintSet)4079_storage)"
      }
    ],
    "types": {
      "t_address": {
        "encoding": "inplace",
        "label": "address",
        "numberOfBytes": "20"
      },
      "t_array(t_bytes32)dyn_storage": {
        "base": "t_bytes32",
        "encoding": "dynamic_array",
        "label": "bytes32[]",
        "numberOfBytes": "32"
      },
      "t_bool": {
        "encoding": "inplace",
        "label": "bool",
        "numberOfBytes": "1"
      },
      "t_bytes32": {
        "encoding": "inplace",
        "label": "bytes32",
        "numberOfBytes": "32"
      },
      "t_enum(EscrowStatus)4439": {
        "encoding": "inplace",
        "label": "enum NftRedemption.EscrowStatus",
        "numberOfBytes": "1"
      },
      "t_mapping(t_address,t_bool)": {
        "encoding": "mapping",
        "key": "t_address",
        "label": "mapping(address => bool)",
        "numberOfBytes": "32",
        "value": "t_bool"
      },
      "t_mapping(t_address,t_struct(UintSet)4079_storage)": {
        "encoding": "mapping",
        "key": "t_address",
        "label": "mapping(address => struct EnumerableSet.UintSet)",
        "numberOfBytes": "32",
        "value": "t_struct(UintSet)4079_storage"
      },
      "t_mapping(t_bytes32,t_uint256)": {
        "encoding": "mapping",
        "key": "t_bytes32",
        "label": "mapping(bytes32 => uint256)",
        "numberOfBytes": "32",
        "value": "t_uint256"
      },
      "t_mapping(t_uint256,t_struct(Escrow)4451_storage)": {
        "encoding": "mapping",
        "key": "t_uint256",
        "label": "mapping(uint256 => struct NftRedemption.Escrow)",
        "numberOfBytes": "32",
        "value": "t_struct(Escrow)4451_storage"
      },
      "t_struct(Escrow)4451_storage": {
        "encoding": "inplace",
        "label": "struct NftRedemption.Escrow",
        "members": [
          {
            "astId": 4441,
            "contract": "contracts/NftRedemption.sol:NftRedemption",
            "label": "tokenId",
            "offset": 0,
            "slot": "0",
            "type": "t_uint256"
          },
          {
            "astId": 4443,
            "contract": "contracts/NftRedemption.sol:NftRedemption",
            "label": "owner",
            "offset": 0,
            "slot": "1",
            "type": "t_address"
          },
          {
            "astId": 4445,
            "contract": "contracts/NftRedemption.sol:NftRedemption",
            "label": "amount",
            "offset": 0,
            "slot": "2",
            "type": "t_uint256"
          },
          {
            "astId": 4447,
            "contract": "contracts/NftRedemption.sol:NftRedemption",
            "label": "deadline",
            "offset": 0,
            "slot": "3",
            "type": "t_uint256"
          },
          {
            "astId": 4450,
            "contract": "contracts/NftRedemption.sol:NftRedemption",
            "label": "status",
            "offset": 0,
            "slot": "4",
            "type": "t_enum(EscrowStatus)4439"
          }
        ],
        "numberOfBytes": "160"
      },
      "t_struct(Set)3607_storage": {
        "encoding": "inplace",
        "label": "struct EnumerableSet.Set",
        "members": [
          {
            "astId": 3602,
            "contract": "contracts/NftRedemption.sol:NftRedemption",
            "label": "_values",
            "offset": 0,
            "slot": "0",
            "type": "t_array(t_bytes32)dyn_storage"
          },
          {
            "astId": 3606,
            "contract": "contracts/NftRedemption.sol:NftRedemption",
            "label": "_indexes",
            "offset": 0,
            "slot": "1",
            "type": "t_mapping(t_bytes32,t_uint256)"
          }
        ],
        "numberOfBytes": "64"
      },
      "t_struct(UintSet)4079_storage": {
        "encoding": "inplace",
        "label": "struct EnumerableSet.UintSet",
        "members": [
          {
            "astId": 4078,
            "contract": "contracts/NftRedemption.sol:NftRedemption",
            "label": "_inner",
            "offset": 0,
            "slot": "0",
            "type": "t_struct(Set)3607_storage"
          }
        ],
        "numberOfBytes": "64"
      },
      "t_uint256": {
        "encoding": "inplace",
        "label": "uint256",
        "numberOfBytes": "32"
      }
    }
  }
}