{
  "address": "0xe7f1725E7734CE288F8367e1Bb143E90bb3F0512",
  "abi": [
    {
      "inputs": [],
      "stateMutability": "nonpayable",
      "type": "constructor"
    },
    {
      "anonymous": false,
      "inputs": [],
      "name": "DisableAllowList",
      "type": "event"
    },
    {
      "anonymous": false,
      "inputs": [],
      "name": "EnabledAllowList",
      "type": "event"
    },
    {
      "anonymous": false,
      "inputs": [
        {
          "indexed": true,
          "internalType": "uint256",
          "name": "tokenId",
          "type": "uint256"
        },
        {
          "indexed": true,
          "internalType": "address",
          "name": "owner",
          "type": "address"
        }
      ],
      "name": "EscrowCancelled",
      "type": "event"
    },
    {
      "anonymous": false,
      "inputs": [
        {
          "indexed": true,
          "internalType": "uint256",
          "name": "tokenId",
          "type": "uint256"
        },
        {
          "indexed": true,
          "internalType": "uint256",
          "name": "redeemPeriod",
          "type": "uint256"
        },
        {
          "indexed": true,
          "internalType": "address",
          "name": "owner",
          "type": "address"
        }
      ],
      "name": "EscrowCreated",
      "type": "event"
    },
    {
      "anonymous": false,
      "inputs": [
        {
          "indexed": true,
          "internalType": "uint256",
          "name": "tokenId",
          "type": "uint256"
        },
        {
          "indexed": false,
          "internalType": "uint256",
          "name": "amount",
          "type": "uint256"
        },
        {
          "indexed": false,
          "internalType": "uint256",
          "name": "timestamp",
          "type": "uint256"
        }
      ],
      "name": "EscrowOffer",
      "type": "event"
    },
    {
      "anonymous": false,
      "inputs": [
        {
          "indexed": true,
          "internalType": "uint256",
          "name": "tokenId",
          "type": "uint256"
        },
        {
          "indexed": true,
          "internalType": "address",
          "name": "owner",
          "type": "address"
        },
        {
          "indexed": false,
          "internalType": "uint256",
          "name": "amount",
          "type": "uint256"
        }
      ],
      "name": "EscrowRedeemed",
      "type": "event"
    },
    {
      "anonymous": false,
      "inputs": [
        {
          "indexed": true,
          "internalType": "address",
          "name": "previousOwner",
          "type": "address"
        },
        {
          "indexed": true,
          "internalType": "address",
          "name": "newOwner",
          "type": "address"
        }
      ],
      "name": "OwnershipTransferred",
      "type": "event"
    },
    {
      "anonymous": false,
      "inputs": [
        {
          "indexed": false,
          "internalType": "address",
          "name": "account",
          "type": "address"
        },
        {
          "indexed": false,
          "internalType": "bool",
          "name": "isAllowed",
          "type": "bool"
        }
      ],
      "name": "UserAllowList",
      "type": "event"
    },
    {
      "inputs": [],
      "name": "allowListEnabled",
      "outputs": [
        {
          "internalType": "bool",
          "name": "",
          "type": "bool"
        }
      ],
      "stateMutability": "view",
      "type": "function"
    },
    {
      "inputs": [
        {
          "internalType": "address",
          "name": "",
          "type": "address"
        }
      ],
      "name": "allowlist",
      "outputs": [
        {
          "internalType": "bool",
          "name": "",
          "type": "bool"
        }
      ],
      "stateMutability": "view",
      "type": "function"
    },
    {
      "inputs": [
        {
          "internalType": "uint256",
          "name": "tokenId",
          "type": "uint256"
        }
      ],
      "name": "cancelEscrow",
      "outputs": [
        {
          "internalType": "bool",
          "name": "",
          "type": "bool"
        }
      ],
      "stateMutability": "nonpayable",
      "type": "function"
    },
    {
      "inputs": [
        {
          "internalType": "uint256",
          "name": "tokenId",
          "type": "uint256"
        },
        {
          "internalType": "uint256",
          "name": "redeemPeriod",
          "type": "uint256"
        }
      ],
      "name": "createEscrow",
      "outputs": [
        {
          "internalType": "bool",
          "name": "",
          "type": "bool"
        }
      ],
      "stateMutability": "nonpayable",
      "type": "function"
    },
    {
      "inputs": [],
      "name": "disableAllowList",
      "outputs": [],
      "stateMutability": "nonpayable",
      "type": "function"
    },
    {
      "inputs": [],
      "name": "enableAllowList",
      "outputs": [],
      "stateMutability": "nonpayable",
      "type": "function"
    },
    {
      "inputs": [
        {
          "internalType": "uint256",
          "name": "tokenId",
          "type": "uint256"
        }
      ],
      "name": "escrowStatus",
      "outputs": [
        {
          "components": [
            {
              "internalType": "uint256",
              "name": "tokenId",
              "type": "uint256"
            },
            {
              "internalType": "address",
              "name": "owner",
              "type": "address"
            },
            {
              "internalType": "uint256",
              "name": "amount",
              "type": "uint256"
            },
            {
              "internalType": "uint256",
              "name": "timestamp",
              "type": "uint256"
            },
            {
              "internalType": "uint256",
              "name": "redeemPeriod",
              "type": "uint256"
            },
            {
              "internalType": "enum NftRedemptionToken.EscrowStatus",
              "name": "status",
              "type": "uint8"
            }
          ],
          "internalType": "struct NftRedemptionToken.Escrow",
          "name": "",
          "type": "tuple"
        }
      ],
      "stateMutability": "view",
      "type": "function"
    },
    {
      "inputs": [
        {
          "internalType": "uint256",
          "name": "amount",
          "type": "uint256"
        }
      ],
      "name": "fundToken",
      "outputs": [],
      "stateMutability": "nonpayable",
      "type": "function"
    },
    {
      "inputs": [],
      "name": "getEscrowedTokenId",
      "outputs": [
        {
          "internalType": "uint256[]",
          "name": "",
          "type": "uint256[]"
        }
      ],
      "stateMutability": "view",
      "type": "function"
    },
    {
      "inputs": [
        {
          "internalType": "address",
          "name": "user",
          "type": "address"
        }
      ],
      "name": "getUserEscrows",
      "outputs": [
        {
          "components": [
            {
              "internalType": "uint256",
              "name": "tokenId",
              "type": "uint256"
            },
            {
              "internalType": "address",
              "name": "owner",
              "type": "address"
            },
            {
              "internalType": "uint256",
              "name": "amount",
              "type": "uint256"
            },
            {
              "internalType": "uint256",
              "name": "timestamp",
              "type": "uint256"
            },
            {
              "internalType": "uint256",
              "name": "redeemPeriod",
              "type": "uint256"
            },
            {
              "internalType": "enum NftRedemptionToken.EscrowStatus",
              "name": "status",
              "type": "uint8"
            }
          ],
          "internalType": "struct NftRedemptionToken.Escrow[]",
          "name": "",
          "type": "tuple[]"
        }
      ],
      "stateMutability": "view",
      "type": "function"
    },
    {
      "inputs": [
        {
          "internalType": "address",
          "name": "user",
          "type": "address"
        }
      ],
      "name": "getUserEscrowsId",
      "outputs": [
        {
          "internalType": "uint256[]",
          "name": "",
          "type": "uint256[]"
        }
      ],
      "stateMutability": "view",
      "type": "function"
    },
    {
      "inputs": [
        {
          "internalType": "address",
          "name": "addr",
          "type": "address"
        }
      ],
      "name": "isAllowlisted",
      "outputs": [
        {
          "internalType": "bool",
          "name": "",
          "type": "bool"
        }
      ],
      "stateMutability": "view",
      "type": "function"
    },
    {
      "inputs": [
        {
          "internalType": "address",
          "name": "addr",
          "type": "address"
        }
      ],
      "name": "isOwnerOrInAllowlisted",
      "outputs": [
        {
          "internalType": "bool",
          "name": "",
          "type": "bool"
        }
      ],
      "stateMutability": "view",
      "type": "function"
    },
    {
      "inputs": [],
      "name": "nftAddress",
      "outputs": [
        {
          "internalType": "address",
          "name": "",
          "type": "address"
        }
      ],
      "stateMutability": "view",
      "type": "function"
    },
    {
      "inputs": [
        {
          "internalType": "uint256",
          "name": "tokenId",
          "type": "uint256"
        },
        {
          "internalType": "uint256",
          "name": "amount",
          "type": "uint256"
        },
        {
          "internalType": "uint256",
          "name": "timestamp",
          "type": "uint256"
        }
      ],
      "name": "offerEscrow",
      "outputs": [
        {
          "internalType": "bool",
          "name": "",
          "type": "bool"
        }
      ],
      "stateMutability": "nonpayable",
      "type": "function"
    },
    {
      "inputs": [
        {
          "internalType": "address",
          "name": "",
          "type": "address"
        },
        {
          "internalType": "address",
          "name": "",
          "type": "address"
        },
        {
          "internalType": "uint256",
          "name": "",
          "type": "uint256"
        },
        {
          "internalType": "bytes",
          "name": "",
          "type": "bytes"
        }
      ],
      "name": "onERC721Received",
      "outputs": [
        {
          "internalType": "bytes4",
          "name": "",
          "type": "bytes4"
        }
      ],
      "stateMutability": "nonpayable",
      "type": "function"
    },
    {
      "inputs": [],
      "name": "owner",
      "outputs": [
        {
          "internalType": "address",
          "name": "",
          "type": "address"
        }
      ],
      "stateMutability": "view",
      "type": "function"
    },
    {
      "inputs": [
        {
          "internalType": "address",
          "name": "_nftAddress",
          "type": "address"
        }
      ],
      "name": "preAuthorizeBurn",
      "outputs": [],
      "stateMutability": "nonpayable",
      "type": "function"
    },
    {
      "inputs": [
        {
          "internalType": "uint256",
          "name": "tokenId",
          "type": "uint256"
        },
        {
          "internalType": "uint256",
          "name": "amount",
          "type": "uint256"
        },
        {
          "internalType": "uint256",
          "name": "timestamp",
          "type": "uint256"
        }
      ],
      "name": "redeemEscrow",
      "outputs": [
        {
          "internalType": "bool",
          "name": "",
          "type": "bool"
        }
      ],
      "stateMutability": "nonpayable",
      "type": "function"
    },
    {
      "inputs": [],
      "name": "renounceOwnership",
      "outputs": [],
      "stateMutability": "nonpayable",
      "type": "function"
    },
    {
      "inputs": [
        {
          "internalType": "address",
          "name": "addr",
          "type": "address"
        },
        {
          "internalType": "bool",
          "name": "isAllowed",
          "type": "bool"
        }
      ],
      "name": "setAllowlistUser",
      "outputs": [],
      "stateMutability": "nonpayable",
      "type": "function"
    },
    {
      "inputs": [
        {
          "internalType": "address",
          "name": "_tokenAddress",
          "type": "address"
        }
      ],
      "name": "setTokenAddress",
      "outputs": [],
      "stateMutability": "nonpayable",
      "type": "function"
    },
    {
      "inputs": [],
      "name": "tokenAddress",
      "outputs": [
        {
          "internalType": "address",
          "name": "",
          "type": "address"
        }
      ],
      "stateMutability": "view",
      "type": "function"
    },
    {
      "inputs": [
        {
          "internalType": "address",
          "name": "newOwner",
          "type": "address"
        }
      ],
      "name": "transferOwnership",
      "outputs": [],
      "stateMutability": "nonpayable",
      "type": "function"
    },
    {
      "inputs": [
        {
          "internalType": "uint256",
          "name": "amount",
          "type": "uint256"
        }
      ],
      "name": "withdrawToken",
      "outputs": [],
      "stateMutability": "nonpayable",
      "type": "function"
    }
  ],
  "transactionHash": "0x4021766ba6dfdbaae438a8198d3efed7be84ebf77bf34e928e5380df5e98c013",
  "args": [],
  "numDeployments": 1,
  "solcInputHash": "9b25fd1efa60b28de0f9656b2f33051d",
  "bytecode": "0x60806040526001600260006101000a81548160ff021916908315150217905550739fe46736679d2d9a65f0992f2272de9f3c7fa6e0600360006101000a81548173ffffffffffffffffffffffffffffffffffffffff021916908373ffffffffffffffffffffffffffffffffffffffff1602179055503480156200008157600080fd5b50620000a262000096620000a860201b60201c565b620000b060201b60201c565b62000174565b600033905090565b60008060009054906101000a900473ffffffffffffffffffffffffffffffffffffffff169050816000806101000a81548173ffffffffffffffffffffffffffffffffffffffff021916908373ffffffffffffffffffffffffffffffffffffffff1602179055508173ffffffffffffffffffffffffffffffffffffffff168173ffffffffffffffffffffffffffffffffffffffff167f8be0079c531659141344cd1fd0a4f28419497f9722a3daafe3b4186f6b6457e060405160405180910390a35050565b61422380620001846000396000f3fe608060405234801561001057600080fd5b50600436106101735760003560e01c8063715018a6116100de5780639d76ea5811610097578063d9c7d85711610071578063d9c7d8571461045e578063dc2fbaee1461048e578063e018243614610498578063f2fde38b146104c857610173565b80639d76ea58146103e0578063a7cd52cb146103fe578063c0a21d1f1461042e57610173565b8063715018a61461031e578063834029ba1461032857806385a91959146103325780638da5cb5b1461036257806395ae78b014610380578063990c006d146103b057610173565b806326a4e8d21161013057806326a4e8d2146102605780633045b2411461027c578063419cd5e61461029857806350baa622146102b45780635bf8633a146102d05780635ccea85e146102ee57610173565b806305a3b80914610178578063150b7a02146101a857806315b06d91146101d85780631c5c7b38146101f457806321b5e2c21461022457806322bd5c1c14610242575b600080fd5b610192600480360381019061018d9190612a5b565b6104e4565b60405161019f9190612aa3565b60405180910390f35b6101c260048036038101906101bd9190612c3a565b61053a565b6040516101cf9190612cf8565b60405180910390f35b6101f260048036038101906101ed9190612a5b565b61054e565b005b61020e60048036038101906102099190612d13565b61059a565b60405161021b9190612aa3565b60405180910390f35b61022c610986565b6040516102399190612e24565b60405180910390f35b61024a61099d565b6040516102579190612aa3565b60405180910390f35b61027a60048036038101906102759190612a5b565b6109b0565b005b61029660048036038101906102919190612e72565b610ac3565b005b6102b260048036038101906102ad9190612eb2565b610ad9565b005b6102ce60048036038101906102c99190612eb2565b610de3565b005b6102d8611027565b6040516102e59190612eee565b60405180910390f35b61030860048036038101906103039190612a5b565b61104d565b60405161031591906130b9565b60405180910390f35b610326611255565b005b610330611269565b005b61034c60048036038101906103479190612d13565b61127b565b6040516103599190612aa3565b60405180910390f35b61036a611801565b6040516103779190612eee565b60405180910390f35b61039a60048036038101906103959190612eb2565b61182a565b6040516103a79190613156565b60405180910390f35b6103ca60048036038101906103c59190612a5b565b611910565b6040516103d79190612aa3565b60405180910390f35b6103e86119b1565b6040516103f59190612eee565b60405180910390f35b61041860048036038101906104139190612a5b565b6119d7565b6040516104259190612aa3565b60405180910390f35b61044860048036038101906104439190613171565b6119f7565b6040516104559190612aa3565b60405180910390f35b61047860048036038101906104739190612a5b565b611d80565b6040516104859190612e24565b60405180910390f35b610496611dd6565b005b6104b260048036038101906104ad9190612eb2565b611de8565b6040516104bf9190612aa3565b60405180910390f35b6104e260048036038101906104dd9190612a5b565b6121e4565b005b6000600160008373ffffffffffffffffffffffffffffffffffffffff1673ffffffffffffffffffffffffffffffffffffffff16815260200190815260200160002060009054906101000a900460ff169050919050565b600063150b7a0260e01b9050949350505050565b610556612267565b80600260016101000a81548173ffffffffffffffffffffffffffffffffffffffff021916908373ffffffffffffffffffffffffffffffffffffffff16021790555050565b60006105a46122e5565b73ffffffffffffffffffffffffffffffffffffffff166105c2611801565b73ffffffffffffffffffffffffffffffffffffffff161461064357600260009054906101000a900460ff1615610642576106026105fd6122e5565b6104e4565b610641576040517f08c379a000000000000000000000000000000000000000000000000000000000815260040161063890613234565b60405180910390fd5b5b5b6000600260019054906101000a900473ffffffffffffffffffffffffffffffffffffffff1690503073ffffffffffffffffffffffffffffffffffffffff168173ffffffffffffffffffffffffffffffffffffffff16636352211e876040518263ffffffff1660e01b81526004016106ba9190613263565b602060405180830381865afa1580156106d7573d6000803e3d6000fd5b505050506040513d601f19601f820116820180604052508101906106fb9190613293565b73ffffffffffffffffffffffffffffffffffffffff1614610751576040517f08c379a000000000000000000000000000000000000000000000000000000000815260040161074890613332565b60405180910390fd5b60006006600087815260200190815260200160002090506003600481111561077c5761077b612f44565b5b8160050160009054906101000a900460ff1660048111156107a05761079f612f44565b5b141580156107e357506004808111156107bc576107bb612f44565b5b8160050160009054906101000a900460ff1660048111156107e0576107df612f44565b5b14155b610822576040517f08c379a0000000000000000000000000000000000000000000000000000000008152600401610819906133c4565b60405180910390fd5b600360009054906101000a900473ffffffffffffffffffffffffffffffffffffffff1673ffffffffffffffffffffffffffffffffffffffff166370a08231306040518263ffffffff1660e01b815260040161087d9190612eee565b602060405180830381865afa15801561089a573d6000803e3d6000fd5b505050506040513d601f19601f820116820180604052508101906108be91906133f9565b851115610900576040517f08c379a00000000000000000000000000000000000000000000000000000000081526004016108f790613498565b60405180910390fd5b84816002018190555083816003018190555060028160050160006101000a81548160ff0219169083600481111561093a57610939612f44565b5b0217905550857f81118abaa8c2a1e22656d8a2ddaedc183b1b17259c42ff47f18d05e168baa89f86866040516109719291906134b8565b60405180910390a26001925050509392505050565b6060600061099460046122ed565b90508091505090565b600260009054906101000a900460ff1681565b6109b8612267565b80600360006101000a81548173ffffffffffffffffffffffffffffffffffffffff021916908373ffffffffffffffffffffffffffffffffffffffff1602179055506000600360009054906101000a900473ffffffffffffffffffffffffffffffffffffffff1690508073ffffffffffffffffffffffffffffffffffffffff1663095ea7b3307fffffffffffffffffffffffffffffffffffffffffffffffffffffffffffffffff6040518363ffffffff1660e01b8152600401610a7b9291906134e1565b6020604051808303816000875af1158015610a9a573d6000803e3d6000fd5b505050506040513d601f19601f82011682018060405250810190610abe919061351f565b505050565b610acb612267565b610ad5828261230e565b5050565b600073ffffffffffffffffffffffffffffffffffffffff16600360009054906101000a900473ffffffffffffffffffffffffffffffffffffffff1673ffffffffffffffffffffffffffffffffffffffff1603610b6a576040517f08c379a0000000000000000000000000000000000000000000000000000000008152600401610b61906135be565b60405180910390fd5b6000600360009054906101000a900473ffffffffffffffffffffffffffffffffffffffff169050818173ffffffffffffffffffffffffffffffffffffffff166370a08231610bb66122e5565b6040518263ffffffff1660e01b8152600401610bd29190612eee565b602060405180830381865afa158015610bef573d6000803e3d6000fd5b505050506040513d601f19601f82011682018060405250810190610c1391906133f9565b1015610c54576040517f08c379a0000000000000000000000000000000000000000000000000000000008152600401610c4b90613650565b60405180910390fd5b818173ffffffffffffffffffffffffffffffffffffffff1663dd62ed3e610c796122e5565b306040518363ffffffff1660e01b8152600401610c97929190613670565b602060405180830381865afa158015610cb4573d6000803e3d6000fd5b505050506040513d601f19601f82011682018060405250810190610cd891906133f9565b1015610d19576040517f08c379a0000000000000000000000000000000000000000000000000000000008152600401610d109061370b565b60405180910390fd5b8073ffffffffffffffffffffffffffffffffffffffff166323b872dd610d3d6122e5565b30856040518463ffffffff1660e01b8152600401610d5d9392919061372b565b6020604051808303816000875af1158015610d7c573d6000803e3d6000fd5b505050506040513d601f19601f82011682018060405250810190610da0919061351f565b610ddf576040517f08c379a0000000000000000000000000000000000000000000000000000000008152600401610dd6906137d4565b60405180910390fd5b5050565b610deb612267565b600073ffffffffffffffffffffffffffffffffffffffff16600360009054906101000a900473ffffffffffffffffffffffffffffffffffffffff1673ffffffffffffffffffffffffffffffffffffffff1603610e7c576040517f08c379a0000000000000000000000000000000000000000000000000000000008152600401610e7390613866565b60405180910390fd5b6000600360009054906101000a900473ffffffffffffffffffffffffffffffffffffffff169050818173ffffffffffffffffffffffffffffffffffffffff166370a08231306040518263ffffffff1660e01b8152600401610edd9190612eee565b602060405180830381865afa158015610efa573d6000803e3d6000fd5b505050506040513d601f19601f82011682018060405250810190610f1e91906133f9565b1015610f5f576040517f08c379a0000000000000000000000000000000000000000000000000000000008152600401610f5690613650565b60405180910390fd5b8073ffffffffffffffffffffffffffffffffffffffff1663a9059cbb610f83611801565b846040518363ffffffff1660e01b8152600401610fa19291906134e1565b6020604051808303816000875af1158015610fc0573d6000803e3d6000fd5b505050506040513d601f19601f82011682018060405250810190610fe4919061351f565b611023576040517f08c379a000000000000000000000000000000000000000000000000000000000815260040161101a906137d4565b60405180910390fd5b5050565b600260019054906101000a900473ffffffffffffffffffffffffffffffffffffffff1681565b6060600061105a83611d80565b905060008151036110c257600067ffffffffffffffff8111156110805761107f612b0f565b5b6040519080825280602002602001820160405280156110b957816020015b6110a661298b565b81526020019060019003908161109e5790505b50915050611250565b6000815167ffffffffffffffff8111156110df576110de612b0f565b5b60405190808252806020026020018201604052801561111857816020015b61110561298b565b8152602001906001900390816110fd5790505b50905060005b8251811015611249576006600084838151811061113e5761113d613886565b5b602002602001015181526020019081526020016000206040518060c0016040529081600082015481526020016001820160009054906101000a900473ffffffffffffffffffffffffffffffffffffffff1673ffffffffffffffffffffffffffffffffffffffff1673ffffffffffffffffffffffffffffffffffffffff1681526020016002820154815260200160038201548152602001600482015481526020016005820160009054906101000a900460ff16600481111561120257611201612f44565b5b600481111561121457611213612f44565b5b8152505082828151811061122b5761122a613886565b5b60200260200101819052508080611241906138e4565b91505061111e565b5080925050505b919050565b61125d612267565b6112676000612411565b565b611271612267565b6112796124d5565b565b600080600260019054906101000a900473ffffffffffffffffffffffffffffffffffffffff1690503073ffffffffffffffffffffffffffffffffffffffff168173ffffffffffffffffffffffffffffffffffffffff16636352211e876040518263ffffffff1660e01b81526004016112f39190613263565b602060405180830381865afa158015611310573d6000803e3d6000fd5b505050506040513d601f19601f820116820180604052508101906113349190613293565b73ffffffffffffffffffffffffffffffffffffffff161461138a576040517f08c379a000000000000000000000000000000000000000000000000000000000815260040161138190613332565b60405180910390fd5b6000600660008781526020019081526020016000209050848160020154146113e7576040517f08c379a00000000000000000000000000000000000000000000000000000000081526004016113de9061399e565b60405180910390fd5b8381600301541461142d576040517f08c379a000000000000000000000000000000000000000000000000000000000815260040161142490613a30565b60405180910390fd5b4281600301541015611474576040517f08c379a000000000000000000000000000000000000000000000000000000000815260040161146b90613ac2565b60405180910390fd5b61147c6122e5565b73ffffffffffffffffffffffffffffffffffffffff168160010160009054906101000a900473ffffffffffffffffffffffffffffffffffffffff1673ffffffffffffffffffffffffffffffffffffffff161461150d576040517f08c379a000000000000000000000000000000000000000000000000000000000815260040161150490613b54565b60405180910390fd5b6002600481111561152157611520612f44565b5b8160050160009054906101000a900460ff16600481111561154557611544612f44565b5b14611585576040517f08c379a000000000000000000000000000000000000000000000000000000000815260040161157c90613bc0565b60405180910390fd5b8060020154600360009054906101000a900473ffffffffffffffffffffffffffffffffffffffff1673ffffffffffffffffffffffffffffffffffffffff166370a08231306040518263ffffffff1660e01b81526004016115e59190612eee565b602060405180830381865afa158015611602573d6000803e3d6000fd5b505050506040513d601f19601f8201168201806040525081019061162691906133f9565b1015611667576040517f08c379a000000000000000000000000000000000000000000000000000000000815260040161165e90613c2c565b60405180910390fd5b6116dc8160010160009054906101000a900473ffffffffffffffffffffffffffffffffffffffff168260020154600360009054906101000a900473ffffffffffffffffffffffffffffffffffffffff1673ffffffffffffffffffffffffffffffffffffffff1661251e9092919063ffffffff16565b8173ffffffffffffffffffffffffffffffffffffffff166342966c68876040518263ffffffff1660e01b81526004016117159190613263565b600060405180830381600087803b15801561172f57600080fd5b505af1158015611743573d6000803e3d6000fd5b5050505060038160050160006101000a81548160ff0219169083600481111561176f5761176e612f44565b5b02179055504281600301819055508060010160009054906101000a900473ffffffffffffffffffffffffffffffffffffffff1673ffffffffffffffffffffffffffffffffffffffff16867fc952a7736ec2f67b2051c1bd1b219dce1be902ca836c7c7115b48261604708ce83600201546040516117ec9190613263565b60405180910390a36001925050509392505050565b60008060009054906101000a900473ffffffffffffffffffffffffffffffffffffffff16905090565b61183261298b565b600660008381526020019081526020016000206040518060c0016040529081600082015481526020016001820160009054906101000a900473ffffffffffffffffffffffffffffffffffffffff1673ffffffffffffffffffffffffffffffffffffffff1673ffffffffffffffffffffffffffffffffffffffff1681526020016002820154815260200160038201548152602001600482015481526020016005820160009054906101000a900460ff1660048111156118f3576118f2612f44565b5b600481111561190557611904612f44565b5b815250509050919050565b600061191a6122e5565b73ffffffffffffffffffffffffffffffffffffffff16611938611801565b73ffffffffffffffffffffffffffffffffffffffff160361195c57600190506119ac565b600160008373ffffffffffffffffffffffffffffffffffffffff1673ffffffffffffffffffffffffffffffffffffffff16815260200190815260200160002060009054906101000a900460ff1690505b919050565b600360009054906101000a900473ffffffffffffffffffffffffffffffffffffffff1681565b60016020528060005260406000206000915054906101000a900460ff1681565b600080600260019054906101000a900473ffffffffffffffffffffffffffffffffffffffff169050611a276122e5565b73ffffffffffffffffffffffffffffffffffffffff168173ffffffffffffffffffffffffffffffffffffffff16636352211e866040518263ffffffff1660e01b8152600401611a769190613263565b602060405180830381865afa158015611a93573d6000803e3d6000fd5b505050506040513d601f19601f82011682018060405250810190611ab79190613293565b73ffffffffffffffffffffffffffffffffffffffff1614611b0d576040517f08c379a0000000000000000000000000000000000000000000000000000000008152600401611b0490613c98565b60405180910390fd5b8073ffffffffffffffffffffffffffffffffffffffff16638b38d27c611b316122e5565b30876040518463ffffffff1660e01b8152600401611b519392919061372b565b600060405180830381600087803b158015611b6b57600080fd5b505af1158015611b7f573d6000803e3d6000fd5b50505050600060066000868152602001908152602001600020905060036004811115611bae57611bad612f44565b5b8160050160009054906101000a900460ff166004811115611bd257611bd1612f44565b5b03611c12576040517f08c379a0000000000000000000000000000000000000000000000000000000008152600401611c0990613d04565b60405180910390fd5b600060076000611c206122e5565b73ffffffffffffffffffffffffffffffffffffffff1673ffffffffffffffffffffffffffffffffffffffff1681526020019081526020016000209050611c6f86826125a490919063ffffffff16565b50600060049050611c8987826125a490919063ffffffff16565b5086836000018190555060018360050160006101000a81548160ff02191690836004811115611cbb57611cba612f44565b5b0217905550611cc86122e5565b8360010160006101000a81548173ffffffffffffffffffffffffffffffffffffffff021916908373ffffffffffffffffffffffffffffffffffffffff16021790555060008360020181905550858360040181905550428360030181905550611d2e6122e5565b73ffffffffffffffffffffffffffffffffffffffff1686887f4c98e229e2f01f3e7de1e15f4599733605128275cac56f442301b55975b538bc60405160405180910390a4600194505050505092915050565b60606000611dcb600760008573ffffffffffffffffffffffffffffffffffffffff1673ffffffffffffffffffffffffffffffffffffffff1681526020019081526020016000206122ed565b905080915050919050565b611dde612267565b611de66125be565b565b600080600260019054906101000a900473ffffffffffffffffffffffffffffffffffffffff1690503073ffffffffffffffffffffffffffffffffffffffff168173ffffffffffffffffffffffffffffffffffffffff16636352211e856040518263ffffffff1660e01b8152600401611e609190613263565b602060405180830381865afa158015611e7d573d6000803e3d6000fd5b505050506040513d601f19601f82011682018060405250810190611ea19190613293565b73ffffffffffffffffffffffffffffffffffffffff1614611ef7576040517f08c379a0000000000000000000000000000000000000000000000000000000008152600401611eee90613332565b60405180910390fd5b60006006600085815260200190815260200160002090508060010160009054906101000a900473ffffffffffffffffffffffffffffffffffffffff1673ffffffffffffffffffffffffffffffffffffffff16611f516122e5565b73ffffffffffffffffffffffffffffffffffffffff161480611f7f5750611f7e611f796122e5565b611910565b5b611fbe576040517f08c379a0000000000000000000000000000000000000000000000000000000008152600401611fb590613d96565b60405180910390fd5b60026004811115611fd257611fd1612f44565b5b8160050160009054906101000a900460ff166004811115611ff657611ff5612f44565b5b148061203757506001600481111561201157612010612f44565b5b8160050160009054906101000a900460ff16600481111561203557612034612f44565b5b145b612076576040517f08c379a000000000000000000000000000000000000000000000000000000000815260040161206d90613bc0565b60405180910390fd5b8173ffffffffffffffffffffffffffffffffffffffff166342842e0e3061209b6122e5565b876040518463ffffffff1660e01b81526004016120ba9392919061372b565b600060405180830381600087803b1580156120d457600080fd5b505af11580156120e8573d6000803e3d6000fd5b505050506000816003018190555060008160010160006101000a81548173ffffffffffffffffffffffffffffffffffffffff021916908373ffffffffffffffffffffffffffffffffffffffff1602179055506000816002018190555060048160050160006101000a81548160ff0219169083600481111561216c5761216b612f44565b5b02179055508060010160009054906101000a900473ffffffffffffffffffffffffffffffffffffffff1673ffffffffffffffffffffffffffffffffffffffff16847f6f44c80719cb2f74bdbd68b7af10147acb9b52e2675ad02f9c87f0985995993860405160405180910390a3600192505050919050565b6121ec612267565b600073ffffffffffffffffffffffffffffffffffffffff168173ffffffffffffffffffffffffffffffffffffffff160361225b576040517f08c379a000000000000000000000000000000000000000000000000000000000815260040161225290613e28565b60405180910390fd5b61226481612411565b50565b61226f6122e5565b73ffffffffffffffffffffffffffffffffffffffff1661228d611801565b73ffffffffffffffffffffffffffffffffffffffff16146122e3576040517f08c379a00000000000000000000000000000000000000000000000000000000081526004016122da90613e94565b60405180910390fd5b565b600033905090565b606060006122fd83600001612607565b905060608190508092505050919050565b600073ffffffffffffffffffffffffffffffffffffffff168273ffffffffffffffffffffffffffffffffffffffff160361237d576040517f08c379a000000000000000000000000000000000000000000000000000000000815260040161237490613f26565b60405180910390fd5b80600160008473ffffffffffffffffffffffffffffffffffffffff1673ffffffffffffffffffffffffffffffffffffffff16815260200190815260200160002060006101000a81548160ff0219169083151502179055507f01883a2ded2d11a676263b3edca3878eec2c68618ae55db0314bebd4b9561b238282604051612405929190613f46565b60405180910390a15050565b60008060009054906101000a900473ffffffffffffffffffffffffffffffffffffffff169050816000806101000a81548173ffffffffffffffffffffffffffffffffffffffff021916908373ffffffffffffffffffffffffffffffffffffffff1602179055508173ffffffffffffffffffffffffffffffffffffffff168173ffffffffffffffffffffffffffffffffffffffff167f8be0079c531659141344cd1fd0a4f28419497f9722a3daafe3b4186f6b6457e060405160405180910390a35050565b6000600260006101000a81548160ff0219169083151502179055507f17deb57f2c665512f91ec43836987faa802c8cd173a69f704a39155e48a40a2560405160405180910390a1565b61259f8363a9059cbb60e01b848460405160240161253d9291906134e1565b604051602081830303815290604052907bffffffffffffffffffffffffffffffffffffffffffffffffffffffff19166020820180517bffffffffffffffffffffffffffffffffffffffffffffffffffffffff8381831617835250505050612663565b505050565b60006125b6836000018360001b61272b565b905092915050565b6001600260006101000a81548160ff0219169083151502179055507ff1917d42b61041c8a637919d5c23a9a559d72e57633d21cfe88c46b0fa01b6b960405160405180910390a1565b60608160000180548060200260200160405190810160405280929190818152602001828054801561265757602002820191906000526020600020905b815481526020019060010190808311612643575b50505050509050919050565b60006126c5826040518060400160405280602081526020017f5361666545524332303a206c6f772d6c6576656c2063616c6c206661696c65648152508573ffffffffffffffffffffffffffffffffffffffff1661279b9092919063ffffffff16565b90506000815114806126e75750808060200190518101906126e6919061351f565b5b612726576040517f08c379a000000000000000000000000000000000000000000000000000000000815260040161271d90613fe1565b60405180910390fd5b505050565b600061273783836127b3565b612790578260000182908060018154018082558091505060019003906000526020600020016000909190919091505582600001805490508360010160008481526020019081526020016000208190555060019050612795565b600090505b92915050565b60606127aa84846000856127d6565b90509392505050565b600080836001016000848152602001908152602001600020541415905092915050565b60608247101561281b576040517f08c379a000000000000000000000000000000000000000000000000000000000815260040161281290614073565b60405180910390fd5b6000808673ffffffffffffffffffffffffffffffffffffffff1685876040516128449190614104565b60006040518083038185875af1925050503d8060008114612881576040519150601f19603f3d011682016040523d82523d6000602084013e612886565b606091505b5091509150612897878383876128a3565b92505050949350505050565b606083156129055760008351036128fd576128bd85612918565b6128fc576040517f08c379a00000000000000000000000000000000000000000000000000000000081526004016128f390614167565b60405180910390fd5b5b829050612910565b61290f838361293b565b5b949350505050565b6000808273ffffffffffffffffffffffffffffffffffffffff163b119050919050565b60008251111561294e5781518083602001fd5b806040517f08c379a000000000000000000000000000000000000000000000000000000000815260040161298291906141cb565b60405180910390fd5b6040518060c0016040528060008152602001600073ffffffffffffffffffffffffffffffffffffffff168152602001600081526020016000815260200160008152602001600060048111156129e3576129e2612f44565b5b81525090565b6000604051905090565b600080fd5b600080fd5b600073ffffffffffffffffffffffffffffffffffffffff82169050919050565b6000612a28826129fd565b9050919050565b612a3881612a1d565b8114612a4357600080fd5b50565b600081359050612a5581612a2f565b92915050565b600060208284031215612a7157612a706129f3565b5b6000612a7f84828501612a46565b91505092915050565b60008115159050919050565b612a9d81612a88565b82525050565b6000602082019050612ab86000830184612a94565b92915050565b6000819050919050565b612ad181612abe565b8114612adc57600080fd5b50565b600081359050612aee81612ac8565b92915050565b600080fd5b600080fd5b6000601f19601f8301169050919050565b7f4e487b7100000000000000000000000000000000000000000000000000000000600052604160045260246000fd5b612b4782612afe565b810181811067ffffffffffffffff82111715612b6657612b65612b0f565b5b80604052505050565b6000612b796129e9565b9050612b858282612b3e565b919050565b600067ffffffffffffffff821115612ba557612ba4612b0f565b5b612bae82612afe565b9050602081019050919050565b82818337600083830152505050565b6000612bdd612bd884612b8a565b612b6f565b905082815260208101848484011115612bf957612bf8612af9565b5b612c04848285612bbb565b509392505050565b600082601f830112612c2157612c20612af4565b5b8135612c31848260208601612bca565b91505092915050565b60008060008060808587031215612c5457612c536129f3565b5b6000612c6287828801612a46565b9450506020612c7387828801612a46565b9350506040612c8487828801612adf565b925050606085013567ffffffffffffffff811115612ca557612ca46129f8565b5b612cb187828801612c0c565b91505092959194509250565b60007fffffffff0000000000000000000000000000000000000000000000000000000082169050919050565b612cf281612cbd565b82525050565b6000602082019050612d0d6000830184612ce9565b92915050565b600080600060608486031215612d2c57612d2b6129f3565b5b6000612d3a86828701612adf565b9350506020612d4b86828701612adf565b9250506040612d5c86828701612adf565b9150509250925092565b600081519050919050565b600082825260208201905092915050565b6000819050602082019050919050565b612d9b81612abe565b82525050565b6000612dad8383612d92565b60208301905092915050565b6000602082019050919050565b6000612dd182612d66565b612ddb8185612d71565b9350612de683612d82565b8060005b83811015612e17578151612dfe8882612da1565b9750612e0983612db9565b925050600181019050612dea565b5085935050505092915050565b60006020820190508181036000830152612e3e8184612dc6565b905092915050565b612e4f81612a88565b8114612e5a57600080fd5b50565b600081359050612e6c81612e46565b92915050565b60008060408385031215612e8957612e886129f3565b5b6000612e9785828601612a46565b9250506020612ea885828601612e5d565b9150509250929050565b600060208284031215612ec857612ec76129f3565b5b6000612ed684828501612adf565b91505092915050565b612ee881612a1d565b82525050565b6000602082019050612f036000830184612edf565b92915050565b600081519050919050565b600082825260208201905092915050565b6000819050602082019050919050565b612f3e81612a1d565b82525050565b7f4e487b7100000000000000000000000000000000000000000000000000000000600052602160045260246000fd5b60058110612f8457612f83612f44565b5b50565b6000819050612f9582612f73565b919050565b6000612fa582612f87565b9050919050565b612fb581612f9a565b82525050565b60c082016000820151612fd16000850182612d92565b506020820151612fe46020850182612f35565b506040820151612ff76040850182612d92565b50606082015161300a6060850182612d92565b50608082015161301d6080850182612d92565b5060a082015161303060a0850182612fac565b50505050565b60006130428383612fbb565b60c08301905092915050565b6000602082019050919050565b600061306682612f09565b6130708185612f14565b935061307b83612f25565b8060005b838110156130ac5781516130938882613036565b975061309e8361304e565b92505060018101905061307f565b5085935050505092915050565b600060208201905081810360008301526130d3818461305b565b905092915050565b60c0820160008201516130f16000850182612d92565b5060208201516131046020850182612f35565b5060408201516131176040850182612d92565b50606082015161312a6060850182612d92565b50608082015161313d6080850182612d92565b5060a082015161315060a0850182612fac565b50505050565b600060c08201905061316b60008301846130db565b92915050565b60008060408385031215613188576131876129f3565b5b600061319685828601612adf565b92505060206131a785828601612adf565b9150509250929050565b600082825260208201905092915050565b7f416c6c6c6f776c6973744f776e65723a2063616c6c6572206973206e6f74207460008201527f6865204f776e6572206f7220696e2074686520416c6c6f774c69737400000000602082015250565b600061321e603c836131b1565b9150613229826131c2565b604082019050919050565b6000602082019050818103600083015261324d81613211565b9050919050565b61325d81612abe565b82525050565b60006020820190506132786000830184613254565b92915050565b60008151905061328d81612a2f565b92915050565b6000602082840312156132a9576132a86129f3565b5b60006132b78482850161327e565b91505092915050565b7f4e6674457363726f773a20636f6e7472616374206e6f74204e4654206f776e6560008201527f7200000000000000000000000000000000000000000000000000000000000000602082015250565b600061331c6021836131b1565b9150613327826132c0565b604082019050919050565b6000602082019050818103600083015261334b8161330f565b9050919050565b7f4e6674526564656d7074696f6e3a20657363726f7720697320616c726561647960008201527f2072656465656d6564206f722063616e63656c6c656400000000000000000000602082015250565b60006133ae6036836131b1565b91506133b982613352565b604082019050919050565b600060208201905081810360008301526133dd816133a1565b9050919050565b6000815190506133f381612ac8565b92915050565b60006020828403121561340f5761340e6129f3565b5b600061341d848285016133e4565b91505092915050565b7f4e6674457363726f773a20616d6f756e74206e6565647320737566666963656e60008201527f742066756e647320696e20636f6e747261637400000000000000000000000000602082015250565b60006134826033836131b1565b915061348d82613426565b604082019050919050565b600060208201905081810360008301526134b181613475565b9050919050565b60006040820190506134cd6000830185613254565b6134da6020830184613254565b9392505050565b60006040820190506134f66000830185612edf565b6135036020830184613254565b9392505050565b60008151905061351981612e46565b92915050565b600060208284031215613535576135346129f3565b5b60006135438482850161350a565b91505092915050565b7f4e6674526564656d7074696f6e3a20546f6b656e2061646472657373206e6f7460008201527f2073657400000000000000000000000000000000000000000000000000000000602082015250565b60006135a86024836131b1565b91506135b38261354c565b604082019050919050565b600060208201905081810360008301526135d78161359b565b9050919050565b7f4e6674526564656d7074696f6e3a20496e73756666696369656e7420746f6b6560008201527f6e2062616c616e63650000000000000000000000000000000000000000000000602082015250565b600061363a6029836131b1565b9150613645826135de565b604082019050919050565b600060208201905081810360008301526136698161362d565b9050919050565b60006040820190506136856000830185612edf565b6136926020830184612edf565b9392505050565b7f4e6674526564656d7074696f6e3a20496e73756666696369656e7420746f6b6560008201527f6e20616c6c6f77616e6365000000000000000000000000000000000000000000602082015250565b60006136f5602b836131b1565b915061370082613699565b604082019050919050565b60006020820190508181036000830152613724816136e8565b9050919050565b60006060820190506137406000830186612edf565b61374d6020830185612edf565b61375a6040830184613254565b949350505050565b7f4e6674526564656d7074696f6e3a20746f6b656e207472616e7366657220666160008201527f696c656400000000000000000000000000000000000000000000000000000000602082015250565b60006137be6024836131b1565b91506137c982613762565b604082019050919050565b600060208201905081810360008301526137ed816137b1565b9050919050565b7f4e6674526564656d7074696f6e3a20746f6b656e2061646472657373206e6f7460008201527f2073657400000000000000000000000000000000000000000000000000000000602082015250565b60006138506024836131b1565b915061385b826137f4565b604082019050919050565b6000602082019050818103600083015261387f81613843565b9050919050565b7f4e487b7100000000000000000000000000000000000000000000000000000000600052603260045260246000fd5b7f4e487b7100000000000000000000000000000000000000000000000000000000600052601160045260246000fd5b60006138ef82612abe565b91507fffffffffffffffffffffffffffffffffffffffffffffffffffffffffffffffff8203613921576139206138b5565b5b600182019050919050565b7f4e6674457363726f773a20616d6f756e747320646f6573206e6f74206d61746360008201527f682c2065787069726564206f6666657220646174610000000000000000000000602082015250565b60006139886035836131b1565b91506139938261392c565b604082019050919050565b600060208201905081810360008301526139b78161397b565b9050919050565b7f4e6674457363726f773a2074696d657374616d7020646f6573206e6f74206d6160008201527f7463682c2065787069726564206f666665722064617461000000000000000000602082015250565b6000613a1a6037836131b1565b9150613a25826139be565b604082019050919050565b60006020820190508181036000830152613a4981613a0d565b9050919050565b7f4e6674457363726f773a2074696d657374616d7020686173206578706972656460008201527f2c2063616e63656c20616e6420726563726561746520657363726f7700000000602082015250565b6000613aac603c836131b1565b9150613ab782613a50565b604082019050919050565b60006020820190508181036000830152613adb81613a9f565b9050919050565b7f4e6674457363726f773a206e657720746f206265204e465420657363726f772060008201527f6f776e6572000000000000000000000000000000000000000000000000000000602082015250565b6000613b3e6025836131b1565b9150613b4982613ae2565b604082019050919050565b60006020820190508181036000830152613b6d81613b31565b9050919050565b7f4e6674457363726f773a206973206e6f74206f66666572656400000000000000600082015250565b6000613baa6019836131b1565b9150613bb582613b74565b602082019050919050565b60006020820190508181036000830152613bd981613b9d565b9050919050565b7f4e6674457363726f773a20696e73756666696369656e742066756e6473000000600082015250565b6000613c16601d836131b1565b9150613c2182613be0565b602082019050919050565b60006020820190508181036000830152613c4581613c09565b9050919050565b7f4e6674457363726f773a2073656e646572206973206e6f74206f776e65720000600082015250565b6000613c82601e836131b1565b9150613c8d82613c4c565b602082019050919050565b60006020820190508181036000830152613cb181613c75565b9050919050565b7f4e6674457363726f773a204e4654206973206e6f742072656465656d65640000600082015250565b6000613cee601e836131b1565b9150613cf982613cb8565b602082019050919050565b60006020820190508181036000830152613d1d81613ce1565b9050919050565b7f4e6674457363726f773a206e6f7420657363726f77206f776e6572206f72206960008201527f734f776e65724f72496e416c6c6f776c69737465640000000000000000000000602082015250565b6000613d806035836131b1565b9150613d8b82613d24565b604082019050919050565b60006020820190508181036000830152613daf81613d73565b9050919050565b7f4f776e61626c653a206e6577206f776e657220697320746865207a65726f206160008201527f6464726573730000000000000000000000000000000000000000000000000000602082015250565b6000613e126026836131b1565b9150613e1d82613db6565b604082019050919050565b60006020820190508181036000830152613e4181613e05565b9050919050565b7f4f776e61626c653a2063616c6c6572206973206e6f7420746865206f776e6572600082015250565b6000613e7e6020836131b1565b9150613e8982613e48565b602082019050919050565b60006020820190508181036000830152613ead81613e71565b9050919050565b7f416c6c6c6f776c6973744f776e65723a204e65656420612076616c696420616460008201527f6472657373000000000000000000000000000000000000000000000000000000602082015250565b6000613f106025836131b1565b9150613f1b82613eb4565b604082019050919050565b60006020820190508181036000830152613f3f81613f03565b9050919050565b6000604082019050613f5b6000830185612edf565b613f686020830184612a94565b9392505050565b7f5361666545524332303a204552433230206f7065726174696f6e20646964206e60008201527f6f74207375636365656400000000000000000000000000000000000000000000602082015250565b6000613fcb602a836131b1565b9150613fd682613f6f565b604082019050919050565b60006020820190508181036000830152613ffa81613fbe565b9050919050565b7f416464726573733a20696e73756666696369656e742062616c616e636520666f60008201527f722063616c6c0000000000000000000000000000000000000000000000000000602082015250565b600061405d6026836131b1565b915061406882614001565b604082019050919050565b6000602082019050818103600083015261408c81614050565b9050919050565b600081519050919050565b600081905092915050565b60005b838110156140c75780820151818401526020810190506140ac565b60008484015250505050565b60006140de82614093565b6140e8818561409e565b93506140f88185602086016140a9565b80840191505092915050565b600061411082846140d3565b915081905092915050565b7f416464726573733a2063616c6c20746f206e6f6e2d636f6e7472616374000000600082015250565b6000614151601d836131b1565b915061415c8261411b565b602082019050919050565b6000602082019050818103600083015261418081614144565b9050919050565b600081519050919050565b600061419d82614187565b6141a781856131b1565b93506141b78185602086016140a9565b6141c081612afe565b840191505092915050565b600060208201905081810360008301526141e58184614192565b90509291505056fea264697066735822122075784001c517426eca7a2cd10a8781205682c6001d75568a7b492f2e824c386864736f6c63430008130033",
  "devdoc": {
    "kind": "dev",
    "methods": {
      "onERC721Received(address,address,uint256,bytes)": {
        "details": "See {IERC721Receiver-onERC721Received}. Always returns `IERC721Receiver.onERC721Received.selector`."
      },
      "owner()": {
        "details": "Returns the address of the current owner."
      },
      "renounceOwnership()": {
        "details": "Leaves the contract without owner. It will not be possible to call `onlyOwner` functions. Can only be called by the current owner. NOTE: Renouncing ownership will leave the contract without an owner, thereby disabling any functionality that is only available to the owner."
      },
      "transferOwnership(address)": {
        "details": "Transfers ownership of the contract to a new account (`newOwner`). Can only be called by the current owner."
      }
    },
    "version": 1
  },
  "userdoc": {
    "kind": "user",
    "methods": {},
    "version": 1
  },
  "storageLayout": {
    "storage": [
      {
        "astId": 7,
        "contract": "contracts/NftRedemptionToken.sol:NftRedemptionToken",
        "label": "_owner",
        "offset": 0,
        "slot": "0",
        "type": "t_address"
      },
      {
        "astId": 5320,
        "contract": "contracts/NftRedemptionToken.sol:NftRedemptionToken",
        "label": "allowlist",
        "offset": 0,
        "slot": "1",
        "type": "t_mapping(t_address,t_bool)"
      },
      {
        "astId": 5323,
        "contract": "contracts/NftRedemptionToken.sol:NftRedemptionToken",
        "label": "allowListEnabled",
        "offset": 0,
        "slot": "2",
        "type": "t_bool"
      },
      {
        "astId": 5563,
        "contract": "contracts/NftRedemptionToken.sol:NftRedemptionToken",
        "label": "nftAddress",
        "offset": 1,
        "slot": "2",
        "type": "t_address"
      },
      {
        "astId": 5566,
        "contract": "contracts/NftRedemptionToken.sol:NftRedemptionToken",
        "label": "tokenAddress",
        "offset": 0,
        "slot": "3",
        "type": "t_address"
      },
      {
        "astId": 5569,
        "contract": "contracts/NftRedemptionToken.sol:NftRedemptionToken",
        "label": "tokensInEscrow",
        "offset": 0,
        "slot": "4",
        "type": "t_struct(UintSet)5181_storage"
      },
      {
        "astId": 5574,
        "contract": "contracts/NftRedemptionToken.sol:NftRedemptionToken",
        "label": "escrows",
        "offset": 0,
        "slot": "6",
        "type": "t_mapping(t_uint256,t_struct(Escrow)5561_storage)"
      },
      {
        "astId": 5579,
        "contract": "contracts/NftRedemptionToken.sol:NftRedemptionToken",
        "label": "userEscrows",
        "offset": 0,
        "slot": "7",
        "type": "t_mapping(t_address,t_struct(UintSet)5181_storage)"
      }
    ],
    "types": {
      "t_address": {
        "encoding": "inplace",
        "label": "address",
        "numberOfBytes": "20"
      },
      "t_array(t_bytes32)dyn_storage": {
        "base": "t_bytes32",
        "encoding": "dynamic_array",
        "label": "bytes32[]",
        "numberOfBytes": "32"
      },
      "t_bool": {
        "encoding": "inplace",
        "label": "bool",
        "numberOfBytes": "1"
      },
      "t_bytes32": {
        "encoding": "inplace",
        "label": "bytes32",
        "numberOfBytes": "32"
      },
      "t_enum(EscrowStatus)5547": {
        "encoding": "inplace",
        "label": "enum NftRedemptionToken.EscrowStatus",
        "numberOfBytes": "1"
      },
      "t_mapping(t_address,t_bool)": {
        "encoding": "mapping",
        "key": "t_address",
        "label": "mapping(address => bool)",
        "numberOfBytes": "32",
        "value": "t_bool"
      },
      "t_mapping(t_address,t_struct(UintSet)5181_storage)": {
        "encoding": "mapping",
        "key": "t_address",
        "label": "mapping(address => struct EnumerableSet.UintSet)",
        "numberOfBytes": "32",
        "value": "t_struct(UintSet)5181_storage"
      },
      "t_mapping(t_bytes32,t_uint256)": {
        "encoding": "mapping",
        "key": "t_bytes32",
        "label": "mapping(bytes32 => uint256)",
        "numberOfBytes": "32",
        "value": "t_uint256"
      },
      "t_mapping(t_uint256,t_struct(Escrow)5561_storage)": {
        "encoding": "mapping",
        "key": "t_uint256",
        "label": "mapping(uint256 => struct NftRedemptionToken.Escrow)",
        "numberOfBytes": "32",
        "value": "t_struct(Escrow)5561_storage"
      },
      "t_struct(Escrow)5561_storage": {
        "encoding": "inplace",
        "label": "struct NftRedemptionToken.Escrow",
        "members": [
          {
            "astId": 5549,
            "contract": "contracts/NftRedemptionToken.sol:NftRedemptionToken",
            "label": "tokenId",
            "offset": 0,
            "slot": "0",
            "type": "t_uint256"
          },
          {
            "astId": 5551,
            "contract": "contracts/NftRedemptionToken.sol:NftRedemptionToken",
            "label": "owner",
            "offset": 0,
            "slot": "1",
            "type": "t_address"
          },
          {
            "astId": 5553,
            "contract": "contracts/NftRedemptionToken.sol:NftRedemptionToken",
            "label": "amount",
            "offset": 0,
            "slot": "2",
            "type": "t_uint256"
          },
          {
            "astId": 5555,
            "contract": "contracts/NftRedemptionToken.sol:NftRedemptionToken",
            "label": "timestamp",
            "offset": 0,
            "slot": "3",
            "type": "t_uint256"
          },
          {
            "astId": 5557,
            "contract": "contracts/NftRedemptionToken.sol:NftRedemptionToken",
            "label": "redeemPeriod",
            "offset": 0,
            "slot": "4",
            "type": "t_uint256"
          },
          {
            "astId": 5560,
            "contract": "contracts/NftRedemptionToken.sol:NftRedemptionToken",
            "label": "status",
            "offset": 0,
            "slot": "5",
            "type": "t_enum(EscrowStatus)5547"
          }
        ],
        "numberOfBytes": "192"
      },
      "t_struct(Set)4709_storage": {
        "encoding": "inplace",
        "label": "struct EnumerableSet.Set",
        "members": [
          {
            "astId": 4704,
            "contract": "contracts/NftRedemptionToken.sol:NftRedemptionToken",
            "label": "_values",
            "offset": 0,
            "slot": "0",
            "type": "t_array(t_bytes32)dyn_storage"
          },
          {
            "astId": 4708,
            "contract": "contracts/NftRedemptionToken.sol:NftRedemptionToken",
            "label": "_indexes",
            "offset": 0,
            "slot": "1",
            "type": "t_mapping(t_bytes32,t_uint256)"
          }
        ],
        "numberOfBytes": "64"
      },
      "t_struct(UintSet)5181_storage": {
        "encoding": "inplace",
        "label": "struct EnumerableSet.UintSet",
        "members": [
          {
            "astId": 5180,
            "contract": "contracts/NftRedemptionToken.sol:NftRedemptionToken",
            "label": "_inner",
            "offset": 0,
            "slot": "0",
            "type": "t_struct(Set)4709_storage"
          }
        ],
        "numberOfBytes": "64"
      },
      "t_uint256": {
        "encoding": "inplace",
        "label": "uint256",
        "numberOfBytes": "32"
      }
    }
  }
}