{
  "address": "0xCf7Ed3AccA5a467e9e704C703E8D87F634fB0Fc9",
  "abi": [
    {
      "inputs": [],
      "stateMutability": "nonpayable",
      "type": "constructor"
    },
    {
      "anonymous": false,
      "inputs": [
        {
          "indexed": true,
          "internalType": "address",
          "name": "owner",
          "type": "address"
        },
        {
          "indexed": true,
          "internalType": "address",
          "name": "approved",
          "type": "address"
        },
        {
          "indexed": true,
          "internalType": "uint256",
          "name": "tokenId",
          "type": "uint256"
        }
      ],
      "name": "Approval",
      "type": "event"
    },
    {
      "anonymous": false,
      "inputs": [
        {
          "indexed": true,
          "internalType": "address",
          "name": "owner",
          "type": "address"
        },
        {
          "indexed": true,
          "internalType": "address",
          "name": "operator",
          "type": "address"
        },
        {
          "indexed": false,
          "internalType": "bool",
          "name": "approved",
          "type": "bool"
        }
      ],
      "name": "ApprovalForAll",
      "type": "event"
    },
    {
      "anonymous": false,
      "inputs": [
        {
          "indexed": false,
          "internalType": "uint256",
          "name": "_fromTokenId",
          "type": "uint256"
        },
        {
          "indexed": false,
          "internalType": "uint256",
          "name": "_toTokenId",
          "type": "uint256"
        }
      ],
      "name": "BatchMetadataUpdate",
      "type": "event"
    },
    {
      "anonymous": false,
      "inputs": [],
      "name": "DisableAllowList",
      "type": "event"
    },
    {
      "anonymous": false,
      "inputs": [],
      "name": "EnabledAllowList",
      "type": "event"
    },
    {
      "anonymous": false,
      "inputs": [
        {
          "indexed": false,
          "internalType": "uint256",
          "name": "_tokenId",
          "type": "uint256"
        }
      ],
      "name": "MetadataUpdate",
      "type": "event"
    },
    {
      "anonymous": false,
      "inputs": [
        {
          "indexed": true,
          "internalType": "address",
          "name": "previousOwner",
          "type": "address"
        },
        {
          "indexed": true,
          "internalType": "address",
          "name": "newOwner",
          "type": "address"
        }
      ],
      "name": "OwnershipTransferred",
      "type": "event"
    },
    {
      "anonymous": false,
      "inputs": [
        {
          "indexed": false,
          "internalType": "address",
          "name": "account",
          "type": "address"
        }
      ],
      "name": "Paused",
      "type": "event"
    },
    {
      "anonymous": false,
      "inputs": [
        {
          "indexed": true,
          "internalType": "address",
          "name": "from",
          "type": "address"
        },
        {
          "indexed": true,
          "internalType": "address",
          "name": "to",
          "type": "address"
        },
        {
          "indexed": true,
          "internalType": "uint256",
          "name": "tokenId",
          "type": "uint256"
        }
      ],
      "name": "Transfer",
      "type": "event"
    },
    {
      "anonymous": false,
      "inputs": [
        {
          "indexed": false,
          "internalType": "address",
          "name": "account",
          "type": "address"
        }
      ],
      "name": "Unpaused",
      "type": "event"
    },
    {
      "anonymous": false,
      "inputs": [
        {
          "indexed": false,
          "internalType": "address",
          "name": "account",
          "type": "address"
        },
        {
          "indexed": false,
          "internalType": "bool",
          "name": "isAllowed",
          "type": "bool"
        }
      ],
      "name": "UserAllowList",
      "type": "event"
    },
    {
      "inputs": [],
      "name": "allowListEnabled",
      "outputs": [
        {
          "internalType": "bool",
          "name": "",
          "type": "bool"
        }
      ],
      "stateMutability": "view",
      "type": "function"
    },
    {
      "inputs": [
        {
          "internalType": "address",
          "name": "",
          "type": "address"
        }
      ],
      "name": "allowlist",
      "outputs": [
        {
          "internalType": "bool",
          "name": "",
          "type": "bool"
        }
      ],
      "stateMutability": "view",
      "type": "function"
    },
    {
      "inputs": [
        {
          "internalType": "address",
          "name": "to",
          "type": "address"
        },
        {
          "internalType": "uint256",
          "name": "tokenId",
          "type": "uint256"
        }
      ],
      "name": "approve",
      "outputs": [],
      "stateMutability": "nonpayable",
      "type": "function"
    },
    {
      "inputs": [
        {
          "internalType": "address",
          "name": "spender",
          "type": "address"
        },
        {
          "internalType": "uint256",
          "name": "amount",
          "type": "uint256"
        }
      ],
      "name": "approveTokenApproval",
      "outputs": [],
      "stateMutability": "nonpayable",
      "type": "function"
    },
    {
      "inputs": [
        {
          "internalType": "uint256",
          "name": "amount",
          "type": "uint256"
        }
      ],
      "name": "approveTokenSpend",
      "outputs": [
        {
          "internalType": "bool",
          "name": "success",
          "type": "bool"
        }
      ],
      "stateMutability": "nonpayable",
      "type": "function"
    },
    {
      "inputs": [
        {
          "internalType": "uint256",
          "name": "tokenId",
          "type": "uint256"
        }
      ],
      "name": "authorizedBurn",
      "outputs": [],
      "stateMutability": "nonpayable",
      "type": "function"
    },
    {
      "inputs": [
        {
          "internalType": "address",
          "name": "from",
          "type": "address"
        },
        {
          "internalType": "address",
          "name": "to",
          "type": "address"
        },
        {
          "internalType": "uint256",
          "name": "tokenId",
          "type": "uint256"
        }
      ],
      "name": "authorizedTransferFrom",
      "outputs": [],
      "stateMutability": "nonpayable",
      "type": "function"
    },
    {
      "inputs": [
        {
          "internalType": "address",
          "name": "owner",
          "type": "address"
        }
      ],
      "name": "balanceOf",
      "outputs": [
        {
          "internalType": "uint256",
          "name": "",
          "type": "uint256"
        }
      ],
      "stateMutability": "view",
      "type": "function"
    },
    {
      "inputs": [],
      "name": "baseURI",
      "outputs": [
        {
          "internalType": "string",
          "name": "",
          "type": "string"
        }
      ],
      "stateMutability": "view",
      "type": "function"
    },
    {
      "inputs": [
        {
          "internalType": "address",
          "name": "to",
          "type": "address"
        },
        {
          "internalType": "uint256",
          "name": "amount",
          "type": "uint256"
        }
      ],
      "name": "bulkMintVault",
      "outputs": [],
      "stateMutability": "nonpayable",
      "type": "function"
    },
    {
      "inputs": [
        {
          "internalType": "uint256",
          "name": "tokenId",
          "type": "uint256"
        }
      ],
      "name": "burn",
      "outputs": [],
      "stateMutability": "nonpayable",
      "type": "function"
    },
    {
      "inputs": [
        {
          "internalType": "address",
          "name": "owner",
          "type": "address"
        }
      ],
      "name": "checkTokenApproval",
      "outputs": [
        {
          "internalType": "uint256",
          "name": "remaining",
          "type": "uint256"
        }
      ],
      "stateMutability": "view",
      "type": "function"
    },
    {
      "inputs": [],
      "name": "destination",
      "outputs": [
        {
          "internalType": "address payable",
          "name": "",
          "type": "address"
        }
      ],
      "stateMutability": "view",
      "type": "function"
    },
    {
      "inputs": [],
      "name": "disableAllowList",
      "outputs": [],
      "stateMutability": "nonpayable",
      "type": "function"
    },
    {
      "inputs": [],
      "name": "enableAllowList",
      "outputs": [],
      "stateMutability": "nonpayable",
      "type": "function"
    },
    {
      "inputs": [
        {
          "internalType": "uint256",
          "name": "tokenId",
          "type": "uint256"
        }
      ],
      "name": "getApproved",
      "outputs": [
        {
          "internalType": "address",
          "name": "",
          "type": "address"
        }
      ],
      "stateMutability": "view",
      "type": "function"
    },
    {
      "inputs": [
        {
          "internalType": "address",
          "name": "addr",
          "type": "address"
        }
      ],
      "name": "isAllowlisted",
      "outputs": [
        {
          "internalType": "bool",
          "name": "",
          "type": "bool"
        }
      ],
      "stateMutability": "view",
      "type": "function"
    },
    {
      "inputs": [
        {
          "internalType": "address",
          "name": "owner",
          "type": "address"
        },
        {
          "internalType": "address",
          "name": "operator",
          "type": "address"
        }
      ],
      "name": "isApprovedForAll",
      "outputs": [
        {
          "internalType": "bool",
          "name": "",
          "type": "bool"
        }
      ],
      "stateMutability": "view",
      "type": "function"
    },
    {
      "inputs": [
        {
          "internalType": "address",
          "name": "addr",
          "type": "address"
        }
      ],
      "name": "isOwnerOrInAllowlisted",
      "outputs": [
        {
          "internalType": "bool",
          "name": "",
          "type": "bool"
        }
      ],
      "stateMutability": "view",
      "type": "function"
    },
    {
      "inputs": [],
      "name": "maxBatchMint",
      "outputs": [
        {
          "internalType": "uint256",
          "name": "",
          "type": "uint256"
        }
      ],
      "stateMutability": "view",
      "type": "function"
    },
    {
      "inputs": [],
      "name": "maxSupply",
      "outputs": [
        {
          "internalType": "uint256",
          "name": "",
          "type": "uint256"
        }
      ],
      "stateMutability": "view",
      "type": "function"
    },
    {
      "inputs": [],
      "name": "mintFee",
      "outputs": [
        {
          "internalType": "uint256",
          "name": "",
          "type": "uint256"
        }
      ],
      "stateMutability": "view",
      "type": "function"
    },
    {
      "inputs": [
        {
          "internalType": "address",
          "name": "to",
          "type": "address"
        }
      ],
      "name": "mintVault",
      "outputs": [],
      "stateMutability": "nonpayable",
      "type": "function"
    },
    {
      "inputs": [],
      "name": "name",
      "outputs": [
        {
          "internalType": "string",
          "name": "",
          "type": "string"
        }
      ],
      "stateMutability": "view",
      "type": "function"
    },
    {
      "inputs": [],
      "name": "owner",
      "outputs": [
        {
          "internalType": "address",
          "name": "",
          "type": "address"
        }
      ],
      "stateMutability": "view",
      "type": "function"
    },
    {
      "inputs": [
        {
          "internalType": "uint256",
          "name": "tokenId",
          "type": "uint256"
        }
      ],
      "name": "ownerOf",
      "outputs": [
        {
          "internalType": "address",
          "name": "",
          "type": "address"
        }
      ],
      "stateMutability": "view",
      "type": "function"
    },
    {
      "inputs": [],
      "name": "pause",
      "outputs": [],
      "stateMutability": "nonpayable",
      "type": "function"
    },
    {
      "inputs": [],
      "name": "paused",
      "outputs": [
        {
          "internalType": "bool",
          "name": "",
          "type": "bool"
        }
      ],
      "stateMutability": "view",
      "type": "function"
    },
    {
      "inputs": [
        {
          "internalType": "address",
          "name": "authorizer",
          "type": "address"
        }
      ],
      "name": "preAuthorizeRedeemer",
      "outputs": [],
      "stateMutability": "nonpayable",
      "type": "function"
    },
    {
      "inputs": [],
      "name": "redeemAuthorizer",
      "outputs": [
        {
          "internalType": "address",
          "name": "",
          "type": "address"
        }
      ],
      "stateMutability": "view",
      "type": "function"
    },
    {
      "inputs": [],
      "name": "renounceOwnership",
      "outputs": [],
      "stateMutability": "nonpayable",
      "type": "function"
    },
    {
      "inputs": [
        {
          "internalType": "address",
          "name": "to",
          "type": "address"
        }
      ],
      "name": "safeMint",
      "outputs": [],
      "stateMutability": "nonpayable",
      "type": "function"
    },
    {
      "inputs": [
        {
          "internalType": "address",
          "name": "to",
          "type": "address"
        },
        {
          "internalType": "string",
          "name": "uri",
          "type": "string"
        }
      ],
      "name": "safeMintUri",
      "outputs": [],
      "stateMutability": "nonpayable",
      "type": "function"
    },
    {
      "inputs": [
        {
          "internalType": "address",
          "name": "from",
          "type": "address"
        },
        {
          "internalType": "address",
          "name": "to",
          "type": "address"
        },
        {
          "internalType": "uint256",
          "name": "tokenId",
          "type": "uint256"
        }
      ],
      "name": "safeTransferFrom",
      "outputs": [],
      "stateMutability": "nonpayable",
      "type": "function"
    },
    {
      "inputs": [
        {
          "internalType": "address",
          "name": "from",
          "type": "address"
        },
        {
          "internalType": "address",
          "name": "to",
          "type": "address"
        },
        {
          "internalType": "uint256",
          "name": "tokenId",
          "type": "uint256"
        },
        {
          "internalType": "bytes",
          "name": "data",
          "type": "bytes"
        }
      ],
      "name": "safeTransferFrom",
      "outputs": [],
      "stateMutability": "nonpayable",
      "type": "function"
    },
    {
      "inputs": [
        {
          "internalType": "address",
          "name": "addr",
          "type": "address"
        },
        {
          "internalType": "bool",
          "name": "isAllowed",
          "type": "bool"
        }
      ],
      "name": "setAllowlistUser",
      "outputs": [],
      "stateMutability": "nonpayable",
      "type": "function"
    },
    {
      "inputs": [
        {
          "internalType": "address",
          "name": "operator",
          "type": "address"
        },
        {
          "internalType": "bool",
          "name": "approved",
          "type": "bool"
        }
      ],
      "name": "setApprovalForAll",
      "outputs": [],
      "stateMutability": "nonpayable",
      "type": "function"
    },
    {
      "inputs": [
        {
          "internalType": "string",
          "name": "baseUri",
          "type": "string"
        }
      ],
      "name": "setBaseUri",
      "outputs": [],
      "stateMutability": "nonpayable",
      "type": "function"
    },
    {
      "inputs": [
        {
          "internalType": "address payable",
          "name": "_destination",
          "type": "address"
        }
      ],
      "name": "setDestination",
      "outputs": [],
      "stateMutability": "nonpayable",
      "type": "function"
    },
    {
      "inputs": [
        {
          "internalType": "uint256",
          "name": "newMaxBatchMint",
          "type": "uint256"
        }
      ],
      "name": "setMaxBatchMint",
      "outputs": [],
      "stateMutability": "nonpayable",
      "type": "function"
    },
    {
      "inputs": [
        {
          "internalType": "uint256",
          "name": "newMaxSupply",
          "type": "uint256"
        }
      ],
      "name": "setMaxSupply",
      "outputs": [],
      "stateMutability": "nonpayable",
      "type": "function"
    },
    {
      "inputs": [
        {
          "internalType": "uint256",
          "name": "_mintFee",
          "type": "uint256"
        }
      ],
      "name": "setMintFee",
      "outputs": [],
      "stateMutability": "nonpayable",
      "type": "function"
    },
    {
      "inputs": [
        {
          "internalType": "bool",
          "name": "_singleNftMeta",
          "type": "bool"
        }
      ],
      "name": "setSingleNftMeta",
      "outputs": [],
      "stateMutability": "nonpayable",
      "type": "function"
    },
    {
      "inputs": [
        {
          "internalType": "contract IERC20",
          "name": "_token",
          "type": "address"
        }
      ],
      "name": "setToken",
      "outputs": [],
      "stateMutability": "nonpayable",
      "type": "function"
    },
    {
      "inputs": [],
      "name": "singleNftMeta",
      "outputs": [
        {
          "internalType": "bool",
          "name": "",
          "type": "bool"
        }
      ],
      "stateMutability": "view",
      "type": "function"
    },
    {
      "inputs": [
        {
          "internalType": "bytes4",
          "name": "interfaceId",
          "type": "bytes4"
        }
      ],
      "name": "supportsInterface",
      "outputs": [
        {
          "internalType": "bool",
          "name": "",
          "type": "bool"
        }
      ],
      "stateMutability": "view",
      "type": "function"
    },
    {
      "inputs": [],
      "name": "symbol",
      "outputs": [
        {
          "internalType": "string",
          "name": "",
          "type": "string"
        }
      ],
      "stateMutability": "view",
      "type": "function"
    },
    {
      "inputs": [],
      "name": "token",
      "outputs": [
        {
          "internalType": "contract IERC20",
          "name": "",
          "type": "address"
        }
      ],
      "stateMutability": "view",
      "type": "function"
    },
    {
      "inputs": [
        {
          "internalType": "uint256",
          "name": "index",
          "type": "uint256"
        }
      ],
      "name": "tokenByIndex",
      "outputs": [
        {
          "internalType": "uint256",
          "name": "",
          "type": "uint256"
        }
      ],
      "stateMutability": "view",
      "type": "function"
    },
    {
      "inputs": [
        {
          "internalType": "address",
          "name": "owner",
          "type": "address"
        },
        {
          "internalType": "uint256",
          "name": "index",
          "type": "uint256"
        }
      ],
      "name": "tokenOfOwnerByIndex",
      "outputs": [
        {
          "internalType": "uint256",
          "name": "",
          "type": "uint256"
        }
      ],
      "stateMutability": "view",
      "type": "function"
    },
    {
      "inputs": [
        {
          "internalType": "uint256",
          "name": "tokenId",
          "type": "uint256"
        }
      ],
      "name": "tokenURI",
      "outputs": [
        {
          "internalType": "string",
          "name": "",
          "type": "string"
        }
      ],
      "stateMutability": "view",
      "type": "function"
    },
    {
      "inputs": [],
      "name": "totalSupply",
      "outputs": [
        {
          "internalType": "uint256",
          "name": "",
          "type": "uint256"
        }
      ],
      "stateMutability": "view",
      "type": "function"
    },
    {
      "inputs": [
        {
          "internalType": "address",
          "name": "from",
          "type": "address"
        },
        {
          "internalType": "address",
          "name": "to",
          "type": "address"
        },
        {
          "internalType": "uint256",
          "name": "tokenId",
          "type": "uint256"
        }
      ],
      "name": "transferFrom",
      "outputs": [],
      "stateMutability": "nonpayable",
      "type": "function"
    },
    {
      "inputs": [
        {
          "internalType": "address",
          "name": "newOwner",
          "type": "address"
        }
      ],
      "name": "transferOwnership",
      "outputs": [],
      "stateMutability": "nonpayable",
      "type": "function"
    },
    {
      "inputs": [],
      "name": "unpause",
      "outputs": [],
      "stateMutability": "nonpayable",
      "type": "function"
    },
    {
      "inputs": [
        {
          "internalType": "uint256",
          "name": "amount",
          "type": "uint256"
        }
      ],
      "name": "withdraw",
      "outputs": [],
      "stateMutability": "nonpayable",
      "type": "function"
    }
  ],
  "transactionHash": "0x23bc1c5dde6ea7c11b99ac8c975990df6a4f4e97824266a6878ff2b0f6d5649a",
  "args": [],
  "numDeployments": 1,
  "solcInputHash": "41e12385683fea1a6beecb81d3e2db3d",
  "bytecode": "0x60806040526001600d60006101000a81548160ff021916908315150217905550662386f26fc10000600f5561303960105560056011556001601260006101000a81548160ff021916908315150217905550739fe46736679d2d9a65f0992f2272de9f3c7fa6e0601560006101000a81548173ffffffffffffffffffffffffffffffffffffffff021916908373ffffffffffffffffffffffffffffffffffffffff160217905550348015620000b257600080fd5b506040518060400160405280600881526020017f5661756c744e66740000000000000000000000000000000000000000000000008152506040518060400160405280600381526020017f564c540000000000000000000000000000000000000000000000000000000000815250816000908162000130919062000594565b50806001908162000142919062000594565b5050506000600b60006101000a81548160ff02191690831515021790555062000180620001746200024c60201b60201c565b6200025460201b60201c565b601560009054906101000a900473ffffffffffffffffffffffffffffffffffffffff1673ffffffffffffffffffffffffffffffffffffffff1663095ea7b3307fffffffffffffffffffffffffffffffffffffffffffffffffffffffffffffffff6040518363ffffffff1660e01b8152600401620001ff929190620006d1565b6020604051808303816000875af11580156200021f573d6000803e3d6000fd5b505050506040513d601f19601f8201168201806040525081019062000245919062000740565b5062000772565b600033905090565b6000600b60019054906101000a900473ffffffffffffffffffffffffffffffffffffffff16905081600b60016101000a81548173ffffffffffffffffffffffffffffffffffffffff021916908373ffffffffffffffffffffffffffffffffffffffff1602179055508173ffffffffffffffffffffffffffffffffffffffff168173ffffffffffffffffffffffffffffffffffffffff167f8be0079c531659141344cd1fd0a4f28419497f9722a3daafe3b4186f6b6457e060405160405180910390a35050565b600081519050919050565b7f4e487b7100000000000000000000000000000000000000000000000000000000600052604160045260246000fd5b7f4e487b7100000000000000000000000000000000000000000000000000000000600052602260045260246000fd5b600060028204905060018216806200039c57607f821691505b602082108103620003b257620003b162000354565b5b50919050565b60008190508160005260206000209050919050565b60006020601f8301049050919050565b600082821b905092915050565b6000600883026200041c7fffffffffffffffffffffffffffffffffffffffffffffffffffffffffffffffff82620003dd565b620004288683620003dd565b95508019841693508086168417925050509392505050565b6000819050919050565b6000819050919050565b6000620004756200046f620004698462000440565b6200044a565b62000440565b9050919050565b6000819050919050565b620004918362000454565b620004a9620004a0826200047c565b848454620003ea565b825550505050565b600090565b620004c0620004b1565b620004cd81848462000486565b505050565b5b81811015620004f557620004e9600082620004b6565b600181019050620004d3565b5050565b601f82111562000544576200050e81620003b8565b6200051984620003cd565b8101602085101562000529578190505b620005416200053885620003cd565b830182620004d2565b50505b505050565b600082821c905092915050565b6000620005696000198460080262000549565b1980831691505092915050565b600062000584838362000556565b9150826002028217905092915050565b6200059f826200031a565b67ffffffffffffffff811115620005bb57620005ba62000325565b5b620005c7825462000383565b620005d4828285620004f9565b600060209050601f8311600181146200060c5760008415620005f7578287015190505b62000603858262000576565b86555062000673565b601f1984166200061c86620003b8565b60005b8281101562000646578489015182556001820191506020850194506020810190506200061f565b8683101562000666578489015162000662601f89168262000556565b8355505b6001600288020188555050505b505050505050565b600073ffffffffffffffffffffffffffffffffffffffff82169050919050565b6000620006a8826200067b565b9050919050565b620006ba816200069b565b82525050565b620006cb8162000440565b82525050565b6000604082019050620006e86000830185620006af565b620006f76020830184620006c0565b9392505050565b600080fd5b60008115159050919050565b6200071a8162000703565b81146200072657600080fd5b50565b6000815190506200073a816200070f565b92915050565b600060208284031215620007595762000758620006fe565b5b6000620007698482850162000729565b91505092915050565b615bd080620007826000396000f3fe608060405234801561001057600080fd5b50600436106103785760003560e01c80636f8b44b0116101d3578063a7cd52cb11610104578063d5abeb01116100a2578063eddd0d9c1161007c578063eddd0d9c146109f1578063f2afd39914610a0d578063f2fde38b14610a29578063fc0c546a14610a4557610378565b8063d5abeb0114610999578063dc2fbaee146109b7578063e985e9c5146109c157610378565b8063bc12f299116100de578063bc12f29914610901578063c1a7fcc01461091d578063c87b56dd1461094d578063d31f93951461097d57610378565b8063a7cd52cb14610897578063b269681d146108c7578063b88d4fde146108e557610378565b80638b38d27c11610171578063990c006d1161014b578063990c006d14610811578063a0bcfc7f14610841578063a22cb4651461085d578063a7adf9641461087957610378565b80638b38d27c146107b95780638da5cb5b146107d557806395d89b41146107f357610378565b8063715018a6116101ad578063715018a61461076b5780637a36803014610775578063834029ba146107a55780638456cb59146107af57610378565b80636f8b44b0146107035780637065ec391461071f57806370a082311461073b57610378565b80633045b241116102ad5780634f6ccce71161024b5780635c975abb116102255780635c975abb1461067b5780636352211e146106995780636494a5be146106c95780636c0360eb146106e557610378565b80634f6ccce714610611578063582d6422146106415780635a9c787f1461065d57610378565b806342842e0e1161028757806342842e0e146105a157806342966c68146105bd578063450d624d146105d9578063471676bb146105f557610378565b80633045b2411461055f5780633f4ba83a1461057b57806340d097c31461058557610378565b806313966db51161031a57806322bd5c1c116102f457806322bd5c1c146104d957806323b872dd146104f75780632e1a7d4d146105135780632f745c591461052f57610378565b806313966db514610481578063144fa6d71461049f57806318160ddd146104bb57610378565b8063081812fc11610356578063081812fc146103fb578063095ea7b31461042b57806309a3a9c1146104475780630a0a05e61461046557610378565b806301ffc9a71461037d57806305a3b809146103ad57806306fdde03146103dd575b600080fd5b61039760048036038101906103929190613d17565b610a63565b6040516103a49190613d5f565b60405180910390f35b6103c760048036038101906103c29190613dd8565b610a75565b6040516103d49190613d5f565b60405180910390f35b6103e5610acb565b6040516103f29190613e95565b60405180910390f35b61041560048036038101906104109190613eed565b610b5d565b6040516104229190613f29565b60405180910390f35b61044560048036038101906104409190613f44565b610ba3565b005b61044f610cba565b60405161045c9190613f93565b60405180910390f35b61047f600480360381019061047a9190613fec565b610cc0565b005b610489610d0c565b6040516104969190613f93565b60405180910390f35b6104b960048036038101906104b49190614057565b610d12565b005b6104c3610e1f565b6040516104d09190613f93565b60405180910390f35b6104e1610e2c565b6040516104ee9190613d5f565b60405180910390f35b610511600480360381019061050c9190614084565b610e3f565b005b61052d60048036038101906105289190613eed565b610e9f565b005b61054960048036038101906105449190613f44565b610f6d565b6040516105569190613f93565b60405180910390f35b61057960048036038101906105749190614103565b611012565b005b610583611028565b005b61059f600480360381019061059a9190613dd8565b61103a565b005b6105bb60048036038101906105b69190614084565b611068565b005b6105d760048036038101906105d29190613eed565b611088565b005b6105f360048036038101906105ee9190614143565b6110e4565b005b61060f600480360381019061060a91906142a5565b611109565b005b61062b60048036038101906106269190613eed565b611142565b6040516106389190613f93565b60405180910390f35b61065b60048036038101906106569190613f44565b6111b3565b005b6106656113b0565b6040516106729190613f29565b60405180910390f35b6106836113d6565b6040516106909190613d5f565b60405180910390f35b6106b360048036038101906106ae9190613eed565b6113ed565b6040516106c09190613f29565b60405180910390f35b6106e360048036038101906106de9190613dd8565b611473565b005b6106ed6114bf565b6040516106fa9190613e95565b60405180910390f35b61071d60048036038101906107189190613eed565b61154d565b005b61073960048036038101906107349190613eed565b6115a3565b005b61075560048036038101906107509190613dd8565b61163f565b6040516107629190613f93565b60405180910390f35b6107736116f6565b005b61078f600480360381019061078a9190613dd8565b61170a565b60405161079c9190613f93565b60405180910390f35b6107ad6117b1565b005b6107b76117c3565b005b6107d360048036038101906107ce9190614084565b6117d5565b005b6107dd611885565b6040516107ea9190613f29565b60405180910390f35b6107fb6118af565b6040516108089190613e95565b60405180910390f35b61082b60048036038101906108269190613dd8565b611941565b6040516108389190613d5f565b60405180910390f35b61085b60048036038101906108569190614361565b6119e2565b005b61087760048036038101906108729190614103565b611a00565b005b610881611a16565b60405161088e9190613d5f565b60405180910390f35b6108b160048036038101906108ac9190613dd8565b611a29565b6040516108be9190613d5f565b60405180910390f35b6108cf611a49565b6040516108dc91906143bd565b60405180910390f35b6108ff60048036038101906108fa9190614479565b611a6f565b005b61091b60048036038101906109169190613f44565b611ad1565b005b61093760048036038101906109329190613eed565b611b76565b6040516109449190613d5f565b60405180910390f35b61096760048036038101906109629190613eed565b611c1f565b6040516109749190613e95565b60405180910390f35b61099760048036038101906109929190613eed565b611c71565b005b6109a1611cc7565b6040516109ae9190613f93565b60405180910390f35b6109bf611ccd565b005b6109db60048036038101906109d691906144fc565b611cdf565b6040516109e89190613d5f565b60405180910390f35b610a0b6004803603810190610a069190613eed565b611d73565b005b610a276004803603810190610a229190613dd8565b611d85565b005b610a436004803603810190610a3e9190613dd8565b611f00565b005b610a4d611f83565b604051610a5a919061459b565b60405180910390f35b6000610a6e82611fa9565b9050919050565b6000600c60008373ffffffffffffffffffffffffffffffffffffffff1673ffffffffffffffffffffffffffffffffffffffff16815260200190815260200160002060009054906101000a900460ff169050919050565b606060008054610ada906145e5565b80601f0160208091040260200160405190810160405280929190818152602001828054610b06906145e5565b8015610b535780601f10610b2857610100808354040283529160200191610b53565b820191906000526020600020905b815481529060010190602001808311610b3657829003601f168201915b5050505050905090565b6000610b688261200a565b6004600083815260200190815260200160002060009054906101000a900473ffffffffffffffffffffffffffffffffffffffff169050919050565b6000610bae826113ed565b90508073ffffffffffffffffffffffffffffffffffffffff168373ffffffffffffffffffffffffffffffffffffffff1603610c1e576040517f08c379a0000000000000000000000000000000000000000000000000000000008152600401610c1590614688565b60405180910390fd5b8073ffffffffffffffffffffffffffffffffffffffff16610c3d612055565b73ffffffffffffffffffffffffffffffffffffffff161480610c6c5750610c6b81610c66612055565b611cdf565b5b610cab576040517f08c379a0000000000000000000000000000000000000000000000000000000008152600401610ca29061471a565b60405180910390fd5b610cb5838361205d565b505050565b60115481565b610cc8612116565b80601360006101000a81548173ffffffffffffffffffffffffffffffffffffffff021916908373ffffffffffffffffffffffffffffffffffffffff16021790555050565b600f5481565b610d1a612116565b80601560006101000a81548173ffffffffffffffffffffffffffffffffffffffff021916908373ffffffffffffffffffffffffffffffffffffffff160217905550601560009054906101000a900473ffffffffffffffffffffffffffffffffffffffff1673ffffffffffffffffffffffffffffffffffffffff1663095ea7b3307fffffffffffffffffffffffffffffffffffffffffffffffffffffffffffffffff6040518363ffffffff1660e01b8152600401610dd892919061473a565b6020604051808303816000875af1158015610df7573d6000803e3d6000fd5b505050506040513d601f19601f82011682018060405250810190610e1b9190614778565b5050565b6000600880549050905090565b600d60009054906101000a900460ff1681565b610e50610e4a612055565b82612194565b610e8f576040517f08c379a0000000000000000000000000000000000000000000000000000000008152600401610e8690614817565b60405180910390fd5b610e9a838383612229565b505050565b610ea7612116565b601560009054906101000a900473ffffffffffffffffffffffffffffffffffffffff1673ffffffffffffffffffffffffffffffffffffffff1663a9059cbb601360009054906101000a900473ffffffffffffffffffffffffffffffffffffffff16836040518363ffffffff1660e01b8152600401610f26929190614858565b6020604051808303816000875af1158015610f45573d6000803e3d6000fd5b505050506040513d601f19601f82011682018060405250810190610f699190614778565b5050565b6000610f788361163f565b8210610fb9576040517f08c379a0000000000000000000000000000000000000000000000000000000008152600401610fb0906148f3565b60405180910390fd5b600660008473ffffffffffffffffffffffffffffffffffffffff1673ffffffffffffffffffffffffffffffffffffffff168152602001908152602001600020600083815260200190815260200160002054905092915050565b61101a612116565b6110248282612522565b5050565b611030612116565b611038612625565b565b611042612116565b600061104e600e612688565b905061105a600e612696565b61106482826126ac565b5050565b61108383838360405180602001604052806000815250611a6f565b505050565b611099611093612055565b82612194565b6110d8576040517f08c379a00000000000000000000000000000000000000000000000000000000081526004016110cf90614817565b60405180910390fd5b6110e1816126ca565b50565b6110ec612116565b80601260006101000a81548160ff02191690831515021790555050565b611111612116565b600061111d600e612688565b9050611129600e612696565b61113383826126ac565b61113d81836126d6565b505050565b600061114c610e1f565b821061118d576040517f08c379a000000000000000000000000000000000000000000000000000000000815260040161118490614985565b60405180910390fd5b600882815481106111a1576111a06149a5565b5b90600052602060002001549050919050565b600d60009054906101000a900460ff1615611218576111d86111d3612055565b610a75565b611217576040517f08c379a000000000000000000000000000000000000000000000000000000000815260040161120e90614a46565b60405180910390fd5b5b60115481111561125d576040517f08c379a000000000000000000000000000000000000000000000000000000000815260040161125490614ad8565b60405180910390fd5b60105481611269610e1f565b6112739190614b27565b11156112b4576040517f08c379a00000000000000000000000000000000000000000000000000000000081526004016112ab90614ba7565b60405180910390fd5b6000600f54826112c49190614bc7565b9050601560009054906101000a900473ffffffffffffffffffffffffffffffffffffffff1673ffffffffffffffffffffffffffffffffffffffff166323b872dd3330846040518463ffffffff1660e01b815260040161132593929190614c09565b6020604051808303816000875af1158015611344573d6000803e3d6000fd5b505050506040513d601f19601f820116820180604052508101906113689190614778565b506000611375600e612688565b905060005b838110156113a95761138c600e612696565b61139685836126ac565b80806113a190614c40565b91505061137a565b5050505050565b601260019054906101000a900473ffffffffffffffffffffffffffffffffffffffff1681565b6000600b60009054906101000a900460ff16905090565b6000806113f98361277a565b9050600073ffffffffffffffffffffffffffffffffffffffff168173ffffffffffffffffffffffffffffffffffffffff160361146a576040517f08c379a000000000000000000000000000000000000000000000000000000000815260040161146190614cd4565b60405180910390fd5b80915050919050565b61147b612116565b80601260016101000a81548173ffffffffffffffffffffffffffffffffffffffff021916908373ffffffffffffffffffffffffffffffffffffffff16021790555050565b601480546114cc906145e5565b80601f01602080910402602001604051908101604052809291908181526020018280546114f8906145e5565b80156115455780601f1061151a57610100808354040283529160200191611545565b820191906000526020600020905b81548152906001019060200180831161152857829003601f168201915b505050505081565b611555612116565b6000811015611599576040517f08c379a000000000000000000000000000000000000000000000000000000000815260040161159090614d40565b60405180910390fd5b8060108190555050565b601260019054906101000a900473ffffffffffffffffffffffffffffffffffffffff1673ffffffffffffffffffffffffffffffffffffffff163373ffffffffffffffffffffffffffffffffffffffff1614611633576040517f08c379a000000000000000000000000000000000000000000000000000000000815260040161162a90614dac565b60405180910390fd5b61163c816126ca565b50565b60008073ffffffffffffffffffffffffffffffffffffffff168273ffffffffffffffffffffffffffffffffffffffff16036116af576040517f08c379a00000000000000000000000000000000000000000000000000000000081526004016116a690614e3e565b60405180910390fd5b600360008373ffffffffffffffffffffffffffffffffffffffff1673ffffffffffffffffffffffffffffffffffffffff168152602001908152602001600020549050919050565b6116fe612116565b61170860006127b7565b565b6000601560009054906101000a900473ffffffffffffffffffffffffffffffffffffffff1673ffffffffffffffffffffffffffffffffffffffff1663dd62ed3e83306040518363ffffffff1660e01b8152600401611769929190614e5e565b602060405180830381865afa158015611786573d6000803e3d6000fd5b505050506040513d601f19601f820116820180604052508101906117aa9190614e9c565b9050919050565b6117b9612116565b6117c161287d565b565b6117cb612116565b6117d36128c6565b565b601260019054906101000a900473ffffffffffffffffffffffffffffffffffffffff1673ffffffffffffffffffffffffffffffffffffffff163373ffffffffffffffffffffffffffffffffffffffff1614611865576040517f08c379a000000000000000000000000000000000000000000000000000000000815260040161185c90614f3b565b60405180910390fd5b61188083838360405180602001604052806000815250612929565b505050565b6000600b60019054906101000a900473ffffffffffffffffffffffffffffffffffffffff16905090565b6060600180546118be906145e5565b80601f01602080910402602001604051908101604052809291908181526020018280546118ea906145e5565b80156119375780601f1061190c57610100808354040283529160200191611937565b820191906000526020600020905b81548152906001019060200180831161191a57829003601f168201915b5050505050905090565b600061194b612055565b73ffffffffffffffffffffffffffffffffffffffff16611969611885565b73ffffffffffffffffffffffffffffffffffffffff160361198d57600190506119dd565b600c60008373ffffffffffffffffffffffffffffffffffffffff1673ffffffffffffffffffffffffffffffffffffffff16815260200190815260200160002060009054906101000a900460ff1690505b919050565b6119ea612116565b8181601491826119fb929190615108565b505050565b611a12611a0b612055565b8383612985565b5050565b601260009054906101000a900460ff1681565b600c6020528060005260406000206000915054906101000a900460ff1681565b601360009054906101000a900473ffffffffffffffffffffffffffffffffffffffff1681565b611a80611a7a612055565b83612194565b611abf576040517f08c379a0000000000000000000000000000000000000000000000000000000008152600401611ab690614817565b60405180910390fd5b611acb84848484612929565b50505050565b601560009054906101000a900473ffffffffffffffffffffffffffffffffffffffff1673ffffffffffffffffffffffffffffffffffffffff1663095ea7b383836040518363ffffffff1660e01b8152600401611b2e92919061473a565b6020604051808303816000875af1158015611b4d573d6000803e3d6000fd5b505050506040513d601f19601f82011682018060405250810190611b719190614778565b505050565b6000601560009054906101000a900473ffffffffffffffffffffffffffffffffffffffff1673ffffffffffffffffffffffffffffffffffffffff1663095ea7b330846040518363ffffffff1660e01b8152600401611bd592919061473a565b6020604051808303816000875af1158015611bf4573d6000803e3d6000fd5b505050506040513d601f19601f82011682018060405250810190611c189190614778565b9050919050565b6060611c2a8261200a565b6000611c34612af1565b9050601260009054906101000a900460ff1615611c5f57600081511115611c5e5780915050611c6c565b5b611c6883612b83565b9150505b919050565b611c79612116565b6000811015611cbd576040517f08c379a0000000000000000000000000000000000000000000000000000000008152600401611cb490615224565b60405180910390fd5b8060118190555050565b60105481565b611cd5612116565b611cdd612c95565b565b6000600560008473ffffffffffffffffffffffffffffffffffffffff1673ffffffffffffffffffffffffffffffffffffffff16815260200190815260200160002060008373ffffffffffffffffffffffffffffffffffffffff1673ffffffffffffffffffffffffffffffffffffffff16815260200190815260200160002060009054906101000a900460ff16905092915050565b611d7b612116565b80600f8190555050565b600d60009054906101000a900460ff1615611dea57611daa611da5612055565b610a75565b611de9576040517f08c379a0000000000000000000000000000000000000000000000000000000008152600401611de090614a46565b60405180910390fd5b5b601054611df5610e1f565b10611e35576040517f08c379a0000000000000000000000000000000000000000000000000000000008152600401611e2c90614ba7565b60405180910390fd5b601560009054906101000a900473ffffffffffffffffffffffffffffffffffffffff1673ffffffffffffffffffffffffffffffffffffffff166323b872dd3330600f546040518463ffffffff1660e01b8152600401611e9693929190614c09565b6020604051808303816000875af1158015611eb5573d6000803e3d6000fd5b505050506040513d601f19601f82011682018060405250810190611ed99190614778565b506000611ee6600e612688565b9050611ef2600e612696565b611efc82826126ac565b5050565b611f08612116565b600073ffffffffffffffffffffffffffffffffffffffff168173ffffffffffffffffffffffffffffffffffffffff1603611f77576040517f08c379a0000000000000000000000000000000000000000000000000000000008152600401611f6e906152b6565b60405180910390fd5b611f80816127b7565b50565b601560009054906101000a900473ffffffffffffffffffffffffffffffffffffffff1681565b6000634906490660e01b7bffffffffffffffffffffffffffffffffffffffffffffffffffffffff1916827bffffffffffffffffffffffffffffffffffffffffffffffffffffffff19161480612003575061200282612cde565b5b9050919050565b61201381612d58565b612052576040517f08c379a000000000000000000000000000000000000000000000000000000000815260040161204990614cd4565b60405180910390fd5b50565b600033905090565b816004600083815260200190815260200160002060006101000a81548173ffffffffffffffffffffffffffffffffffffffff021916908373ffffffffffffffffffffffffffffffffffffffff160217905550808273ffffffffffffffffffffffffffffffffffffffff166120d0836113ed565b73ffffffffffffffffffffffffffffffffffffffff167f8c5be1e5ebec7d5bd14f71427d1e84f3dd0314c0f7b2291e5b200ac8c7c3b92560405160405180910390a45050565b61211e612055565b73ffffffffffffffffffffffffffffffffffffffff1661213c611885565b73ffffffffffffffffffffffffffffffffffffffff1614612192576040517f08c379a000000000000000000000000000000000000000000000000000000000815260040161218990615322565b60405180910390fd5b565b6000806121a0836113ed565b90508073ffffffffffffffffffffffffffffffffffffffff168473ffffffffffffffffffffffffffffffffffffffff1614806121e257506121e18185611cdf565b5b8061222057508373ffffffffffffffffffffffffffffffffffffffff1661220884610b5d565b73ffffffffffffffffffffffffffffffffffffffff16145b91505092915050565b8273ffffffffffffffffffffffffffffffffffffffff16612249826113ed565b73ffffffffffffffffffffffffffffffffffffffff161461229f576040517f08c379a0000000000000000000000000000000000000000000000000000000008152600401612296906153b4565b60405180910390fd5b600073ffffffffffffffffffffffffffffffffffffffff168273ffffffffffffffffffffffffffffffffffffffff160361230e576040517f08c379a000000000000000000000000000000000000000000000000000000000815260040161230590615446565b60405180910390fd5b61231b8383836001612d99565b8273ffffffffffffffffffffffffffffffffffffffff1661233b826113ed565b73ffffffffffffffffffffffffffffffffffffffff1614612391576040517f08c379a0000000000000000000000000000000000000000000000000000000008152600401612388906153b4565b60405180910390fd5b6004600082815260200190815260200160002060006101000a81549073ffffffffffffffffffffffffffffffffffffffff02191690556001600360008573ffffffffffffffffffffffffffffffffffffffff1673ffffffffffffffffffffffffffffffffffffffff168152602001908152602001600020600082825403925050819055506001600360008473ffffffffffffffffffffffffffffffffffffffff1673ffffffffffffffffffffffffffffffffffffffff16815260200190815260200160002060008282540192505081905550816002600083815260200190815260200160002060006101000a81548173ffffffffffffffffffffffffffffffffffffffff021916908373ffffffffffffffffffffffffffffffffffffffff160217905550808273ffffffffffffffffffffffffffffffffffffffff168473ffffffffffffffffffffffffffffffffffffffff167fddf252ad1be2c89b69c2b068fc378daa952ba7f163c4a11628f55a4df523b3ef60405160405180910390a461251d8383836001612db3565b505050565b600073ffffffffffffffffffffffffffffffffffffffff168273ffffffffffffffffffffffffffffffffffffffff1603612591576040517f08c379a0000000000000000000000000000000000000000000000000000000008152600401612588906154d8565b60405180910390fd5b80600c60008473ffffffffffffffffffffffffffffffffffffffff1673ffffffffffffffffffffffffffffffffffffffff16815260200190815260200160002060006101000a81548160ff0219169083151502179055507f01883a2ded2d11a676263b3edca3878eec2c68618ae55db0314bebd4b9561b2382826040516126199291906154f8565b60405180910390a15050565b61262d612db9565b6000600b60006101000a81548160ff0219169083151502179055507f5db9ee0a495bf2e6ff9c91a7834c1ba4fdd244a5e8aa4e537bd38aeae4b073aa612671612055565b60405161267e9190613f29565b60405180910390a1565b600081600001549050919050565b6001816000016000828254019250508190555050565b6126c6828260405180602001604052806000815250612e02565b5050565b6126d381612e5d565b50565b6126df82612d58565b61271e576040517f08c379a000000000000000000000000000000000000000000000000000000000815260040161271590615593565b60405180910390fd5b80600a6000848152602001908152602001600020908161273e91906155b3565b507ff8e1a15aba9398e019f0b49df1a4fde98ee17ae345cb5f6b5e2c27f5033e8ce78260405161276e9190613f93565b60405180910390a15050565b60006002600083815260200190815260200160002060009054906101000a900473ffffffffffffffffffffffffffffffffffffffff169050919050565b6000600b60019054906101000a900473ffffffffffffffffffffffffffffffffffffffff16905081600b60016101000a81548173ffffffffffffffffffffffffffffffffffffffff021916908373ffffffffffffffffffffffffffffffffffffffff1602179055508173ffffffffffffffffffffffffffffffffffffffff168173ffffffffffffffffffffffffffffffffffffffff167f8be0079c531659141344cd1fd0a4f28419497f9722a3daafe3b4186f6b6457e060405160405180910390a35050565b6000600d60006101000a81548160ff0219169083151502179055507f17deb57f2c665512f91ec43836987faa802c8cd173a69f704a39155e48a40a2560405160405180910390a1565b6128ce612eb0565b6001600b60006101000a81548160ff0219169083151502179055507f62e78cea01bee320cd4e420270b5ea74000d11b0c9f74754ebdbfc544b05a258612912612055565b60405161291f9190613f29565b60405180910390a1565b612934848484612229565b61294084848484612efa565b61297f576040517f08c379a0000000000000000000000000000000000000000000000000000000008152600401612976906156f7565b60405180910390fd5b50505050565b8173ffffffffffffffffffffffffffffffffffffffff168373ffffffffffffffffffffffffffffffffffffffff16036129f3576040517f08c379a00000000000000000000000000000000000000000000000000000000081526004016129ea90615763565b60405180910390fd5b80600560008573ffffffffffffffffffffffffffffffffffffffff1673ffffffffffffffffffffffffffffffffffffffff16815260200190815260200160002060008473ffffffffffffffffffffffffffffffffffffffff1673ffffffffffffffffffffffffffffffffffffffff16815260200190815260200160002060006101000a81548160ff0219169083151502179055508173ffffffffffffffffffffffffffffffffffffffff168373ffffffffffffffffffffffffffffffffffffffff167f17307eab39ab6107e8899845ad3d59bd9653f200f220920489ca2b5937696c3183604051612ae49190613d5f565b60405180910390a3505050565b606060148054612b00906145e5565b80601f0160208091040260200160405190810160405280929190818152602001828054612b2c906145e5565b8015612b795780601f10612b4e57610100808354040283529160200191612b79565b820191906000526020600020905b815481529060010190602001808311612b5c57829003601f168201915b5050505050905090565b6060612b8e8261200a565b6000600a60008481526020019081526020016000208054612bae906145e5565b80601f0160208091040260200160405190810160405280929190818152602001828054612bda906145e5565b8015612c275780601f10612bfc57610100808354040283529160200191612c27565b820191906000526020600020905b815481529060010190602001808311612c0a57829003601f168201915b505050505090506000612c38612af1565b90506000815103612c4d578192505050612c90565b600082511115612c82578082604051602001612c6a9291906157bf565b60405160208183030381529060405292505050612c90565b612c8b84613081565b925050505b919050565b6001600d60006101000a81548160ff0219169083151502179055507ff1917d42b61041c8a637919d5c23a9a559d72e57633d21cfe88c46b0fa01b6b960405160405180910390a1565b60007f780e9d63000000000000000000000000000000000000000000000000000000007bffffffffffffffffffffffffffffffffffffffffffffffffffffffff1916827bffffffffffffffffffffffffffffffffffffffffffffffffffffffff19161480612d515750612d50826130e9565b5b9050919050565b60008073ffffffffffffffffffffffffffffffffffffffff16612d7a8361277a565b73ffffffffffffffffffffffffffffffffffffffff1614159050919050565b612da1612eb0565b612dad848484846131cb565b50505050565b50505050565b612dc16113d6565b612e00576040517f08c379a0000000000000000000000000000000000000000000000000000000008152600401612df79061582f565b60405180910390fd5b565b612e0c8383613329565b612e196000848484612efa565b612e58576040517f08c379a0000000000000000000000000000000000000000000000000000000008152600401612e4f906156f7565b60405180910390fd5b505050565b612e6681613546565b6000600a60008381526020019081526020016000208054612e86906145e5565b905014612ead57600a60008281526020019081526020016000206000612eac9190613c4e565b5b50565b612eb86113d6565b15612ef8576040517f08c379a0000000000000000000000000000000000000000000000000000000008152600401612eef9061589b565b60405180910390fd5b565b6000612f1b8473ffffffffffffffffffffffffffffffffffffffff16613694565b15613074578373ffffffffffffffffffffffffffffffffffffffff1663150b7a02612f44612055565b8786866040518563ffffffff1660e01b8152600401612f669493929190615910565b6020604051808303816000875af1925050508015612fa257506040513d601f19601f82011682018060405250810190612f9f9190615971565b60015b613024573d8060008114612fd2576040519150601f19603f3d011682016040523d82523d6000602084013e612fd7565b606091505b50600081510361301c576040517f08c379a0000000000000000000000000000000000000000000000000000000008152600401613013906156f7565b60405180910390fd5b805181602001fd5b63150b7a0260e01b7bffffffffffffffffffffffffffffffffffffffffffffffffffffffff1916817bffffffffffffffffffffffffffffffffffffffffffffffffffffffff191614915050613079565b600190505b949350505050565b606061308c8261200a565b6000613096612af1565b905060008151116130b657604051806020016040528060008152506130e1565b806130c0846136b7565b6040516020016130d19291906157bf565b6040516020818303038152906040525b915050919050565b60007f80ac58cd000000000000000000000000000000000000000000000000000000007bffffffffffffffffffffffffffffffffffffffffffffffffffffffff1916827bffffffffffffffffffffffffffffffffffffffffffffffffffffffff191614806131b457507f5b5e139f000000000000000000000000000000000000000000000000000000007bffffffffffffffffffffffffffffffffffffffffffffffffffffffff1916827bffffffffffffffffffffffffffffffffffffffffffffffffffffffff1916145b806131c457506131c382613785565b5b9050919050565b6131d7848484846137ef565b600181111561321b576040517f08c379a000000000000000000000000000000000000000000000000000000000815260040161321290615a10565b60405180910390fd5b6000829050600073ffffffffffffffffffffffffffffffffffffffff168573ffffffffffffffffffffffffffffffffffffffff16036132625761325d816137f5565b6132a1565b8373ffffffffffffffffffffffffffffffffffffffff168573ffffffffffffffffffffffffffffffffffffffff16146132a05761329f858261383e565b5b5b600073ffffffffffffffffffffffffffffffffffffffff168473ffffffffffffffffffffffffffffffffffffffff16036132e3576132de816139ab565b613322565b8473ffffffffffffffffffffffffffffffffffffffff168473ffffffffffffffffffffffffffffffffffffffff1614613321576133208482613a7c565b5b5b5050505050565b600073ffffffffffffffffffffffffffffffffffffffff168273ffffffffffffffffffffffffffffffffffffffff1603613398576040517f08c379a000000000000000000000000000000000000000000000000000000000815260040161338f90615a7c565b60405180910390fd5b6133a181612d58565b156133e1576040517f08c379a00000000000000000000000000000000000000000000000000000000081526004016133d890615ae8565b60405180910390fd5b6133ef600083836001612d99565b6133f881612d58565b15613438576040517f08c379a000000000000000000000000000000000000000000000000000000000815260040161342f90615ae8565b60405180910390fd5b6001600360008473ffffffffffffffffffffffffffffffffffffffff1673ffffffffffffffffffffffffffffffffffffffff16815260200190815260200160002060008282540192505081905550816002600083815260200190815260200160002060006101000a81548173ffffffffffffffffffffffffffffffffffffffff021916908373ffffffffffffffffffffffffffffffffffffffff160217905550808273ffffffffffffffffffffffffffffffffffffffff16600073ffffffffffffffffffffffffffffffffffffffff167fddf252ad1be2c89b69c2b068fc378daa952ba7f163c4a11628f55a4df523b3ef60405160405180910390a4613542600083836001612db3565b5050565b6000613551826113ed565b9050613561816000846001612d99565b61356a826113ed565b90506004600083815260200190815260200160002060006101000a81549073ffffffffffffffffffffffffffffffffffffffff02191690556001600360008373ffffffffffffffffffffffffffffffffffffffff1673ffffffffffffffffffffffffffffffffffffffff168152602001908152602001600020600082825403925050819055506002600083815260200190815260200160002060006101000a81549073ffffffffffffffffffffffffffffffffffffffff021916905581600073ffffffffffffffffffffffffffffffffffffffff168273ffffffffffffffffffffffffffffffffffffffff167fddf252ad1be2c89b69c2b068fc378daa952ba7f163c4a11628f55a4df523b3ef60405160405180910390a4613690816000846001612db3565b5050565b6000808273ffffffffffffffffffffffffffffffffffffffff163b119050919050565b6060600060016136c684613afb565b01905060008167ffffffffffffffff8111156136e5576136e461417a565b5b6040519080825280601f01601f1916602001820160405280156137175781602001600182028036833780820191505090505b509050600082602001820190505b60011561377a578080600190039150507f3031323334353637383961626364656600000000000000000000000000000000600a86061a8153600a858161376e5761376d615b08565b5b04945060008503613725575b819350505050919050565b60007f01ffc9a7000000000000000000000000000000000000000000000000000000007bffffffffffffffffffffffffffffffffffffffffffffffffffffffff1916827bffffffffffffffffffffffffffffffffffffffffffffffffffffffff1916149050919050565b50505050565b6008805490506009600083815260200190815260200160002081905550600881908060018154018082558091505060019003906000526020600020016000909190919091505550565b6000600161384b8461163f565b6138559190615b37565b905060006007600084815260200190815260200160002054905081811461393a576000600660008673ffffffffffffffffffffffffffffffffffffffff1673ffffffffffffffffffffffffffffffffffffffff168152602001908152602001600020600084815260200190815260200160002054905080600660008773ffffffffffffffffffffffffffffffffffffffff1673ffffffffffffffffffffffffffffffffffffffff168152602001908152602001600020600084815260200190815260200160002081905550816007600083815260200190815260200160002081905550505b6007600084815260200190815260200160002060009055600660008573ffffffffffffffffffffffffffffffffffffffff1673ffffffffffffffffffffffffffffffffffffffff16815260200190815260200160002060008381526020019081526020016000206000905550505050565b600060016008805490506139bf9190615b37565b90506000600960008481526020019081526020016000205490506000600883815481106139ef576139ee6149a5565b5b906000526020600020015490508060088381548110613a1157613a106149a5565b5b906000526020600020018190555081600960008381526020019081526020016000208190555060096000858152602001908152602001600020600090556008805480613a6057613a5f615b6b565b5b6001900381819060005260206000200160009055905550505050565b6000613a878361163f565b905081600660008573ffffffffffffffffffffffffffffffffffffffff1673ffffffffffffffffffffffffffffffffffffffff168152602001908152602001600020600083815260200190815260200160002081905550806007600084815260200190815260200160002081905550505050565b600080600090507a184f03e93ff9f4daa797ed6e38ed64bf6a1f0100000000000000008310613b59577a184f03e93ff9f4daa797ed6e38ed64bf6a1f0100000000000000008381613b4f57613b4e615b08565b5b0492506040810190505b6d04ee2d6d415b85acef81000000008310613b96576d04ee2d6d415b85acef81000000008381613b8c57613b8b615b08565b5b0492506020810190505b662386f26fc100008310613bc557662386f26fc100008381613bbb57613bba615b08565b5b0492506010810190505b6305f5e1008310613bee576305f5e1008381613be457613be3615b08565b5b0492506008810190505b6127108310613c13576127108381613c0957613c08615b08565b5b0492506004810190505b60648310613c365760648381613c2c57613c2b615b08565b5b0492506002810190505b600a8310613c45576001810190505b80915050919050565b508054613c5a906145e5565b6000825580601f10613c6c5750613c8b565b601f016020900490600052602060002090810190613c8a9190613c8e565b5b50565b5b80821115613ca7576000816000905550600101613c8f565b5090565b6000604051905090565b600080fd5b600080fd5b60007fffffffff0000000000000000000000000000000000000000000000000000000082169050919050565b613cf481613cbf565b8114613cff57600080fd5b50565b600081359050613d1181613ceb565b92915050565b600060208284031215613d2d57613d2c613cb5565b5b6000613d3b84828501613d02565b91505092915050565b60008115159050919050565b613d5981613d44565b82525050565b6000602082019050613d746000830184613d50565b92915050565b600073ffffffffffffffffffffffffffffffffffffffff82169050919050565b6000613da582613d7a565b9050919050565b613db581613d9a565b8114613dc057600080fd5b50565b600081359050613dd281613dac565b92915050565b600060208284031215613dee57613ded613cb5565b5b6000613dfc84828501613dc3565b91505092915050565b600081519050919050565b600082825260208201905092915050565b60005b83811015613e3f578082015181840152602081019050613e24565b60008484015250505050565b6000601f19601f8301169050919050565b6000613e6782613e05565b613e718185613e10565b9350613e81818560208601613e21565b613e8a81613e4b565b840191505092915050565b60006020820190508181036000830152613eaf8184613e5c565b905092915050565b6000819050919050565b613eca81613eb7565b8114613ed557600080fd5b50565b600081359050613ee781613ec1565b92915050565b600060208284031215613f0357613f02613cb5565b5b6000613f1184828501613ed8565b91505092915050565b613f2381613d9a565b82525050565b6000602082019050613f3e6000830184613f1a565b92915050565b60008060408385031215613f5b57613f5a613cb5565b5b6000613f6985828601613dc3565b9250506020613f7a85828601613ed8565b9150509250929050565b613f8d81613eb7565b82525050565b6000602082019050613fa86000830184613f84565b92915050565b6000613fb982613d7a565b9050919050565b613fc981613fae565b8114613fd457600080fd5b50565b600081359050613fe681613fc0565b92915050565b60006020828403121561400257614001613cb5565b5b600061401084828501613fd7565b91505092915050565b600061402482613d9a565b9050919050565b61403481614019565b811461403f57600080fd5b50565b6000813590506140518161402b565b92915050565b60006020828403121561406d5761406c613cb5565b5b600061407b84828501614042565b91505092915050565b60008060006060848603121561409d5761409c613cb5565b5b60006140ab86828701613dc3565b93505060206140bc86828701613dc3565b92505060406140cd86828701613ed8565b9150509250925092565b6140e081613d44565b81146140eb57600080fd5b50565b6000813590506140fd816140d7565b92915050565b6000806040838503121561411a57614119613cb5565b5b600061412885828601613dc3565b9250506020614139858286016140ee565b9150509250929050565b60006020828403121561415957614158613cb5565b5b6000614167848285016140ee565b91505092915050565b600080fd5b600080fd5b7f4e487b7100000000000000000000000000000000000000000000000000000000600052604160045260246000fd5b6141b282613e4b565b810181811067ffffffffffffffff821117156141d1576141d061417a565b5b80604052505050565b60006141e4613cab565b90506141f082826141a9565b919050565b600067ffffffffffffffff8211156142105761420f61417a565b5b61421982613e4b565b9050602081019050919050565b82818337600083830152505050565b6000614248614243846141f5565b6141da565b90508281526020810184848401111561426457614263614175565b5b61426f848285614226565b509392505050565b600082601f83011261428c5761428b614170565b5b813561429c848260208601614235565b91505092915050565b600080604083850312156142bc576142bb613cb5565b5b60006142ca85828601613dc3565b925050602083013567ffffffffffffffff8111156142eb576142ea613cba565b5b6142f785828601614277565b9150509250929050565b600080fd5b600080fd5b60008083601f84011261432157614320614170565b5b8235905067ffffffffffffffff81111561433e5761433d614301565b5b60208301915083600182028301111561435a57614359614306565b5b9250929050565b6000806020838503121561437857614377613cb5565b5b600083013567ffffffffffffffff81111561439657614395613cba565b5b6143a28582860161430b565b92509250509250929050565b6143b781613fae565b82525050565b60006020820190506143d260008301846143ae565b92915050565b600067ffffffffffffffff8211156143f3576143f261417a565b5b6143fc82613e4b565b9050602081019050919050565b600061441c614417846143d8565b6141da565b90508281526020810184848401111561443857614437614175565b5b614443848285614226565b509392505050565b600082601f8301126144605761445f614170565b5b8135614470848260208601614409565b91505092915050565b6000806000806080858703121561449357614492613cb5565b5b60006144a187828801613dc3565b94505060206144b287828801613dc3565b93505060406144c387828801613ed8565b925050606085013567ffffffffffffffff8111156144e4576144e3613cba565b5b6144f08782880161444b565b91505092959194509250565b6000806040838503121561451357614512613cb5565b5b600061452185828601613dc3565b925050602061453285828601613dc3565b9150509250929050565b6000819050919050565b600061456161455c61455784613d7a565b61453c565b613d7a565b9050919050565b600061457382614546565b9050919050565b600061458582614568565b9050919050565b6145958161457a565b82525050565b60006020820190506145b0600083018461458c565b92915050565b7f4e487b7100000000000000000000000000000000000000000000000000000000600052602260045260246000fd5b600060028204905060018216806145fd57607f821691505b6020821081036146105761460f6145b6565b5b50919050565b7f4552433732313a20617070726f76616c20746f2063757272656e74206f776e6560008201527f7200000000000000000000000000000000000000000000000000000000000000602082015250565b6000614672602183613e10565b915061467d82614616565b604082019050919050565b600060208201905081810360008301526146a181614665565b9050919050565b7f4552433732313a20617070726f76652063616c6c6572206973206e6f7420746f60008201527f6b656e206f776e6572206f7220617070726f76656420666f7220616c6c000000602082015250565b6000614704603d83613e10565b915061470f826146a8565b604082019050919050565b60006020820190508181036000830152614733816146f7565b9050919050565b600060408201905061474f6000830185613f1a565b61475c6020830184613f84565b9392505050565b600081519050614772816140d7565b92915050565b60006020828403121561478e5761478d613cb5565b5b600061479c84828501614763565b91505092915050565b7f4552433732313a2063616c6c6572206973206e6f7420746f6b656e206f776e6560008201527f72206f7220617070726f76656400000000000000000000000000000000000000602082015250565b6000614801602d83613e10565b915061480c826147a5565b604082019050919050565b60006020820190508181036000830152614830816147f4565b9050919050565b600061484282614568565b9050919050565b61485281614837565b82525050565b600060408201905061486d6000830185614849565b61487a6020830184613f84565b9392505050565b7f455243373231456e756d657261626c653a206f776e657220696e646578206f7560008201527f74206f6620626f756e6473000000000000000000000000000000000000000000602082015250565b60006148dd602b83613e10565b91506148e882614881565b604082019050919050565b6000602082019050818103600083015261490c816148d0565b9050919050565b7f455243373231456e756d657261626c653a20676c6f62616c20696e646578206f60008201527f7574206f6620626f756e64730000000000000000000000000000000000000000602082015250565b600061496f602c83613e10565b915061497a82614913565b604082019050919050565b6000602082019050818103600083015261499e81614962565b9050919050565b7f4e487b7100000000000000000000000000000000000000000000000000000000600052603260045260246000fd5b7f416c6c6c6f776c6973744f776e65723a2063616c6c6572206973206e6f74206960008201527f6e2074686520416c6c6f774c6973740000000000000000000000000000000000602082015250565b6000614a30602f83613e10565b9150614a3b826149d4565b604082019050919050565b60006020820190508181036000830152614a5f81614a23565b9050919050565b7f616d6f756e74206d757374206265206c657373207468616e206f72206571756160008201527f6c20746f20746865206d617842617463684d696e746564000000000000000000602082015250565b6000614ac2603783613e10565b9150614acd82614a66565b604082019050919050565b60006020820190508181036000830152614af181614ab5565b9050919050565b7f4e487b7100000000000000000000000000000000000000000000000000000000600052601160045260246000fd5b6000614b3282613eb7565b9150614b3d83613eb7565b9250828201905080821115614b5557614b54614af8565b5b92915050565b7f4d617820737570706c7920726561636865640000000000000000000000000000600082015250565b6000614b91601283613e10565b9150614b9c82614b5b565b602082019050919050565b60006020820190508181036000830152614bc081614b84565b9050919050565b6000614bd282613eb7565b9150614bdd83613eb7565b9250828202614beb81613eb7565b91508282048414831517614c0257614c01614af8565b5b5092915050565b6000606082019050614c1e6000830186613f1a565b614c2b6020830185613f1a565b614c386040830184613f84565b949350505050565b6000614c4b82613eb7565b91507fffffffffffffffffffffffffffffffffffffffffffffffffffffffffffffffff8203614c7d57614c7c614af8565b5b600182019050919050565b7f4552433732313a20696e76616c696420746f6b656e2049440000000000000000600082015250565b6000614cbe601883613e10565b9150614cc982614c88565b602082019050919050565b60006020820190508181036000830152614ced81614cb1565b9050919050565b7f4e65656420612076616c6964206e6577206d617820737570706c790000000000600082015250565b6000614d2a601b83613e10565b9150614d3582614cf4565b602082019050919050565b60006020820190508181036000830152614d5981614d1d565b9050919050565b7f63616c6c6572206973206e6f7420617574686f72697a656420746f206275726e600082015250565b6000614d96602083613e10565b9150614da182614d60565b602082019050919050565b60006020820190508181036000830152614dc581614d89565b9050919050565b7f4552433732313a2061646472657373207a65726f206973206e6f74206120766160008201527f6c6964206f776e65720000000000000000000000000000000000000000000000602082015250565b6000614e28602983613e10565b9150614e3382614dcc565b604082019050919050565b60006020820190508181036000830152614e5781614e1b565b9050919050565b6000604082019050614e736000830185613f1a565b614e806020830184613f1a565b9392505050565b600081519050614e9681613ec1565b92915050565b600060208284031215614eb257614eb1613cb5565b5b6000614ec084828501614e87565b91505092915050565b7f63616c6c6572206973206e6f7420617574686f72697a656420746f207472616e60008201527f7366657200000000000000000000000000000000000000000000000000000000602082015250565b6000614f25602483613e10565b9150614f3082614ec9565b604082019050919050565b60006020820190508181036000830152614f5481614f18565b9050919050565b600082905092915050565b60008190508160005260206000209050919050565b60006020601f8301049050919050565b600082821b905092915050565b600060088302614fc87fffffffffffffffffffffffffffffffffffffffffffffffffffffffffffffffff82614f8b565b614fd28683614f8b565b95508019841693508086168417925050509392505050565b6000615005615000614ffb84613eb7565b61453c565b613eb7565b9050919050565b6000819050919050565b61501f83614fea565b61503361502b8261500c565b848454614f98565b825550505050565b600090565b61504861503b565b615053818484615016565b505050565b5b818110156150775761506c600082615040565b600181019050615059565b5050565b601f8211156150bc5761508d81614f66565b61509684614f7b565b810160208510156150a5578190505b6150b96150b185614f7b565b830182615058565b50505b505050565b600082821c905092915050565b60006150df600019846008026150c1565b1980831691505092915050565b60006150f883836150ce565b9150826002028217905092915050565b6151128383614f5b565b67ffffffffffffffff81111561512b5761512a61417a565b5b61513582546145e5565b61514082828561507b565b6000601f83116001811461516f576000841561515d578287013590505b61516785826150ec565b8655506151cf565b601f19841661517d86614f66565b60005b828110156151a557848901358255600182019150602085019450602081019050615180565b868310156151c257848901356151be601f8916826150ce565b8355505b6001600288020188555050505b50505050505050565b7f4e65656420612076616c6964206e6577206d6178206d696e74206c696d697400600082015250565b600061520e601f83613e10565b9150615219826151d8565b602082019050919050565b6000602082019050818103600083015261523d81615201565b9050919050565b7f4f776e61626c653a206e6577206f776e657220697320746865207a65726f206160008201527f6464726573730000000000000000000000000000000000000000000000000000602082015250565b60006152a0602683613e10565b91506152ab82615244565b604082019050919050565b600060208201905081810360008301526152cf81615293565b9050919050565b7f4f776e61626c653a2063616c6c6572206973206e6f7420746865206f776e6572600082015250565b600061530c602083613e10565b9150615317826152d6565b602082019050919050565b6000602082019050818103600083015261533b816152ff565b9050919050565b7f4552433732313a207472616e736665722066726f6d20696e636f72726563742060008201527f6f776e6572000000000000000000000000000000000000000000000000000000602082015250565b600061539e602583613e10565b91506153a982615342565b604082019050919050565b600060208201905081810360008301526153cd81615391565b9050919050565b7f4552433732313a207472616e7366657220746f20746865207a65726f2061646460008201527f7265737300000000000000000000000000000000000000000000000000000000602082015250565b6000615430602483613e10565b915061543b826153d4565b604082019050919050565b6000602082019050818103600083015261545f81615423565b9050919050565b7f416c6c6c6f776c6973744f776e65723a204e65656420612076616c696420616460008201527f6472657373000000000000000000000000000000000000000000000000000000602082015250565b60006154c2602583613e10565b91506154cd82615466565b604082019050919050565b600060208201905081810360008301526154f1816154b5565b9050919050565b600060408201905061550d6000830185613f1a565b61551a6020830184613d50565b9392505050565b7f45524337323155524953746f726167653a2055524920736574206f66206e6f6e60008201527f6578697374656e7420746f6b656e000000000000000000000000000000000000602082015250565b600061557d602e83613e10565b915061558882615521565b604082019050919050565b600060208201905081810360008301526155ac81615570565b9050919050565b6155bc82613e05565b67ffffffffffffffff8111156155d5576155d461417a565b5b6155df82546145e5565b6155ea82828561507b565b600060209050601f83116001811461561d576000841561560b578287015190505b61561585826150ec565b86555061567d565b601f19841661562b86614f66565b60005b828110156156535784890151825560018201915060208501945060208101905061562e565b86831015615670578489015161566c601f8916826150ce565b8355505b6001600288020188555050505b505050505050565b7f4552433732313a207472616e7366657220746f206e6f6e20455243373231526560008201527f63656976657220696d706c656d656e7465720000000000000000000000000000602082015250565b60006156e1603283613e10565b91506156ec82615685565b604082019050919050565b60006020820190508181036000830152615710816156d4565b9050919050565b7f4552433732313a20617070726f766520746f2063616c6c657200000000000000600082015250565b600061574d601983613e10565b915061575882615717565b602082019050919050565b6000602082019050818103600083015261577c81615740565b9050919050565b600081905092915050565b600061579982613e05565b6157a38185615783565b93506157b3818560208601613e21565b80840191505092915050565b60006157cb828561578e565b91506157d7828461578e565b91508190509392505050565b7f5061757361626c653a206e6f7420706175736564000000000000000000000000600082015250565b6000615819601483613e10565b9150615824826157e3565b602082019050919050565b600060208201905081810360008301526158488161580c565b9050919050565b7f5061757361626c653a2070617573656400000000000000000000000000000000600082015250565b6000615885601083613e10565b91506158908261584f565b602082019050919050565b600060208201905081810360008301526158b481615878565b9050919050565b600081519050919050565b600082825260208201905092915050565b60006158e2826158bb565b6158ec81856158c6565b93506158fc818560208601613e21565b61590581613e4b565b840191505092915050565b60006080820190506159256000830187613f1a565b6159326020830186613f1a565b61593f6040830185613f84565b818103606083015261595181846158d7565b905095945050505050565b60008151905061596b81613ceb565b92915050565b60006020828403121561598757615986613cb5565b5b60006159958482850161595c565b91505092915050565b7f455243373231456e756d657261626c653a20636f6e736563757469766520747260008201527f616e7366657273206e6f7420737570706f727465640000000000000000000000602082015250565b60006159fa603583613e10565b9150615a058261599e565b604082019050919050565b60006020820190508181036000830152615a29816159ed565b9050919050565b7f4552433732313a206d696e7420746f20746865207a65726f2061646472657373600082015250565b6000615a66602083613e10565b9150615a7182615a30565b602082019050919050565b60006020820190508181036000830152615a9581615a59565b9050919050565b7f4552433732313a20746f6b656e20616c7265616479206d696e74656400000000600082015250565b6000615ad2601c83613e10565b9150615add82615a9c565b602082019050919050565b60006020820190508181036000830152615b0181615ac5565b9050919050565b7f4e487b7100000000000000000000000000000000000000000000000000000000600052601260045260246000fd5b6000615b4282613eb7565b9150615b4d83613eb7565b9250828203905081811115615b6557615b64614af8565b5b92915050565b7f4e487b7100000000000000000000000000000000000000000000000000000000600052603160045260246000fdfea2646970667358221220a201cf4c00f29083b98e52188d225b5e24a61856d42369f03bffd1d5e92db59264736f6c63430008130033",
  "devdoc": {
    "events": {
      "Approval(address,address,uint256)": {
        "details": "Emitted when `owner` enables `approved` to manage the `tokenId` token."
      },
      "ApprovalForAll(address,address,bool)": {
        "details": "Emitted when `owner` enables or disables (`approved`) `operator` to manage all of its assets."
      },
      "BatchMetadataUpdate(uint256,uint256)": {
        "details": "This event emits when the metadata of a range of tokens is changed. So that the third-party platforms such as NFT market could timely update the images and related attributes of the NFTs."
      },
      "MetadataUpdate(uint256)": {
        "details": "This event emits when the metadata of a token is changed. So that the third-party platforms such as NFT market could timely update the images and related attributes of the NFT."
      },
      "Paused(address)": {
        "details": "Emitted when the pause is triggered by `account`."
      },
      "Transfer(address,address,uint256)": {
        "details": "Emitted when `tokenId` token is transferred from `from` to `to`."
      },
      "Unpaused(address)": {
        "details": "Emitted when the pause is lifted by `account`."
      }
    },
    "kind": "dev",
    "methods": {
      "approve(address,uint256)": {
        "details": "See {IERC721-approve}."
      },
      "balanceOf(address)": {
        "details": "See {IERC721-balanceOf}."
      },
      "burn(uint256)": {
        "details": "Burns `tokenId`. See {ERC721-_burn}. Requirements: - The caller must own `tokenId` or be an approved operator."
      },
      "getApproved(uint256)": {
        "details": "See {IERC721-getApproved}."
      },
      "isApprovedForAll(address,address)": {
        "details": "See {IERC721-isApprovedForAll}."
      },
      "name()": {
        "details": "See {IERC721Metadata-name}."
      },
      "owner()": {
        "details": "Returns the address of the current owner."
      },
      "ownerOf(uint256)": {
        "details": "See {IERC721-ownerOf}."
      },
      "paused()": {
        "details": "Returns true if the contract is paused, and false otherwise."
      },
      "renounceOwnership()": {
        "details": "Leaves the contract without owner. It will not be possible to call `onlyOwner` functions. Can only be called by the current owner. NOTE: Renouncing ownership will leave the contract without an owner, thereby disabling any functionality that is only available to the owner."
      },
      "safeTransferFrom(address,address,uint256)": {
        "details": "See {IERC721-safeTransferFrom}."
      },
      "safeTransferFrom(address,address,uint256,bytes)": {
        "details": "See {IERC721-safeTransferFrom}."
      },
      "setApprovalForAll(address,bool)": {
        "details": "See {IERC721-setApprovalForAll}."
      },
      "symbol()": {
        "details": "See {IERC721Metadata-symbol}."
      },
      "tokenByIndex(uint256)": {
        "details": "See {IERC721Enumerable-tokenByIndex}."
      },
      "tokenOfOwnerByIndex(address,uint256)": {
        "details": "See {IERC721Enumerable-tokenOfOwnerByIndex}."
      },
      "totalSupply()": {
        "details": "See {IERC721Enumerable-totalSupply}."
      },
      "transferFrom(address,address,uint256)": {
        "details": "See {IERC721-transferFrom}."
      },
      "transferOwnership(address)": {
        "details": "Transfers ownership of the contract to a new account (`newOwner`). Can only be called by the current owner."
      }
    },
    "version": 1
  },
  "userdoc": {
    "kind": "user",
    "methods": {},
    "version": 1
  },
  "storageLayout": {
    "storage": [
      {
        "astId": 352,
        "contract": "contracts/VaultNftToken.sol:VaultNftToken",
        "label": "_name",
        "offset": 0,
        "slot": "0",
        "type": "t_string_storage"
      },
      {
        "astId": 354,
        "contract": "contracts/VaultNftToken.sol:VaultNftToken",
        "label": "_symbol",
        "offset": 0,
        "slot": "1",
        "type": "t_string_storage"
      },
      {
        "astId": 358,
        "contract": "contracts/VaultNftToken.sol:VaultNftToken",
        "label": "_owners",
        "offset": 0,
        "slot": "2",
        "type": "t_mapping(t_uint256,t_address)"
      },
      {
        "astId": 362,
        "contract": "contracts/VaultNftToken.sol:VaultNftToken",
        "label": "_balances",
        "offset": 0,
        "slot": "3",
        "type": "t_mapping(t_address,t_uint256)"
      },
      {
        "astId": 366,
        "contract": "contracts/VaultNftToken.sol:VaultNftToken",
        "label": "_tokenApprovals",
        "offset": 0,
        "slot": "4",
        "type": "t_mapping(t_uint256,t_address)"
      },
      {
        "astId": 372,
        "contract": "contracts/VaultNftToken.sol:VaultNftToken",
        "label": "_operatorApprovals",
        "offset": 0,
        "slot": "5",
        "type": "t_mapping(t_address,t_mapping(t_address,t_bool))"
      },
      {
        "astId": 1432,
        "contract": "contracts/VaultNftToken.sol:VaultNftToken",
        "label": "_ownedTokens",
        "offset": 0,
        "slot": "6",
        "type": "t_mapping(t_address,t_mapping(t_uint256,t_uint256))"
      },
      {
        "astId": 1436,
        "contract": "contracts/VaultNftToken.sol:VaultNftToken",
        "label": "_ownedTokensIndex",
        "offset": 0,
        "slot": "7",
        "type": "t_mapping(t_uint256,t_uint256)"
      },
      {
        "astId": 1439,
        "contract": "contracts/VaultNftToken.sol:VaultNftToken",
        "label": "_allTokens",
        "offset": 0,
        "slot": "8",
        "type": "t_array(t_uint256)dyn_storage"
      },
      {
        "astId": 1443,
        "contract": "contracts/VaultNftToken.sol:VaultNftToken",
        "label": "_allTokensIndex",
        "offset": 0,
        "slot": "9",
        "type": "t_mapping(t_uint256,t_uint256)"
      },
      {
        "astId": 1787,
        "contract": "contracts/VaultNftToken.sol:VaultNftToken",
        "label": "_tokenURIs",
        "offset": 0,
        "slot": "10",
        "type": "t_mapping(t_uint256,t_string_storage)"
      },
      {
        "astId": 158,
        "contract": "contracts/VaultNftToken.sol:VaultNftToken",
        "label": "_paused",
        "offset": 0,
        "slot": "11",
        "type": "t_bool"
      },
      {
        "astId": 7,
        "contract": "contracts/VaultNftToken.sol:VaultNftToken",
        "label": "_owner",
        "offset": 1,
        "slot": "11",
        "type": "t_address"
      },
      {
        "astId": 4296,
        "contract": "contracts/VaultNftToken.sol:VaultNftToken",
        "label": "allowlist",
        "offset": 0,
        "slot": "12",
        "type": "t_mapping(t_address,t_bool)"
      },
      {
        "astId": 4299,
        "contract": "contracts/VaultNftToken.sol:VaultNftToken",
        "label": "allowListEnabled",
        "offset": 0,
        "slot": "13",
        "type": "t_bool"
      },
      {
        "astId": 5428,
        "contract": "contracts/VaultNftToken.sol:VaultNftToken",
        "label": "_tokenIdCounter",
        "offset": 0,
        "slot": "14",
        "type": "t_struct(Counter)2370_storage"
      },
      {
        "astId": 5431,
        "contract": "contracts/VaultNftToken.sol:VaultNftToken",
        "label": "mintFee",
        "offset": 0,
        "slot": "15",
        "type": "t_uint256"
      },
      {
        "astId": 5434,
        "contract": "contracts/VaultNftToken.sol:VaultNftToken",
        "label": "maxSupply",
        "offset": 0,
        "slot": "16",
        "type": "t_uint256"
      },
      {
        "astId": 5437,
        "contract": "contracts/VaultNftToken.sol:VaultNftToken",
        "label": "maxBatchMint",
        "offset": 0,
        "slot": "17",
        "type": "t_uint256"
      },
      {
        "astId": 5440,
        "contract": "contracts/VaultNftToken.sol:VaultNftToken",
        "label": "singleNftMeta",
        "offset": 0,
        "slot": "18",
        "type": "t_bool"
      },
      {
        "astId": 5442,
        "contract": "contracts/VaultNftToken.sol:VaultNftToken",
        "label": "redeemAuthorizer",
        "offset": 1,
        "slot": "18",
        "type": "t_address"
      },
      {
        "astId": 5444,
        "contract": "contracts/VaultNftToken.sol:VaultNftToken",
        "label": "destination",
        "offset": 0,
        "slot": "19",
        "type": "t_address_payable"
      },
      {
        "astId": 5446,
        "contract": "contracts/VaultNftToken.sol:VaultNftToken",
        "label": "baseURI",
        "offset": 0,
        "slot": "20",
        "type": "t_string_storage"
      },
      {
        "astId": 5452,
        "contract": "contracts/VaultNftToken.sol:VaultNftToken",
        "label": "token",
        "offset": 0,
        "slot": "21",
        "type": "t_contract(IERC20)326"
      }
    ],
    "types": {
      "t_address": {
        "encoding": "inplace",
        "label": "address",
        "numberOfBytes": "20"
      },
      "t_address_payable": {
        "encoding": "inplace",
        "label": "address payable",
        "numberOfBytes": "20"
      },
      "t_array(t_uint256)dyn_storage": {
        "base": "t_uint256",
        "encoding": "dynamic_array",
        "label": "uint256[]",
        "numberOfBytes": "32"
      },
      "t_bool": {
        "encoding": "inplace",
        "label": "bool",
        "numberOfBytes": "1"
      },
      "t_contract(IERC20)326": {
        "encoding": "inplace",
        "label": "contract IERC20",
        "numberOfBytes": "20"
      },
      "t_mapping(t_address,t_bool)": {
        "encoding": "mapping",
        "key": "t_address",
        "label": "mapping(address => bool)",
        "numberOfBytes": "32",
        "value": "t_bool"
      },
      "t_mapping(t_address,t_mapping(t_address,t_bool))": {
        "encoding": "mapping",
        "key": "t_address",
        "label": "mapping(address => mapping(address => bool))",
        "numberOfBytes": "32",
        "value": "t_mapping(t_address,t_bool)"
      },
      "t_mapping(t_address,t_mapping(t_uint256,t_uint256))": {
        "encoding": "mapping",
        "key": "t_address",
        "label": "mapping(address => mapping(uint256 => uint256))",
        "numberOfBytes": "32",
        "value": "t_mapping(t_uint256,t_uint256)"
      },
      "t_mapping(t_address,t_uint256)": {
        "encoding": "mapping",
        "key": "t_address",
        "label": "mapping(address => uint256)",
        "numberOfBytes": "32",
        "value": "t_uint256"
      },
      "t_mapping(t_uint256,t_address)": {
        "encoding": "mapping",
        "key": "t_uint256",
        "label": "mapping(uint256 => address)",
        "numberOfBytes": "32",
        "value": "t_address"
      },
      "t_mapping(t_uint256,t_string_storage)": {
        "encoding": "mapping",
        "key": "t_uint256",
        "label": "mapping(uint256 => string)",
        "numberOfBytes": "32",
        "value": "t_string_storage"
      },
      "t_mapping(t_uint256,t_uint256)": {
        "encoding": "mapping",
        "key": "t_uint256",
        "label": "mapping(uint256 => uint256)",
        "numberOfBytes": "32",
        "value": "t_uint256"
      },
      "t_string_storage": {
        "encoding": "bytes",
        "label": "string",
        "numberOfBytes": "32"
      },
      "t_struct(Counter)2370_storage": {
        "encoding": "inplace",
        "label": "struct Counters.Counter",
        "members": [
          {
            "astId": 2369,
            "contract": "contracts/VaultNftToken.sol:VaultNftToken",
            "label": "_value",
            "offset": 0,
            "slot": "0",
            "type": "t_uint256"
          }
        ],
        "numberOfBytes": "32"
      },
      "t_uint256": {
        "encoding": "inplace",
        "label": "uint256",
        "numberOfBytes": "32"
      }
    }
  }
}