{
  "address": "0xa72BC75076B88b5f22bFdA94E8b3514c6A104020",
  "abi": [
    {
      "inputs": [],
      "stateMutability": "nonpayable",
      "type": "constructor"
    },
    {
      "anonymous": false,
      "inputs": [
        {
          "indexed": true,
          "internalType": "address",
          "name": "owner",
          "type": "address"
        },
        {
          "indexed": true,
          "internalType": "address",
          "name": "approved",
          "type": "address"
        },
        {
          "indexed": true,
          "internalType": "uint256",
          "name": "tokenId",
          "type": "uint256"
        }
      ],
      "name": "Approval",
      "type": "event"
    },
    {
      "anonymous": false,
      "inputs": [
        {
          "indexed": true,
          "internalType": "address",
          "name": "owner",
          "type": "address"
        },
        {
          "indexed": true,
          "internalType": "address",
          "name": "operator",
          "type": "address"
        },
        {
          "indexed": false,
          "internalType": "bool",
          "name": "approved",
          "type": "bool"
        }
      ],
      "name": "ApprovalForAll",
      "type": "event"
    },
    {
      "anonymous": false,
      "inputs": [
        {
          "indexed": false,
          "internalType": "uint256",
          "name": "_fromTokenId",
          "type": "uint256"
        },
        {
          "indexed": false,
          "internalType": "uint256",
          "name": "_toTokenId",
          "type": "uint256"
        }
      ],
      "name": "BatchMetadataUpdate",
      "type": "event"
    },
    {
      "anonymous": false,
      "inputs": [],
      "name": "DisableAllowList",
      "type": "event"
    },
    {
      "anonymous": false,
      "inputs": [],
      "name": "EnabledAllowList",
      "type": "event"
    },
    {
      "anonymous": false,
      "inputs": [
        {
          "indexed": false,
          "internalType": "uint256",
          "name": "_tokenId",
          "type": "uint256"
        }
      ],
      "name": "MetadataUpdate",
      "type": "event"
    },
    {
      "anonymous": false,
      "inputs": [
        {
          "indexed": true,
          "internalType": "address",
          "name": "previousOwner",
          "type": "address"
        },
        {
          "indexed": true,
          "internalType": "address",
          "name": "newOwner",
          "type": "address"
        }
      ],
      "name": "OwnershipTransferred",
      "type": "event"
    },
    {
      "anonymous": false,
      "inputs": [
        {
          "indexed": false,
          "internalType": "address",
          "name": "account",
          "type": "address"
        }
      ],
      "name": "Paused",
      "type": "event"
    },
    {
      "anonymous": false,
      "inputs": [
        {
          "indexed": true,
          "internalType": "address",
          "name": "from",
          "type": "address"
        },
        {
          "indexed": true,
          "internalType": "address",
          "name": "to",
          "type": "address"
        },
        {
          "indexed": true,
          "internalType": "uint256",
          "name": "tokenId",
          "type": "uint256"
        }
      ],
      "name": "Transfer",
      "type": "event"
    },
    {
      "anonymous": false,
      "inputs": [
        {
          "indexed": false,
          "internalType": "address",
          "name": "account",
          "type": "address"
        }
      ],
      "name": "Unpaused",
      "type": "event"
    },
    {
      "anonymous": false,
      "inputs": [
        {
          "indexed": false,
          "internalType": "address",
          "name": "account",
          "type": "address"
        },
        {
          "indexed": false,
          "internalType": "bool",
          "name": "isAllowed",
          "type": "bool"
        }
      ],
      "name": "UserAllowList",
      "type": "event"
    },
    {
      "inputs": [],
      "name": "allowListEnabled",
      "outputs": [
        {
          "internalType": "bool",
          "name": "",
          "type": "bool"
        }
      ],
      "stateMutability": "view",
      "type": "function"
    },
    {
      "inputs": [
        {
          "internalType": "address",
          "name": "",
          "type": "address"
        }
      ],
      "name": "allowlist",
      "outputs": [
        {
          "internalType": "bool",
          "name": "",
          "type": "bool"
        }
      ],
      "stateMutability": "view",
      "type": "function"
    },
    {
      "inputs": [
        {
          "internalType": "address",
          "name": "to",
          "type": "address"
        },
        {
          "internalType": "uint256",
          "name": "tokenId",
          "type": "uint256"
        }
      ],
      "name": "approve",
      "outputs": [],
      "stateMutability": "nonpayable",
      "type": "function"
    },
    {
      "inputs": [
        {
          "internalType": "uint256",
          "name": "amount",
          "type": "uint256"
        }
      ],
      "name": "approveTokenSpend",
      "outputs": [
        {
          "internalType": "bool",
          "name": "success",
          "type": "bool"
        }
      ],
      "stateMutability": "nonpayable",
      "type": "function"
    },
    {
      "inputs": [
        {
          "internalType": "address",
          "name": "owner",
          "type": "address"
        }
      ],
      "name": "balanceOf",
      "outputs": [
        {
          "internalType": "uint256",
          "name": "",
          "type": "uint256"
        }
      ],
      "stateMutability": "view",
      "type": "function"
    },
    {
      "inputs": [],
      "name": "baseURI",
      "outputs": [
        {
          "internalType": "string",
          "name": "",
          "type": "string"
        }
      ],
      "stateMutability": "view",
      "type": "function"
    },
    {
      "inputs": [
        {
          "internalType": "address",
          "name": "to",
          "type": "address"
        },
        {
          "internalType": "uint256",
          "name": "amount",
          "type": "uint256"
        }
      ],
      "name": "bulkMintVault",
      "outputs": [],
      "stateMutability": "nonpayable",
      "type": "function"
    },
    {
      "inputs": [
        {
          "internalType": "uint256",
          "name": "tokenId",
          "type": "uint256"
        }
      ],
      "name": "burn",
      "outputs": [],
      "stateMutability": "nonpayable",
      "type": "function"
    },
    {
      "inputs": [
        {
          "internalType": "address",
          "name": "owner",
          "type": "address"
        }
      ],
      "name": "checkTokenApproval",
      "outputs": [
        {
          "internalType": "uint256",
          "name": "remaining",
          "type": "uint256"
        }
      ],
      "stateMutability": "view",
      "type": "function"
    },
    {
      "inputs": [],
      "name": "destination",
      "outputs": [
        {
          "internalType": "address payable",
          "name": "",
          "type": "address"
        }
      ],
      "stateMutability": "view",
      "type": "function"
    },
    {
      "inputs": [],
      "name": "disableAllowList",
      "outputs": [],
      "stateMutability": "nonpayable",
      "type": "function"
    },
    {
      "inputs": [],
      "name": "enableAllowList",
      "outputs": [],
      "stateMutability": "nonpayable",
      "type": "function"
    },
    {
      "inputs": [
        {
          "internalType": "uint256",
          "name": "tokenId",
          "type": "uint256"
        }
      ],
      "name": "getApproved",
      "outputs": [
        {
          "internalType": "address",
          "name": "",
          "type": "address"
        }
      ],
      "stateMutability": "view",
      "type": "function"
    },
    {
      "inputs": [
        {
          "internalType": "address",
          "name": "addr",
          "type": "address"
        }
      ],
      "name": "isAllowlisted",
      "outputs": [
        {
          "internalType": "bool",
          "name": "",
          "type": "bool"
        }
      ],
      "stateMutability": "view",
      "type": "function"
    },
    {
      "inputs": [
        {
          "internalType": "address",
          "name": "owner",
          "type": "address"
        },
        {
          "internalType": "address",
          "name": "operator",
          "type": "address"
        }
      ],
      "name": "isApprovedForAll",
      "outputs": [
        {
          "internalType": "bool",
          "name": "",
          "type": "bool"
        }
      ],
      "stateMutability": "view",
      "type": "function"
    },
    {
      "inputs": [
        {
          "internalType": "address",
          "name": "addr",
          "type": "address"
        }
      ],
      "name": "isOwnerOrInAllowlisted",
      "outputs": [
        {
          "internalType": "bool",
          "name": "",
          "type": "bool"
        }
      ],
      "stateMutability": "view",
      "type": "function"
    },
    {
      "inputs": [],
      "name": "maxBatchMint",
      "outputs": [
        {
          "internalType": "uint256",
          "name": "",
          "type": "uint256"
        }
      ],
      "stateMutability": "view",
      "type": "function"
    },
    {
      "inputs": [],
      "name": "maxSupply",
      "outputs": [
        {
          "internalType": "uint256",
          "name": "",
          "type": "uint256"
        }
      ],
      "stateMutability": "view",
      "type": "function"
    },
    {
      "inputs": [],
      "name": "mintFee",
      "outputs": [
        {
          "internalType": "uint256",
          "name": "",
          "type": "uint256"
        }
      ],
      "stateMutability": "view",
      "type": "function"
    },
    {
      "inputs": [
        {
          "internalType": "address",
          "name": "to",
          "type": "address"
        }
      ],
      "name": "mintVault",
      "outputs": [],
      "stateMutability": "nonpayable",
      "type": "function"
    },
    {
      "inputs": [],
      "name": "name",
      "outputs": [
        {
          "internalType": "string",
          "name": "",
          "type": "string"
        }
      ],
      "stateMutability": "view",
      "type": "function"
    },
    {
      "inputs": [],
      "name": "owner",
      "outputs": [
        {
          "internalType": "address",
          "name": "",
          "type": "address"
        }
      ],
      "stateMutability": "view",
      "type": "function"
    },
    {
      "inputs": [
        {
          "internalType": "uint256",
          "name": "tokenId",
          "type": "uint256"
        }
      ],
      "name": "ownerOf",
      "outputs": [
        {
          "internalType": "address",
          "name": "",
          "type": "address"
        }
      ],
      "stateMutability": "view",
      "type": "function"
    },
    {
      "inputs": [],
      "name": "pause",
      "outputs": [],
      "stateMutability": "nonpayable",
      "type": "function"
    },
    {
      "inputs": [],
      "name": "paused",
      "outputs": [
        {
          "internalType": "bool",
          "name": "",
          "type": "bool"
        }
      ],
      "stateMutability": "view",
      "type": "function"
    },
    {
      "inputs": [],
      "name": "redeemAuthorizer",
      "outputs": [
        {
          "internalType": "address",
          "name": "",
          "type": "address"
        }
      ],
      "stateMutability": "view",
      "type": "function"
    },
    {
      "inputs": [],
      "name": "renounceOwnership",
      "outputs": [],
      "stateMutability": "nonpayable",
      "type": "function"
    },
    {
      "inputs": [
        {
          "internalType": "address",
          "name": "to",
          "type": "address"
        }
      ],
      "name": "safeMint",
      "outputs": [],
      "stateMutability": "nonpayable",
      "type": "function"
    },
    {
      "inputs": [
        {
          "internalType": "address",
          "name": "to",
          "type": "address"
        },
        {
          "internalType": "string",
          "name": "uri",
          "type": "string"
        }
      ],
      "name": "safeMintUri",
      "outputs": [],
      "stateMutability": "nonpayable",
      "type": "function"
    },
    {
      "inputs": [
        {
          "internalType": "address",
          "name": "from",
          "type": "address"
        },
        {
          "internalType": "address",
          "name": "to",
          "type": "address"
        },
        {
          "internalType": "uint256",
          "name": "tokenId",
          "type": "uint256"
        }
      ],
      "name": "safeTransferFrom",
      "outputs": [],
      "stateMutability": "nonpayable",
      "type": "function"
    },
    {
      "inputs": [
        {
          "internalType": "address",
          "name": "from",
          "type": "address"
        },
        {
          "internalType": "address",
          "name": "to",
          "type": "address"
        },
        {
          "internalType": "uint256",
          "name": "tokenId",
          "type": "uint256"
        },
        {
          "internalType": "bytes",
          "name": "data",
          "type": "bytes"
        }
      ],
      "name": "safeTransferFrom",
      "outputs": [],
      "stateMutability": "nonpayable",
      "type": "function"
    },
    {
      "inputs": [
        {
          "internalType": "address",
          "name": "addr",
          "type": "address"
        },
        {
          "internalType": "bool",
          "name": "isAllowed",
          "type": "bool"
        }
      ],
      "name": "setAllowlistUser",
      "outputs": [],
      "stateMutability": "nonpayable",
      "type": "function"
    },
    {
      "inputs": [
        {
          "internalType": "address",
          "name": "operator",
          "type": "address"
        },
        {
          "internalType": "bool",
          "name": "approved",
          "type": "bool"
        }
      ],
      "name": "setApprovalForAll",
      "outputs": [],
      "stateMutability": "nonpayable",
      "type": "function"
    },
    {
      "inputs": [
        {
          "internalType": "string",
          "name": "baseUri",
          "type": "string"
        }
      ],
      "name": "setBaseUri",
      "outputs": [],
      "stateMutability": "nonpayable",
      "type": "function"
    },
    {
      "inputs": [
        {
          "internalType": "address payable",
          "name": "_destination",
          "type": "address"
        }
      ],
      "name": "setDestination",
      "outputs": [],
      "stateMutability": "nonpayable",
      "type": "function"
    },
    {
      "inputs": [
        {
          "internalType": "uint256",
          "name": "newMaxBatchMint",
          "type": "uint256"
        }
      ],
      "name": "setMaxBatchMint",
      "outputs": [],
      "stateMutability": "nonpayable",
      "type": "function"
    },
    {
      "inputs": [
        {
          "internalType": "uint256",
          "name": "newMaxSupply",
          "type": "uint256"
        }
      ],
      "name": "setMaxSupply",
      "outputs": [],
      "stateMutability": "nonpayable",
      "type": "function"
    },
    {
      "inputs": [
        {
          "internalType": "uint256",
          "name": "_mintFee",
          "type": "uint256"
        }
      ],
      "name": "setMintFee",
      "outputs": [],
      "stateMutability": "nonpayable",
      "type": "function"
    },
    {
      "inputs": [
        {
          "internalType": "bool",
          "name": "_singleNftMeta",
          "type": "bool"
        }
      ],
      "name": "setSingleNftMeta",
      "outputs": [],
      "stateMutability": "nonpayable",
      "type": "function"
    },
    {
      "inputs": [
        {
          "internalType": "contract IERC20",
          "name": "_token",
          "type": "address"
        }
      ],
      "name": "setToken",
      "outputs": [],
      "stateMutability": "nonpayable",
      "type": "function"
    },
    {
      "inputs": [],
      "name": "singleNftMeta",
      "outputs": [
        {
          "internalType": "bool",
          "name": "",
          "type": "bool"
        }
      ],
      "stateMutability": "view",
      "type": "function"
    },
    {
      "inputs": [
        {
          "internalType": "bytes4",
          "name": "interfaceId",
          "type": "bytes4"
        }
      ],
      "name": "supportsInterface",
      "outputs": [
        {
          "internalType": "bool",
          "name": "",
          "type": "bool"
        }
      ],
      "stateMutability": "view",
      "type": "function"
    },
    {
      "inputs": [],
      "name": "symbol",
      "outputs": [
        {
          "internalType": "string",
          "name": "",
          "type": "string"
        }
      ],
      "stateMutability": "view",
      "type": "function"
    },
    {
      "inputs": [],
      "name": "token",
      "outputs": [
        {
          "internalType": "contract IERC20",
          "name": "",
          "type": "address"
        }
      ],
      "stateMutability": "view",
      "type": "function"
    },
    {
      "inputs": [
        {
          "internalType": "uint256",
          "name": "index",
          "type": "uint256"
        }
      ],
      "name": "tokenByIndex",
      "outputs": [
        {
          "internalType": "uint256",
          "name": "",
          "type": "uint256"
        }
      ],
      "stateMutability": "view",
      "type": "function"
    },
    {
      "inputs": [
        {
          "internalType": "address",
          "name": "owner",
          "type": "address"
        },
        {
          "internalType": "uint256",
          "name": "index",
          "type": "uint256"
        }
      ],
      "name": "tokenOfOwnerByIndex",
      "outputs": [
        {
          "internalType": "uint256",
          "name": "",
          "type": "uint256"
        }
      ],
      "stateMutability": "view",
      "type": "function"
    },
    {
      "inputs": [
        {
          "internalType": "uint256",
          "name": "tokenId",
          "type": "uint256"
        }
      ],
      "name": "tokenURI",
      "outputs": [
        {
          "internalType": "string",
          "name": "",
          "type": "string"
        }
      ],
      "stateMutability": "view",
      "type": "function"
    },
    {
      "inputs": [],
      "name": "totalSupply",
      "outputs": [
        {
          "internalType": "uint256",
          "name": "",
          "type": "uint256"
        }
      ],
      "stateMutability": "view",
      "type": "function"
    },
    {
      "inputs": [
        {
          "internalType": "address",
          "name": "from",
          "type": "address"
        },
        {
          "internalType": "address",
          "name": "to",
          "type": "address"
        },
        {
          "internalType": "uint256",
          "name": "tokenId",
          "type": "uint256"
        }
      ],
      "name": "transferFrom",
      "outputs": [],
      "stateMutability": "nonpayable",
      "type": "function"
    },
    {
      "inputs": [
        {
          "internalType": "address",
          "name": "newOwner",
          "type": "address"
        }
      ],
      "name": "transferOwnership",
      "outputs": [],
      "stateMutability": "nonpayable",
      "type": "function"
    },
    {
      "inputs": [],
      "name": "unpause",
      "outputs": [],
      "stateMutability": "nonpayable",
      "type": "function"
    },
    {
      "inputs": [
        {
          "internalType": "uint256",
          "name": "amount",
          "type": "uint256"
        }
      ],
      "name": "withdraw",
      "outputs": [],
      "stateMutability": "nonpayable",
      "type": "function"
    }
  ],
  "transactionHash": "0x424a4eb7b237442c47f0be4e58e39bbb27cfbb3b7eeb54d42bc4585a1326a348",
  "args": [],
  "numDeployments": 1,
  "solcInputHash": "0714cd3cd8f81178713747e4fe81f2e2",
  "bytecode": "0x60806040526001600d60006101000a81548160ff021916908315150217905550662386f26fc10000600f5561303960105560056011556001601260006101000a81548160ff021916908315150217905550739fe46736679d2d9a65f0992f2272de9f3c7fa6e0601560006101000a81548173ffffffffffffffffffffffffffffffffffffffff021916908373ffffffffffffffffffffffffffffffffffffffff160217905550348015620000b257600080fd5b506040518060400160405280600881526020017f5661756c744e66740000000000000000000000000000000000000000000000008152506040518060400160405280600381526020017f564c5400000000000000000000000000000000000000000000000000000000008152508160009081620001309190620004f9565b508060019081620001429190620004f9565b5050506000600b60006101000a81548160ff0219169083151502179055506200018062000174620001b160201b60201c565b620001b960201b60201c565b60405180608001604052806042815260200162005f916042913960149081620001aa9190620004f9565b50620005e0565b600033905090565b6000600b60019054906101000a900473ffffffffffffffffffffffffffffffffffffffff16905081600b60016101000a81548173ffffffffffffffffffffffffffffffffffffffff021916908373ffffffffffffffffffffffffffffffffffffffff1602179055508173ffffffffffffffffffffffffffffffffffffffff168173ffffffffffffffffffffffffffffffffffffffff167f8be0079c531659141344cd1fd0a4f28419497f9722a3daafe3b4186f6b6457e060405160405180910390a35050565b600081519050919050565b7f4e487b7100000000000000000000000000000000000000000000000000000000600052604160045260246000fd5b7f4e487b7100000000000000000000000000000000000000000000000000000000600052602260045260246000fd5b600060028204905060018216806200030157607f821691505b602082108103620003175762000316620002b9565b5b50919050565b60008190508160005260206000209050919050565b60006020601f8301049050919050565b600082821b905092915050565b600060088302620003817fffffffffffffffffffffffffffffffffffffffffffffffffffffffffffffffff8262000342565b6200038d868362000342565b95508019841693508086168417925050509392505050565b6000819050919050565b6000819050919050565b6000620003da620003d4620003ce84620003a5565b620003af565b620003a5565b9050919050565b6000819050919050565b620003f683620003b9565b6200040e6200040582620003e1565b8484546200034f565b825550505050565b600090565b6200042562000416565b62000432818484620003eb565b505050565b5b818110156200045a576200044e6000826200041b565b60018101905062000438565b5050565b601f821115620004a95762000473816200031d565b6200047e8462000332565b810160208510156200048e578190505b620004a66200049d8562000332565b83018262000437565b50505b505050565b600082821c905092915050565b6000620004ce60001984600802620004ae565b1980831691505092915050565b6000620004e98383620004bb565b9150826002028217905092915050565b62000504826200027f565b67ffffffffffffffff81111562000520576200051f6200028a565b5b6200052c8254620002e8565b620005398282856200045e565b600060209050601f8311600181146200057157600084156200055c578287015190505b620005688582620004db565b865550620005d8565b601f19841662000581866200031d565b60005b82811015620005ab5784890151825560018201915060208501945060208101905062000584565b86831015620005cb5784890151620005c7601f891682620004bb565b8355505b6001600288020188555050505b505050505050565b6159a180620005f06000396000f3fe608060405234801561001057600080fd5b506004361061030c5760003560e01c80636c0360eb1161019d578063a7cd52cb116100e9578063d5abeb01116100a2578063eddd0d9c1161007c578063eddd0d9c14610915578063f2afd39914610931578063f2fde38b1461094d578063fc0c546a146109695761030c565b8063d5abeb01146108bd578063dc2fbaee146108db578063e985e9c5146108e55761030c565b8063a7cd52cb146107d7578063b269681d14610807578063b88d4fde14610825578063c1a7fcc014610841578063c87b56dd14610871578063d31f9395146108a15761030c565b80638456cb5911610156578063990c006d11610130578063990c006d14610751578063a0bcfc7f14610781578063a22cb4651461079d578063a7adf964146107b95761030c565b80638456cb591461070b5780638da5cb5b1461071557806395d89b41146107335761030c565b80636c0360eb1461065d5780636f8b44b01461067b57806370a0823114610697578063715018a6146106c75780637a368030146106d1578063834029ba146107015761030c565b80632f745c591161025c578063450d624d11610215578063582d6422116101ef578063582d6422146105d55780635a9c787f146105f15780635c975abb1461060f5780636352211e1461062d5761030c565b8063450d624d1461056d578063471676bb146105895780634f6ccce7146105a55761030c565b80632f745c59146104c35780633045b241146104f35780633f4ba83a1461050f57806340d097c31461051957806342842e0e1461053557806342966c68146105515761030c565b80630a0a05e6116102c957806318160ddd116102a357806318160ddd1461044f57806322bd5c1c1461046d57806323b872dd1461048b5780632e1a7d4d146104a75761030c565b80630a0a05e6146103f957806313966db514610415578063144fa6d7146104335761030c565b806301ffc9a71461031157806305a3b8091461034157806306fdde0314610371578063081812fc1461038f578063095ea7b3146103bf57806309a3a9c1146103db575b600080fd5b61032b60048036038101906103269190613b0e565b610987565b6040516103389190613b56565b60405180910390f35b61035b60048036038101906103569190613bcf565b610999565b6040516103689190613b56565b60405180910390f35b6103796109ef565b6040516103869190613c8c565b60405180910390f35b6103a960048036038101906103a49190613ce4565b610a81565b6040516103b69190613d20565b60405180910390f35b6103d960048036038101906103d49190613d3b565b610ac7565b005b6103e3610bde565b6040516103f09190613d8a565b60405180910390f35b610413600480360381019061040e9190613de3565b610be4565b005b61041d610c30565b60405161042a9190613d8a565b60405180910390f35b61044d60048036038101906104489190613e4e565b610c36565b005b610457610d87565b6040516104649190613d8a565b60405180910390f35b610475610d94565b6040516104829190613b56565b60405180910390f35b6104a560048036038101906104a09190613e7b565b610da7565b005b6104c160048036038101906104bc9190613ce4565b610e07565b005b6104dd60048036038101906104d89190613d3b565b610f19565b6040516104ea9190613d8a565b60405180910390f35b61050d60048036038101906105089190613efa565b610fbe565b005b610517610fd4565b005b610533600480360381019061052e9190613bcf565b610fe6565b005b61054f600480360381019061054a9190613e7b565b611014565b005b61056b60048036038101906105669190613ce4565b611034565b005b61058760048036038101906105829190613f3a565b611090565b005b6105a3600480360381019061059e919061409c565b6110b5565b005b6105bf60048036038101906105ba9190613ce4565b6110ee565b6040516105cc9190613d8a565b60405180910390f35b6105ef60048036038101906105ea9190613d3b565b61115f565b005b6105f96113a0565b6040516106069190613d20565b60405180910390f35b6106176113c6565b6040516106249190613b56565b60405180910390f35b61064760048036038101906106429190613ce4565b6113dd565b6040516106549190613d20565b60405180910390f35b610665611463565b6040516106729190613c8c565b60405180910390f35b61069560048036038101906106909190613ce4565b6114f1565b005b6106b160048036038101906106ac9190613bcf565b611547565b6040516106be9190613d8a565b60405180910390f35b6106cf6115fe565b005b6106eb60048036038101906106e69190613bcf565b611612565b6040516106f89190613d8a565b60405180910390f35b6107096116b9565b005b6107136116cb565b005b61071d6116dd565b60405161072a9190613d20565b60405180910390f35b61073b611707565b6040516107489190613c8c565b60405180910390f35b61076b60048036038101906107669190613bcf565b611799565b6040516107789190613b56565b60405180910390f35b61079b60048036038101906107969190614158565b61183a565b005b6107b760048036038101906107b29190613efa565b611858565b005b6107c161186e565b6040516107ce9190613b56565b60405180910390f35b6107f160048036038101906107ec9190613bcf565b611881565b6040516107fe9190613b56565b60405180910390f35b61080f6118a1565b60405161081c91906141b4565b60405180910390f35b61083f600480360381019061083a9190614270565b6118c7565b005b61085b60048036038101906108569190613ce4565b611929565b6040516108689190613b56565b60405180910390f35b61088b60048036038101906108869190613ce4565b6119d2565b6040516108989190613c8c565b60405180910390f35b6108bb60048036038101906108b69190613ce4565b611a24565b005b6108c5611a7a565b6040516108d29190613d8a565b60405180910390f35b6108e3611a80565b005b6108ff60048036038101906108fa91906142f3565b611a92565b60405161090c9190613b56565b60405180910390f35b61092f600480360381019061092a9190613ce4565b611b26565b005b61094b60048036038101906109469190613bcf565b611b38565b005b61096760048036038101906109629190613bcf565b611cf7565b005b610971611d7a565b60405161097e9190614392565b60405180910390f35b600061099282611da0565b9050919050565b6000600c60008373ffffffffffffffffffffffffffffffffffffffff1673ffffffffffffffffffffffffffffffffffffffff16815260200190815260200160002060009054906101000a900460ff169050919050565b6060600080546109fe906143dc565b80601f0160208091040260200160405190810160405280929190818152602001828054610a2a906143dc565b8015610a775780601f10610a4c57610100808354040283529160200191610a77565b820191906000526020600020905b815481529060010190602001808311610a5a57829003601f168201915b5050505050905090565b6000610a8c82611e01565b6004600083815260200190815260200160002060009054906101000a900473ffffffffffffffffffffffffffffffffffffffff169050919050565b6000610ad2826113dd565b90508073ffffffffffffffffffffffffffffffffffffffff168373ffffffffffffffffffffffffffffffffffffffff1603610b42576040517f08c379a0000000000000000000000000000000000000000000000000000000008152600401610b399061447f565b60405180910390fd5b8073ffffffffffffffffffffffffffffffffffffffff16610b61611e4c565b73ffffffffffffffffffffffffffffffffffffffff161480610b905750610b8f81610b8a611e4c565b611a92565b5b610bcf576040517f08c379a0000000000000000000000000000000000000000000000000000000008152600401610bc690614511565b60405180910390fd5b610bd98383611e54565b505050565b60115481565b610bec611f0d565b80601360006101000a81548173ffffffffffffffffffffffffffffffffffffffff021916908373ffffffffffffffffffffffffffffffffffffffff16021790555050565b600f5481565b610c3e611f0d565b80601560006101000a81548173ffffffffffffffffffffffffffffffffffffffff021916908373ffffffffffffffffffffffffffffffffffffffff1602179055506000601560009054906101000a900473ffffffffffffffffffffffffffffffffffffffff1673ffffffffffffffffffffffffffffffffffffffff1663095ea7b3307fffffffffffffffffffffffffffffffffffffffffffffffffffffffffffffffff6040518363ffffffff1660e01b8152600401610cfe929190614531565b6020604051808303816000875af1158015610d1d573d6000803e3d6000fd5b505050506040513d601f19601f82011682018060405250810190610d41919061456f565b905080610d83576040517f08c379a0000000000000000000000000000000000000000000000000000000008152600401610d7a906145e8565b60405180910390fd5b5050565b6000600880549050905090565b600d60009054906101000a900460ff1681565b610db8610db2611e4c565b82611f8b565b610df7576040517f08c379a0000000000000000000000000000000000000000000000000000000008152600401610dee9061467a565b60405180910390fd5b610e02838383612020565b505050565b610e0f611f0d565b6000601560009054906101000a900473ffffffffffffffffffffffffffffffffffffffff1673ffffffffffffffffffffffffffffffffffffffff1663a9059cbb601360009054906101000a900473ffffffffffffffffffffffffffffffffffffffff16846040518363ffffffff1660e01b8152600401610e909291906146bb565b6020604051808303816000875af1158015610eaf573d6000803e3d6000fd5b505050506040513d601f19601f82011682018060405250810190610ed3919061456f565b905080610f15576040517f08c379a0000000000000000000000000000000000000000000000000000000008152600401610f0c90614730565b60405180910390fd5b5050565b6000610f2483611547565b8210610f65576040517f08c379a0000000000000000000000000000000000000000000000000000000008152600401610f5c906147c2565b60405180910390fd5b600660008473ffffffffffffffffffffffffffffffffffffffff1673ffffffffffffffffffffffffffffffffffffffff168152602001908152602001600020600083815260200190815260200160002054905092915050565b610fc6611f0d565b610fd08282612319565b5050565b610fdc611f0d565b610fe461241c565b565b610fee611f0d565b6000610ffa600e61247f565b9050611006600e61248d565b61101082826124a3565b5050565b61102f838383604051806020016040528060008152506118c7565b505050565b61104561103f611e4c565b82611f8b565b611084576040517f08c379a000000000000000000000000000000000000000000000000000000000815260040161107b9061467a565b60405180910390fd5b61108d816124c1565b50565b611098611f0d565b80601260006101000a81548160ff02191690831515021790555050565b6110bd611f0d565b60006110c9600e61247f565b90506110d5600e61248d565b6110df83826124a3565b6110e981836124cd565b505050565b60006110f8610d87565b8210611139576040517f08c379a000000000000000000000000000000000000000000000000000000000815260040161113090614854565b60405180910390fd5b6008828154811061114d5761114c614874565b5b90600052602060002001549050919050565b600d60009054906101000a900460ff16156111c45761118461117f611e4c565b610999565b6111c3576040517f08c379a00000000000000000000000000000000000000000000000000000000081526004016111ba90614915565b60405180910390fd5b5b601154811115611209576040517f08c379a0000000000000000000000000000000000000000000000000000000008152600401611200906149a7565b60405180910390fd5b60105481611215610d87565b61121f91906149f6565b1115611260576040517f08c379a000000000000000000000000000000000000000000000000000000000815260040161125790614a76565b60405180910390fd5b6000600f54826112709190614a96565b90506000601560009054906101000a900473ffffffffffffffffffffffffffffffffffffffff1673ffffffffffffffffffffffffffffffffffffffff166323b872dd3330856040518463ffffffff1660e01b81526004016112d393929190614ad8565b6020604051808303816000875af11580156112f2573d6000803e3d6000fd5b505050506040513d601f19601f82011682018060405250810190611316919061456f565b905080611358576040517f08c379a000000000000000000000000000000000000000000000000000000000815260040161134f90614730565b60405180910390fd5b60005b8381101561139957600061136f600e61247f565b905061137b600e61248d565b61138586826124a3565b50808061139190614b0f565b91505061135b565b5050505050565b601260019054906101000a900473ffffffffffffffffffffffffffffffffffffffff1681565b6000600b60009054906101000a900460ff16905090565b6000806113e983612571565b9050600073ffffffffffffffffffffffffffffffffffffffff168173ffffffffffffffffffffffffffffffffffffffff160361145a576040517f08c379a000000000000000000000000000000000000000000000000000000000815260040161145190614ba3565b60405180910390fd5b80915050919050565b60148054611470906143dc565b80601f016020809104026020016040519081016040528092919081815260200182805461149c906143dc565b80156114e95780601f106114be576101008083540402835291602001916114e9565b820191906000526020600020905b8154815290600101906020018083116114cc57829003601f168201915b505050505081565b6114f9611f0d565b600081101561153d576040517f08c379a000000000000000000000000000000000000000000000000000000000815260040161153490614c0f565b60405180910390fd5b8060108190555050565b60008073ffffffffffffffffffffffffffffffffffffffff168273ffffffffffffffffffffffffffffffffffffffff16036115b7576040517f08c379a00000000000000000000000000000000000000000000000000000000081526004016115ae90614ca1565b60405180910390fd5b600360008373ffffffffffffffffffffffffffffffffffffffff1673ffffffffffffffffffffffffffffffffffffffff168152602001908152602001600020549050919050565b611606611f0d565b61161060006125ae565b565b6000601560009054906101000a900473ffffffffffffffffffffffffffffffffffffffff1673ffffffffffffffffffffffffffffffffffffffff1663dd62ed3e83306040518363ffffffff1660e01b8152600401611671929190614cc1565b602060405180830381865afa15801561168e573d6000803e3d6000fd5b505050506040513d601f19601f820116820180604052508101906116b29190614cff565b9050919050565b6116c1611f0d565b6116c9612674565b565b6116d3611f0d565b6116db6126bd565b565b6000600b60019054906101000a900473ffffffffffffffffffffffffffffffffffffffff16905090565b606060018054611716906143dc565b80601f0160208091040260200160405190810160405280929190818152602001828054611742906143dc565b801561178f5780601f106117645761010080835404028352916020019161178f565b820191906000526020600020905b81548152906001019060200180831161177257829003601f168201915b5050505050905090565b60006117a3611e4c565b73ffffffffffffffffffffffffffffffffffffffff166117c16116dd565b73ffffffffffffffffffffffffffffffffffffffff16036117e55760019050611835565b600c60008373ffffffffffffffffffffffffffffffffffffffff1673ffffffffffffffffffffffffffffffffffffffff16815260200190815260200160002060009054906101000a900460ff1690505b919050565b611842611f0d565b818160149182611853929190614ed9565b505050565b61186a611863611e4c565b8383612720565b5050565b601260009054906101000a900460ff1681565b600c6020528060005260406000206000915054906101000a900460ff1681565b601360009054906101000a900473ffffffffffffffffffffffffffffffffffffffff1681565b6118d86118d2611e4c565b83611f8b565b611917576040517f08c379a000000000000000000000000000000000000000000000000000000000815260040161190e9061467a565b60405180910390fd5b6119238484848461288c565b50505050565b6000601560009054906101000a900473ffffffffffffffffffffffffffffffffffffffff1673ffffffffffffffffffffffffffffffffffffffff1663095ea7b330846040518363ffffffff1660e01b8152600401611988929190614531565b6020604051808303816000875af11580156119a7573d6000803e3d6000fd5b505050506040513d601f19601f820116820180604052508101906119cb919061456f565b9050919050565b60606119dd82611e01565b60006119e76128e8565b9050601260009054906101000a900460ff1615611a1257600081511115611a115780915050611a1f565b5b611a1b8361297a565b9150505b919050565b611a2c611f0d565b6000811015611a70576040517f08c379a0000000000000000000000000000000000000000000000000000000008152600401611a6790614ff5565b60405180910390fd5b8060118190555050565b60105481565b611a88611f0d565b611a90612a8c565b565b6000600560008473ffffffffffffffffffffffffffffffffffffffff1673ffffffffffffffffffffffffffffffffffffffff16815260200190815260200160002060008373ffffffffffffffffffffffffffffffffffffffff1673ffffffffffffffffffffffffffffffffffffffff16815260200190815260200160002060009054906101000a900460ff16905092915050565b611b2e611f0d565b80600f8190555050565b600d60009054906101000a900460ff1615611b9d57611b5d611b58611e4c565b610999565b611b9c576040517f08c379a0000000000000000000000000000000000000000000000000000000008152600401611b9390614915565b60405180910390fd5b5b601054611ba8610d87565b10611be8576040517f08c379a0000000000000000000000000000000000000000000000000000000008152600401611bdf90614a76565b60405180910390fd5b6000601560009054906101000a900473ffffffffffffffffffffffffffffffffffffffff1673ffffffffffffffffffffffffffffffffffffffff166323b872dd3330600f546040518463ffffffff1660e01b8152600401611c4b93929190614ad8565b6020604051808303816000875af1158015611c6a573d6000803e3d6000fd5b505050506040513d601f19601f82011682018060405250810190611c8e919061456f565b905080611cd0576040517f08c379a0000000000000000000000000000000000000000000000000000000008152600401611cc790614730565b60405180910390fd5b6000611cdc600e61247f565b9050611ce8600e61248d565b611cf283826124a3565b505050565b611cff611f0d565b600073ffffffffffffffffffffffffffffffffffffffff168173ffffffffffffffffffffffffffffffffffffffff1603611d6e576040517f08c379a0000000000000000000000000000000000000000000000000000000008152600401611d6590615087565b60405180910390fd5b611d77816125ae565b50565b601560009054906101000a900473ffffffffffffffffffffffffffffffffffffffff1681565b6000634906490660e01b7bffffffffffffffffffffffffffffffffffffffffffffffffffffffff1916827bffffffffffffffffffffffffffffffffffffffffffffffffffffffff19161480611dfa5750611df982612ad5565b5b9050919050565b611e0a81612b4f565b611e49576040517f08c379a0000000000000000000000000000000000000000000000000000000008152600401611e4090614ba3565b60405180910390fd5b50565b600033905090565b816004600083815260200190815260200160002060006101000a81548173ffffffffffffffffffffffffffffffffffffffff021916908373ffffffffffffffffffffffffffffffffffffffff160217905550808273ffffffffffffffffffffffffffffffffffffffff16611ec7836113dd565b73ffffffffffffffffffffffffffffffffffffffff167f8c5be1e5ebec7d5bd14f71427d1e84f3dd0314c0f7b2291e5b200ac8c7c3b92560405160405180910390a45050565b611f15611e4c565b73ffffffffffffffffffffffffffffffffffffffff16611f336116dd565b73ffffffffffffffffffffffffffffffffffffffff1614611f89576040517f08c379a0000000000000000000000000000000000000000000000000000000008152600401611f80906150f3565b60405180910390fd5b565b600080611f97836113dd565b90508073ffffffffffffffffffffffffffffffffffffffff168473ffffffffffffffffffffffffffffffffffffffff161480611fd95750611fd88185611a92565b5b8061201757508373ffffffffffffffffffffffffffffffffffffffff16611fff84610a81565b73ffffffffffffffffffffffffffffffffffffffff16145b91505092915050565b8273ffffffffffffffffffffffffffffffffffffffff16612040826113dd565b73ffffffffffffffffffffffffffffffffffffffff1614612096576040517f08c379a000000000000000000000000000000000000000000000000000000000815260040161208d90615185565b60405180910390fd5b600073ffffffffffffffffffffffffffffffffffffffff168273ffffffffffffffffffffffffffffffffffffffff1603612105576040517f08c379a00000000000000000000000000000000000000000000000000000000081526004016120fc90615217565b60405180910390fd5b6121128383836001612b90565b8273ffffffffffffffffffffffffffffffffffffffff16612132826113dd565b73ffffffffffffffffffffffffffffffffffffffff1614612188576040517f08c379a000000000000000000000000000000000000000000000000000000000815260040161217f90615185565b60405180910390fd5b6004600082815260200190815260200160002060006101000a81549073ffffffffffffffffffffffffffffffffffffffff02191690556001600360008573ffffffffffffffffffffffffffffffffffffffff1673ffffffffffffffffffffffffffffffffffffffff168152602001908152602001600020600082825403925050819055506001600360008473ffffffffffffffffffffffffffffffffffffffff1673ffffffffffffffffffffffffffffffffffffffff16815260200190815260200160002060008282540192505081905550816002600083815260200190815260200160002060006101000a81548173ffffffffffffffffffffffffffffffffffffffff021916908373ffffffffffffffffffffffffffffffffffffffff160217905550808273ffffffffffffffffffffffffffffffffffffffff168473ffffffffffffffffffffffffffffffffffffffff167fddf252ad1be2c89b69c2b068fc378daa952ba7f163c4a11628f55a4df523b3ef60405160405180910390a46123148383836001612baa565b505050565b600073ffffffffffffffffffffffffffffffffffffffff168273ffffffffffffffffffffffffffffffffffffffff1603612388576040517f08c379a000000000000000000000000000000000000000000000000000000000815260040161237f906152a9565b60405180910390fd5b80600c60008473ffffffffffffffffffffffffffffffffffffffff1673ffffffffffffffffffffffffffffffffffffffff16815260200190815260200160002060006101000a81548160ff0219169083151502179055507f01883a2ded2d11a676263b3edca3878eec2c68618ae55db0314bebd4b9561b2382826040516124109291906152c9565b60405180910390a15050565b612424612bb0565b6000600b60006101000a81548160ff0219169083151502179055507f5db9ee0a495bf2e6ff9c91a7834c1ba4fdd244a5e8aa4e537bd38aeae4b073aa612468611e4c565b6040516124759190613d20565b60405180910390a1565b600081600001549050919050565b6001816000016000828254019250508190555050565b6124bd828260405180602001604052806000815250612bf9565b5050565b6124ca81612c54565b50565b6124d682612b4f565b612515576040517f08c379a000000000000000000000000000000000000000000000000000000000815260040161250c90615364565b60405180910390fd5b80600a600084815260200190815260200160002090816125359190615384565b507ff8e1a15aba9398e019f0b49df1a4fde98ee17ae345cb5f6b5e2c27f5033e8ce7826040516125659190613d8a565b60405180910390a15050565b60006002600083815260200190815260200160002060009054906101000a900473ffffffffffffffffffffffffffffffffffffffff169050919050565b6000600b60019054906101000a900473ffffffffffffffffffffffffffffffffffffffff16905081600b60016101000a81548173ffffffffffffffffffffffffffffffffffffffff021916908373ffffffffffffffffffffffffffffffffffffffff1602179055508173ffffffffffffffffffffffffffffffffffffffff168173ffffffffffffffffffffffffffffffffffffffff167f8be0079c531659141344cd1fd0a4f28419497f9722a3daafe3b4186f6b6457e060405160405180910390a35050565b6000600d60006101000a81548160ff0219169083151502179055507f17deb57f2c665512f91ec43836987faa802c8cd173a69f704a39155e48a40a2560405160405180910390a1565b6126c5612ca7565b6001600b60006101000a81548160ff0219169083151502179055507f62e78cea01bee320cd4e420270b5ea74000d11b0c9f74754ebdbfc544b05a258612709611e4c565b6040516127169190613d20565b60405180910390a1565b8173ffffffffffffffffffffffffffffffffffffffff168373ffffffffffffffffffffffffffffffffffffffff160361278e576040517f08c379a0000000000000000000000000000000000000000000000000000000008152600401612785906154a2565b60405180910390fd5b80600560008573ffffffffffffffffffffffffffffffffffffffff1673ffffffffffffffffffffffffffffffffffffffff16815260200190815260200160002060008473ffffffffffffffffffffffffffffffffffffffff1673ffffffffffffffffffffffffffffffffffffffff16815260200190815260200160002060006101000a81548160ff0219169083151502179055508173ffffffffffffffffffffffffffffffffffffffff168373ffffffffffffffffffffffffffffffffffffffff167f17307eab39ab6107e8899845ad3d59bd9653f200f220920489ca2b5937696c318360405161287f9190613b56565b60405180910390a3505050565b612897848484612020565b6128a384848484612cf1565b6128e2576040517f08c379a00000000000000000000000000000000000000000000000000000000081526004016128d990615534565b60405180910390fd5b50505050565b6060601480546128f7906143dc565b80601f0160208091040260200160405190810160405280929190818152602001828054612923906143dc565b80156129705780601f1061294557610100808354040283529160200191612970565b820191906000526020600020905b81548152906001019060200180831161295357829003601f168201915b5050505050905090565b606061298582611e01565b6000600a600084815260200190815260200160002080546129a5906143dc565b80601f01602080910402602001604051908101604052809291908181526020018280546129d1906143dc565b8015612a1e5780601f106129f357610100808354040283529160200191612a1e565b820191906000526020600020905b815481529060010190602001808311612a0157829003601f168201915b505050505090506000612a2f6128e8565b90506000815103612a44578192505050612a87565b600082511115612a79578082604051602001612a61929190615590565b60405160208183030381529060405292505050612a87565b612a8284612e78565b925050505b919050565b6001600d60006101000a81548160ff0219169083151502179055507ff1917d42b61041c8a637919d5c23a9a559d72e57633d21cfe88c46b0fa01b6b960405160405180910390a1565b60007f780e9d63000000000000000000000000000000000000000000000000000000007bffffffffffffffffffffffffffffffffffffffffffffffffffffffff1916827bffffffffffffffffffffffffffffffffffffffffffffffffffffffff19161480612b485750612b4782612ee0565b5b9050919050565b60008073ffffffffffffffffffffffffffffffffffffffff16612b7183612571565b73ffffffffffffffffffffffffffffffffffffffff1614159050919050565b612b98612ca7565b612ba484848484612fc2565b50505050565b50505050565b612bb86113c6565b612bf7576040517f08c379a0000000000000000000000000000000000000000000000000000000008152600401612bee90615600565b60405180910390fd5b565b612c038383613120565b612c106000848484612cf1565b612c4f576040517f08c379a0000000000000000000000000000000000000000000000000000000008152600401612c4690615534565b60405180910390fd5b505050565b612c5d8161333d565b6000600a60008381526020019081526020016000208054612c7d906143dc565b905014612ca457600a60008281526020019081526020016000206000612ca39190613a45565b5b50565b612caf6113c6565b15612cef576040517f08c379a0000000000000000000000000000000000000000000000000000000008152600401612ce69061566c565b60405180910390fd5b565b6000612d128473ffffffffffffffffffffffffffffffffffffffff1661348b565b15612e6b578373ffffffffffffffffffffffffffffffffffffffff1663150b7a02612d3b611e4c565b8786866040518563ffffffff1660e01b8152600401612d5d94939291906156e1565b6020604051808303816000875af1925050508015612d9957506040513d601f19601f82011682018060405250810190612d969190615742565b60015b612e1b573d8060008114612dc9576040519150601f19603f3d011682016040523d82523d6000602084013e612dce565b606091505b506000815103612e13576040517f08c379a0000000000000000000000000000000000000000000000000000000008152600401612e0a90615534565b60405180910390fd5b805181602001fd5b63150b7a0260e01b7bffffffffffffffffffffffffffffffffffffffffffffffffffffffff1916817bffffffffffffffffffffffffffffffffffffffffffffffffffffffff191614915050612e70565b600190505b949350505050565b6060612e8382611e01565b6000612e8d6128e8565b90506000815111612ead5760405180602001604052806000815250612ed8565b80612eb7846134ae565b604051602001612ec8929190615590565b6040516020818303038152906040525b915050919050565b60007f80ac58cd000000000000000000000000000000000000000000000000000000007bffffffffffffffffffffffffffffffffffffffffffffffffffffffff1916827bffffffffffffffffffffffffffffffffffffffffffffffffffffffff19161480612fab57507f5b5e139f000000000000000000000000000000000000000000000000000000007bffffffffffffffffffffffffffffffffffffffffffffffffffffffff1916827bffffffffffffffffffffffffffffffffffffffffffffffffffffffff1916145b80612fbb5750612fba8261357c565b5b9050919050565b612fce848484846135e6565b6001811115613012576040517f08c379a0000000000000000000000000000000000000000000000000000000008152600401613009906157e1565b60405180910390fd5b6000829050600073ffffffffffffffffffffffffffffffffffffffff168573ffffffffffffffffffffffffffffffffffffffff160361305957613054816135ec565b613098565b8373ffffffffffffffffffffffffffffffffffffffff168573ffffffffffffffffffffffffffffffffffffffff1614613097576130968582613635565b5b5b600073ffffffffffffffffffffffffffffffffffffffff168473ffffffffffffffffffffffffffffffffffffffff16036130da576130d5816137a2565b613119565b8473ffffffffffffffffffffffffffffffffffffffff168473ffffffffffffffffffffffffffffffffffffffff1614613118576131178482613873565b5b5b5050505050565b600073ffffffffffffffffffffffffffffffffffffffff168273ffffffffffffffffffffffffffffffffffffffff160361318f576040517f08c379a00000000000000000000000000000000000000000000000000000000081526004016131869061584d565b60405180910390fd5b61319881612b4f565b156131d8576040517f08c379a00000000000000000000000000000000000000000000000000000000081526004016131cf906158b9565b60405180910390fd5b6131e6600083836001612b90565b6131ef81612b4f565b1561322f576040517f08c379a0000000000000000000000000000000000000000000000000000000008152600401613226906158b9565b60405180910390fd5b6001600360008473ffffffffffffffffffffffffffffffffffffffff1673ffffffffffffffffffffffffffffffffffffffff16815260200190815260200160002060008282540192505081905550816002600083815260200190815260200160002060006101000a81548173ffffffffffffffffffffffffffffffffffffffff021916908373ffffffffffffffffffffffffffffffffffffffff160217905550808273ffffffffffffffffffffffffffffffffffffffff16600073ffffffffffffffffffffffffffffffffffffffff167fddf252ad1be2c89b69c2b068fc378daa952ba7f163c4a11628f55a4df523b3ef60405160405180910390a4613339600083836001612baa565b5050565b6000613348826113dd565b9050613358816000846001612b90565b613361826113dd565b90506004600083815260200190815260200160002060006101000a81549073ffffffffffffffffffffffffffffffffffffffff02191690556001600360008373ffffffffffffffffffffffffffffffffffffffff1673ffffffffffffffffffffffffffffffffffffffff168152602001908152602001600020600082825403925050819055506002600083815260200190815260200160002060006101000a81549073ffffffffffffffffffffffffffffffffffffffff021916905581600073ffffffffffffffffffffffffffffffffffffffff168273ffffffffffffffffffffffffffffffffffffffff167fddf252ad1be2c89b69c2b068fc378daa952ba7f163c4a11628f55a4df523b3ef60405160405180910390a4613487816000846001612baa565b5050565b6000808273ffffffffffffffffffffffffffffffffffffffff163b119050919050565b6060600060016134bd846138f2565b01905060008167ffffffffffffffff8111156134dc576134db613f71565b5b6040519080825280601f01601f19166020018201604052801561350e5781602001600182028036833780820191505090505b509050600082602001820190505b600115613571578080600190039150507f3031323334353637383961626364656600000000000000000000000000000000600a86061a8153600a8581613565576135646158d9565b5b0494506000850361351c575b819350505050919050565b60007f01ffc9a7000000000000000000000000000000000000000000000000000000007bffffffffffffffffffffffffffffffffffffffffffffffffffffffff1916827bffffffffffffffffffffffffffffffffffffffffffffffffffffffff1916149050919050565b50505050565b6008805490506009600083815260200190815260200160002081905550600881908060018154018082558091505060019003906000526020600020016000909190919091505550565b6000600161364284611547565b61364c9190615908565b9050600060076000848152602001908152602001600020549050818114613731576000600660008673ffffffffffffffffffffffffffffffffffffffff1673ffffffffffffffffffffffffffffffffffffffff168152602001908152602001600020600084815260200190815260200160002054905080600660008773ffffffffffffffffffffffffffffffffffffffff1673ffffffffffffffffffffffffffffffffffffffff168152602001908152602001600020600084815260200190815260200160002081905550816007600083815260200190815260200160002081905550505b6007600084815260200190815260200160002060009055600660008573ffffffffffffffffffffffffffffffffffffffff1673ffffffffffffffffffffffffffffffffffffffff16815260200190815260200160002060008381526020019081526020016000206000905550505050565b600060016008805490506137b69190615908565b90506000600960008481526020019081526020016000205490506000600883815481106137e6576137e5614874565b5b90600052602060002001549050806008838154811061380857613807614874565b5b9060005260206000200181905550816009600083815260200190815260200160002081905550600960008581526020019081526020016000206000905560088054806138575761385661593c565b5b6001900381819060005260206000200160009055905550505050565b600061387e83611547565b905081600660008573ffffffffffffffffffffffffffffffffffffffff1673ffffffffffffffffffffffffffffffffffffffff168152602001908152602001600020600083815260200190815260200160002081905550806007600084815260200190815260200160002081905550505050565b600080600090507a184f03e93ff9f4daa797ed6e38ed64bf6a1f0100000000000000008310613950577a184f03e93ff9f4daa797ed6e38ed64bf6a1f0100000000000000008381613946576139456158d9565b5b0492506040810190505b6d04ee2d6d415b85acef8100000000831061398d576d04ee2d6d415b85acef81000000008381613983576139826158d9565b5b0492506020810190505b662386f26fc1000083106139bc57662386f26fc1000083816139b2576139b16158d9565b5b0492506010810190505b6305f5e10083106139e5576305f5e10083816139db576139da6158d9565b5b0492506008810190505b6127108310613a0a576127108381613a00576139ff6158d9565b5b0492506004810190505b60648310613a2d5760648381613a2357613a226158d9565b5b0492506002810190505b600a8310613a3c576001810190505b80915050919050565b508054613a51906143dc565b6000825580601f10613a635750613a82565b601f016020900490600052602060002090810190613a819190613a85565b5b50565b5b80821115613a9e576000816000905550600101613a86565b5090565b6000604051905090565b600080fd5b600080fd5b60007fffffffff0000000000000000000000000000000000000000000000000000000082169050919050565b613aeb81613ab6565b8114613af657600080fd5b50565b600081359050613b0881613ae2565b92915050565b600060208284031215613b2457613b23613aac565b5b6000613b3284828501613af9565b91505092915050565b60008115159050919050565b613b5081613b3b565b82525050565b6000602082019050613b6b6000830184613b47565b92915050565b600073ffffffffffffffffffffffffffffffffffffffff82169050919050565b6000613b9c82613b71565b9050919050565b613bac81613b91565b8114613bb757600080fd5b50565b600081359050613bc981613ba3565b92915050565b600060208284031215613be557613be4613aac565b5b6000613bf384828501613bba565b91505092915050565b600081519050919050565b600082825260208201905092915050565b60005b83811015613c36578082015181840152602081019050613c1b565b60008484015250505050565b6000601f19601f8301169050919050565b6000613c5e82613bfc565b613c688185613c07565b9350613c78818560208601613c18565b613c8181613c42565b840191505092915050565b60006020820190508181036000830152613ca68184613c53565b905092915050565b6000819050919050565b613cc181613cae565b8114613ccc57600080fd5b50565b600081359050613cde81613cb8565b92915050565b600060208284031215613cfa57613cf9613aac565b5b6000613d0884828501613ccf565b91505092915050565b613d1a81613b91565b82525050565b6000602082019050613d356000830184613d11565b92915050565b60008060408385031215613d5257613d51613aac565b5b6000613d6085828601613bba565b9250506020613d7185828601613ccf565b9150509250929050565b613d8481613cae565b82525050565b6000602082019050613d9f6000830184613d7b565b92915050565b6000613db082613b71565b9050919050565b613dc081613da5565b8114613dcb57600080fd5b50565b600081359050613ddd81613db7565b92915050565b600060208284031215613df957613df8613aac565b5b6000613e0784828501613dce565b91505092915050565b6000613e1b82613b91565b9050919050565b613e2b81613e10565b8114613e3657600080fd5b50565b600081359050613e4881613e22565b92915050565b600060208284031215613e6457613e63613aac565b5b6000613e7284828501613e39565b91505092915050565b600080600060608486031215613e9457613e93613aac565b5b6000613ea286828701613bba565b9350506020613eb386828701613bba565b9250506040613ec486828701613ccf565b9150509250925092565b613ed781613b3b565b8114613ee257600080fd5b50565b600081359050613ef481613ece565b92915050565b60008060408385031215613f1157613f10613aac565b5b6000613f1f85828601613bba565b9250506020613f3085828601613ee5565b9150509250929050565b600060208284031215613f5057613f4f613aac565b5b6000613f5e84828501613ee5565b91505092915050565b600080fd5b600080fd5b7f4e487b7100000000000000000000000000000000000000000000000000000000600052604160045260246000fd5b613fa982613c42565b810181811067ffffffffffffffff82111715613fc857613fc7613f71565b5b80604052505050565b6000613fdb613aa2565b9050613fe78282613fa0565b919050565b600067ffffffffffffffff82111561400757614006613f71565b5b61401082613c42565b9050602081019050919050565b82818337600083830152505050565b600061403f61403a84613fec565b613fd1565b90508281526020810184848401111561405b5761405a613f6c565b5b61406684828561401d565b509392505050565b600082601f83011261408357614082613f67565b5b813561409384826020860161402c565b91505092915050565b600080604083850312156140b3576140b2613aac565b5b60006140c185828601613bba565b925050602083013567ffffffffffffffff8111156140e2576140e1613ab1565b5b6140ee8582860161406e565b9150509250929050565b600080fd5b600080fd5b60008083601f84011261411857614117613f67565b5b8235905067ffffffffffffffff811115614135576141346140f8565b5b602083019150836001820283011115614151576141506140fd565b5b9250929050565b6000806020838503121561416f5761416e613aac565b5b600083013567ffffffffffffffff81111561418d5761418c613ab1565b5b61419985828601614102565b92509250509250929050565b6141ae81613da5565b82525050565b60006020820190506141c960008301846141a5565b92915050565b600067ffffffffffffffff8211156141ea576141e9613f71565b5b6141f382613c42565b9050602081019050919050565b600061421361420e846141cf565b613fd1565b90508281526020810184848401111561422f5761422e613f6c565b5b61423a84828561401d565b509392505050565b600082601f83011261425757614256613f67565b5b8135614267848260208601614200565b91505092915050565b6000806000806080858703121561428a57614289613aac565b5b600061429887828801613bba565b94505060206142a987828801613bba565b93505060406142ba87828801613ccf565b925050606085013567ffffffffffffffff8111156142db576142da613ab1565b5b6142e787828801614242565b91505092959194509250565b6000806040838503121561430a57614309613aac565b5b600061431885828601613bba565b925050602061432985828601613bba565b9150509250929050565b6000819050919050565b600061435861435361434e84613b71565b614333565b613b71565b9050919050565b600061436a8261433d565b9050919050565b600061437c8261435f565b9050919050565b61438c81614371565b82525050565b60006020820190506143a76000830184614383565b92915050565b7f4e487b7100000000000000000000000000000000000000000000000000000000600052602260045260246000fd5b600060028204905060018216806143f457607f821691505b602082108103614407576144066143ad565b5b50919050565b7f4552433732313a20617070726f76616c20746f2063757272656e74206f776e6560008201527f7200000000000000000000000000000000000000000000000000000000000000602082015250565b6000614469602183613c07565b91506144748261440d565b604082019050919050565b600060208201905081810360008301526144988161445c565b9050919050565b7f4552433732313a20617070726f76652063616c6c6572206973206e6f7420746f60008201527f6b656e206f776e6572206f7220617070726f76656420666f7220616c6c000000602082015250565b60006144fb603d83613c07565b91506145068261449f565b604082019050919050565b6000602082019050818103600083015261452a816144ee565b9050919050565b60006040820190506145466000830185613d11565b6145536020830184613d7b565b9392505050565b60008151905061456981613ece565b92915050565b60006020828403121561458557614584613aac565b5b60006145938482850161455a565b91505092915050565b7f4661696c656420746f20746e7820746f6b656e73000000000000000000000000600082015250565b60006145d2601483613c07565b91506145dd8261459c565b602082019050919050565b60006020820190508181036000830152614601816145c5565b9050919050565b7f4552433732313a2063616c6c6572206973206e6f7420746f6b656e206f776e6560008201527f72206f7220617070726f76656400000000000000000000000000000000000000602082015250565b6000614664602d83613c07565b915061466f82614608565b604082019050919050565b6000602082019050818103600083015261469381614657565b9050919050565b60006146a58261435f565b9050919050565b6146b58161469a565b82525050565b60006040820190506146d060008301856146ac565b6146dd6020830184613d7b565b9392505050565b7f4661696c656420746f207472616e7366657220746f6b656e7300000000000000600082015250565b600061471a601983613c07565b9150614725826146e4565b602082019050919050565b600060208201905081810360008301526147498161470d565b9050919050565b7f455243373231456e756d657261626c653a206f776e657220696e646578206f7560008201527f74206f6620626f756e6473000000000000000000000000000000000000000000602082015250565b60006147ac602b83613c07565b91506147b782614750565b604082019050919050565b600060208201905081810360008301526147db8161479f565b9050919050565b7f455243373231456e756d657261626c653a20676c6f62616c20696e646578206f60008201527f7574206f6620626f756e64730000000000000000000000000000000000000000602082015250565b600061483e602c83613c07565b9150614849826147e2565b604082019050919050565b6000602082019050818103600083015261486d81614831565b9050919050565b7f4e487b7100000000000000000000000000000000000000000000000000000000600052603260045260246000fd5b7f416c6c6c6f776c6973744f776e65723a2063616c6c6572206973206e6f74206960008201527f6e2074686520416c6c6f774c6973740000000000000000000000000000000000602082015250565b60006148ff602f83613c07565b915061490a826148a3565b604082019050919050565b6000602082019050818103600083015261492e816148f2565b9050919050565b7f616d6f756e74206d757374206265206c657373207468616e206f72206571756160008201527f6c20746f20746865206d617842617463684d696e746564000000000000000000602082015250565b6000614991603783613c07565b915061499c82614935565b604082019050919050565b600060208201905081810360008301526149c081614984565b9050919050565b7f4e487b7100000000000000000000000000000000000000000000000000000000600052601160045260246000fd5b6000614a0182613cae565b9150614a0c83613cae565b9250828201905080821115614a2457614a236149c7565b5b92915050565b7f4d617820737570706c7920726561636865640000000000000000000000000000600082015250565b6000614a60601283613c07565b9150614a6b82614a2a565b602082019050919050565b60006020820190508181036000830152614a8f81614a53565b9050919050565b6000614aa182613cae565b9150614aac83613cae565b9250828202614aba81613cae565b91508282048414831517614ad157614ad06149c7565b5b5092915050565b6000606082019050614aed6000830186613d11565b614afa6020830185613d11565b614b076040830184613d7b565b949350505050565b6000614b1a82613cae565b91507fffffffffffffffffffffffffffffffffffffffffffffffffffffffffffffffff8203614b4c57614b4b6149c7565b5b600182019050919050565b7f4552433732313a20696e76616c696420746f6b656e2049440000000000000000600082015250565b6000614b8d601883613c07565b9150614b9882614b57565b602082019050919050565b60006020820190508181036000830152614bbc81614b80565b9050919050565b7f4e65656420612076616c6964206e6577206d617820737570706c790000000000600082015250565b6000614bf9601b83613c07565b9150614c0482614bc3565b602082019050919050565b60006020820190508181036000830152614c2881614bec565b9050919050565b7f4552433732313a2061646472657373207a65726f206973206e6f74206120766160008201527f6c6964206f776e65720000000000000000000000000000000000000000000000602082015250565b6000614c8b602983613c07565b9150614c9682614c2f565b604082019050919050565b60006020820190508181036000830152614cba81614c7e565b9050919050565b6000604082019050614cd66000830185613d11565b614ce36020830184613d11565b9392505050565b600081519050614cf981613cb8565b92915050565b600060208284031215614d1557614d14613aac565b5b6000614d2384828501614cea565b91505092915050565b600082905092915050565b60008190508160005260206000209050919050565b60006020601f8301049050919050565b600082821b905092915050565b600060088302614d997fffffffffffffffffffffffffffffffffffffffffffffffffffffffffffffffff82614d5c565b614da38683614d5c565b95508019841693508086168417925050509392505050565b6000614dd6614dd1614dcc84613cae565b614333565b613cae565b9050919050565b6000819050919050565b614df083614dbb565b614e04614dfc82614ddd565b848454614d69565b825550505050565b600090565b614e19614e0c565b614e24818484614de7565b505050565b5b81811015614e4857614e3d600082614e11565b600181019050614e2a565b5050565b601f821115614e8d57614e5e81614d37565b614e6784614d4c565b81016020851015614e76578190505b614e8a614e8285614d4c565b830182614e29565b50505b505050565b600082821c905092915050565b6000614eb060001984600802614e92565b1980831691505092915050565b6000614ec98383614e9f565b9150826002028217905092915050565b614ee38383614d2c565b67ffffffffffffffff811115614efc57614efb613f71565b5b614f0682546143dc565b614f11828285614e4c565b6000601f831160018114614f405760008415614f2e578287013590505b614f388582614ebd565b865550614fa0565b601f198416614f4e86614d37565b60005b82811015614f7657848901358255600182019150602085019450602081019050614f51565b86831015614f935784890135614f8f601f891682614e9f565b8355505b6001600288020188555050505b50505050505050565b7f4e65656420612076616c6964206e6577206d6178206d696e74206c696d697400600082015250565b6000614fdf601f83613c07565b9150614fea82614fa9565b602082019050919050565b6000602082019050818103600083015261500e81614fd2565b9050919050565b7f4f776e61626c653a206e6577206f776e657220697320746865207a65726f206160008201527f6464726573730000000000000000000000000000000000000000000000000000602082015250565b6000615071602683613c07565b915061507c82615015565b604082019050919050565b600060208201905081810360008301526150a081615064565b9050919050565b7f4f776e61626c653a2063616c6c6572206973206e6f7420746865206f776e6572600082015250565b60006150dd602083613c07565b91506150e8826150a7565b602082019050919050565b6000602082019050818103600083015261510c816150d0565b9050919050565b7f4552433732313a207472616e736665722066726f6d20696e636f72726563742060008201527f6f776e6572000000000000000000000000000000000000000000000000000000602082015250565b600061516f602583613c07565b915061517a82615113565b604082019050919050565b6000602082019050818103600083015261519e81615162565b9050919050565b7f4552433732313a207472616e7366657220746f20746865207a65726f2061646460008201527f7265737300000000000000000000000000000000000000000000000000000000602082015250565b6000615201602483613c07565b915061520c826151a5565b604082019050919050565b60006020820190508181036000830152615230816151f4565b9050919050565b7f416c6c6c6f776c6973744f776e65723a204e65656420612076616c696420616460008201527f6472657373000000000000000000000000000000000000000000000000000000602082015250565b6000615293602583613c07565b915061529e82615237565b604082019050919050565b600060208201905081810360008301526152c281615286565b9050919050565b60006040820190506152de6000830185613d11565b6152eb6020830184613b47565b9392505050565b7f45524337323155524953746f726167653a2055524920736574206f66206e6f6e60008201527f6578697374656e7420746f6b656e000000000000000000000000000000000000602082015250565b600061534e602e83613c07565b9150615359826152f2565b604082019050919050565b6000602082019050818103600083015261537d81615341565b9050919050565b61538d82613bfc565b67ffffffffffffffff8111156153a6576153a5613f71565b5b6153b082546143dc565b6153bb828285614e4c565b600060209050601f8311600181146153ee57600084156153dc578287015190505b6153e68582614ebd565b86555061544e565b601f1984166153fc86614d37565b60005b82811015615424578489015182556001820191506020850194506020810190506153ff565b86831015615441578489015161543d601f891682614e9f565b8355505b6001600288020188555050505b505050505050565b7f4552433732313a20617070726f766520746f2063616c6c657200000000000000600082015250565b600061548c601983613c07565b915061549782615456565b602082019050919050565b600060208201905081810360008301526154bb8161547f565b9050919050565b7f4552433732313a207472616e7366657220746f206e6f6e20455243373231526560008201527f63656976657220696d706c656d656e7465720000000000000000000000000000602082015250565b600061551e603283613c07565b9150615529826154c2565b604082019050919050565b6000602082019050818103600083015261554d81615511565b9050919050565b600081905092915050565b600061556a82613bfc565b6155748185615554565b9350615584818560208601613c18565b80840191505092915050565b600061559c828561555f565b91506155a8828461555f565b91508190509392505050565b7f5061757361626c653a206e6f7420706175736564000000000000000000000000600082015250565b60006155ea601483613c07565b91506155f5826155b4565b602082019050919050565b60006020820190508181036000830152615619816155dd565b9050919050565b7f5061757361626c653a2070617573656400000000000000000000000000000000600082015250565b6000615656601083613c07565b915061566182615620565b602082019050919050565b6000602082019050818103600083015261568581615649565b9050919050565b600081519050919050565b600082825260208201905092915050565b60006156b38261568c565b6156bd8185615697565b93506156cd818560208601613c18565b6156d681613c42565b840191505092915050565b60006080820190506156f66000830187613d11565b6157036020830186613d11565b6157106040830185613d7b565b818103606083015261572281846156a8565b905095945050505050565b60008151905061573c81613ae2565b92915050565b60006020828403121561575857615757613aac565b5b60006157668482850161572d565b91505092915050565b7f455243373231456e756d657261626c653a20636f6e736563757469766520747260008201527f616e7366657273206e6f7420737570706f727465640000000000000000000000602082015250565b60006157cb603583613c07565b91506157d68261576f565b604082019050919050565b600060208201905081810360008301526157fa816157be565b9050919050565b7f4552433732313a206d696e7420746f20746865207a65726f2061646472657373600082015250565b6000615837602083613c07565b915061584282615801565b602082019050919050565b600060208201905081810360008301526158668161582a565b9050919050565b7f4552433732313a20746f6b656e20616c7265616479206d696e74656400000000600082015250565b60006158a3601c83613c07565b91506158ae8261586d565b602082019050919050565b600060208201905081810360008301526158d281615896565b9050919050565b7f4e487b7100000000000000000000000000000000000000000000000000000000600052601260045260246000fd5b600061591382613cae565b915061591e83613cae565b9250828203905081811115615936576159356149c7565b5b92915050565b7f4e487b7100000000000000000000000000000000000000000000000000000000600052603160045260246000fdfea2646970667358221220b4edb81543c24bf8b93796a3e56c541ff7b6a933446953bbf5717d4f160bb81764736f6c63430008130033697066733a2f2f6261666b726569627270353361717136656c74706a6f746d347370617a767134326e3535356171777477636b36376d6f6e777a756f676d797a7961",
  "devdoc": {
    "events": {
      "Approval(address,address,uint256)": {
        "details": "Emitted when `owner` enables `approved` to manage the `tokenId` token."
      },
      "ApprovalForAll(address,address,bool)": {
        "details": "Emitted when `owner` enables or disables (`approved`) `operator` to manage all of its assets."
      },
      "BatchMetadataUpdate(uint256,uint256)": {
        "details": "This event emits when the metadata of a range of tokens is changed. So that the third-party platforms such as NFT market could timely update the images and related attributes of the NFTs."
      },
      "MetadataUpdate(uint256)": {
        "details": "This event emits when the metadata of a token is changed. So that the third-party platforms such as NFT market could timely update the images and related attributes of the NFT."
      },
      "Paused(address)": {
        "details": "Emitted when the pause is triggered by `account`."
      },
      "Transfer(address,address,uint256)": {
        "details": "Emitted when `tokenId` token is transferred from `from` to `to`."
      },
      "Unpaused(address)": {
        "details": "Emitted when the pause is lifted by `account`."
      }
    },
    "kind": "dev",
    "methods": {
      "approve(address,uint256)": {
        "details": "See {IERC721-approve}."
      },
      "balanceOf(address)": {
        "details": "See {IERC721-balanceOf}."
      },
      "burn(uint256)": {
        "details": "Burns `tokenId`. See {ERC721-_burn}. Requirements: - The caller must own `tokenId` or be an approved operator."
      },
      "getApproved(uint256)": {
        "details": "See {IERC721-getApproved}."
      },
      "isApprovedForAll(address,address)": {
        "details": "See {IERC721-isApprovedForAll}."
      },
      "name()": {
        "details": "See {IERC721Metadata-name}."
      },
      "owner()": {
        "details": "Returns the address of the current owner."
      },
      "ownerOf(uint256)": {
        "details": "See {IERC721-ownerOf}."
      },
      "paused()": {
        "details": "Returns true if the contract is paused, and false otherwise."
      },
      "renounceOwnership()": {
        "details": "Leaves the contract without owner. It will not be possible to call `onlyOwner` functions. Can only be called by the current owner. NOTE: Renouncing ownership will leave the contract without an owner, thereby disabling any functionality that is only available to the owner."
      },
      "safeTransferFrom(address,address,uint256)": {
        "details": "See {IERC721-safeTransferFrom}."
      },
      "safeTransferFrom(address,address,uint256,bytes)": {
        "details": "See {IERC721-safeTransferFrom}."
      },
      "setApprovalForAll(address,bool)": {
        "details": "See {IERC721-setApprovalForAll}."
      },
      "symbol()": {
        "details": "See {IERC721Metadata-symbol}."
      },
      "tokenByIndex(uint256)": {
        "details": "See {IERC721Enumerable-tokenByIndex}."
      },
      "tokenOfOwnerByIndex(address,uint256)": {
        "details": "See {IERC721Enumerable-tokenOfOwnerByIndex}."
      },
      "totalSupply()": {
        "details": "See {IERC721Enumerable-totalSupply}."
      },
      "transferFrom(address,address,uint256)": {
        "details": "See {IERC721-transferFrom}."
      },
      "transferOwnership(address)": {
        "details": "Transfers ownership of the contract to a new account (`newOwner`). Can only be called by the current owner."
      }
    },
    "version": 1
  },
  "userdoc": {
    "kind": "user",
    "methods": {},
    "version": 1
  },
  "storageLayout": {
    "storage": [
      {
        "astId": 352,
        "contract": "contracts/VaultNftTokenV2.sol:VaultNftTokenV2",
        "label": "_name",
        "offset": 0,
        "slot": "0",
        "type": "t_string_storage"
      },
      {
        "astId": 354,
        "contract": "contracts/VaultNftTokenV2.sol:VaultNftTokenV2",
        "label": "_symbol",
        "offset": 0,
        "slot": "1",
        "type": "t_string_storage"
      },
      {
        "astId": 358,
        "contract": "contracts/VaultNftTokenV2.sol:VaultNftTokenV2",
        "label": "_owners",
        "offset": 0,
        "slot": "2",
        "type": "t_mapping(t_uint256,t_address)"
      },
      {
        "astId": 362,
        "contract": "contracts/VaultNftTokenV2.sol:VaultNftTokenV2",
        "label": "_balances",
        "offset": 0,
        "slot": "3",
        "type": "t_mapping(t_address,t_uint256)"
      },
      {
        "astId": 366,
        "contract": "contracts/VaultNftTokenV2.sol:VaultNftTokenV2",
        "label": "_tokenApprovals",
        "offset": 0,
        "slot": "4",
        "type": "t_mapping(t_uint256,t_address)"
      },
      {
        "astId": 372,
        "contract": "contracts/VaultNftTokenV2.sol:VaultNftTokenV2",
        "label": "_operatorApprovals",
        "offset": 0,
        "slot": "5",
        "type": "t_mapping(t_address,t_mapping(t_address,t_bool))"
      },
      {
        "astId": 1432,
        "contract": "contracts/VaultNftTokenV2.sol:VaultNftTokenV2",
        "label": "_ownedTokens",
        "offset": 0,
        "slot": "6",
        "type": "t_mapping(t_address,t_mapping(t_uint256,t_uint256))"
      },
      {
        "astId": 1436,
        "contract": "contracts/VaultNftTokenV2.sol:VaultNftTokenV2",
        "label": "_ownedTokensIndex",
        "offset": 0,
        "slot": "7",
        "type": "t_mapping(t_uint256,t_uint256)"
      },
      {
        "astId": 1439,
        "contract": "contracts/VaultNftTokenV2.sol:VaultNftTokenV2",
        "label": "_allTokens",
        "offset": 0,
        "slot": "8",
        "type": "t_array(t_uint256)dyn_storage"
      },
      {
        "astId": 1443,
        "contract": "contracts/VaultNftTokenV2.sol:VaultNftTokenV2",
        "label": "_allTokensIndex",
        "offset": 0,
        "slot": "9",
        "type": "t_mapping(t_uint256,t_uint256)"
      },
      {
        "astId": 1787,
        "contract": "contracts/VaultNftTokenV2.sol:VaultNftTokenV2",
        "label": "_tokenURIs",
        "offset": 0,
        "slot": "10",
        "type": "t_mapping(t_uint256,t_string_storage)"
      },
      {
        "astId": 158,
        "contract": "contracts/VaultNftTokenV2.sol:VaultNftTokenV2",
        "label": "_paused",
        "offset": 0,
        "slot": "11",
        "type": "t_bool"
      },
      {
        "astId": 7,
        "contract": "contracts/VaultNftTokenV2.sol:VaultNftTokenV2",
        "label": "_owner",
        "offset": 1,
        "slot": "11",
        "type": "t_address"
      },
      {
        "astId": 3656,
        "contract": "contracts/VaultNftTokenV2.sol:VaultNftTokenV2",
        "label": "allowlist",
        "offset": 0,
        "slot": "12",
        "type": "t_mapping(t_address,t_bool)"
      },
      {
        "astId": 3659,
        "contract": "contracts/VaultNftTokenV2.sol:VaultNftTokenV2",
        "label": "allowListEnabled",
        "offset": 0,
        "slot": "13",
        "type": "t_bool"
      },
      {
        "astId": 4527,
        "contract": "contracts/VaultNftTokenV2.sol:VaultNftTokenV2",
        "label": "_tokenIdCounter",
        "offset": 0,
        "slot": "14",
        "type": "t_struct(Counter)2343_storage"
      },
      {
        "astId": 4530,
        "contract": "contracts/VaultNftTokenV2.sol:VaultNftTokenV2",
        "label": "mintFee",
        "offset": 0,
        "slot": "15",
        "type": "t_uint256"
      },
      {
        "astId": 4533,
        "contract": "contracts/VaultNftTokenV2.sol:VaultNftTokenV2",
        "label": "maxSupply",
        "offset": 0,
        "slot": "16",
        "type": "t_uint256"
      },
      {
        "astId": 4536,
        "contract": "contracts/VaultNftTokenV2.sol:VaultNftTokenV2",
        "label": "maxBatchMint",
        "offset": 0,
        "slot": "17",
        "type": "t_uint256"
      },
      {
        "astId": 4539,
        "contract": "contracts/VaultNftTokenV2.sol:VaultNftTokenV2",
        "label": "singleNftMeta",
        "offset": 0,
        "slot": "18",
        "type": "t_bool"
      },
      {
        "astId": 4541,
        "contract": "contracts/VaultNftTokenV2.sol:VaultNftTokenV2",
        "label": "redeemAuthorizer",
        "offset": 1,
        "slot": "18",
        "type": "t_address"
      },
      {
        "astId": 4543,
        "contract": "contracts/VaultNftTokenV2.sol:VaultNftTokenV2",
        "label": "destination",
        "offset": 0,
        "slot": "19",
        "type": "t_address_payable"
      },
      {
        "astId": 4545,
        "contract": "contracts/VaultNftTokenV2.sol:VaultNftTokenV2",
        "label": "baseURI",
        "offset": 0,
        "slot": "20",
        "type": "t_string_storage"
      },
      {
        "astId": 4551,
        "contract": "contracts/VaultNftTokenV2.sol:VaultNftTokenV2",
        "label": "token",
        "offset": 0,
        "slot": "21",
        "type": "t_contract(IERC20)326"
      }
    ],
    "types": {
      "t_address": {
        "encoding": "inplace",
        "label": "address",
        "numberOfBytes": "20"
      },
      "t_address_payable": {
        "encoding": "inplace",
        "label": "address payable",
        "numberOfBytes": "20"
      },
      "t_array(t_uint256)dyn_storage": {
        "base": "t_uint256",
        "encoding": "dynamic_array",
        "label": "uint256[]",
        "numberOfBytes": "32"
      },
      "t_bool": {
        "encoding": "inplace",
        "label": "bool",
        "numberOfBytes": "1"
      },
      "t_contract(IERC20)326": {
        "encoding": "inplace",
        "label": "contract IERC20",
        "numberOfBytes": "20"
      },
      "t_mapping(t_address,t_bool)": {
        "encoding": "mapping",
        "key": "t_address",
        "label": "mapping(address => bool)",
        "numberOfBytes": "32",
        "value": "t_bool"
      },
      "t_mapping(t_address,t_mapping(t_address,t_bool))": {
        "encoding": "mapping",
        "key": "t_address",
        "label": "mapping(address => mapping(address => bool))",
        "numberOfBytes": "32",
        "value": "t_mapping(t_address,t_bool)"
      },
      "t_mapping(t_address,t_mapping(t_uint256,t_uint256))": {
        "encoding": "mapping",
        "key": "t_address",
        "label": "mapping(address => mapping(uint256 => uint256))",
        "numberOfBytes": "32",
        "value": "t_mapping(t_uint256,t_uint256)"
      },
      "t_mapping(t_address,t_uint256)": {
        "encoding": "mapping",
        "key": "t_address",
        "label": "mapping(address => uint256)",
        "numberOfBytes": "32",
        "value": "t_uint256"
      },
      "t_mapping(t_uint256,t_address)": {
        "encoding": "mapping",
        "key": "t_uint256",
        "label": "mapping(uint256 => address)",
        "numberOfBytes": "32",
        "value": "t_address"
      },
      "t_mapping(t_uint256,t_string_storage)": {
        "encoding": "mapping",
        "key": "t_uint256",
        "label": "mapping(uint256 => string)",
        "numberOfBytes": "32",
        "value": "t_string_storage"
      },
      "t_mapping(t_uint256,t_uint256)": {
        "encoding": "mapping",
        "key": "t_uint256",
        "label": "mapping(uint256 => uint256)",
        "numberOfBytes": "32",
        "value": "t_uint256"
      },
      "t_string_storage": {
        "encoding": "bytes",
        "label": "string",
        "numberOfBytes": "32"
      },
      "t_struct(Counter)2343_storage": {
        "encoding": "inplace",
        "label": "struct Counters.Counter",
        "members": [
          {
            "astId": 2342,
            "contract": "contracts/VaultNftTokenV2.sol:VaultNftTokenV2",
            "label": "_value",
            "offset": 0,
            "slot": "0",
            "type": "t_uint256"
          }
        ],
        "numberOfBytes": "32"
      },
      "t_uint256": {
        "encoding": "inplace",
        "label": "uint256",
        "numberOfBytes": "32"
      }
    }
  }
}