{
  "address": "0x57eB7aeB438743fCBeA838B3651c02BD142CEcB9",
  "abi": [
    {
      "inputs": [],
      "stateMutability": "nonpayable",
      "type": "constructor"
    },
    {
      "anonymous": false,
      "inputs": [
        {
          "indexed": true,
          "internalType": "address",
          "name": "owner",
          "type": "address"
        },
        {
          "indexed": true,
          "internalType": "address",
          "name": "approved",
          "type": "address"
        },
        {
          "indexed": true,
          "internalType": "uint256",
          "name": "tokenId",
          "type": "uint256"
        }
      ],
      "name": "Approval",
      "type": "event"
    },
    {
      "anonymous": false,
      "inputs": [
        {
          "indexed": true,
          "internalType": "address",
          "name": "owner",
          "type": "address"
        },
        {
          "indexed": true,
          "internalType": "address",
          "name": "operator",
          "type": "address"
        },
        {
          "indexed": false,
          "internalType": "bool",
          "name": "approved",
          "type": "bool"
        }
      ],
      "name": "ApprovalForAll",
      "type": "event"
    },
    {
      "anonymous": false,
      "inputs": [
        {
          "indexed": false,
          "internalType": "uint256",
          "name": "_fromTokenId",
          "type": "uint256"
        },
        {
          "indexed": false,
          "internalType": "uint256",
          "name": "_toTokenId",
          "type": "uint256"
        }
      ],
      "name": "BatchMetadataUpdate",
      "type": "event"
    },
    {
      "anonymous": false,
      "inputs": [],
      "name": "DisableAllowList",
      "type": "event"
    },
    {
      "anonymous": false,
      "inputs": [],
      "name": "EnabledAllowList",
      "type": "event"
    },
    {
      "anonymous": false,
      "inputs": [
        {
          "indexed": false,
          "internalType": "uint256",
          "name": "_tokenId",
          "type": "uint256"
        }
      ],
      "name": "MetadataUpdate",
      "type": "event"
    },
    {
      "anonymous": false,
      "inputs": [
        {
          "indexed": true,
          "internalType": "address",
          "name": "previousOwner",
          "type": "address"
        },
        {
          "indexed": true,
          "internalType": "address",
          "name": "newOwner",
          "type": "address"
        }
      ],
      "name": "OwnershipTransferred",
      "type": "event"
    },
    {
      "anonymous": false,
      "inputs": [
        {
          "indexed": false,
          "internalType": "address",
          "name": "account",
          "type": "address"
        }
      ],
      "name": "Paused",
      "type": "event"
    },
    {
      "anonymous": false,
      "inputs": [
        {
          "indexed": true,
          "internalType": "address",
          "name": "from",
          "type": "address"
        },
        {
          "indexed": true,
          "internalType": "address",
          "name": "to",
          "type": "address"
        },
        {
          "indexed": true,
          "internalType": "uint256",
          "name": "tokenId",
          "type": "uint256"
        }
      ],
      "name": "Transfer",
      "type": "event"
    },
    {
      "anonymous": false,
      "inputs": [
        {
          "indexed": false,
          "internalType": "address",
          "name": "account",
          "type": "address"
        }
      ],
      "name": "Unpaused",
      "type": "event"
    },
    {
      "anonymous": false,
      "inputs": [
        {
          "indexed": false,
          "internalType": "address",
          "name": "account",
          "type": "address"
        },
        {
          "indexed": false,
          "internalType": "bool",
          "name": "isAllowed",
          "type": "bool"
        }
      ],
      "name": "UserAllowList",
      "type": "event"
    },
    {
      "inputs": [],
      "name": "allowListEnabled",
      "outputs": [
        {
          "internalType": "bool",
          "name": "",
          "type": "bool"
        }
      ],
      "stateMutability": "view",
      "type": "function"
    },
    {
      "inputs": [
        {
          "internalType": "address",
          "name": "",
          "type": "address"
        }
      ],
      "name": "allowlist",
      "outputs": [
        {
          "internalType": "bool",
          "name": "",
          "type": "bool"
        }
      ],
      "stateMutability": "view",
      "type": "function"
    },
    {
      "inputs": [
        {
          "internalType": "address",
          "name": "to",
          "type": "address"
        },
        {
          "internalType": "uint256",
          "name": "tokenId",
          "type": "uint256"
        }
      ],
      "name": "approve",
      "outputs": [],
      "stateMutability": "nonpayable",
      "type": "function"
    },
    {
      "inputs": [
        {
          "internalType": "uint256",
          "name": "amount",
          "type": "uint256"
        }
      ],
      "name": "approveTokenSpend",
      "outputs": [
        {
          "internalType": "bool",
          "name": "success",
          "type": "bool"
        }
      ],
      "stateMutability": "nonpayable",
      "type": "function"
    },
    {
      "inputs": [
        {
          "internalType": "uint256",
          "name": "tokenId",
          "type": "uint256"
        }
      ],
      "name": "authorizedBurn",
      "outputs": [],
      "stateMutability": "nonpayable",
      "type": "function"
    },
    {
      "inputs": [
        {
          "internalType": "address",
          "name": "from",
          "type": "address"
        },
        {
          "internalType": "address",
          "name": "to",
          "type": "address"
        },
        {
          "internalType": "uint256",
          "name": "tokenId",
          "type": "uint256"
        }
      ],
      "name": "authorizedTransferFrom",
      "outputs": [],
      "stateMutability": "nonpayable",
      "type": "function"
    },
    {
      "inputs": [
        {
          "internalType": "address",
          "name": "owner",
          "type": "address"
        }
      ],
      "name": "balanceOf",
      "outputs": [
        {
          "internalType": "uint256",
          "name": "",
          "type": "uint256"
        }
      ],
      "stateMutability": "view",
      "type": "function"
    },
    {
      "inputs": [],
      "name": "baseURI",
      "outputs": [
        {
          "internalType": "string",
          "name": "",
          "type": "string"
        }
      ],
      "stateMutability": "view",
      "type": "function"
    },
    {
      "inputs": [
        {
          "internalType": "address",
          "name": "to",
          "type": "address"
        },
        {
          "internalType": "uint256",
          "name": "amount",
          "type": "uint256"
        }
      ],
      "name": "bulkMintVault",
      "outputs": [],
      "stateMutability": "nonpayable",
      "type": "function"
    },
    {
      "inputs": [
        {
          "internalType": "uint256",
          "name": "tokenId",
          "type": "uint256"
        }
      ],
      "name": "burn",
      "outputs": [],
      "stateMutability": "nonpayable",
      "type": "function"
    },
    {
      "inputs": [
        {
          "internalType": "address",
          "name": "owner",
          "type": "address"
        }
      ],
      "name": "checkTokenApproval",
      "outputs": [
        {
          "internalType": "uint256",
          "name": "remaining",
          "type": "uint256"
        }
      ],
      "stateMutability": "view",
      "type": "function"
    },
    {
      "inputs": [],
      "name": "destination",
      "outputs": [
        {
          "internalType": "address payable",
          "name": "",
          "type": "address"
        }
      ],
      "stateMutability": "view",
      "type": "function"
    },
    {
      "inputs": [],
      "name": "disableAllowList",
      "outputs": [],
      "stateMutability": "nonpayable",
      "type": "function"
    },
    {
      "inputs": [],
      "name": "enableAllowList",
      "outputs": [],
      "stateMutability": "nonpayable",
      "type": "function"
    },
    {
      "inputs": [
        {
          "internalType": "uint256",
          "name": "tokenId",
          "type": "uint256"
        }
      ],
      "name": "getApproved",
      "outputs": [
        {
          "internalType": "address",
          "name": "",
          "type": "address"
        }
      ],
      "stateMutability": "view",
      "type": "function"
    },
    {
      "inputs": [
        {
          "internalType": "address",
          "name": "addr",
          "type": "address"
        }
      ],
      "name": "isAllowlisted",
      "outputs": [
        {
          "internalType": "bool",
          "name": "",
          "type": "bool"
        }
      ],
      "stateMutability": "view",
      "type": "function"
    },
    {
      "inputs": [
        {
          "internalType": "address",
          "name": "owner",
          "type": "address"
        },
        {
          "internalType": "address",
          "name": "operator",
          "type": "address"
        }
      ],
      "name": "isApprovedForAll",
      "outputs": [
        {
          "internalType": "bool",
          "name": "",
          "type": "bool"
        }
      ],
      "stateMutability": "view",
      "type": "function"
    },
    {
      "inputs": [
        {
          "internalType": "address",
          "name": "addr",
          "type": "address"
        }
      ],
      "name": "isOwnerOrInAllowlisted",
      "outputs": [
        {
          "internalType": "bool",
          "name": "",
          "type": "bool"
        }
      ],
      "stateMutability": "view",
      "type": "function"
    },
    {
      "inputs": [],
      "name": "maxBatchMint",
      "outputs": [
        {
          "internalType": "uint256",
          "name": "",
          "type": "uint256"
        }
      ],
      "stateMutability": "view",
      "type": "function"
    },
    {
      "inputs": [],
      "name": "maxSupply",
      "outputs": [
        {
          "internalType": "uint256",
          "name": "",
          "type": "uint256"
        }
      ],
      "stateMutability": "view",
      "type": "function"
    },
    {
      "inputs": [],
      "name": "mintFee",
      "outputs": [
        {
          "internalType": "uint256",
          "name": "",
          "type": "uint256"
        }
      ],
      "stateMutability": "view",
      "type": "function"
    },
    {
      "inputs": [
        {
          "internalType": "address",
          "name": "to",
          "type": "address"
        }
      ],
      "name": "mintVault",
      "outputs": [],
      "stateMutability": "nonpayable",
      "type": "function"
    },
    {
      "inputs": [],
      "name": "name",
      "outputs": [
        {
          "internalType": "string",
          "name": "",
          "type": "string"
        }
      ],
      "stateMutability": "view",
      "type": "function"
    },
    {
      "inputs": [],
      "name": "owner",
      "outputs": [
        {
          "internalType": "address",
          "name": "",
          "type": "address"
        }
      ],
      "stateMutability": "view",
      "type": "function"
    },
    {
      "inputs": [
        {
          "internalType": "uint256",
          "name": "tokenId",
          "type": "uint256"
        }
      ],
      "name": "ownerOf",
      "outputs": [
        {
          "internalType": "address",
          "name": "",
          "type": "address"
        }
      ],
      "stateMutability": "view",
      "type": "function"
    },
    {
      "inputs": [],
      "name": "pause",
      "outputs": [],
      "stateMutability": "nonpayable",
      "type": "function"
    },
    {
      "inputs": [],
      "name": "paused",
      "outputs": [
        {
          "internalType": "bool",
          "name": "",
          "type": "bool"
        }
      ],
      "stateMutability": "view",
      "type": "function"
    },
    {
      "inputs": [
        {
          "internalType": "address",
          "name": "authorizer",
          "type": "address"
        }
      ],
      "name": "preAuthorizeRedeemer",
      "outputs": [],
      "stateMutability": "nonpayable",
      "type": "function"
    },
    {
      "inputs": [],
      "name": "redeemAuthorizer",
      "outputs": [
        {
          "internalType": "address",
          "name": "",
          "type": "address"
        }
      ],
      "stateMutability": "view",
      "type": "function"
    },
    {
      "inputs": [],
      "name": "renounceOwnership",
      "outputs": [],
      "stateMutability": "nonpayable",
      "type": "function"
    },
    {
      "inputs": [
        {
          "internalType": "address",
          "name": "to",
          "type": "address"
        }
      ],
      "name": "safeMint",
      "outputs": [],
      "stateMutability": "nonpayable",
      "type": "function"
    },
    {
      "inputs": [
        {
          "internalType": "address",
          "name": "to",
          "type": "address"
        },
        {
          "internalType": "string",
          "name": "uri",
          "type": "string"
        }
      ],
      "name": "safeMintUri",
      "outputs": [],
      "stateMutability": "nonpayable",
      "type": "function"
    },
    {
      "inputs": [
        {
          "internalType": "address",
          "name": "from",
          "type": "address"
        },
        {
          "internalType": "address",
          "name": "to",
          "type": "address"
        },
        {
          "internalType": "uint256",
          "name": "tokenId",
          "type": "uint256"
        }
      ],
      "name": "safeTransferFrom",
      "outputs": [],
      "stateMutability": "nonpayable",
      "type": "function"
    },
    {
      "inputs": [
        {
          "internalType": "address",
          "name": "from",
          "type": "address"
        },
        {
          "internalType": "address",
          "name": "to",
          "type": "address"
        },
        {
          "internalType": "uint256",
          "name": "tokenId",
          "type": "uint256"
        },
        {
          "internalType": "bytes",
          "name": "data",
          "type": "bytes"
        }
      ],
      "name": "safeTransferFrom",
      "outputs": [],
      "stateMutability": "nonpayable",
      "type": "function"
    },
    {
      "inputs": [
        {
          "internalType": "address",
          "name": "addr",
          "type": "address"
        },
        {
          "internalType": "bool",
          "name": "isAllowed",
          "type": "bool"
        }
      ],
      "name": "setAllowlistUser",
      "outputs": [],
      "stateMutability": "nonpayable",
      "type": "function"
    },
    {
      "inputs": [
        {
          "internalType": "address",
          "name": "operator",
          "type": "address"
        },
        {
          "internalType": "bool",
          "name": "approved",
          "type": "bool"
        }
      ],
      "name": "setApprovalForAll",
      "outputs": [],
      "stateMutability": "nonpayable",
      "type": "function"
    },
    {
      "inputs": [
        {
          "internalType": "string",
          "name": "baseUri",
          "type": "string"
        }
      ],
      "name": "setBaseUri",
      "outputs": [],
      "stateMutability": "nonpayable",
      "type": "function"
    },
    {
      "inputs": [
        {
          "internalType": "address payable",
          "name": "_destination",
          "type": "address"
        }
      ],
      "name": "setDestination",
      "outputs": [],
      "stateMutability": "nonpayable",
      "type": "function"
    },
    {
      "inputs": [
        {
          "internalType": "uint256",
          "name": "newMaxBatchMint",
          "type": "uint256"
        }
      ],
      "name": "setMaxBatchMint",
      "outputs": [],
      "stateMutability": "nonpayable",
      "type": "function"
    },
    {
      "inputs": [
        {
          "internalType": "uint256",
          "name": "newMaxSupply",
          "type": "uint256"
        }
      ],
      "name": "setMaxSupply",
      "outputs": [],
      "stateMutability": "nonpayable",
      "type": "function"
    },
    {
      "inputs": [
        {
          "internalType": "uint256",
          "name": "_mintFee",
          "type": "uint256"
        }
      ],
      "name": "setMintFee",
      "outputs": [],
      "stateMutability": "nonpayable",
      "type": "function"
    },
    {
      "inputs": [
        {
          "internalType": "bool",
          "name": "_singleNftMeta",
          "type": "bool"
        }
      ],
      "name": "setSingleNftMeta",
      "outputs": [],
      "stateMutability": "nonpayable",
      "type": "function"
    },
    {
      "inputs": [
        {
          "internalType": "contract IERC20",
          "name": "_token",
          "type": "address"
        }
      ],
      "name": "setToken",
      "outputs": [],
      "stateMutability": "nonpayable",
      "type": "function"
    },
    {
      "inputs": [],
      "name": "singleNftMeta",
      "outputs": [
        {
          "internalType": "bool",
          "name": "",
          "type": "bool"
        }
      ],
      "stateMutability": "view",
      "type": "function"
    },
    {
      "inputs": [
        {
          "internalType": "bytes4",
          "name": "interfaceId",
          "type": "bytes4"
        }
      ],
      "name": "supportsInterface",
      "outputs": [
        {
          "internalType": "bool",
          "name": "",
          "type": "bool"
        }
      ],
      "stateMutability": "view",
      "type": "function"
    },
    {
      "inputs": [],
      "name": "symbol",
      "outputs": [
        {
          "internalType": "string",
          "name": "",
          "type": "string"
        }
      ],
      "stateMutability": "view",
      "type": "function"
    },
    {
      "inputs": [],
      "name": "token",
      "outputs": [
        {
          "internalType": "contract IERC20",
          "name": "",
          "type": "address"
        }
      ],
      "stateMutability": "view",
      "type": "function"
    },
    {
      "inputs": [
        {
          "internalType": "uint256",
          "name": "index",
          "type": "uint256"
        }
      ],
      "name": "tokenByIndex",
      "outputs": [
        {
          "internalType": "uint256",
          "name": "",
          "type": "uint256"
        }
      ],
      "stateMutability": "view",
      "type": "function"
    },
    {
      "inputs": [
        {
          "internalType": "address",
          "name": "owner",
          "type": "address"
        },
        {
          "internalType": "uint256",
          "name": "index",
          "type": "uint256"
        }
      ],
      "name": "tokenOfOwnerByIndex",
      "outputs": [
        {
          "internalType": "uint256",
          "name": "",
          "type": "uint256"
        }
      ],
      "stateMutability": "view",
      "type": "function"
    },
    {
      "inputs": [
        {
          "internalType": "uint256",
          "name": "tokenId",
          "type": "uint256"
        }
      ],
      "name": "tokenURI",
      "outputs": [
        {
          "internalType": "string",
          "name": "",
          "type": "string"
        }
      ],
      "stateMutability": "view",
      "type": "function"
    },
    {
      "inputs": [],
      "name": "totalSupply",
      "outputs": [
        {
          "internalType": "uint256",
          "name": "",
          "type": "uint256"
        }
      ],
      "stateMutability": "view",
      "type": "function"
    },
    {
      "inputs": [
        {
          "internalType": "address",
          "name": "from",
          "type": "address"
        },
        {
          "internalType": "address",
          "name": "to",
          "type": "address"
        },
        {
          "internalType": "uint256",
          "name": "tokenId",
          "type": "uint256"
        }
      ],
      "name": "transferFrom",
      "outputs": [],
      "stateMutability": "nonpayable",
      "type": "function"
    },
    {
      "inputs": [
        {
          "internalType": "address",
          "name": "newOwner",
          "type": "address"
        }
      ],
      "name": "transferOwnership",
      "outputs": [],
      "stateMutability": "nonpayable",
      "type": "function"
    },
    {
      "inputs": [],
      "name": "unpause",
      "outputs": [],
      "stateMutability": "nonpayable",
      "type": "function"
    },
    {
      "inputs": [
        {
          "internalType": "uint256",
          "name": "amount",
          "type": "uint256"
        }
      ],
      "name": "withdraw",
      "outputs": [],
      "stateMutability": "nonpayable",
      "type": "function"
    }
  ],
  "transactionHash": "0x3fc2f79062aec754560f64caf907fe0655d056258ddd4aa2448d9ffbae935f43",
  "args": [],
  "numDeployments": 4,
  "solcInputHash": "d190ee166c94aef9925e23c44105732b",
  "bytecode": "0x60806040526001600d60006101000a81548160ff021916908315150217905550662386f26fc10000600f5561303960105560056011556001601260006101000a81548160ff021916908315150217905550739fe46736679d2d9a65f0992f2272de9f3c7fa6e0601560006101000a81548173ffffffffffffffffffffffffffffffffffffffff021916908373ffffffffffffffffffffffffffffffffffffffff160217905550348015620000b257600080fd5b506040518060400160405280600881526020017f5661756c744e66740000000000000000000000000000000000000000000000008152506040518060400160405280600381526020017f564c5400000000000000000000000000000000000000000000000000000000008152508160009081620001309190620004f9565b508060019081620001429190620004f9565b5050506000600b60006101000a81548160ff0219169083151502179055506200018062000174620001b160201b60201c565b620001b960201b60201c565b604051806080016040528060428152602001620061d86042913960149081620001aa9190620004f9565b50620005e0565b600033905090565b6000600b60019054906101000a900473ffffffffffffffffffffffffffffffffffffffff16905081600b60016101000a81548173ffffffffffffffffffffffffffffffffffffffff021916908373ffffffffffffffffffffffffffffffffffffffff1602179055508173ffffffffffffffffffffffffffffffffffffffff168173ffffffffffffffffffffffffffffffffffffffff167f8be0079c531659141344cd1fd0a4f28419497f9722a3daafe3b4186f6b6457e060405160405180910390a35050565b600081519050919050565b7f4e487b7100000000000000000000000000000000000000000000000000000000600052604160045260246000fd5b7f4e487b7100000000000000000000000000000000000000000000000000000000600052602260045260246000fd5b600060028204905060018216806200030157607f821691505b602082108103620003175762000316620002b9565b5b50919050565b60008190508160005260206000209050919050565b60006020601f8301049050919050565b600082821b905092915050565b600060088302620003817fffffffffffffffffffffffffffffffffffffffffffffffffffffffffffffffff8262000342565b6200038d868362000342565b95508019841693508086168417925050509392505050565b6000819050919050565b6000819050919050565b6000620003da620003d4620003ce84620003a5565b620003af565b620003a5565b9050919050565b6000819050919050565b620003f683620003b9565b6200040e6200040582620003e1565b8484546200034f565b825550505050565b600090565b6200042562000416565b62000432818484620003eb565b505050565b5b818110156200045a576200044e6000826200041b565b60018101905062000438565b5050565b601f821115620004a95762000473816200031d565b6200047e8462000332565b810160208510156200048e578190505b620004a66200049d8562000332565b83018262000437565b50505b505050565b600082821c905092915050565b6000620004ce60001984600802620004ae565b1980831691505092915050565b6000620004e98383620004bb565b9150826002028217905092915050565b62000504826200027f565b67ffffffffffffffff81111562000520576200051f6200028a565b5b6200052c8254620002e8565b620005398282856200045e565b600060209050601f8311600181146200057157600084156200055c578287015190505b620005688582620004db565b865550620005d8565b601f19841662000581866200031d565b60005b82811015620005ab5784890151825560018201915060208501945060208101905062000584565b86831015620005cb5784890151620005c7601f891682620004bb565b8355505b6001600288020188555050505b505050505050565b615be880620005f06000396000f3fe608060405234801561001057600080fd5b506004361061035d5760003560e01c80636c0360eb116101d3578063a7adf96411610104578063d5abeb01116100a2578063eddd0d9c1161007c578063eddd0d9c146109ba578063f2afd399146109d6578063f2fde38b146109f2578063fc0c546a14610a0e5761035d565b8063d5abeb0114610962578063dc2fbaee14610980578063e985e9c51461098a5761035d565b8063b88d4fde116100de578063b88d4fde146108ca578063c1a7fcc0146108e6578063c87b56dd14610916578063d31f9395146109465761035d565b8063a7adf9641461085e578063a7cd52cb1461087c578063b269681d146108ac5761035d565b80638456cb591161017157806395d89b411161014b57806395d89b41146107d8578063990c006d146107f6578063a0bcfc7f14610826578063a22cb465146108425761035d565b80638456cb59146107945780638b38d27c1461079e5780638da5cb5b146107ba5761035d565b806370a08231116101ad57806370a0823114610720578063715018a6146107505780637a3680301461075a578063834029ba1461078a5761035d565b80636c0360eb146106ca5780636f8b44b0146106e85780637065ec39146107045761035d565b80632f745c59116102ad578063471676bb1161024b5780635a9c787f116102255780635a9c787f146106425780635c975abb146106605780636352211e1461067e5780636494a5be146106ae5761035d565b8063471676bb146105da5780634f6ccce7146105f6578063582d6422146106265761035d565b806340d097c31161028757806340d097c31461056a57806342842e0e1461058657806342966c68146105a2578063450d624d146105be5761035d565b80632f745c59146105145780633045b241146105445780633f4ba83a146105605761035d565b80630a0a05e61161031a57806318160ddd116102f457806318160ddd146104a057806322bd5c1c146104be57806323b872dd146104dc5780632e1a7d4d146104f85761035d565b80630a0a05e61461044a57806313966db514610466578063144fa6d7146104845761035d565b806301ffc9a71461036257806305a3b8091461039257806306fdde03146103c2578063081812fc146103e0578063095ea7b31461041057806309a3a9c11461042c575b600080fd5b61037c60048036038101906103779190613cc3565b610a2c565b6040516103899190613d0b565b60405180910390f35b6103ac60048036038101906103a79190613d84565b610a3e565b6040516103b99190613d0b565b60405180910390f35b6103ca610a94565b6040516103d79190613e41565b60405180910390f35b6103fa60048036038101906103f59190613e99565b610b26565b6040516104079190613ed5565b60405180910390f35b61042a60048036038101906104259190613ef0565b610b6c565b005b610434610c83565b6040516104419190613f3f565b60405180910390f35b610464600480360381019061045f9190613f98565b610c89565b005b61046e610cd5565b60405161047b9190613f3f565b60405180910390f35b61049e60048036038101906104999190614003565b610cdb565b005b6104a8610de8565b6040516104b59190613f3f565b60405180910390f35b6104c6610df5565b6040516104d39190613d0b565b60405180910390f35b6104f660048036038101906104f19190614030565b610e08565b005b610512600480360381019061050d9190613e99565b610e68565b005b61052e60048036038101906105299190613ef0565b610f36565b60405161053b9190613f3f565b60405180910390f35b61055e600480360381019061055991906140af565b610fdb565b005b610568610ff1565b005b610584600480360381019061057f9190613d84565b611003565b005b6105a0600480360381019061059b9190614030565b611031565b005b6105bc60048036038101906105b79190613e99565b611051565b005b6105d860048036038101906105d391906140ef565b6110ad565b005b6105f460048036038101906105ef9190614251565b6110d2565b005b610610600480360381019061060b9190613e99565b61110b565b60405161061d9190613f3f565b60405180910390f35b610640600480360381019061063b9190613ef0565b61117c565b005b61064a6113bd565b6040516106579190613ed5565b60405180910390f35b6106686113e3565b6040516106759190613d0b565b60405180910390f35b61069860048036038101906106939190613e99565b6113fa565b6040516106a59190613ed5565b60405180910390f35b6106c860048036038101906106c39190613d84565b611480565b005b6106d26114cc565b6040516106df9190613e41565b60405180910390f35b61070260048036038101906106fd9190613e99565b61155a565b005b61071e60048036038101906107199190613e99565b6115b0565b005b61073a60048036038101906107359190613d84565b61164c565b6040516107479190613f3f565b60405180910390f35b610758611703565b005b610774600480360381019061076f9190613d84565b611717565b6040516107819190613f3f565b60405180910390f35b6107926117be565b005b61079c6117d0565b005b6107b860048036038101906107b39190614030565b6117e2565b005b6107c2611892565b6040516107cf9190613ed5565b60405180910390f35b6107e06118bc565b6040516107ed9190613e41565b60405180910390f35b610810600480360381019061080b9190613d84565b61194e565b60405161081d9190613d0b565b60405180910390f35b610840600480360381019061083b919061430d565b6119ef565b005b61085c600480360381019061085791906140af565b611a0d565b005b610866611a23565b6040516108739190613d0b565b60405180910390f35b61089660048036038101906108919190613d84565b611a36565b6040516108a39190613d0b565b60405180910390f35b6108b4611a56565b6040516108c19190614369565b60405180910390f35b6108e460048036038101906108df9190614425565b611a7c565b005b61090060048036038101906108fb9190613e99565b611ade565b60405161090d9190613d0b565b60405180910390f35b610930600480360381019061092b9190613e99565b611b87565b60405161093d9190613e41565b60405180910390f35b610960600480360381019061095b9190613e99565b611bd9565b005b61096a611c2f565b6040516109779190613f3f565b60405180910390f35b610988611c35565b005b6109a4600480360381019061099f91906144a8565b611c47565b6040516109b19190613d0b565b60405180910390f35b6109d460048036038101906109cf9190613e99565b611cdb565b005b6109f060048036038101906109eb9190613d84565b611ced565b005b610a0c6004803603810190610a079190613d84565b611eac565b005b610a16611f2f565b604051610a239190614547565b60405180910390f35b6000610a3782611f55565b9050919050565b6000600c60008373ffffffffffffffffffffffffffffffffffffffff1673ffffffffffffffffffffffffffffffffffffffff16815260200190815260200160002060009054906101000a900460ff169050919050565b606060008054610aa390614591565b80601f0160208091040260200160405190810160405280929190818152602001828054610acf90614591565b8015610b1c5780601f10610af157610100808354040283529160200191610b1c565b820191906000526020600020905b815481529060010190602001808311610aff57829003601f168201915b5050505050905090565b6000610b3182611fb6565b6004600083815260200190815260200160002060009054906101000a900473ffffffffffffffffffffffffffffffffffffffff169050919050565b6000610b77826113fa565b90508073ffffffffffffffffffffffffffffffffffffffff168373ffffffffffffffffffffffffffffffffffffffff1603610be7576040517f08c379a0000000000000000000000000000000000000000000000000000000008152600401610bde90614634565b60405180910390fd5b8073ffffffffffffffffffffffffffffffffffffffff16610c06612001565b73ffffffffffffffffffffffffffffffffffffffff161480610c355750610c3481610c2f612001565b611c47565b5b610c74576040517f08c379a0000000000000000000000000000000000000000000000000000000008152600401610c6b906146c6565b60405180910390fd5b610c7e8383612009565b505050565b60115481565b610c916120c2565b80601360006101000a81548173ffffffffffffffffffffffffffffffffffffffff021916908373ffffffffffffffffffffffffffffffffffffffff16021790555050565b600f5481565b610ce36120c2565b80601560006101000a81548173ffffffffffffffffffffffffffffffffffffffff021916908373ffffffffffffffffffffffffffffffffffffffff160217905550601560009054906101000a900473ffffffffffffffffffffffffffffffffffffffff1673ffffffffffffffffffffffffffffffffffffffff1663095ea7b3307fffffffffffffffffffffffffffffffffffffffffffffffffffffffffffffffff6040518363ffffffff1660e01b8152600401610da19291906146e6565b6020604051808303816000875af1158015610dc0573d6000803e3d6000fd5b505050506040513d601f19601f82011682018060405250810190610de49190614724565b5050565b6000600880549050905090565b600d60009054906101000a900460ff1681565b610e19610e13612001565b82612140565b610e58576040517f08c379a0000000000000000000000000000000000000000000000000000000008152600401610e4f906147c3565b60405180910390fd5b610e638383836121d5565b505050565b610e706120c2565b601560009054906101000a900473ffffffffffffffffffffffffffffffffffffffff1673ffffffffffffffffffffffffffffffffffffffff1663a9059cbb601360009054906101000a900473ffffffffffffffffffffffffffffffffffffffff16836040518363ffffffff1660e01b8152600401610eef929190614804565b6020604051808303816000875af1158015610f0e573d6000803e3d6000fd5b505050506040513d601f19601f82011682018060405250810190610f329190614724565b5050565b6000610f418361164c565b8210610f82576040517f08c379a0000000000000000000000000000000000000000000000000000000008152600401610f799061489f565b60405180910390fd5b600660008473ffffffffffffffffffffffffffffffffffffffff1673ffffffffffffffffffffffffffffffffffffffff168152602001908152602001600020600083815260200190815260200160002054905092915050565b610fe36120c2565b610fed82826124ce565b5050565b610ff96120c2565b6110016125d1565b565b61100b6120c2565b6000611017600e612634565b9050611023600e612642565b61102d8282612658565b5050565b61104c83838360405180602001604052806000815250611a7c565b505050565b61106261105c612001565b82612140565b6110a1576040517f08c379a0000000000000000000000000000000000000000000000000000000008152600401611098906147c3565b60405180910390fd5b6110aa81612676565b50565b6110b56120c2565b80601260006101000a81548160ff02191690831515021790555050565b6110da6120c2565b60006110e6600e612634565b90506110f2600e612642565b6110fc8382612658565b6111068183612682565b505050565b6000611115610de8565b8210611156576040517f08c379a000000000000000000000000000000000000000000000000000000000815260040161114d90614931565b60405180910390fd5b6008828154811061116a57611169614951565b5b90600052602060002001549050919050565b600d60009054906101000a900460ff16156111e1576111a161119c612001565b610a3e565b6111e0576040517f08c379a00000000000000000000000000000000000000000000000000000000081526004016111d7906149f2565b60405180910390fd5b5b601154811115611226576040517f08c379a000000000000000000000000000000000000000000000000000000000815260040161121d90614a84565b60405180910390fd5b60105481611232610de8565b61123c9190614ad3565b111561127d576040517f08c379a000000000000000000000000000000000000000000000000000000000815260040161127490614b53565b60405180910390fd5b6000600f548261128d9190614b73565b90506000601560009054906101000a900473ffffffffffffffffffffffffffffffffffffffff1673ffffffffffffffffffffffffffffffffffffffff166323b872dd3330856040518463ffffffff1660e01b81526004016112f093929190614bb5565b6020604051808303816000875af115801561130f573d6000803e3d6000fd5b505050506040513d601f19601f820116820180604052508101906113339190614724565b905080611375576040517f08c379a000000000000000000000000000000000000000000000000000000000815260040161136c90614c38565b60405180910390fd5b60005b838110156113b657600061138c600e612634565b9050611398600e612642565b6113a28682612658565b5080806113ae90614c58565b915050611378565b5050505050565b601260019054906101000a900473ffffffffffffffffffffffffffffffffffffffff1681565b6000600b60009054906101000a900460ff16905090565b60008061140683612726565b9050600073ffffffffffffffffffffffffffffffffffffffff168173ffffffffffffffffffffffffffffffffffffffff1603611477576040517f08c379a000000000000000000000000000000000000000000000000000000000815260040161146e90614cec565b60405180910390fd5b80915050919050565b6114886120c2565b80601260016101000a81548173ffffffffffffffffffffffffffffffffffffffff021916908373ffffffffffffffffffffffffffffffffffffffff16021790555050565b601480546114d990614591565b80601f016020809104026020016040519081016040528092919081815260200182805461150590614591565b80156115525780601f1061152757610100808354040283529160200191611552565b820191906000526020600020905b81548152906001019060200180831161153557829003601f168201915b505050505081565b6115626120c2565b60008110156115a6576040517f08c379a000000000000000000000000000000000000000000000000000000000815260040161159d90614d58565b60405180910390fd5b8060108190555050565b601260019054906101000a900473ffffffffffffffffffffffffffffffffffffffff1673ffffffffffffffffffffffffffffffffffffffff163373ffffffffffffffffffffffffffffffffffffffff1614611640576040517f08c379a000000000000000000000000000000000000000000000000000000000815260040161163790614dc4565b60405180910390fd5b61164981612676565b50565b60008073ffffffffffffffffffffffffffffffffffffffff168273ffffffffffffffffffffffffffffffffffffffff16036116bc576040517f08c379a00000000000000000000000000000000000000000000000000000000081526004016116b390614e56565b60405180910390fd5b600360008373ffffffffffffffffffffffffffffffffffffffff1673ffffffffffffffffffffffffffffffffffffffff168152602001908152602001600020549050919050565b61170b6120c2565b6117156000612763565b565b6000601560009054906101000a900473ffffffffffffffffffffffffffffffffffffffff1673ffffffffffffffffffffffffffffffffffffffff1663dd62ed3e83306040518363ffffffff1660e01b8152600401611776929190614e76565b602060405180830381865afa158015611793573d6000803e3d6000fd5b505050506040513d601f19601f820116820180604052508101906117b79190614eb4565b9050919050565b6117c66120c2565b6117ce612829565b565b6117d86120c2565b6117e0612872565b565b601260019054906101000a900473ffffffffffffffffffffffffffffffffffffffff1673ffffffffffffffffffffffffffffffffffffffff163373ffffffffffffffffffffffffffffffffffffffff1614611872576040517f08c379a000000000000000000000000000000000000000000000000000000000815260040161186990614f53565b60405180910390fd5b61188d838383604051806020016040528060008152506128d5565b505050565b6000600b60019054906101000a900473ffffffffffffffffffffffffffffffffffffffff16905090565b6060600180546118cb90614591565b80601f01602080910402602001604051908101604052809291908181526020018280546118f790614591565b80156119445780601f1061191957610100808354040283529160200191611944565b820191906000526020600020905b81548152906001019060200180831161192757829003601f168201915b5050505050905090565b6000611958612001565b73ffffffffffffffffffffffffffffffffffffffff16611976611892565b73ffffffffffffffffffffffffffffffffffffffff160361199a57600190506119ea565b600c60008373ffffffffffffffffffffffffffffffffffffffff1673ffffffffffffffffffffffffffffffffffffffff16815260200190815260200160002060009054906101000a900460ff1690505b919050565b6119f76120c2565b818160149182611a08929190615120565b505050565b611a1f611a18612001565b8383612931565b5050565b601260009054906101000a900460ff1681565b600c6020528060005260406000206000915054906101000a900460ff1681565b601360009054906101000a900473ffffffffffffffffffffffffffffffffffffffff1681565b611a8d611a87612001565b83612140565b611acc576040517f08c379a0000000000000000000000000000000000000000000000000000000008152600401611ac3906147c3565b60405180910390fd5b611ad8848484846128d5565b50505050565b6000601560009054906101000a900473ffffffffffffffffffffffffffffffffffffffff1673ffffffffffffffffffffffffffffffffffffffff1663095ea7b330846040518363ffffffff1660e01b8152600401611b3d9291906146e6565b6020604051808303816000875af1158015611b5c573d6000803e3d6000fd5b505050506040513d601f19601f82011682018060405250810190611b809190614724565b9050919050565b6060611b9282611fb6565b6000611b9c612a9d565b9050601260009054906101000a900460ff1615611bc757600081511115611bc65780915050611bd4565b5b611bd083612b2f565b9150505b919050565b611be16120c2565b6000811015611c25576040517f08c379a0000000000000000000000000000000000000000000000000000000008152600401611c1c9061523c565b60405180910390fd5b8060118190555050565b60105481565b611c3d6120c2565b611c45612c41565b565b6000600560008473ffffffffffffffffffffffffffffffffffffffff1673ffffffffffffffffffffffffffffffffffffffff16815260200190815260200160002060008373ffffffffffffffffffffffffffffffffffffffff1673ffffffffffffffffffffffffffffffffffffffff16815260200190815260200160002060009054906101000a900460ff16905092915050565b611ce36120c2565b80600f8190555050565b600d60009054906101000a900460ff1615611d5257611d12611d0d612001565b610a3e565b611d51576040517f08c379a0000000000000000000000000000000000000000000000000000000008152600401611d48906149f2565b60405180910390fd5b5b601054611d5d610de8565b10611d9d576040517f08c379a0000000000000000000000000000000000000000000000000000000008152600401611d9490614b53565b60405180910390fd5b6000601560009054906101000a900473ffffffffffffffffffffffffffffffffffffffff1673ffffffffffffffffffffffffffffffffffffffff166323b872dd3330600f546040518463ffffffff1660e01b8152600401611e0093929190614bb5565b6020604051808303816000875af1158015611e1f573d6000803e3d6000fd5b505050506040513d601f19601f82011682018060405250810190611e439190614724565b905080611e85576040517f08c379a0000000000000000000000000000000000000000000000000000000008152600401611e7c90614c38565b60405180910390fd5b6000611e91600e612634565b9050611e9d600e612642565b611ea78382612658565b505050565b611eb46120c2565b600073ffffffffffffffffffffffffffffffffffffffff168173ffffffffffffffffffffffffffffffffffffffff1603611f23576040517f08c379a0000000000000000000000000000000000000000000000000000000008152600401611f1a906152ce565b60405180910390fd5b611f2c81612763565b50565b601560009054906101000a900473ffffffffffffffffffffffffffffffffffffffff1681565b6000634906490660e01b7bffffffffffffffffffffffffffffffffffffffffffffffffffffffff1916827bffffffffffffffffffffffffffffffffffffffffffffffffffffffff19161480611faf5750611fae82612c8a565b5b9050919050565b611fbf81612d04565b611ffe576040517f08c379a0000000000000000000000000000000000000000000000000000000008152600401611ff590614cec565b60405180910390fd5b50565b600033905090565b816004600083815260200190815260200160002060006101000a81548173ffffffffffffffffffffffffffffffffffffffff021916908373ffffffffffffffffffffffffffffffffffffffff160217905550808273ffffffffffffffffffffffffffffffffffffffff1661207c836113fa565b73ffffffffffffffffffffffffffffffffffffffff167f8c5be1e5ebec7d5bd14f71427d1e84f3dd0314c0f7b2291e5b200ac8c7c3b92560405160405180910390a45050565b6120ca612001565b73ffffffffffffffffffffffffffffffffffffffff166120e8611892565b73ffffffffffffffffffffffffffffffffffffffff161461213e576040517f08c379a00000000000000000000000000000000000000000000000000000000081526004016121359061533a565b60405180910390fd5b565b60008061214c836113fa565b90508073ffffffffffffffffffffffffffffffffffffffff168473ffffffffffffffffffffffffffffffffffffffff16148061218e575061218d8185611c47565b5b806121cc57508373ffffffffffffffffffffffffffffffffffffffff166121b484610b26565b73ffffffffffffffffffffffffffffffffffffffff16145b91505092915050565b8273ffffffffffffffffffffffffffffffffffffffff166121f5826113fa565b73ffffffffffffffffffffffffffffffffffffffff161461224b576040517f08c379a0000000000000000000000000000000000000000000000000000000008152600401612242906153cc565b60405180910390fd5b600073ffffffffffffffffffffffffffffffffffffffff168273ffffffffffffffffffffffffffffffffffffffff16036122ba576040517f08c379a00000000000000000000000000000000000000000000000000000000081526004016122b19061545e565b60405180910390fd5b6122c78383836001612d45565b8273ffffffffffffffffffffffffffffffffffffffff166122e7826113fa565b73ffffffffffffffffffffffffffffffffffffffff161461233d576040517f08c379a0000000000000000000000000000000000000000000000000000000008152600401612334906153cc565b60405180910390fd5b6004600082815260200190815260200160002060006101000a81549073ffffffffffffffffffffffffffffffffffffffff02191690556001600360008573ffffffffffffffffffffffffffffffffffffffff1673ffffffffffffffffffffffffffffffffffffffff168152602001908152602001600020600082825403925050819055506001600360008473ffffffffffffffffffffffffffffffffffffffff1673ffffffffffffffffffffffffffffffffffffffff16815260200190815260200160002060008282540192505081905550816002600083815260200190815260200160002060006101000a81548173ffffffffffffffffffffffffffffffffffffffff021916908373ffffffffffffffffffffffffffffffffffffffff160217905550808273ffffffffffffffffffffffffffffffffffffffff168473ffffffffffffffffffffffffffffffffffffffff167fddf252ad1be2c89b69c2b068fc378daa952ba7f163c4a11628f55a4df523b3ef60405160405180910390a46124c98383836001612d5f565b505050565b600073ffffffffffffffffffffffffffffffffffffffff168273ffffffffffffffffffffffffffffffffffffffff160361253d576040517f08c379a0000000000000000000000000000000000000000000000000000000008152600401612534906154f0565b60405180910390fd5b80600c60008473ffffffffffffffffffffffffffffffffffffffff1673ffffffffffffffffffffffffffffffffffffffff16815260200190815260200160002060006101000a81548160ff0219169083151502179055507f01883a2ded2d11a676263b3edca3878eec2c68618ae55db0314bebd4b9561b2382826040516125c5929190615510565b60405180910390a15050565b6125d9612d65565b6000600b60006101000a81548160ff0219169083151502179055507f5db9ee0a495bf2e6ff9c91a7834c1ba4fdd244a5e8aa4e537bd38aeae4b073aa61261d612001565b60405161262a9190613ed5565b60405180910390a1565b600081600001549050919050565b6001816000016000828254019250508190555050565b612672828260405180602001604052806000815250612dae565b5050565b61267f81612e09565b50565b61268b82612d04565b6126ca576040517f08c379a00000000000000000000000000000000000000000000000000000000081526004016126c1906155ab565b60405180910390fd5b80600a600084815260200190815260200160002090816126ea91906155cb565b507ff8e1a15aba9398e019f0b49df1a4fde98ee17ae345cb5f6b5e2c27f5033e8ce78260405161271a9190613f3f565b60405180910390a15050565b60006002600083815260200190815260200160002060009054906101000a900473ffffffffffffffffffffffffffffffffffffffff169050919050565b6000600b60019054906101000a900473ffffffffffffffffffffffffffffffffffffffff16905081600b60016101000a81548173ffffffffffffffffffffffffffffffffffffffff021916908373ffffffffffffffffffffffffffffffffffffffff1602179055508173ffffffffffffffffffffffffffffffffffffffff168173ffffffffffffffffffffffffffffffffffffffff167f8be0079c531659141344cd1fd0a4f28419497f9722a3daafe3b4186f6b6457e060405160405180910390a35050565b6000600d60006101000a81548160ff0219169083151502179055507f17deb57f2c665512f91ec43836987faa802c8cd173a69f704a39155e48a40a2560405160405180910390a1565b61287a612e5c565b6001600b60006101000a81548160ff0219169083151502179055507f62e78cea01bee320cd4e420270b5ea74000d11b0c9f74754ebdbfc544b05a2586128be612001565b6040516128cb9190613ed5565b60405180910390a1565b6128e08484846121d5565b6128ec84848484612ea6565b61292b576040517f08c379a00000000000000000000000000000000000000000000000000000000081526004016129229061570f565b60405180910390fd5b50505050565b8173ffffffffffffffffffffffffffffffffffffffff168373ffffffffffffffffffffffffffffffffffffffff160361299f576040517f08c379a00000000000000000000000000000000000000000000000000000000081526004016129969061577b565b60405180910390fd5b80600560008573ffffffffffffffffffffffffffffffffffffffff1673ffffffffffffffffffffffffffffffffffffffff16815260200190815260200160002060008473ffffffffffffffffffffffffffffffffffffffff1673ffffffffffffffffffffffffffffffffffffffff16815260200190815260200160002060006101000a81548160ff0219169083151502179055508173ffffffffffffffffffffffffffffffffffffffff168373ffffffffffffffffffffffffffffffffffffffff167f17307eab39ab6107e8899845ad3d59bd9653f200f220920489ca2b5937696c3183604051612a909190613d0b565b60405180910390a3505050565b606060148054612aac90614591565b80601f0160208091040260200160405190810160405280929190818152602001828054612ad890614591565b8015612b255780601f10612afa57610100808354040283529160200191612b25565b820191906000526020600020905b815481529060010190602001808311612b0857829003601f168201915b5050505050905090565b6060612b3a82611fb6565b6000600a60008481526020019081526020016000208054612b5a90614591565b80601f0160208091040260200160405190810160405280929190818152602001828054612b8690614591565b8015612bd35780601f10612ba857610100808354040283529160200191612bd3565b820191906000526020600020905b815481529060010190602001808311612bb657829003601f168201915b505050505090506000612be4612a9d565b90506000815103612bf9578192505050612c3c565b600082511115612c2e578082604051602001612c169291906157d7565b60405160208183030381529060405292505050612c3c565b612c378461302d565b925050505b919050565b6001600d60006101000a81548160ff0219169083151502179055507ff1917d42b61041c8a637919d5c23a9a559d72e57633d21cfe88c46b0fa01b6b960405160405180910390a1565b60007f780e9d63000000000000000000000000000000000000000000000000000000007bffffffffffffffffffffffffffffffffffffffffffffffffffffffff1916827bffffffffffffffffffffffffffffffffffffffffffffffffffffffff19161480612cfd5750612cfc82613095565b5b9050919050565b60008073ffffffffffffffffffffffffffffffffffffffff16612d2683612726565b73ffffffffffffffffffffffffffffffffffffffff1614159050919050565b612d4d612e5c565b612d5984848484613177565b50505050565b50505050565b612d6d6113e3565b612dac576040517f08c379a0000000000000000000000000000000000000000000000000000000008152600401612da390615847565b60405180910390fd5b565b612db883836132d5565b612dc56000848484612ea6565b612e04576040517f08c379a0000000000000000000000000000000000000000000000000000000008152600401612dfb9061570f565b60405180910390fd5b505050565b612e12816134f2565b6000600a60008381526020019081526020016000208054612e3290614591565b905014612e5957600a60008281526020019081526020016000206000612e589190613bfa565b5b50565b612e646113e3565b15612ea4576040517f08c379a0000000000000000000000000000000000000000000000000000000008152600401612e9b906158b3565b60405180910390fd5b565b6000612ec78473ffffffffffffffffffffffffffffffffffffffff16613640565b15613020578373ffffffffffffffffffffffffffffffffffffffff1663150b7a02612ef0612001565b8786866040518563ffffffff1660e01b8152600401612f129493929190615928565b6020604051808303816000875af1925050508015612f4e57506040513d601f19601f82011682018060405250810190612f4b9190615989565b60015b612fd0573d8060008114612f7e576040519150601f19603f3d011682016040523d82523d6000602084013e612f83565b606091505b506000815103612fc8576040517f08c379a0000000000000000000000000000000000000000000000000000000008152600401612fbf9061570f565b60405180910390fd5b805181602001fd5b63150b7a0260e01b7bffffffffffffffffffffffffffffffffffffffffffffffffffffffff1916817bffffffffffffffffffffffffffffffffffffffffffffffffffffffff191614915050613025565b600190505b949350505050565b606061303882611fb6565b6000613042612a9d565b90506000815111613062576040518060200160405280600081525061308d565b8061306c84613663565b60405160200161307d9291906157d7565b6040516020818303038152906040525b915050919050565b60007f80ac58cd000000000000000000000000000000000000000000000000000000007bffffffffffffffffffffffffffffffffffffffffffffffffffffffff1916827bffffffffffffffffffffffffffffffffffffffffffffffffffffffff1916148061316057507f5b5e139f000000000000000000000000000000000000000000000000000000007bffffffffffffffffffffffffffffffffffffffffffffffffffffffff1916827bffffffffffffffffffffffffffffffffffffffffffffffffffffffff1916145b80613170575061316f82613731565b5b9050919050565b6131838484848461379b565b60018111156131c7576040517f08c379a00000000000000000000000000000000000000000000000000000000081526004016131be90615a28565b60405180910390fd5b6000829050600073ffffffffffffffffffffffffffffffffffffffff168573ffffffffffffffffffffffffffffffffffffffff160361320e57613209816137a1565b61324d565b8373ffffffffffffffffffffffffffffffffffffffff168573ffffffffffffffffffffffffffffffffffffffff161461324c5761324b85826137ea565b5b5b600073ffffffffffffffffffffffffffffffffffffffff168473ffffffffffffffffffffffffffffffffffffffff160361328f5761328a81613957565b6132ce565b8473ffffffffffffffffffffffffffffffffffffffff168473ffffffffffffffffffffffffffffffffffffffff16146132cd576132cc8482613a28565b5b5b5050505050565b600073ffffffffffffffffffffffffffffffffffffffff168273ffffffffffffffffffffffffffffffffffffffff1603613344576040517f08c379a000000000000000000000000000000000000000000000000000000000815260040161333b90615a94565b60405180910390fd5b61334d81612d04565b1561338d576040517f08c379a000000000000000000000000000000000000000000000000000000000815260040161338490615b00565b60405180910390fd5b61339b600083836001612d45565b6133a481612d04565b156133e4576040517f08c379a00000000000000000000000000000000000000000000000000000000081526004016133db90615b00565b60405180910390fd5b6001600360008473ffffffffffffffffffffffffffffffffffffffff1673ffffffffffffffffffffffffffffffffffffffff16815260200190815260200160002060008282540192505081905550816002600083815260200190815260200160002060006101000a81548173ffffffffffffffffffffffffffffffffffffffff021916908373ffffffffffffffffffffffffffffffffffffffff160217905550808273ffffffffffffffffffffffffffffffffffffffff16600073ffffffffffffffffffffffffffffffffffffffff167fddf252ad1be2c89b69c2b068fc378daa952ba7f163c4a11628f55a4df523b3ef60405160405180910390a46134ee600083836001612d5f565b5050565b60006134fd826113fa565b905061350d816000846001612d45565b613516826113fa565b90506004600083815260200190815260200160002060006101000a81549073ffffffffffffffffffffffffffffffffffffffff02191690556001600360008373ffffffffffffffffffffffffffffffffffffffff1673ffffffffffffffffffffffffffffffffffffffff168152602001908152602001600020600082825403925050819055506002600083815260200190815260200160002060006101000a81549073ffffffffffffffffffffffffffffffffffffffff021916905581600073ffffffffffffffffffffffffffffffffffffffff168273ffffffffffffffffffffffffffffffffffffffff167fddf252ad1be2c89b69c2b068fc378daa952ba7f163c4a11628f55a4df523b3ef60405160405180910390a461363c816000846001612d5f565b5050565b6000808273ffffffffffffffffffffffffffffffffffffffff163b119050919050565b60606000600161367284613aa7565b01905060008167ffffffffffffffff81111561369157613690614126565b5b6040519080825280601f01601f1916602001820160405280156136c35781602001600182028036833780820191505090505b509050600082602001820190505b600115613726578080600190039150507f3031323334353637383961626364656600000000000000000000000000000000600a86061a8153600a858161371a57613719615b20565b5b049450600085036136d1575b819350505050919050565b60007f01ffc9a7000000000000000000000000000000000000000000000000000000007bffffffffffffffffffffffffffffffffffffffffffffffffffffffff1916827bffffffffffffffffffffffffffffffffffffffffffffffffffffffff1916149050919050565b50505050565b6008805490506009600083815260200190815260200160002081905550600881908060018154018082558091505060019003906000526020600020016000909190919091505550565b600060016137f78461164c565b6138019190615b4f565b90506000600760008481526020019081526020016000205490508181146138e6576000600660008673ffffffffffffffffffffffffffffffffffffffff1673ffffffffffffffffffffffffffffffffffffffff168152602001908152602001600020600084815260200190815260200160002054905080600660008773ffffffffffffffffffffffffffffffffffffffff1673ffffffffffffffffffffffffffffffffffffffff168152602001908152602001600020600084815260200190815260200160002081905550816007600083815260200190815260200160002081905550505b6007600084815260200190815260200160002060009055600660008573ffffffffffffffffffffffffffffffffffffffff1673ffffffffffffffffffffffffffffffffffffffff16815260200190815260200160002060008381526020019081526020016000206000905550505050565b6000600160088054905061396b9190615b4f565b905060006009600084815260200190815260200160002054905060006008838154811061399b5761399a614951565b5b9060005260206000200154905080600883815481106139bd576139bc614951565b5b906000526020600020018190555081600960008381526020019081526020016000208190555060096000858152602001908152602001600020600090556008805480613a0c57613a0b615b83565b5b6001900381819060005260206000200160009055905550505050565b6000613a338361164c565b905081600660008573ffffffffffffffffffffffffffffffffffffffff1673ffffffffffffffffffffffffffffffffffffffff168152602001908152602001600020600083815260200190815260200160002081905550806007600084815260200190815260200160002081905550505050565b600080600090507a184f03e93ff9f4daa797ed6e38ed64bf6a1f0100000000000000008310613b05577a184f03e93ff9f4daa797ed6e38ed64bf6a1f0100000000000000008381613afb57613afa615b20565b5b0492506040810190505b6d04ee2d6d415b85acef81000000008310613b42576d04ee2d6d415b85acef81000000008381613b3857613b37615b20565b5b0492506020810190505b662386f26fc100008310613b7157662386f26fc100008381613b6757613b66615b20565b5b0492506010810190505b6305f5e1008310613b9a576305f5e1008381613b9057613b8f615b20565b5b0492506008810190505b6127108310613bbf576127108381613bb557613bb4615b20565b5b0492506004810190505b60648310613be25760648381613bd857613bd7615b20565b5b0492506002810190505b600a8310613bf1576001810190505b80915050919050565b508054613c0690614591565b6000825580601f10613c185750613c37565b601f016020900490600052602060002090810190613c369190613c3a565b5b50565b5b80821115613c53576000816000905550600101613c3b565b5090565b6000604051905090565b600080fd5b600080fd5b60007fffffffff0000000000000000000000000000000000000000000000000000000082169050919050565b613ca081613c6b565b8114613cab57600080fd5b50565b600081359050613cbd81613c97565b92915050565b600060208284031215613cd957613cd8613c61565b5b6000613ce784828501613cae565b91505092915050565b60008115159050919050565b613d0581613cf0565b82525050565b6000602082019050613d206000830184613cfc565b92915050565b600073ffffffffffffffffffffffffffffffffffffffff82169050919050565b6000613d5182613d26565b9050919050565b613d6181613d46565b8114613d6c57600080fd5b50565b600081359050613d7e81613d58565b92915050565b600060208284031215613d9a57613d99613c61565b5b6000613da884828501613d6f565b91505092915050565b600081519050919050565b600082825260208201905092915050565b60005b83811015613deb578082015181840152602081019050613dd0565b60008484015250505050565b6000601f19601f8301169050919050565b6000613e1382613db1565b613e1d8185613dbc565b9350613e2d818560208601613dcd565b613e3681613df7565b840191505092915050565b60006020820190508181036000830152613e5b8184613e08565b905092915050565b6000819050919050565b613e7681613e63565b8114613e8157600080fd5b50565b600081359050613e9381613e6d565b92915050565b600060208284031215613eaf57613eae613c61565b5b6000613ebd84828501613e84565b91505092915050565b613ecf81613d46565b82525050565b6000602082019050613eea6000830184613ec6565b92915050565b60008060408385031215613f0757613f06613c61565b5b6000613f1585828601613d6f565b9250506020613f2685828601613e84565b9150509250929050565b613f3981613e63565b82525050565b6000602082019050613f546000830184613f30565b92915050565b6000613f6582613d26565b9050919050565b613f7581613f5a565b8114613f8057600080fd5b50565b600081359050613f9281613f6c565b92915050565b600060208284031215613fae57613fad613c61565b5b6000613fbc84828501613f83565b91505092915050565b6000613fd082613d46565b9050919050565b613fe081613fc5565b8114613feb57600080fd5b50565b600081359050613ffd81613fd7565b92915050565b60006020828403121561401957614018613c61565b5b600061402784828501613fee565b91505092915050565b60008060006060848603121561404957614048613c61565b5b600061405786828701613d6f565b935050602061406886828701613d6f565b925050604061407986828701613e84565b9150509250925092565b61408c81613cf0565b811461409757600080fd5b50565b6000813590506140a981614083565b92915050565b600080604083850312156140c6576140c5613c61565b5b60006140d485828601613d6f565b92505060206140e58582860161409a565b9150509250929050565b60006020828403121561410557614104613c61565b5b60006141138482850161409a565b91505092915050565b600080fd5b600080fd5b7f4e487b7100000000000000000000000000000000000000000000000000000000600052604160045260246000fd5b61415e82613df7565b810181811067ffffffffffffffff8211171561417d5761417c614126565b5b80604052505050565b6000614190613c57565b905061419c8282614155565b919050565b600067ffffffffffffffff8211156141bc576141bb614126565b5b6141c582613df7565b9050602081019050919050565b82818337600083830152505050565b60006141f46141ef846141a1565b614186565b9050828152602081018484840111156142105761420f614121565b5b61421b8482856141d2565b509392505050565b600082601f8301126142385761423761411c565b5b81356142488482602086016141e1565b91505092915050565b6000806040838503121561426857614267613c61565b5b600061427685828601613d6f565b925050602083013567ffffffffffffffff81111561429757614296613c66565b5b6142a385828601614223565b9150509250929050565b600080fd5b600080fd5b60008083601f8401126142cd576142cc61411c565b5b8235905067ffffffffffffffff8111156142ea576142e96142ad565b5b602083019150836001820283011115614306576143056142b2565b5b9250929050565b6000806020838503121561432457614323613c61565b5b600083013567ffffffffffffffff81111561434257614341613c66565b5b61434e858286016142b7565b92509250509250929050565b61436381613f5a565b82525050565b600060208201905061437e600083018461435a565b92915050565b600067ffffffffffffffff82111561439f5761439e614126565b5b6143a882613df7565b9050602081019050919050565b60006143c86143c384614384565b614186565b9050828152602081018484840111156143e4576143e3614121565b5b6143ef8482856141d2565b509392505050565b600082601f83011261440c5761440b61411c565b5b813561441c8482602086016143b5565b91505092915050565b6000806000806080858703121561443f5761443e613c61565b5b600061444d87828801613d6f565b945050602061445e87828801613d6f565b935050604061446f87828801613e84565b925050606085013567ffffffffffffffff8111156144905761448f613c66565b5b61449c878288016143f7565b91505092959194509250565b600080604083850312156144bf576144be613c61565b5b60006144cd85828601613d6f565b92505060206144de85828601613d6f565b9150509250929050565b6000819050919050565b600061450d61450861450384613d26565b6144e8565b613d26565b9050919050565b600061451f826144f2565b9050919050565b600061453182614514565b9050919050565b61454181614526565b82525050565b600060208201905061455c6000830184614538565b92915050565b7f4e487b7100000000000000000000000000000000000000000000000000000000600052602260045260246000fd5b600060028204905060018216806145a957607f821691505b6020821081036145bc576145bb614562565b5b50919050565b7f4552433732313a20617070726f76616c20746f2063757272656e74206f776e6560008201527f7200000000000000000000000000000000000000000000000000000000000000602082015250565b600061461e602183613dbc565b9150614629826145c2565b604082019050919050565b6000602082019050818103600083015261464d81614611565b9050919050565b7f4552433732313a20617070726f76652063616c6c6572206973206e6f7420746f60008201527f6b656e206f776e6572206f7220617070726f76656420666f7220616c6c000000602082015250565b60006146b0603d83613dbc565b91506146bb82614654565b604082019050919050565b600060208201905081810360008301526146df816146a3565b9050919050565b60006040820190506146fb6000830185613ec6565b6147086020830184613f30565b9392505050565b60008151905061471e81614083565b92915050565b60006020828403121561473a57614739613c61565b5b60006147488482850161470f565b91505092915050565b7f4552433732313a2063616c6c6572206973206e6f7420746f6b656e206f776e6560008201527f72206f7220617070726f76656400000000000000000000000000000000000000602082015250565b60006147ad602d83613dbc565b91506147b882614751565b604082019050919050565b600060208201905081810360008301526147dc816147a0565b9050919050565b60006147ee82614514565b9050919050565b6147fe816147e3565b82525050565b600060408201905061481960008301856147f5565b6148266020830184613f30565b9392505050565b7f455243373231456e756d657261626c653a206f776e657220696e646578206f7560008201527f74206f6620626f756e6473000000000000000000000000000000000000000000602082015250565b6000614889602b83613dbc565b91506148948261482d565b604082019050919050565b600060208201905081810360008301526148b88161487c565b9050919050565b7f455243373231456e756d657261626c653a20676c6f62616c20696e646578206f60008201527f7574206f6620626f756e64730000000000000000000000000000000000000000602082015250565b600061491b602c83613dbc565b9150614926826148bf565b604082019050919050565b6000602082019050818103600083015261494a8161490e565b9050919050565b7f4e487b7100000000000000000000000000000000000000000000000000000000600052603260045260246000fd5b7f416c6c6c6f776c6973744f776e65723a2063616c6c6572206973206e6f74206960008201527f6e2074686520416c6c6f774c6973740000000000000000000000000000000000602082015250565b60006149dc602f83613dbc565b91506149e782614980565b604082019050919050565b60006020820190508181036000830152614a0b816149cf565b9050919050565b7f616d6f756e74206d757374206265206c657373207468616e206f72206571756160008201527f6c20746f20746865206d617842617463684d696e746564000000000000000000602082015250565b6000614a6e603783613dbc565b9150614a7982614a12565b604082019050919050565b60006020820190508181036000830152614a9d81614a61565b9050919050565b7f4e487b7100000000000000000000000000000000000000000000000000000000600052601160045260246000fd5b6000614ade82613e63565b9150614ae983613e63565b9250828201905080821115614b0157614b00614aa4565b5b92915050565b7f4d617820737570706c7920726561636865640000000000000000000000000000600082015250565b6000614b3d601283613dbc565b9150614b4882614b07565b602082019050919050565b60006020820190508181036000830152614b6c81614b30565b9050919050565b6000614b7e82613e63565b9150614b8983613e63565b9250828202614b9781613e63565b91508282048414831517614bae57614bad614aa4565b5b5092915050565b6000606082019050614bca6000830186613ec6565b614bd76020830185613ec6565b614be46040830184613f30565b949350505050565b7f4661696c656420746f207472616e7366657220746f6b656e7300000000000000600082015250565b6000614c22601983613dbc565b9150614c2d82614bec565b602082019050919050565b60006020820190508181036000830152614c5181614c15565b9050919050565b6000614c6382613e63565b91507fffffffffffffffffffffffffffffffffffffffffffffffffffffffffffffffff8203614c9557614c94614aa4565b5b600182019050919050565b7f4552433732313a20696e76616c696420746f6b656e2049440000000000000000600082015250565b6000614cd6601883613dbc565b9150614ce182614ca0565b602082019050919050565b60006020820190508181036000830152614d0581614cc9565b9050919050565b7f4e65656420612076616c6964206e6577206d617820737570706c790000000000600082015250565b6000614d42601b83613dbc565b9150614d4d82614d0c565b602082019050919050565b60006020820190508181036000830152614d7181614d35565b9050919050565b7f63616c6c6572206973206e6f7420617574686f72697a656420746f206275726e600082015250565b6000614dae602083613dbc565b9150614db982614d78565b602082019050919050565b60006020820190508181036000830152614ddd81614da1565b9050919050565b7f4552433732313a2061646472657373207a65726f206973206e6f74206120766160008201527f6c6964206f776e65720000000000000000000000000000000000000000000000602082015250565b6000614e40602983613dbc565b9150614e4b82614de4565b604082019050919050565b60006020820190508181036000830152614e6f81614e33565b9050919050565b6000604082019050614e8b6000830185613ec6565b614e986020830184613ec6565b9392505050565b600081519050614eae81613e6d565b92915050565b600060208284031215614eca57614ec9613c61565b5b6000614ed884828501614e9f565b91505092915050565b7f63616c6c6572206973206e6f7420617574686f72697a656420746f207472616e60008201527f7366657200000000000000000000000000000000000000000000000000000000602082015250565b6000614f3d602483613dbc565b9150614f4882614ee1565b604082019050919050565b60006020820190508181036000830152614f6c81614f30565b9050919050565b600082905092915050565b60008190508160005260206000209050919050565b60006020601f8301049050919050565b600082821b905092915050565b600060088302614fe07fffffffffffffffffffffffffffffffffffffffffffffffffffffffffffffffff82614fa3565b614fea8683614fa3565b95508019841693508086168417925050509392505050565b600061501d61501861501384613e63565b6144e8565b613e63565b9050919050565b6000819050919050565b61503783615002565b61504b61504382615024565b848454614fb0565b825550505050565b600090565b615060615053565b61506b81848461502e565b505050565b5b8181101561508f57615084600082615058565b600181019050615071565b5050565b601f8211156150d4576150a581614f7e565b6150ae84614f93565b810160208510156150bd578190505b6150d16150c985614f93565b830182615070565b50505b505050565b600082821c905092915050565b60006150f7600019846008026150d9565b1980831691505092915050565b600061511083836150e6565b9150826002028217905092915050565b61512a8383614f73565b67ffffffffffffffff81111561514357615142614126565b5b61514d8254614591565b615158828285615093565b6000601f8311600181146151875760008415615175578287013590505b61517f8582615104565b8655506151e7565b601f19841661519586614f7e565b60005b828110156151bd57848901358255600182019150602085019450602081019050615198565b868310156151da57848901356151d6601f8916826150e6565b8355505b6001600288020188555050505b50505050505050565b7f4e65656420612076616c6964206e6577206d6178206d696e74206c696d697400600082015250565b6000615226601f83613dbc565b9150615231826151f0565b602082019050919050565b6000602082019050818103600083015261525581615219565b9050919050565b7f4f776e61626c653a206e6577206f776e657220697320746865207a65726f206160008201527f6464726573730000000000000000000000000000000000000000000000000000602082015250565b60006152b8602683613dbc565b91506152c38261525c565b604082019050919050565b600060208201905081810360008301526152e7816152ab565b9050919050565b7f4f776e61626c653a2063616c6c6572206973206e6f7420746865206f776e6572600082015250565b6000615324602083613dbc565b915061532f826152ee565b602082019050919050565b6000602082019050818103600083015261535381615317565b9050919050565b7f4552433732313a207472616e736665722066726f6d20696e636f72726563742060008201527f6f776e6572000000000000000000000000000000000000000000000000000000602082015250565b60006153b6602583613dbc565b91506153c18261535a565b604082019050919050565b600060208201905081810360008301526153e5816153a9565b9050919050565b7f4552433732313a207472616e7366657220746f20746865207a65726f2061646460008201527f7265737300000000000000000000000000000000000000000000000000000000602082015250565b6000615448602483613dbc565b9150615453826153ec565b604082019050919050565b600060208201905081810360008301526154778161543b565b9050919050565b7f416c6c6c6f776c6973744f776e65723a204e65656420612076616c696420616460008201527f6472657373000000000000000000000000000000000000000000000000000000602082015250565b60006154da602583613dbc565b91506154e58261547e565b604082019050919050565b60006020820190508181036000830152615509816154cd565b9050919050565b60006040820190506155256000830185613ec6565b6155326020830184613cfc565b9392505050565b7f45524337323155524953746f726167653a2055524920736574206f66206e6f6e60008201527f6578697374656e7420746f6b656e000000000000000000000000000000000000602082015250565b6000615595602e83613dbc565b91506155a082615539565b604082019050919050565b600060208201905081810360008301526155c481615588565b9050919050565b6155d482613db1565b67ffffffffffffffff8111156155ed576155ec614126565b5b6155f78254614591565b615602828285615093565b600060209050601f8311600181146156355760008415615623578287015190505b61562d8582615104565b865550615695565b601f19841661564386614f7e565b60005b8281101561566b57848901518255600182019150602085019450602081019050615646565b868310156156885784890151615684601f8916826150e6565b8355505b6001600288020188555050505b505050505050565b7f4552433732313a207472616e7366657220746f206e6f6e20455243373231526560008201527f63656976657220696d706c656d656e7465720000000000000000000000000000602082015250565b60006156f9603283613dbc565b91506157048261569d565b604082019050919050565b60006020820190508181036000830152615728816156ec565b9050919050565b7f4552433732313a20617070726f766520746f2063616c6c657200000000000000600082015250565b6000615765601983613dbc565b91506157708261572f565b602082019050919050565b6000602082019050818103600083015261579481615758565b9050919050565b600081905092915050565b60006157b182613db1565b6157bb818561579b565b93506157cb818560208601613dcd565b80840191505092915050565b60006157e382856157a6565b91506157ef82846157a6565b91508190509392505050565b7f5061757361626c653a206e6f7420706175736564000000000000000000000000600082015250565b6000615831601483613dbc565b915061583c826157fb565b602082019050919050565b6000602082019050818103600083015261586081615824565b9050919050565b7f5061757361626c653a2070617573656400000000000000000000000000000000600082015250565b600061589d601083613dbc565b91506158a882615867565b602082019050919050565b600060208201905081810360008301526158cc81615890565b9050919050565b600081519050919050565b600082825260208201905092915050565b60006158fa826158d3565b61590481856158de565b9350615914818560208601613dcd565b61591d81613df7565b840191505092915050565b600060808201905061593d6000830187613ec6565b61594a6020830186613ec6565b6159576040830185613f30565b818103606083015261596981846158ef565b905095945050505050565b60008151905061598381613c97565b92915050565b60006020828403121561599f5761599e613c61565b5b60006159ad84828501615974565b91505092915050565b7f455243373231456e756d657261626c653a20636f6e736563757469766520747260008201527f616e7366657273206e6f7420737570706f727465640000000000000000000000602082015250565b6000615a12603583613dbc565b9150615a1d826159b6565b604082019050919050565b60006020820190508181036000830152615a4181615a05565b9050919050565b7f4552433732313a206d696e7420746f20746865207a65726f2061646472657373600082015250565b6000615a7e602083613dbc565b9150615a8982615a48565b602082019050919050565b60006020820190508181036000830152615aad81615a71565b9050919050565b7f4552433732313a20746f6b656e20616c7265616479206d696e74656400000000600082015250565b6000615aea601c83613dbc565b9150615af582615ab4565b602082019050919050565b60006020820190508181036000830152615b1981615add565b9050919050565b7f4e487b7100000000000000000000000000000000000000000000000000000000600052601260045260246000fd5b6000615b5a82613e63565b9150615b6583613e63565b9250828203905081811115615b7d57615b7c614aa4565b5b92915050565b7f4e487b7100000000000000000000000000000000000000000000000000000000600052603160045260246000fdfea2646970667358221220d4cfc0fa6c00c0b2bfc3a1ef651eb7abd885881fa26f1107f13eba222efee11464736f6c63430008130033697066733a2f2f6261666b726569627270353361717136656c74706a6f746d347370617a767134326e3535356171777477636b36376d6f6e777a756f676d797a7961",
  "devdoc": {
    "events": {
      "Approval(address,address,uint256)": {
        "details": "Emitted when `owner` enables `approved` to manage the `tokenId` token."
      },
      "ApprovalForAll(address,address,bool)": {
        "details": "Emitted when `owner` enables or disables (`approved`) `operator` to manage all of its assets."
      },
      "BatchMetadataUpdate(uint256,uint256)": {
        "details": "This event emits when the metadata of a range of tokens is changed. So that the third-party platforms such as NFT market could timely update the images and related attributes of the NFTs."
      },
      "MetadataUpdate(uint256)": {
        "details": "This event emits when the metadata of a token is changed. So that the third-party platforms such as NFT market could timely update the images and related attributes of the NFT."
      },
      "Paused(address)": {
        "details": "Emitted when the pause is triggered by `account`."
      },
      "Transfer(address,address,uint256)": {
        "details": "Emitted when `tokenId` token is transferred from `from` to `to`."
      },
      "Unpaused(address)": {
        "details": "Emitted when the pause is lifted by `account`."
      }
    },
    "kind": "dev",
    "methods": {
      "approve(address,uint256)": {
        "details": "See {IERC721-approve}."
      },
      "balanceOf(address)": {
        "details": "See {IERC721-balanceOf}."
      },
      "burn(uint256)": {
        "details": "Burns `tokenId`. See {ERC721-_burn}. Requirements: - The caller must own `tokenId` or be an approved operator."
      },
      "getApproved(uint256)": {
        "details": "See {IERC721-getApproved}."
      },
      "isApprovedForAll(address,address)": {
        "details": "See {IERC721-isApprovedForAll}."
      },
      "name()": {
        "details": "See {IERC721Metadata-name}."
      },
      "owner()": {
        "details": "Returns the address of the current owner."
      },
      "ownerOf(uint256)": {
        "details": "See {IERC721-ownerOf}."
      },
      "paused()": {
        "details": "Returns true if the contract is paused, and false otherwise."
      },
      "renounceOwnership()": {
        "details": "Leaves the contract without owner. It will not be possible to call `onlyOwner` functions. Can only be called by the current owner. NOTE: Renouncing ownership will leave the contract without an owner, thereby disabling any functionality that is only available to the owner."
      },
      "safeTransferFrom(address,address,uint256)": {
        "details": "See {IERC721-safeTransferFrom}."
      },
      "safeTransferFrom(address,address,uint256,bytes)": {
        "details": "See {IERC721-safeTransferFrom}."
      },
      "setApprovalForAll(address,bool)": {
        "details": "See {IERC721-setApprovalForAll}."
      },
      "symbol()": {
        "details": "See {IERC721Metadata-symbol}."
      },
      "tokenByIndex(uint256)": {
        "details": "See {IERC721Enumerable-tokenByIndex}."
      },
      "tokenOfOwnerByIndex(address,uint256)": {
        "details": "See {IERC721Enumerable-tokenOfOwnerByIndex}."
      },
      "totalSupply()": {
        "details": "See {IERC721Enumerable-totalSupply}."
      },
      "transferFrom(address,address,uint256)": {
        "details": "See {IERC721-transferFrom}."
      },
      "transferOwnership(address)": {
        "details": "Transfers ownership of the contract to a new account (`newOwner`). Can only be called by the current owner."
      }
    },
    "version": 1
  },
  "userdoc": {
    "kind": "user",
    "methods": {},
    "version": 1
  },
  "storageLayout": {
    "storage": [
      {
        "astId": 352,
        "contract": "contracts/VaultNftToken.sol:VaultNftToken",
        "label": "_name",
        "offset": 0,
        "slot": "0",
        "type": "t_string_storage"
      },
      {
        "astId": 354,
        "contract": "contracts/VaultNftToken.sol:VaultNftToken",
        "label": "_symbol",
        "offset": 0,
        "slot": "1",
        "type": "t_string_storage"
      },
      {
        "astId": 358,
        "contract": "contracts/VaultNftToken.sol:VaultNftToken",
        "label": "_owners",
        "offset": 0,
        "slot": "2",
        "type": "t_mapping(t_uint256,t_address)"
      },
      {
        "astId": 362,
        "contract": "contracts/VaultNftToken.sol:VaultNftToken",
        "label": "_balances",
        "offset": 0,
        "slot": "3",
        "type": "t_mapping(t_address,t_uint256)"
      },
      {
        "astId": 366,
        "contract": "contracts/VaultNftToken.sol:VaultNftToken",
        "label": "_tokenApprovals",
        "offset": 0,
        "slot": "4",
        "type": "t_mapping(t_uint256,t_address)"
      },
      {
        "astId": 372,
        "contract": "contracts/VaultNftToken.sol:VaultNftToken",
        "label": "_operatorApprovals",
        "offset": 0,
        "slot": "5",
        "type": "t_mapping(t_address,t_mapping(t_address,t_bool))"
      },
      {
        "astId": 1432,
        "contract": "contracts/VaultNftToken.sol:VaultNftToken",
        "label": "_ownedTokens",
        "offset": 0,
        "slot": "6",
        "type": "t_mapping(t_address,t_mapping(t_uint256,t_uint256))"
      },
      {
        "astId": 1436,
        "contract": "contracts/VaultNftToken.sol:VaultNftToken",
        "label": "_ownedTokensIndex",
        "offset": 0,
        "slot": "7",
        "type": "t_mapping(t_uint256,t_uint256)"
      },
      {
        "astId": 1439,
        "contract": "contracts/VaultNftToken.sol:VaultNftToken",
        "label": "_allTokens",
        "offset": 0,
        "slot": "8",
        "type": "t_array(t_uint256)dyn_storage"
      },
      {
        "astId": 1443,
        "contract": "contracts/VaultNftToken.sol:VaultNftToken",
        "label": "_allTokensIndex",
        "offset": 0,
        "slot": "9",
        "type": "t_mapping(t_uint256,t_uint256)"
      },
      {
        "astId": 1787,
        "contract": "contracts/VaultNftToken.sol:VaultNftToken",
        "label": "_tokenURIs",
        "offset": 0,
        "slot": "10",
        "type": "t_mapping(t_uint256,t_string_storage)"
      },
      {
        "astId": 158,
        "contract": "contracts/VaultNftToken.sol:VaultNftToken",
        "label": "_paused",
        "offset": 0,
        "slot": "11",
        "type": "t_bool"
      },
      {
        "astId": 7,
        "contract": "contracts/VaultNftToken.sol:VaultNftToken",
        "label": "_owner",
        "offset": 1,
        "slot": "11",
        "type": "t_address"
      },
      {
        "astId": 3656,
        "contract": "contracts/VaultNftToken.sol:VaultNftToken",
        "label": "allowlist",
        "offset": 0,
        "slot": "12",
        "type": "t_mapping(t_address,t_bool)"
      },
      {
        "astId": 3659,
        "contract": "contracts/VaultNftToken.sol:VaultNftToken",
        "label": "allowListEnabled",
        "offset": 0,
        "slot": "13",
        "type": "t_bool"
      },
      {
        "astId": 3885,
        "contract": "contracts/VaultNftToken.sol:VaultNftToken",
        "label": "_tokenIdCounter",
        "offset": 0,
        "slot": "14",
        "type": "t_struct(Counter)2343_storage"
      },
      {
        "astId": 3888,
        "contract": "contracts/VaultNftToken.sol:VaultNftToken",
        "label": "mintFee",
        "offset": 0,
        "slot": "15",
        "type": "t_uint256"
      },
      {
        "astId": 3891,
        "contract": "contracts/VaultNftToken.sol:VaultNftToken",
        "label": "maxSupply",
        "offset": 0,
        "slot": "16",
        "type": "t_uint256"
      },
      {
        "astId": 3894,
        "contract": "contracts/VaultNftToken.sol:VaultNftToken",
        "label": "maxBatchMint",
        "offset": 0,
        "slot": "17",
        "type": "t_uint256"
      },
      {
        "astId": 3897,
        "contract": "contracts/VaultNftToken.sol:VaultNftToken",
        "label": "singleNftMeta",
        "offset": 0,
        "slot": "18",
        "type": "t_bool"
      },
      {
        "astId": 3899,
        "contract": "contracts/VaultNftToken.sol:VaultNftToken",
        "label": "redeemAuthorizer",
        "offset": 1,
        "slot": "18",
        "type": "t_address"
      },
      {
        "astId": 3901,
        "contract": "contracts/VaultNftToken.sol:VaultNftToken",
        "label": "destination",
        "offset": 0,
        "slot": "19",
        "type": "t_address_payable"
      },
      {
        "astId": 3903,
        "contract": "contracts/VaultNftToken.sol:VaultNftToken",
        "label": "baseURI",
        "offset": 0,
        "slot": "20",
        "type": "t_string_storage"
      },
      {
        "astId": 3909,
        "contract": "contracts/VaultNftToken.sol:VaultNftToken",
        "label": "token",
        "offset": 0,
        "slot": "21",
        "type": "t_contract(IERC20)326"
      }
    ],
    "types": {
      "t_address": {
        "encoding": "inplace",
        "label": "address",
        "numberOfBytes": "20"
      },
      "t_address_payable": {
        "encoding": "inplace",
        "label": "address payable",
        "numberOfBytes": "20"
      },
      "t_array(t_uint256)dyn_storage": {
        "base": "t_uint256",
        "encoding": "dynamic_array",
        "label": "uint256[]",
        "numberOfBytes": "32"
      },
      "t_bool": {
        "encoding": "inplace",
        "label": "bool",
        "numberOfBytes": "1"
      },
      "t_contract(IERC20)326": {
        "encoding": "inplace",
        "label": "contract IERC20",
        "numberOfBytes": "20"
      },
      "t_mapping(t_address,t_bool)": {
        "encoding": "mapping",
        "key": "t_address",
        "label": "mapping(address => bool)",
        "numberOfBytes": "32",
        "value": "t_bool"
      },
      "t_mapping(t_address,t_mapping(t_address,t_bool))": {
        "encoding": "mapping",
        "key": "t_address",
        "label": "mapping(address => mapping(address => bool))",
        "numberOfBytes": "32",
        "value": "t_mapping(t_address,t_bool)"
      },
      "t_mapping(t_address,t_mapping(t_uint256,t_uint256))": {
        "encoding": "mapping",
        "key": "t_address",
        "label": "mapping(address => mapping(uint256 => uint256))",
        "numberOfBytes": "32",
        "value": "t_mapping(t_uint256,t_uint256)"
      },
      "t_mapping(t_address,t_uint256)": {
        "encoding": "mapping",
        "key": "t_address",
        "label": "mapping(address => uint256)",
        "numberOfBytes": "32",
        "value": "t_uint256"
      },
      "t_mapping(t_uint256,t_address)": {
        "encoding": "mapping",
        "key": "t_uint256",
        "label": "mapping(uint256 => address)",
        "numberOfBytes": "32",
        "value": "t_address"
      },
      "t_mapping(t_uint256,t_string_storage)": {
        "encoding": "mapping",
        "key": "t_uint256",
        "label": "mapping(uint256 => string)",
        "numberOfBytes": "32",
        "value": "t_string_storage"
      },
      "t_mapping(t_uint256,t_uint256)": {
        "encoding": "mapping",
        "key": "t_uint256",
        "label": "mapping(uint256 => uint256)",
        "numberOfBytes": "32",
        "value": "t_uint256"
      },
      "t_string_storage": {
        "encoding": "bytes",
        "label": "string",
        "numberOfBytes": "32"
      },
      "t_struct(Counter)2343_storage": {
        "encoding": "inplace",
        "label": "struct Counters.Counter",
        "members": [
          {
            "astId": 2342,
            "contract": "contracts/VaultNftToken.sol:VaultNftToken",
            "label": "_value",
            "offset": 0,
            "slot": "0",
            "type": "t_uint256"
          }
        ],
        "numberOfBytes": "32"
      },
      "t_uint256": {
        "encoding": "inplace",
        "label": "uint256",
        "numberOfBytes": "32"
      }
    }
  }
}