{
  "address": "0xf42d5A9b745179Cb9ED65AD146bBfa592648681d",
  "abi": [
    {
      "inputs": [],
      "stateMutability": "nonpayable",
      "type": "constructor"
    },
    {
      "anonymous": false,
      "inputs": [
        {
          "indexed": true,
          "internalType": "address",
          "name": "owner",
          "type": "address"
        },
        {
          "indexed": true,
          "internalType": "address",
          "name": "approved",
          "type": "address"
        },
        {
          "indexed": true,
          "internalType": "uint256",
          "name": "tokenId",
          "type": "uint256"
        }
      ],
      "name": "Approval",
      "type": "event"
    },
    {
      "anonymous": false,
      "inputs": [
        {
          "indexed": true,
          "internalType": "address",
          "name": "owner",
          "type": "address"
        },
        {
          "indexed": true,
          "internalType": "address",
          "name": "operator",
          "type": "address"
        },
        {
          "indexed": false,
          "internalType": "bool",
          "name": "approved",
          "type": "bool"
        }
      ],
      "name": "ApprovalForAll",
      "type": "event"
    },
    {
      "anonymous": false,
      "inputs": [
        {
          "indexed": false,
          "internalType": "uint256",
          "name": "_fromTokenId",
          "type": "uint256"
        },
        {
          "indexed": false,
          "internalType": "uint256",
          "name": "_toTokenId",
          "type": "uint256"
        }
      ],
      "name": "BatchMetadataUpdate",
      "type": "event"
    },
    {
      "anonymous": false,
      "inputs": [],
      "name": "DisableAllowList",
      "type": "event"
    },
    {
      "anonymous": false,
      "inputs": [],
      "name": "EnabledAllowList",
      "type": "event"
    },
    {
      "anonymous": false,
      "inputs": [
        {
          "indexed": false,
          "internalType": "uint256",
          "name": "_tokenId",
          "type": "uint256"
        }
      ],
      "name": "MetadataUpdate",
      "type": "event"
    },
    {
      "anonymous": false,
      "inputs": [
        {
          "indexed": true,
          "internalType": "address",
          "name": "previousOwner",
          "type": "address"
        },
        {
          "indexed": true,
          "internalType": "address",
          "name": "newOwner",
          "type": "address"
        }
      ],
      "name": "OwnershipTransferred",
      "type": "event"
    },
    {
      "anonymous": false,
      "inputs": [
        {
          "indexed": false,
          "internalType": "address",
          "name": "account",
          "type": "address"
        }
      ],
      "name": "Paused",
      "type": "event"
    },
    {
      "anonymous": false,
      "inputs": [
        {
          "indexed": true,
          "internalType": "address",
          "name": "from",
          "type": "address"
        },
        {
          "indexed": true,
          "internalType": "address",
          "name": "to",
          "type": "address"
        },
        {
          "indexed": true,
          "internalType": "uint256",
          "name": "tokenId",
          "type": "uint256"
        }
      ],
      "name": "Transfer",
      "type": "event"
    },
    {
      "anonymous": false,
      "inputs": [
        {
          "indexed": false,
          "internalType": "address",
          "name": "account",
          "type": "address"
        }
      ],
      "name": "Unpaused",
      "type": "event"
    },
    {
      "anonymous": false,
      "inputs": [
        {
          "indexed": false,
          "internalType": "address",
          "name": "account",
          "type": "address"
        },
        {
          "indexed": false,
          "internalType": "bool",
          "name": "isAllowed",
          "type": "bool"
        }
      ],
      "name": "UserAllowList",
      "type": "event"
    },
    {
      "inputs": [],
      "name": "allowListEnabled",
      "outputs": [
        {
          "internalType": "bool",
          "name": "",
          "type": "bool"
        }
      ],
      "stateMutability": "view",
      "type": "function"
    },
    {
      "inputs": [
        {
          "internalType": "address",
          "name": "",
          "type": "address"
        }
      ],
      "name": "allowlist",
      "outputs": [
        {
          "internalType": "bool",
          "name": "",
          "type": "bool"
        }
      ],
      "stateMutability": "view",
      "type": "function"
    },
    {
      "inputs": [
        {
          "internalType": "address",
          "name": "to",
          "type": "address"
        },
        {
          "internalType": "uint256",
          "name": "tokenId",
          "type": "uint256"
        }
      ],
      "name": "approve",
      "outputs": [],
      "stateMutability": "nonpayable",
      "type": "function"
    },
    {
      "inputs": [
        {
          "internalType": "uint256",
          "name": "tokenId",
          "type": "uint256"
        }
      ],
      "name": "authorizedBurn",
      "outputs": [],
      "stateMutability": "nonpayable",
      "type": "function"
    },
    {
      "inputs": [
        {
          "internalType": "address",
          "name": "from",
          "type": "address"
        },
        {
          "internalType": "address",
          "name": "to",
          "type": "address"
        },
        {
          "internalType": "uint256",
          "name": "tokenId",
          "type": "uint256"
        }
      ],
      "name": "authorizedTransferFrom",
      "outputs": [],
      "stateMutability": "nonpayable",
      "type": "function"
    },
    {
      "inputs": [
        {
          "internalType": "address",
          "name": "owner",
          "type": "address"
        }
      ],
      "name": "balanceOf",
      "outputs": [
        {
          "internalType": "uint256",
          "name": "",
          "type": "uint256"
        }
      ],
      "stateMutability": "view",
      "type": "function"
    },
    {
      "inputs": [],
      "name": "baseURI",
      "outputs": [
        {
          "internalType": "string",
          "name": "",
          "type": "string"
        }
      ],
      "stateMutability": "view",
      "type": "function"
    },
    {
      "inputs": [
        {
          "internalType": "address",
          "name": "to",
          "type": "address"
        },
        {
          "internalType": "uint256",
          "name": "amount",
          "type": "uint256"
        }
      ],
      "name": "bulkMintVault",
      "outputs": [],
      "stateMutability": "payable",
      "type": "function"
    },
    {
      "inputs": [
        {
          "internalType": "uint256",
          "name": "tokenId",
          "type": "uint256"
        }
      ],
      "name": "burn",
      "outputs": [],
      "stateMutability": "nonpayable",
      "type": "function"
    },
    {
      "inputs": [],
      "name": "destination",
      "outputs": [
        {
          "internalType": "address payable",
          "name": "",
          "type": "address"
        }
      ],
      "stateMutability": "view",
      "type": "function"
    },
    {
      "inputs": [],
      "name": "disableAllowList",
      "outputs": [],
      "stateMutability": "nonpayable",
      "type": "function"
    },
    {
      "inputs": [],
      "name": "enableAllowList",
      "outputs": [],
      "stateMutability": "nonpayable",
      "type": "function"
    },
    {
      "inputs": [
        {
          "internalType": "uint256",
          "name": "tokenId",
          "type": "uint256"
        }
      ],
      "name": "getApproved",
      "outputs": [
        {
          "internalType": "address",
          "name": "",
          "type": "address"
        }
      ],
      "stateMutability": "view",
      "type": "function"
    },
    {
      "inputs": [
        {
          "internalType": "address",
          "name": "addr",
          "type": "address"
        }
      ],
      "name": "isAllowlisted",
      "outputs": [
        {
          "internalType": "bool",
          "name": "",
          "type": "bool"
        }
      ],
      "stateMutability": "view",
      "type": "function"
    },
    {
      "inputs": [
        {
          "internalType": "address",
          "name": "owner",
          "type": "address"
        },
        {
          "internalType": "address",
          "name": "operator",
          "type": "address"
        }
      ],
      "name": "isApprovedForAll",
      "outputs": [
        {
          "internalType": "bool",
          "name": "",
          "type": "bool"
        }
      ],
      "stateMutability": "view",
      "type": "function"
    },
    {
      "inputs": [
        {
          "internalType": "address",
          "name": "addr",
          "type": "address"
        }
      ],
      "name": "isOwnerOrInAllowlisted",
      "outputs": [
        {
          "internalType": "bool",
          "name": "",
          "type": "bool"
        }
      ],
      "stateMutability": "view",
      "type": "function"
    },
    {
      "inputs": [],
      "name": "maxBatchMint",
      "outputs": [
        {
          "internalType": "uint256",
          "name": "",
          "type": "uint256"
        }
      ],
      "stateMutability": "view",
      "type": "function"
    },
    {
      "inputs": [],
      "name": "maxSupply",
      "outputs": [
        {
          "internalType": "uint256",
          "name": "",
          "type": "uint256"
        }
      ],
      "stateMutability": "view",
      "type": "function"
    },
    {
      "inputs": [],
      "name": "mintFee",
      "outputs": [
        {
          "internalType": "uint256",
          "name": "",
          "type": "uint256"
        }
      ],
      "stateMutability": "view",
      "type": "function"
    },
    {
      "inputs": [
        {
          "internalType": "address",
          "name": "to",
          "type": "address"
        }
      ],
      "name": "mintVault",
      "outputs": [],
      "stateMutability": "payable",
      "type": "function"
    },
    {
      "inputs": [],
      "name": "name",
      "outputs": [
        {
          "internalType": "string",
          "name": "",
          "type": "string"
        }
      ],
      "stateMutability": "view",
      "type": "function"
    },
    {
      "inputs": [],
      "name": "owner",
      "outputs": [
        {
          "internalType": "address",
          "name": "",
          "type": "address"
        }
      ],
      "stateMutability": "view",
      "type": "function"
    },
    {
      "inputs": [
        {
          "internalType": "uint256",
          "name": "tokenId",
          "type": "uint256"
        }
      ],
      "name": "ownerOf",
      "outputs": [
        {
          "internalType": "address",
          "name": "",
          "type": "address"
        }
      ],
      "stateMutability": "view",
      "type": "function"
    },
    {
      "inputs": [],
      "name": "pause",
      "outputs": [],
      "stateMutability": "nonpayable",
      "type": "function"
    },
    {
      "inputs": [],
      "name": "paused",
      "outputs": [
        {
          "internalType": "bool",
          "name": "",
          "type": "bool"
        }
      ],
      "stateMutability": "view",
      "type": "function"
    },
    {
      "inputs": [
        {
          "internalType": "address",
          "name": "authorizer",
          "type": "address"
        }
      ],
      "name": "preAuthorizeRedeemer",
      "outputs": [],
      "stateMutability": "nonpayable",
      "type": "function"
    },
    {
      "inputs": [],
      "name": "redeemAuthorizer",
      "outputs": [
        {
          "internalType": "address",
          "name": "",
          "type": "address"
        }
      ],
      "stateMutability": "view",
      "type": "function"
    },
    {
      "inputs": [],
      "name": "renounceOwnership",
      "outputs": [],
      "stateMutability": "nonpayable",
      "type": "function"
    },
    {
      "inputs": [
        {
          "internalType": "address",
          "name": "to",
          "type": "address"
        }
      ],
      "name": "safeMint",
      "outputs": [],
      "stateMutability": "nonpayable",
      "type": "function"
    },
    {
      "inputs": [
        {
          "internalType": "address",
          "name": "to",
          "type": "address"
        },
        {
          "internalType": "string",
          "name": "uri",
          "type": "string"
        }
      ],
      "name": "safeMintUri",
      "outputs": [],
      "stateMutability": "nonpayable",
      "type": "function"
    },
    {
      "inputs": [
        {
          "internalType": "address",
          "name": "from",
          "type": "address"
        },
        {
          "internalType": "address",
          "name": "to",
          "type": "address"
        },
        {
          "internalType": "uint256",
          "name": "tokenId",
          "type": "uint256"
        }
      ],
      "name": "safeTransferFrom",
      "outputs": [],
      "stateMutability": "nonpayable",
      "type": "function"
    },
    {
      "inputs": [
        {
          "internalType": "address",
          "name": "from",
          "type": "address"
        },
        {
          "internalType": "address",
          "name": "to",
          "type": "address"
        },
        {
          "internalType": "uint256",
          "name": "tokenId",
          "type": "uint256"
        },
        {
          "internalType": "bytes",
          "name": "data",
          "type": "bytes"
        }
      ],
      "name": "safeTransferFrom",
      "outputs": [],
      "stateMutability": "nonpayable",
      "type": "function"
    },
    {
      "inputs": [
        {
          "internalType": "address",
          "name": "addr",
          "type": "address"
        },
        {
          "internalType": "bool",
          "name": "isAllowed",
          "type": "bool"
        }
      ],
      "name": "setAllowlistUser",
      "outputs": [],
      "stateMutability": "nonpayable",
      "type": "function"
    },
    {
      "inputs": [
        {
          "internalType": "address",
          "name": "operator",
          "type": "address"
        },
        {
          "internalType": "bool",
          "name": "approved",
          "type": "bool"
        }
      ],
      "name": "setApprovalForAll",
      "outputs": [],
      "stateMutability": "nonpayable",
      "type": "function"
    },
    {
      "inputs": [
        {
          "internalType": "string",
          "name": "baseUri",
          "type": "string"
        }
      ],
      "name": "setBaseUri",
      "outputs": [],
      "stateMutability": "nonpayable",
      "type": "function"
    },
    {
      "inputs": [
        {
          "internalType": "address payable",
          "name": "_destination",
          "type": "address"
        }
      ],
      "name": "setDestination",
      "outputs": [],
      "stateMutability": "nonpayable",
      "type": "function"
    },
    {
      "inputs": [
        {
          "internalType": "uint256",
          "name": "newMaxBatchMint",
          "type": "uint256"
        }
      ],
      "name": "setMaxBatchMint",
      "outputs": [],
      "stateMutability": "nonpayable",
      "type": "function"
    },
    {
      "inputs": [
        {
          "internalType": "uint256",
          "name": "newMaxSupply",
          "type": "uint256"
        }
      ],
      "name": "setMaxSupply",
      "outputs": [],
      "stateMutability": "nonpayable",
      "type": "function"
    },
    {
      "inputs": [
        {
          "internalType": "uint256",
          "name": "_mintFee",
          "type": "uint256"
        }
      ],
      "name": "setMintFee",
      "outputs": [],
      "stateMutability": "nonpayable",
      "type": "function"
    },
    {
      "inputs": [
        {
          "internalType": "bool",
          "name": "_singleNftMeta",
          "type": "bool"
        }
      ],
      "name": "setSingleNftMeta",
      "outputs": [],
      "stateMutability": "nonpayable",
      "type": "function"
    },
    {
      "inputs": [],
      "name": "singleNftMeta",
      "outputs": [
        {
          "internalType": "bool",
          "name": "",
          "type": "bool"
        }
      ],
      "stateMutability": "view",
      "type": "function"
    },
    {
      "inputs": [
        {
          "internalType": "bytes4",
          "name": "interfaceId",
          "type": "bytes4"
        }
      ],
      "name": "supportsInterface",
      "outputs": [
        {
          "internalType": "bool",
          "name": "",
          "type": "bool"
        }
      ],
      "stateMutability": "view",
      "type": "function"
    },
    {
      "inputs": [],
      "name": "symbol",
      "outputs": [
        {
          "internalType": "string",
          "name": "",
          "type": "string"
        }
      ],
      "stateMutability": "view",
      "type": "function"
    },
    {
      "inputs": [
        {
          "internalType": "uint256",
          "name": "index",
          "type": "uint256"
        }
      ],
      "name": "tokenByIndex",
      "outputs": [
        {
          "internalType": "uint256",
          "name": "",
          "type": "uint256"
        }
      ],
      "stateMutability": "view",
      "type": "function"
    },
    {
      "inputs": [
        {
          "internalType": "address",
          "name": "owner",
          "type": "address"
        },
        {
          "internalType": "uint256",
          "name": "index",
          "type": "uint256"
        }
      ],
      "name": "tokenOfOwnerByIndex",
      "outputs": [
        {
          "internalType": "uint256",
          "name": "",
          "type": "uint256"
        }
      ],
      "stateMutability": "view",
      "type": "function"
    },
    {
      "inputs": [
        {
          "internalType": "uint256",
          "name": "tokenId",
          "type": "uint256"
        }
      ],
      "name": "tokenURI",
      "outputs": [
        {
          "internalType": "string",
          "name": "",
          "type": "string"
        }
      ],
      "stateMutability": "view",
      "type": "function"
    },
    {
      "inputs": [],
      "name": "totalSupply",
      "outputs": [
        {
          "internalType": "uint256",
          "name": "",
          "type": "uint256"
        }
      ],
      "stateMutability": "view",
      "type": "function"
    },
    {
      "inputs": [
        {
          "internalType": "address",
          "name": "from",
          "type": "address"
        },
        {
          "internalType": "address",
          "name": "to",
          "type": "address"
        },
        {
          "internalType": "uint256",
          "name": "tokenId",
          "type": "uint256"
        }
      ],
      "name": "transferFrom",
      "outputs": [],
      "stateMutability": "nonpayable",
      "type": "function"
    },
    {
      "inputs": [
        {
          "internalType": "address",
          "name": "newOwner",
          "type": "address"
        }
      ],
      "name": "transferOwnership",
      "outputs": [],
      "stateMutability": "nonpayable",
      "type": "function"
    },
    {
      "inputs": [],
      "name": "unpause",
      "outputs": [],
      "stateMutability": "nonpayable",
      "type": "function"
    },
    {
      "inputs": [
        {
          "internalType": "uint256",
          "name": "amount",
          "type": "uint256"
        }
      ],
      "name": "withdraw",
      "outputs": [],
      "stateMutability": "nonpayable",
      "type": "function"
    }
  ],
  "transactionHash": "0xbec6b5894f09e8e6276c63262746aac45f3fe8f736a64859fb687cb47856a35a",
  "args": [],
  "numDeployments": 3,
  "solcInputHash": "b6914e7f67e4dda8525e7cce7514850f",
  "bytecode": "0x60806040526001600d60006101000a81548160ff021916908315150217905550662386f26fc10000600f5561303960105560056011556001601260006101000a81548160ff0219169083151502179055503480156200005d57600080fd5b506040518060400160405280600881526020017f5661756c744e66740000000000000000000000000000000000000000000000008152506040518060400160405280600381526020017f564c5400000000000000000000000000000000000000000000000000000000008152508160009081620000db919062000479565b508060019081620000ed919062000479565b5050506000600b60006101000a81548160ff0219169083151502179055506200012b6200011f6200013160201b60201c565b6200013960201b60201c565b62000560565b600033905090565b6000600b60019054906101000a900473ffffffffffffffffffffffffffffffffffffffff16905081600b60016101000a81548173ffffffffffffffffffffffffffffffffffffffff021916908373ffffffffffffffffffffffffffffffffffffffff1602179055508173ffffffffffffffffffffffffffffffffffffffff168173ffffffffffffffffffffffffffffffffffffffff167f8be0079c531659141344cd1fd0a4f28419497f9722a3daafe3b4186f6b6457e060405160405180910390a35050565b600081519050919050565b7f4e487b7100000000000000000000000000000000000000000000000000000000600052604160045260246000fd5b7f4e487b7100000000000000000000000000000000000000000000000000000000600052602260045260246000fd5b600060028204905060018216806200028157607f821691505b60208210810362000297576200029662000239565b5b50919050565b60008190508160005260206000209050919050565b60006020601f8301049050919050565b600082821b905092915050565b600060088302620003017fffffffffffffffffffffffffffffffffffffffffffffffffffffffffffffffff82620002c2565b6200030d8683620002c2565b95508019841693508086168417925050509392505050565b6000819050919050565b6000819050919050565b60006200035a620003546200034e8462000325565b6200032f565b62000325565b9050919050565b6000819050919050565b620003768362000339565b6200038e620003858262000361565b848454620002cf565b825550505050565b600090565b620003a562000396565b620003b28184846200036b565b505050565b5b81811015620003da57620003ce6000826200039b565b600181019050620003b8565b5050565b601f8211156200042957620003f3816200029d565b620003fe84620002b2565b810160208510156200040e578190505b620004266200041d85620002b2565b830182620003b7565b50505b505050565b600082821c905092915050565b60006200044e600019846008026200042e565b1980831691505092915050565b60006200046983836200043b565b9150826002028217905092915050565b6200048482620001ff565b67ffffffffffffffff811115620004a0576200049f6200020a565b5b620004ac825462000268565b620004b9828285620003de565b600060209050601f831160018114620004f15760008415620004dc578287015190505b620004e885826200045b565b86555062000558565b601f19841662000501866200029d565b60005b828110156200052b5784890151825560018201915060208501945060208101905062000504565b868310156200054b578489015162000547601f8916826200043b565b8355505b6001600288020188555050505b505050505050565b6158fb80620005706000396000f3fe6080604052600436106102e45760003560e01c80636494a5be11610190578063a22cb465116100dc578063d31f939511610095578063e985e9c51161006f578063e985e9c514610aeb578063eddd0d9c14610b28578063f2afd39914610b51578063f2fde38b14610b6d576102e4565b8063d31f939514610a80578063d5abeb0114610aa9578063dc2fbaee14610ad4576102e4565b8063a22cb4651461095e578063a7adf96414610987578063a7cd52cb146109b2578063b269681d146109ef578063b88d4fde14610a1a578063c87b56dd14610a43576102e4565b8063834029ba116101495780638da5cb5b116101235780638da5cb5b146108a257806395d89b41146108cd578063990c006d146108f8578063a0bcfc7f14610935576102e4565b8063834029ba1461084b5780638456cb59146108625780638b38d27c14610879576102e4565b80636494a5be146107515780636c0360eb1461077a5780636f8b44b0146107a55780637065ec39146107ce57806370a08231146107f7578063715018a614610834576102e4565b80632f745c591161024f578063450d624d11610208578063582d6422116101e2578063582d6422146106a25780635a9c787f146106be5780635c975abb146106e95780636352211e14610714576102e4565b8063450d624d14610613578063471676bb1461063c5780634f6ccce714610665576102e4565b80632f745c591461051b5780633045b241146105585780633f4ba83a1461058157806340d097c31461059857806342842e0e146105c157806342966c68146105ea576102e4565b80630a0a05e6116102a15780630a0a05e61461041f57806313966db51461044857806318160ddd1461047357806322bd5c1c1461049e57806323b872dd146104c95780632e1a7d4d146104f2576102e4565b806301ffc9a7146102e957806305a3b8091461032657806306fdde0314610363578063081812fc1461038e578063095ea7b3146103cb57806309a3a9c1146103f4575b600080fd5b3480156102f557600080fd5b50610310600480360381019061030b9190613a40565b610b96565b60405161031d9190613a88565b60405180910390f35b34801561033257600080fd5b5061034d60048036038101906103489190613b01565b610ba8565b60405161035a9190613a88565b60405180910390f35b34801561036f57600080fd5b50610378610bfe565b6040516103859190613bbe565b60405180910390f35b34801561039a57600080fd5b506103b560048036038101906103b09190613c16565b610c90565b6040516103c29190613c52565b60405180910390f35b3480156103d757600080fd5b506103f260048036038101906103ed9190613c6d565b610cd6565b005b34801561040057600080fd5b50610409610ded565b6040516104169190613cbc565b60405180910390f35b34801561042b57600080fd5b5061044660048036038101906104419190613d15565b610df3565b005b34801561045457600080fd5b5061045d610e3f565b60405161046a9190613cbc565b60405180910390f35b34801561047f57600080fd5b50610488610e45565b6040516104959190613cbc565b60405180910390f35b3480156104aa57600080fd5b506104b3610e52565b6040516104c09190613a88565b60405180910390f35b3480156104d557600080fd5b506104f060048036038101906104eb9190613d42565b610e65565b005b3480156104fe57600080fd5b5061051960048036038101906105149190613c16565b610ec5565b005b34801561052757600080fd5b50610542600480360381019061053d9190613c6d565b610f3f565b60405161054f9190613cbc565b60405180910390f35b34801561056457600080fd5b5061057f600480360381019061057a9190613dc1565b610fe4565b005b34801561058d57600080fd5b50610596610ffa565b005b3480156105a457600080fd5b506105bf60048036038101906105ba9190613b01565b61100c565b005b3480156105cd57600080fd5b506105e860048036038101906105e39190613d42565b61103a565b005b3480156105f657600080fd5b50610611600480360381019061060c9190613c16565b61105a565b005b34801561061f57600080fd5b5061063a60048036038101906106359190613e01565b6110b6565b005b34801561064857600080fd5b50610663600480360381019061065e9190613f63565b6110db565b005b34801561067157600080fd5b5061068c60048036038101906106879190613c16565b611114565b6040516106999190613cbc565b60405180910390f35b6106bc60048036038101906106b79190613c6d565b611185565b005b3480156106ca57600080fd5b506106d36112ab565b6040516106e09190613c52565b60405180910390f35b3480156106f557600080fd5b506106fe6112d1565b60405161070b9190613a88565b60405180910390f35b34801561072057600080fd5b5061073b60048036038101906107369190613c16565b6112e8565b6040516107489190613c52565b60405180910390f35b34801561075d57600080fd5b5061077860048036038101906107739190613b01565b61136e565b005b34801561078657600080fd5b5061078f6113ba565b60405161079c9190613bbe565b60405180910390f35b3480156107b157600080fd5b506107cc60048036038101906107c79190613c16565b611448565b005b3480156107da57600080fd5b506107f560048036038101906107f09190613c16565b61149e565b005b34801561080357600080fd5b5061081e60048036038101906108199190613b01565b61153a565b60405161082b9190613cbc565b60405180910390f35b34801561084057600080fd5b506108496115f1565b005b34801561085757600080fd5b50610860611605565b005b34801561086e57600080fd5b50610877611617565b005b34801561088557600080fd5b506108a0600480360381019061089b9190613d42565b611629565b005b3480156108ae57600080fd5b506108b76116d9565b6040516108c49190613c52565b60405180910390f35b3480156108d957600080fd5b506108e2611703565b6040516108ef9190613bbe565b60405180910390f35b34801561090457600080fd5b5061091f600480360381019061091a9190613b01565b611795565b60405161092c9190613a88565b60405180910390f35b34801561094157600080fd5b5061095c6004803603810190610957919061401f565b611836565b005b34801561096a57600080fd5b5061098560048036038101906109809190613dc1565b611854565b005b34801561099357600080fd5b5061099c61186a565b6040516109a99190613a88565b60405180910390f35b3480156109be57600080fd5b506109d960048036038101906109d49190613b01565b61187d565b6040516109e69190613a88565b60405180910390f35b3480156109fb57600080fd5b50610a0461189d565b604051610a11919061407b565b60405180910390f35b348015610a2657600080fd5b50610a416004803603810190610a3c9190614137565b6118c3565b005b348015610a4f57600080fd5b50610a6a6004803603810190610a659190613c16565b611925565b604051610a779190613bbe565b60405180910390f35b348015610a8c57600080fd5b50610aa76004803603810190610aa29190613c16565b611977565b005b348015610ab557600080fd5b50610abe6119cd565b604051610acb9190613cbc565b60405180910390f35b348015610ae057600080fd5b50610ae96119d3565b005b348015610af757600080fd5b50610b126004803603810190610b0d91906141ba565b6119e5565b604051610b1f9190613a88565b60405180910390f35b348015610b3457600080fd5b50610b4f6004803603810190610b4a9190613c16565b611a79565b005b610b6b6004803603810190610b669190613b01565b611a8b565b005b348015610b7957600080fd5b50610b946004803603810190610b8f9190613b01565b611b5b565b005b6000610ba182611bde565b9050919050565b6000600c60008373ffffffffffffffffffffffffffffffffffffffff1673ffffffffffffffffffffffffffffffffffffffff16815260200190815260200160002060009054906101000a900460ff169050919050565b606060008054610c0d90614229565b80601f0160208091040260200160405190810160405280929190818152602001828054610c3990614229565b8015610c865780601f10610c5b57610100808354040283529160200191610c86565b820191906000526020600020905b815481529060010190602001808311610c6957829003601f168201915b5050505050905090565b6000610c9b82611c3f565b6004600083815260200190815260200160002060009054906101000a900473ffffffffffffffffffffffffffffffffffffffff169050919050565b6000610ce1826112e8565b90508073ffffffffffffffffffffffffffffffffffffffff168373ffffffffffffffffffffffffffffffffffffffff1603610d51576040517f08c379a0000000000000000000000000000000000000000000000000000000008152600401610d48906142cc565b60405180910390fd5b8073ffffffffffffffffffffffffffffffffffffffff16610d70611c8a565b73ffffffffffffffffffffffffffffffffffffffff161480610d9f5750610d9e81610d99611c8a565b6119e5565b5b610dde576040517f08c379a0000000000000000000000000000000000000000000000000000000008152600401610dd59061435e565b60405180910390fd5b610de88383611c92565b505050565b60115481565b610dfb611d4b565b80601360006101000a81548173ffffffffffffffffffffffffffffffffffffffff021916908373ffffffffffffffffffffffffffffffffffffffff16021790555050565b600f5481565b6000600880549050905090565b600d60009054906101000a900460ff1681565b610e76610e70611c8a565b82611dc9565b610eb5576040517f08c379a0000000000000000000000000000000000000000000000000000000008152600401610eac906143f0565b60405180910390fd5b610ec0838383611e5e565b505050565b610ecd611d4b565b80471015610f10576040517f08c379a0000000000000000000000000000000000000000000000000000000008152600401610f0790614482565b60405180910390fd5b610f3c601360009054906101000a900473ffffffffffffffffffffffffffffffffffffffff1682612157565b50565b6000610f4a8361153a565b8210610f8b576040517f08c379a0000000000000000000000000000000000000000000000000000000008152600401610f8290614514565b60405180910390fd5b600660008473ffffffffffffffffffffffffffffffffffffffff1673ffffffffffffffffffffffffffffffffffffffff168152602001908152602001600020600083815260200190815260200160002054905092915050565b610fec611d4b565b610ff6828261224b565b5050565b611002611d4b565b61100a61234e565b565b611014611d4b565b6000611020600e6123b1565b905061102c600e6123bf565b61103682826123d5565b5050565b611055838383604051806020016040528060008152506118c3565b505050565b61106b611065611c8a565b82611dc9565b6110aa576040517f08c379a00000000000000000000000000000000000000000000000000000000081526004016110a1906143f0565b60405180910390fd5b6110b3816123f3565b50565b6110be611d4b565b80601260006101000a81548160ff02191690831515021790555050565b6110e3611d4b565b60006110ef600e6123b1565b90506110fb600e6123bf565b61110583826123d5565b61110f81836123ff565b505050565b600061111e610e45565b821061115f576040517f08c379a0000000000000000000000000000000000000000000000000000000008152600401611156906145a6565b60405180910390fd5b60088281548110611173576111726145c6565b5b90600052602060002001549050919050565b600d60009054906101000a900460ff16156111ea576111aa6111a5611c8a565b610ba8565b6111e9576040517f08c379a00000000000000000000000000000000000000000000000000000000081526004016111e090614667565b60405180910390fd5b5b60115481111561122f576040517f08c379a0000000000000000000000000000000000000000000000000000000008152600401611226906146f9565b60405180910390fd5b600f548161123d9190614748565b34101561127f576040517f08c379a0000000000000000000000000000000000000000000000000000000008152600401611276906147fc565b60405180910390fd5b60005b818110156112a65761129383611a8b565b808061129e9061481c565b915050611282565b505050565b601260019054906101000a900473ffffffffffffffffffffffffffffffffffffffff1681565b6000600b60009054906101000a900460ff16905090565b6000806112f4836124a3565b9050600073ffffffffffffffffffffffffffffffffffffffff168173ffffffffffffffffffffffffffffffffffffffff1603611365576040517f08c379a000000000000000000000000000000000000000000000000000000000815260040161135c906148b0565b60405180910390fd5b80915050919050565b611376611d4b565b80601260016101000a81548173ffffffffffffffffffffffffffffffffffffffff021916908373ffffffffffffffffffffffffffffffffffffffff16021790555050565b601480546113c790614229565b80601f01602080910402602001604051908101604052809291908181526020018280546113f390614229565b80156114405780601f1061141557610100808354040283529160200191611440565b820191906000526020600020905b81548152906001019060200180831161142357829003601f168201915b505050505081565b611450611d4b565b6000811015611494576040517f08c379a000000000000000000000000000000000000000000000000000000000815260040161148b9061491c565b60405180910390fd5b8060108190555050565b601260019054906101000a900473ffffffffffffffffffffffffffffffffffffffff1673ffffffffffffffffffffffffffffffffffffffff163373ffffffffffffffffffffffffffffffffffffffff161461152e576040517f08c379a000000000000000000000000000000000000000000000000000000000815260040161152590614988565b60405180910390fd5b611537816123f3565b50565b60008073ffffffffffffffffffffffffffffffffffffffff168273ffffffffffffffffffffffffffffffffffffffff16036115aa576040517f08c379a00000000000000000000000000000000000000000000000000000000081526004016115a190614a1a565b60405180910390fd5b600360008373ffffffffffffffffffffffffffffffffffffffff1673ffffffffffffffffffffffffffffffffffffffff168152602001908152602001600020549050919050565b6115f9611d4b565b61160360006124e0565b565b61160d611d4b565b6116156125a6565b565b61161f611d4b565b6116276125ef565b565b601260019054906101000a900473ffffffffffffffffffffffffffffffffffffffff1673ffffffffffffffffffffffffffffffffffffffff163373ffffffffffffffffffffffffffffffffffffffff16146116b9576040517f08c379a00000000000000000000000000000000000000000000000000000000081526004016116b090614aac565b60405180910390fd5b6116d483838360405180602001604052806000815250612652565b505050565b6000600b60019054906101000a900473ffffffffffffffffffffffffffffffffffffffff16905090565b60606001805461171290614229565b80601f016020809104026020016040519081016040528092919081815260200182805461173e90614229565b801561178b5780601f106117605761010080835404028352916020019161178b565b820191906000526020600020905b81548152906001019060200180831161176e57829003601f168201915b5050505050905090565b600061179f611c8a565b73ffffffffffffffffffffffffffffffffffffffff166117bd6116d9565b73ffffffffffffffffffffffffffffffffffffffff16036117e15760019050611831565b600c60008373ffffffffffffffffffffffffffffffffffffffff1673ffffffffffffffffffffffffffffffffffffffff16815260200190815260200160002060009054906101000a900460ff1690505b919050565b61183e611d4b565b81816014918261184f929190614c83565b505050565b61186661185f611c8a565b83836126ae565b5050565b601260009054906101000a900460ff1681565b600c6020528060005260406000206000915054906101000a900460ff1681565b601360009054906101000a900473ffffffffffffffffffffffffffffffffffffffff1681565b6118d46118ce611c8a565b83611dc9565b611913576040517f08c379a000000000000000000000000000000000000000000000000000000000815260040161190a906143f0565b60405180910390fd5b61191f84848484612652565b50505050565b606061193082611c3f565b600061193a61281a565b9050601260009054906101000a900460ff1615611965576000815111156119645780915050611972565b5b61196e836128ac565b9150505b919050565b61197f611d4b565b60008110156119c3576040517f08c379a00000000000000000000000000000000000000000000000000000000081526004016119ba90614d9f565b60405180910390fd5b8060118190555050565b60105481565b6119db611d4b565b6119e36129be565b565b6000600560008473ffffffffffffffffffffffffffffffffffffffff1673ffffffffffffffffffffffffffffffffffffffff16815260200190815260200160002060008373ffffffffffffffffffffffffffffffffffffffff1673ffffffffffffffffffffffffffffffffffffffff16815260200190815260200160002060009054906101000a900460ff16905092915050565b611a81611d4b565b80600f8190555050565b600d60009054906101000a900460ff1615611af057611ab0611aab611c8a565b610ba8565b611aef576040517f08c379a0000000000000000000000000000000000000000000000000000000008152600401611ae690614667565b60405180910390fd5b5b600f54341015611b35576040517f08c379a0000000000000000000000000000000000000000000000000000000008152600401611b2c90614e0b565b60405180910390fd5b6000611b41600e6123b1565b9050611b4d600e6123bf565b611b5782826123d5565b5050565b611b63611d4b565b600073ffffffffffffffffffffffffffffffffffffffff168173ffffffffffffffffffffffffffffffffffffffff1603611bd2576040517f08c379a0000000000000000000000000000000000000000000000000000000008152600401611bc990614e9d565b60405180910390fd5b611bdb816124e0565b50565b6000634906490660e01b7bffffffffffffffffffffffffffffffffffffffffffffffffffffffff1916827bffffffffffffffffffffffffffffffffffffffffffffffffffffffff19161480611c385750611c3782612a07565b5b9050919050565b611c4881612a81565b611c87576040517f08c379a0000000000000000000000000000000000000000000000000000000008152600401611c7e906148b0565b60405180910390fd5b50565b600033905090565b816004600083815260200190815260200160002060006101000a81548173ffffffffffffffffffffffffffffffffffffffff021916908373ffffffffffffffffffffffffffffffffffffffff160217905550808273ffffffffffffffffffffffffffffffffffffffff16611d05836112e8565b73ffffffffffffffffffffffffffffffffffffffff167f8c5be1e5ebec7d5bd14f71427d1e84f3dd0314c0f7b2291e5b200ac8c7c3b92560405160405180910390a45050565b611d53611c8a565b73ffffffffffffffffffffffffffffffffffffffff16611d716116d9565b73ffffffffffffffffffffffffffffffffffffffff1614611dc7576040517f08c379a0000000000000000000000000000000000000000000000000000000008152600401611dbe90614f09565b60405180910390fd5b565b600080611dd5836112e8565b90508073ffffffffffffffffffffffffffffffffffffffff168473ffffffffffffffffffffffffffffffffffffffff161480611e175750611e1681856119e5565b5b80611e5557508373ffffffffffffffffffffffffffffffffffffffff16611e3d84610c90565b73ffffffffffffffffffffffffffffffffffffffff16145b91505092915050565b8273ffffffffffffffffffffffffffffffffffffffff16611e7e826112e8565b73ffffffffffffffffffffffffffffffffffffffff1614611ed4576040517f08c379a0000000000000000000000000000000000000000000000000000000008152600401611ecb90614f9b565b60405180910390fd5b600073ffffffffffffffffffffffffffffffffffffffff168273ffffffffffffffffffffffffffffffffffffffff1603611f43576040517f08c379a0000000000000000000000000000000000000000000000000000000008152600401611f3a9061502d565b60405180910390fd5b611f508383836001612ac2565b8273ffffffffffffffffffffffffffffffffffffffff16611f70826112e8565b73ffffffffffffffffffffffffffffffffffffffff1614611fc6576040517f08c379a0000000000000000000000000000000000000000000000000000000008152600401611fbd90614f9b565b60405180910390fd5b6004600082815260200190815260200160002060006101000a81549073ffffffffffffffffffffffffffffffffffffffff02191690556001600360008573ffffffffffffffffffffffffffffffffffffffff1673ffffffffffffffffffffffffffffffffffffffff168152602001908152602001600020600082825403925050819055506001600360008473ffffffffffffffffffffffffffffffffffffffff1673ffffffffffffffffffffffffffffffffffffffff16815260200190815260200160002060008282540192505081905550816002600083815260200190815260200160002060006101000a81548173ffffffffffffffffffffffffffffffffffffffff021916908373ffffffffffffffffffffffffffffffffffffffff160217905550808273ffffffffffffffffffffffffffffffffffffffff168473ffffffffffffffffffffffffffffffffffffffff167fddf252ad1be2c89b69c2b068fc378daa952ba7f163c4a11628f55a4df523b3ef60405160405180910390a46121528383836001612adc565b505050565b8047101561219a576040517f08c379a000000000000000000000000000000000000000000000000000000000815260040161219190615099565b60405180910390fd5b60008273ffffffffffffffffffffffffffffffffffffffff16826040516121c0906150ea565b60006040518083038185875af1925050503d80600081146121fd576040519150601f19603f3d011682016040523d82523d6000602084013e612202565b606091505b5050905080612246576040517f08c379a000000000000000000000000000000000000000000000000000000000815260040161223d90615171565b60405180910390fd5b505050565b600073ffffffffffffffffffffffffffffffffffffffff168273ffffffffffffffffffffffffffffffffffffffff16036122ba576040517f08c379a00000000000000000000000000000000000000000000000000000000081526004016122b190615203565b60405180910390fd5b80600c60008473ffffffffffffffffffffffffffffffffffffffff1673ffffffffffffffffffffffffffffffffffffffff16815260200190815260200160002060006101000a81548160ff0219169083151502179055507f01883a2ded2d11a676263b3edca3878eec2c68618ae55db0314bebd4b9561b238282604051612342929190615223565b60405180910390a15050565b612356612ae2565b6000600b60006101000a81548160ff0219169083151502179055507f5db9ee0a495bf2e6ff9c91a7834c1ba4fdd244a5e8aa4e537bd38aeae4b073aa61239a611c8a565b6040516123a79190613c52565b60405180910390a1565b600081600001549050919050565b6001816000016000828254019250508190555050565b6123ef828260405180602001604052806000815250612b2b565b5050565b6123fc81612b86565b50565b61240882612a81565b612447576040517f08c379a000000000000000000000000000000000000000000000000000000000815260040161243e906152be565b60405180910390fd5b80600a6000848152602001908152602001600020908161246791906152de565b507ff8e1a15aba9398e019f0b49df1a4fde98ee17ae345cb5f6b5e2c27f5033e8ce7826040516124979190613cbc565b60405180910390a15050565b60006002600083815260200190815260200160002060009054906101000a900473ffffffffffffffffffffffffffffffffffffffff169050919050565b6000600b60019054906101000a900473ffffffffffffffffffffffffffffffffffffffff16905081600b60016101000a81548173ffffffffffffffffffffffffffffffffffffffff021916908373ffffffffffffffffffffffffffffffffffffffff1602179055508173ffffffffffffffffffffffffffffffffffffffff168173ffffffffffffffffffffffffffffffffffffffff167f8be0079c531659141344cd1fd0a4f28419497f9722a3daafe3b4186f6b6457e060405160405180910390a35050565b6000600d60006101000a81548160ff0219169083151502179055507f17deb57f2c665512f91ec43836987faa802c8cd173a69f704a39155e48a40a2560405160405180910390a1565b6125f7612bd9565b6001600b60006101000a81548160ff0219169083151502179055507f62e78cea01bee320cd4e420270b5ea74000d11b0c9f74754ebdbfc544b05a25861263b611c8a565b6040516126489190613c52565b60405180910390a1565b61265d848484611e5e565b61266984848484612c23565b6126a8576040517f08c379a000000000000000000000000000000000000000000000000000000000815260040161269f90615422565b60405180910390fd5b50505050565b8173ffffffffffffffffffffffffffffffffffffffff168373ffffffffffffffffffffffffffffffffffffffff160361271c576040517f08c379a00000000000000000000000000000000000000000000000000000000081526004016127139061548e565b60405180910390fd5b80600560008573ffffffffffffffffffffffffffffffffffffffff1673ffffffffffffffffffffffffffffffffffffffff16815260200190815260200160002060008473ffffffffffffffffffffffffffffffffffffffff1673ffffffffffffffffffffffffffffffffffffffff16815260200190815260200160002060006101000a81548160ff0219169083151502179055508173ffffffffffffffffffffffffffffffffffffffff168373ffffffffffffffffffffffffffffffffffffffff167f17307eab39ab6107e8899845ad3d59bd9653f200f220920489ca2b5937696c318360405161280d9190613a88565b60405180910390a3505050565b60606014805461282990614229565b80601f016020809104026020016040519081016040528092919081815260200182805461285590614229565b80156128a25780601f10612877576101008083540402835291602001916128a2565b820191906000526020600020905b81548152906001019060200180831161288557829003601f168201915b5050505050905090565b60606128b782611c3f565b6000600a600084815260200190815260200160002080546128d790614229565b80601f016020809104026020016040519081016040528092919081815260200182805461290390614229565b80156129505780601f1061292557610100808354040283529160200191612950565b820191906000526020600020905b81548152906001019060200180831161293357829003601f168201915b50505050509050600061296161281a565b905060008151036129765781925050506129b9565b6000825111156129ab5780826040516020016129939291906154ea565b604051602081830303815290604052925050506129b9565b6129b484612daa565b925050505b919050565b6001600d60006101000a81548160ff0219169083151502179055507ff1917d42b61041c8a637919d5c23a9a559d72e57633d21cfe88c46b0fa01b6b960405160405180910390a1565b60007f780e9d63000000000000000000000000000000000000000000000000000000007bffffffffffffffffffffffffffffffffffffffffffffffffffffffff1916827bffffffffffffffffffffffffffffffffffffffffffffffffffffffff19161480612a7a5750612a7982612e12565b5b9050919050565b60008073ffffffffffffffffffffffffffffffffffffffff16612aa3836124a3565b73ffffffffffffffffffffffffffffffffffffffff1614159050919050565b612aca612bd9565b612ad684848484612ef4565b50505050565b50505050565b612aea6112d1565b612b29576040517f08c379a0000000000000000000000000000000000000000000000000000000008152600401612b209061555a565b60405180910390fd5b565b612b358383613052565b612b426000848484612c23565b612b81576040517f08c379a0000000000000000000000000000000000000000000000000000000008152600401612b7890615422565b60405180910390fd5b505050565b612b8f8161326f565b6000600a60008381526020019081526020016000208054612baf90614229565b905014612bd657600a60008281526020019081526020016000206000612bd59190613977565b5b50565b612be16112d1565b15612c21576040517f08c379a0000000000000000000000000000000000000000000000000000000008152600401612c18906155c6565b60405180910390fd5b565b6000612c448473ffffffffffffffffffffffffffffffffffffffff166133bd565b15612d9d578373ffffffffffffffffffffffffffffffffffffffff1663150b7a02612c6d611c8a565b8786866040518563ffffffff1660e01b8152600401612c8f949392919061563b565b6020604051808303816000875af1925050508015612ccb57506040513d601f19601f82011682018060405250810190612cc8919061569c565b60015b612d4d573d8060008114612cfb576040519150601f19603f3d011682016040523d82523d6000602084013e612d00565b606091505b506000815103612d45576040517f08c379a0000000000000000000000000000000000000000000000000000000008152600401612d3c90615422565b60405180910390fd5b805181602001fd5b63150b7a0260e01b7bffffffffffffffffffffffffffffffffffffffffffffffffffffffff1916817bffffffffffffffffffffffffffffffffffffffffffffffffffffffff191614915050612da2565b600190505b949350505050565b6060612db582611c3f565b6000612dbf61281a565b90506000815111612ddf5760405180602001604052806000815250612e0a565b80612de9846133e0565b604051602001612dfa9291906154ea565b6040516020818303038152906040525b915050919050565b60007f80ac58cd000000000000000000000000000000000000000000000000000000007bffffffffffffffffffffffffffffffffffffffffffffffffffffffff1916827bffffffffffffffffffffffffffffffffffffffffffffffffffffffff19161480612edd57507f5b5e139f000000000000000000000000000000000000000000000000000000007bffffffffffffffffffffffffffffffffffffffffffffffffffffffff1916827bffffffffffffffffffffffffffffffffffffffffffffffffffffffff1916145b80612eed5750612eec826134ae565b5b9050919050565b612f0084848484613518565b6001811115612f44576040517f08c379a0000000000000000000000000000000000000000000000000000000008152600401612f3b9061573b565b60405180910390fd5b6000829050600073ffffffffffffffffffffffffffffffffffffffff168573ffffffffffffffffffffffffffffffffffffffff1603612f8b57612f868161351e565b612fca565b8373ffffffffffffffffffffffffffffffffffffffff168573ffffffffffffffffffffffffffffffffffffffff1614612fc957612fc88582613567565b5b5b600073ffffffffffffffffffffffffffffffffffffffff168473ffffffffffffffffffffffffffffffffffffffff160361300c57613007816136d4565b61304b565b8473ffffffffffffffffffffffffffffffffffffffff168473ffffffffffffffffffffffffffffffffffffffff161461304a5761304984826137a5565b5b5b5050505050565b600073ffffffffffffffffffffffffffffffffffffffff168273ffffffffffffffffffffffffffffffffffffffff16036130c1576040517f08c379a00000000000000000000000000000000000000000000000000000000081526004016130b8906157a7565b60405180910390fd5b6130ca81612a81565b1561310a576040517f08c379a000000000000000000000000000000000000000000000000000000000815260040161310190615813565b60405180910390fd5b613118600083836001612ac2565b61312181612a81565b15613161576040517f08c379a000000000000000000000000000000000000000000000000000000000815260040161315890615813565b60405180910390fd5b6001600360008473ffffffffffffffffffffffffffffffffffffffff1673ffffffffffffffffffffffffffffffffffffffff16815260200190815260200160002060008282540192505081905550816002600083815260200190815260200160002060006101000a81548173ffffffffffffffffffffffffffffffffffffffff021916908373ffffffffffffffffffffffffffffffffffffffff160217905550808273ffffffffffffffffffffffffffffffffffffffff16600073ffffffffffffffffffffffffffffffffffffffff167fddf252ad1be2c89b69c2b068fc378daa952ba7f163c4a11628f55a4df523b3ef60405160405180910390a461326b600083836001612adc565b5050565b600061327a826112e8565b905061328a816000846001612ac2565b613293826112e8565b90506004600083815260200190815260200160002060006101000a81549073ffffffffffffffffffffffffffffffffffffffff02191690556001600360008373ffffffffffffffffffffffffffffffffffffffff1673ffffffffffffffffffffffffffffffffffffffff168152602001908152602001600020600082825403925050819055506002600083815260200190815260200160002060006101000a81549073ffffffffffffffffffffffffffffffffffffffff021916905581600073ffffffffffffffffffffffffffffffffffffffff168273ffffffffffffffffffffffffffffffffffffffff167fddf252ad1be2c89b69c2b068fc378daa952ba7f163c4a11628f55a4df523b3ef60405160405180910390a46133b9816000846001612adc565b5050565b6000808273ffffffffffffffffffffffffffffffffffffffff163b119050919050565b6060600060016133ef84613824565b01905060008167ffffffffffffffff81111561340e5761340d613e38565b5b6040519080825280601f01601f1916602001820160405280156134405781602001600182028036833780820191505090505b509050600082602001820190505b6001156134a3578080600190039150507f3031323334353637383961626364656600000000000000000000000000000000600a86061a8153600a858161349757613496615833565b5b0494506000850361344e575b819350505050919050565b60007f01ffc9a7000000000000000000000000000000000000000000000000000000007bffffffffffffffffffffffffffffffffffffffffffffffffffffffff1916827bffffffffffffffffffffffffffffffffffffffffffffffffffffffff1916149050919050565b50505050565b6008805490506009600083815260200190815260200160002081905550600881908060018154018082558091505060019003906000526020600020016000909190919091505550565b600060016135748461153a565b61357e9190615862565b9050600060076000848152602001908152602001600020549050818114613663576000600660008673ffffffffffffffffffffffffffffffffffffffff1673ffffffffffffffffffffffffffffffffffffffff168152602001908152602001600020600084815260200190815260200160002054905080600660008773ffffffffffffffffffffffffffffffffffffffff1673ffffffffffffffffffffffffffffffffffffffff168152602001908152602001600020600084815260200190815260200160002081905550816007600083815260200190815260200160002081905550505b6007600084815260200190815260200160002060009055600660008573ffffffffffffffffffffffffffffffffffffffff1673ffffffffffffffffffffffffffffffffffffffff16815260200190815260200160002060008381526020019081526020016000206000905550505050565b600060016008805490506136e89190615862565b9050600060096000848152602001908152602001600020549050600060088381548110613718576137176145c6565b5b90600052602060002001549050806008838154811061373a576137396145c6565b5b90600052602060002001819055508160096000838152602001908152602001600020819055506009600085815260200190815260200160002060009055600880548061378957613788615896565b5b6001900381819060005260206000200160009055905550505050565b60006137b08361153a565b905081600660008573ffffffffffffffffffffffffffffffffffffffff1673ffffffffffffffffffffffffffffffffffffffff168152602001908152602001600020600083815260200190815260200160002081905550806007600084815260200190815260200160002081905550505050565b600080600090507a184f03e93ff9f4daa797ed6e38ed64bf6a1f0100000000000000008310613882577a184f03e93ff9f4daa797ed6e38ed64bf6a1f010000000000000000838161387857613877615833565b5b0492506040810190505b6d04ee2d6d415b85acef810000000083106138bf576d04ee2d6d415b85acef810000000083816138b5576138b4615833565b5b0492506020810190505b662386f26fc1000083106138ee57662386f26fc1000083816138e4576138e3615833565b5b0492506010810190505b6305f5e1008310613917576305f5e100838161390d5761390c615833565b5b0492506008810190505b612710831061393c57612710838161393257613931615833565b5b0492506004810190505b6064831061395f576064838161395557613954615833565b5b0492506002810190505b600a831061396e576001810190505b80915050919050565b50805461398390614229565b6000825580601f1061399557506139b4565b601f0160209004906000526020600020908101906139b391906139b7565b5b50565b5b808211156139d05760008160009055506001016139b8565b5090565b6000604051905090565b600080fd5b600080fd5b60007fffffffff0000000000000000000000000000000000000000000000000000000082169050919050565b613a1d816139e8565b8114613a2857600080fd5b50565b600081359050613a3a81613a14565b92915050565b600060208284031215613a5657613a556139de565b5b6000613a6484828501613a2b565b91505092915050565b60008115159050919050565b613a8281613a6d565b82525050565b6000602082019050613a9d6000830184613a79565b92915050565b600073ffffffffffffffffffffffffffffffffffffffff82169050919050565b6000613ace82613aa3565b9050919050565b613ade81613ac3565b8114613ae957600080fd5b50565b600081359050613afb81613ad5565b92915050565b600060208284031215613b1757613b166139de565b5b6000613b2584828501613aec565b91505092915050565b600081519050919050565b600082825260208201905092915050565b60005b83811015613b68578082015181840152602081019050613b4d565b60008484015250505050565b6000601f19601f8301169050919050565b6000613b9082613b2e565b613b9a8185613b39565b9350613baa818560208601613b4a565b613bb381613b74565b840191505092915050565b60006020820190508181036000830152613bd88184613b85565b905092915050565b6000819050919050565b613bf381613be0565b8114613bfe57600080fd5b50565b600081359050613c1081613bea565b92915050565b600060208284031215613c2c57613c2b6139de565b5b6000613c3a84828501613c01565b91505092915050565b613c4c81613ac3565b82525050565b6000602082019050613c676000830184613c43565b92915050565b60008060408385031215613c8457613c836139de565b5b6000613c9285828601613aec565b9250506020613ca385828601613c01565b9150509250929050565b613cb681613be0565b82525050565b6000602082019050613cd16000830184613cad565b92915050565b6000613ce282613aa3565b9050919050565b613cf281613cd7565b8114613cfd57600080fd5b50565b600081359050613d0f81613ce9565b92915050565b600060208284031215613d2b57613d2a6139de565b5b6000613d3984828501613d00565b91505092915050565b600080600060608486031215613d5b57613d5a6139de565b5b6000613d6986828701613aec565b9350506020613d7a86828701613aec565b9250506040613d8b86828701613c01565b9150509250925092565b613d9e81613a6d565b8114613da957600080fd5b50565b600081359050613dbb81613d95565b92915050565b60008060408385031215613dd857613dd76139de565b5b6000613de685828601613aec565b9250506020613df785828601613dac565b9150509250929050565b600060208284031215613e1757613e166139de565b5b6000613e2584828501613dac565b91505092915050565b600080fd5b600080fd5b7f4e487b7100000000000000000000000000000000000000000000000000000000600052604160045260246000fd5b613e7082613b74565b810181811067ffffffffffffffff82111715613e8f57613e8e613e38565b5b80604052505050565b6000613ea26139d4565b9050613eae8282613e67565b919050565b600067ffffffffffffffff821115613ece57613ecd613e38565b5b613ed782613b74565b9050602081019050919050565b82818337600083830152505050565b6000613f06613f0184613eb3565b613e98565b905082815260208101848484011115613f2257613f21613e33565b5b613f2d848285613ee4565b509392505050565b600082601f830112613f4a57613f49613e2e565b5b8135613f5a848260208601613ef3565b91505092915050565b60008060408385031215613f7a57613f796139de565b5b6000613f8885828601613aec565b925050602083013567ffffffffffffffff811115613fa957613fa86139e3565b5b613fb585828601613f35565b9150509250929050565b600080fd5b600080fd5b60008083601f840112613fdf57613fde613e2e565b5b8235905067ffffffffffffffff811115613ffc57613ffb613fbf565b5b60208301915083600182028301111561401857614017613fc4565b5b9250929050565b60008060208385031215614036576140356139de565b5b600083013567ffffffffffffffff811115614054576140536139e3565b5b61406085828601613fc9565b92509250509250929050565b61407581613cd7565b82525050565b6000602082019050614090600083018461406c565b92915050565b600067ffffffffffffffff8211156140b1576140b0613e38565b5b6140ba82613b74565b9050602081019050919050565b60006140da6140d584614096565b613e98565b9050828152602081018484840111156140f6576140f5613e33565b5b614101848285613ee4565b509392505050565b600082601f83011261411e5761411d613e2e565b5b813561412e8482602086016140c7565b91505092915050565b60008060008060808587031215614151576141506139de565b5b600061415f87828801613aec565b945050602061417087828801613aec565b935050604061418187828801613c01565b925050606085013567ffffffffffffffff8111156141a2576141a16139e3565b5b6141ae87828801614109565b91505092959194509250565b600080604083850312156141d1576141d06139de565b5b60006141df85828601613aec565b92505060206141f085828601613aec565b9150509250929050565b7f4e487b7100000000000000000000000000000000000000000000000000000000600052602260045260246000fd5b6000600282049050600182168061424157607f821691505b602082108103614254576142536141fa565b5b50919050565b7f4552433732313a20617070726f76616c20746f2063757272656e74206f776e6560008201527f7200000000000000000000000000000000000000000000000000000000000000602082015250565b60006142b6602183613b39565b91506142c18261425a565b604082019050919050565b600060208201905081810360008301526142e5816142a9565b9050919050565b7f4552433732313a20617070726f76652063616c6c6572206973206e6f7420746f60008201527f6b656e206f776e6572206f7220617070726f76656420666f7220616c6c000000602082015250565b6000614348603d83613b39565b9150614353826142ec565b604082019050919050565b600060208201905081810360008301526143778161433b565b9050919050565b7f4552433732313a2063616c6c6572206973206e6f7420746f6b656e206f776e6560008201527f72206f7220617070726f76656400000000000000000000000000000000000000602082015250565b60006143da602d83613b39565b91506143e58261437e565b604082019050919050565b60006020820190508181036000830152614409816143cd565b9050919050565b7f62616c616e63652076616c7565206e6565647320746f206265203e3d20616d6f60008201527f756e740000000000000000000000000000000000000000000000000000000000602082015250565b600061446c602383613b39565b915061447782614410565b604082019050919050565b6000602082019050818103600083015261449b8161445f565b9050919050565b7f455243373231456e756d657261626c653a206f776e657220696e646578206f7560008201527f74206f6620626f756e6473000000000000000000000000000000000000000000602082015250565b60006144fe602b83613b39565b9150614509826144a2565b604082019050919050565b6000602082019050818103600083015261452d816144f1565b9050919050565b7f455243373231456e756d657261626c653a20676c6f62616c20696e646578206f60008201527f7574206f6620626f756e64730000000000000000000000000000000000000000602082015250565b6000614590602c83613b39565b915061459b82614534565b604082019050919050565b600060208201905081810360008301526145bf81614583565b9050919050565b7f4e487b7100000000000000000000000000000000000000000000000000000000600052603260045260246000fd5b7f416c6c6c6f776c6973744f776e65723a2063616c6c6572206973206e6f74206960008201527f6e2074686520416c6c6f774c6973740000000000000000000000000000000000602082015250565b6000614651602f83613b39565b915061465c826145f5565b604082019050919050565b6000602082019050818103600083015261468081614644565b9050919050565b7f616d6f756e74206d757374206265206c657373207468616e206f72206571756160008201527f6c20746f20746865206d617842617463684d696e746564000000000000000000602082015250565b60006146e3603783613b39565b91506146ee82614687565b604082019050919050565b60006020820190508181036000830152614712816146d6565b9050919050565b7f4e487b7100000000000000000000000000000000000000000000000000000000600052601160045260246000fd5b600061475382613be0565b915061475e83613be0565b925082820261476c81613be0565b9150828204841483151761478357614782614719565b5b5092915050565b7f50617961626c65206d757374206265206174206c656173742074686520616d6f60008201527f756e74202a206d696e7420666565000000000000000000000000000000000000602082015250565b60006147e6602e83613b39565b91506147f18261478a565b604082019050919050565b60006020820190508181036000830152614815816147d9565b9050919050565b600061482782613be0565b91507fffffffffffffffffffffffffffffffffffffffffffffffffffffffffffffffff820361485957614858614719565b5b600182019050919050565b7f4552433732313a20696e76616c696420746f6b656e2049440000000000000000600082015250565b600061489a601883613b39565b91506148a582614864565b602082019050919050565b600060208201905081810360008301526148c98161488d565b9050919050565b7f4e65656420612076616c6964206e6577206d617820737570706c790000000000600082015250565b6000614906601b83613b39565b9150614911826148d0565b602082019050919050565b60006020820190508181036000830152614935816148f9565b9050919050565b7f63616c6c6572206973206e6f7420617574686f72697a656420746f206275726e600082015250565b6000614972602083613b39565b915061497d8261493c565b602082019050919050565b600060208201905081810360008301526149a181614965565b9050919050565b7f4552433732313a2061646472657373207a65726f206973206e6f74206120766160008201527f6c6964206f776e65720000000000000000000000000000000000000000000000602082015250565b6000614a04602983613b39565b9150614a0f826149a8565b604082019050919050565b60006020820190508181036000830152614a33816149f7565b9050919050565b7f63616c6c6572206973206e6f7420617574686f72697a656420746f207472616e60008201527f7366657200000000000000000000000000000000000000000000000000000000602082015250565b6000614a96602483613b39565b9150614aa182614a3a565b604082019050919050565b60006020820190508181036000830152614ac581614a89565b9050919050565b600082905092915050565b60008190508160005260206000209050919050565b60006020601f8301049050919050565b600082821b905092915050565b600060088302614b397fffffffffffffffffffffffffffffffffffffffffffffffffffffffffffffffff82614afc565b614b438683614afc565b95508019841693508086168417925050509392505050565b6000819050919050565b6000614b80614b7b614b7684613be0565b614b5b565b613be0565b9050919050565b6000819050919050565b614b9a83614b65565b614bae614ba682614b87565b848454614b09565b825550505050565b600090565b614bc3614bb6565b614bce818484614b91565b505050565b5b81811015614bf257614be7600082614bbb565b600181019050614bd4565b5050565b601f821115614c3757614c0881614ad7565b614c1184614aec565b81016020851015614c20578190505b614c34614c2c85614aec565b830182614bd3565b50505b505050565b600082821c905092915050565b6000614c5a60001984600802614c3c565b1980831691505092915050565b6000614c738383614c49565b9150826002028217905092915050565b614c8d8383614acc565b67ffffffffffffffff811115614ca657614ca5613e38565b5b614cb08254614229565b614cbb828285614bf6565b6000601f831160018114614cea5760008415614cd8578287013590505b614ce28582614c67565b865550614d4a565b601f198416614cf886614ad7565b60005b82811015614d2057848901358255600182019150602085019450602081019050614cfb565b86831015614d3d5784890135614d39601f891682614c49565b8355505b6001600288020188555050505b50505050505050565b7f4e65656420612076616c6964206e6577206d6178206d696e74206c696d697400600082015250565b6000614d89601f83613b39565b9150614d9482614d53565b602082019050919050565b60006020820190508181036000830152614db881614d7c565b9050919050565b7f6d696e7420666565206e6f74206d657400000000000000000000000000000000600082015250565b6000614df5601083613b39565b9150614e0082614dbf565b602082019050919050565b60006020820190508181036000830152614e2481614de8565b9050919050565b7f4f776e61626c653a206e6577206f776e657220697320746865207a65726f206160008201527f6464726573730000000000000000000000000000000000000000000000000000602082015250565b6000614e87602683613b39565b9150614e9282614e2b565b604082019050919050565b60006020820190508181036000830152614eb681614e7a565b9050919050565b7f4f776e61626c653a2063616c6c6572206973206e6f7420746865206f776e6572600082015250565b6000614ef3602083613b39565b9150614efe82614ebd565b602082019050919050565b60006020820190508181036000830152614f2281614ee6565b9050919050565b7f4552433732313a207472616e736665722066726f6d20696e636f72726563742060008201527f6f776e6572000000000000000000000000000000000000000000000000000000602082015250565b6000614f85602583613b39565b9150614f9082614f29565b604082019050919050565b60006020820190508181036000830152614fb481614f78565b9050919050565b7f4552433732313a207472616e7366657220746f20746865207a65726f2061646460008201527f7265737300000000000000000000000000000000000000000000000000000000602082015250565b6000615017602483613b39565b915061502282614fbb565b604082019050919050565b600060208201905081810360008301526150468161500a565b9050919050565b7f416464726573733a20696e73756666696369656e742062616c616e6365000000600082015250565b6000615083601d83613b39565b915061508e8261504d565b602082019050919050565b600060208201905081810360008301526150b281615076565b9050919050565b600081905092915050565b50565b60006150d46000836150b9565b91506150df826150c4565b600082019050919050565b60006150f5826150c7565b9150819050919050565b7f416464726573733a20756e61626c6520746f2073656e642076616c75652c207260008201527f6563697069656e74206d61792068617665207265766572746564000000000000602082015250565b600061515b603a83613b39565b9150615166826150ff565b604082019050919050565b6000602082019050818103600083015261518a8161514e565b9050919050565b7f416c6c6c6f776c6973744f776e65723a204e65656420612076616c696420616460008201527f6472657373000000000000000000000000000000000000000000000000000000602082015250565b60006151ed602583613b39565b91506151f882615191565b604082019050919050565b6000602082019050818103600083015261521c816151e0565b9050919050565b60006040820190506152386000830185613c43565b6152456020830184613a79565b9392505050565b7f45524337323155524953746f726167653a2055524920736574206f66206e6f6e60008201527f6578697374656e7420746f6b656e000000000000000000000000000000000000602082015250565b60006152a8602e83613b39565b91506152b38261524c565b604082019050919050565b600060208201905081810360008301526152d78161529b565b9050919050565b6152e782613b2e565b67ffffffffffffffff811115615300576152ff613e38565b5b61530a8254614229565b615315828285614bf6565b600060209050601f8311600181146153485760008415615336578287015190505b6153408582614c67565b8655506153a8565b601f19841661535686614ad7565b60005b8281101561537e57848901518255600182019150602085019450602081019050615359565b8683101561539b5784890151615397601f891682614c49565b8355505b6001600288020188555050505b505050505050565b7f4552433732313a207472616e7366657220746f206e6f6e20455243373231526560008201527f63656976657220696d706c656d656e7465720000000000000000000000000000602082015250565b600061540c603283613b39565b9150615417826153b0565b604082019050919050565b6000602082019050818103600083015261543b816153ff565b9050919050565b7f4552433732313a20617070726f766520746f2063616c6c657200000000000000600082015250565b6000615478601983613b39565b915061548382615442565b602082019050919050565b600060208201905081810360008301526154a78161546b565b9050919050565b600081905092915050565b60006154c482613b2e565b6154ce81856154ae565b93506154de818560208601613b4a565b80840191505092915050565b60006154f682856154b9565b915061550282846154b9565b91508190509392505050565b7f5061757361626c653a206e6f7420706175736564000000000000000000000000600082015250565b6000615544601483613b39565b915061554f8261550e565b602082019050919050565b6000602082019050818103600083015261557381615537565b9050919050565b7f5061757361626c653a2070617573656400000000000000000000000000000000600082015250565b60006155b0601083613b39565b91506155bb8261557a565b602082019050919050565b600060208201905081810360008301526155df816155a3565b9050919050565b600081519050919050565b600082825260208201905092915050565b600061560d826155e6565b61561781856155f1565b9350615627818560208601613b4a565b61563081613b74565b840191505092915050565b60006080820190506156506000830187613c43565b61565d6020830186613c43565b61566a6040830185613cad565b818103606083015261567c8184615602565b905095945050505050565b60008151905061569681613a14565b92915050565b6000602082840312156156b2576156b16139de565b5b60006156c084828501615687565b91505092915050565b7f455243373231456e756d657261626c653a20636f6e736563757469766520747260008201527f616e7366657273206e6f7420737570706f727465640000000000000000000000602082015250565b6000615725603583613b39565b9150615730826156c9565b604082019050919050565b6000602082019050818103600083015261575481615718565b9050919050565b7f4552433732313a206d696e7420746f20746865207a65726f2061646472657373600082015250565b6000615791602083613b39565b915061579c8261575b565b602082019050919050565b600060208201905081810360008301526157c081615784565b9050919050565b7f4552433732313a20746f6b656e20616c7265616479206d696e74656400000000600082015250565b60006157fd601c83613b39565b9150615808826157c7565b602082019050919050565b6000602082019050818103600083015261582c816157f0565b9050919050565b7f4e487b7100000000000000000000000000000000000000000000000000000000600052601260045260246000fd5b600061586d82613be0565b915061587883613be0565b92508282039050818111156158905761588f614719565b5b92915050565b7f4e487b7100000000000000000000000000000000000000000000000000000000600052603160045260246000fdfea2646970667358221220ffff4965c376abc0503dccba4baee41af802ed302acfd1654e7378fb5d385b2f64736f6c63430008130033",
  "devdoc": {
    "events": {
      "Approval(address,address,uint256)": {
        "details": "Emitted when `owner` enables `approved` to manage the `tokenId` token."
      },
      "ApprovalForAll(address,address,bool)": {
        "details": "Emitted when `owner` enables or disables (`approved`) `operator` to manage all of its assets."
      },
      "BatchMetadataUpdate(uint256,uint256)": {
        "details": "This event emits when the metadata of a range of tokens is changed. So that the third-party platforms such as NFT market could timely update the images and related attributes of the NFTs."
      },
      "MetadataUpdate(uint256)": {
        "details": "This event emits when the metadata of a token is changed. So that the third-party platforms such as NFT market could timely update the images and related attributes of the NFT."
      },
      "Paused(address)": {
        "details": "Emitted when the pause is triggered by `account`."
      },
      "Transfer(address,address,uint256)": {
        "details": "Emitted when `tokenId` token is transferred from `from` to `to`."
      },
      "Unpaused(address)": {
        "details": "Emitted when the pause is lifted by `account`."
      }
    },
    "kind": "dev",
    "methods": {
      "approve(address,uint256)": {
        "details": "See {IERC721-approve}."
      },
      "balanceOf(address)": {
        "details": "See {IERC721-balanceOf}."
      },
      "burn(uint256)": {
        "details": "Burns `tokenId`. See {ERC721-_burn}. Requirements: - The caller must own `tokenId` or be an approved operator."
      },
      "getApproved(uint256)": {
        "details": "See {IERC721-getApproved}."
      },
      "isApprovedForAll(address,address)": {
        "details": "See {IERC721-isApprovedForAll}."
      },
      "name()": {
        "details": "See {IERC721Metadata-name}."
      },
      "owner()": {
        "details": "Returns the address of the current owner."
      },
      "ownerOf(uint256)": {
        "details": "See {IERC721-ownerOf}."
      },
      "paused()": {
        "details": "Returns true if the contract is paused, and false otherwise."
      },
      "renounceOwnership()": {
        "details": "Leaves the contract without owner. It will not be possible to call `onlyOwner` functions. Can only be called by the current owner. NOTE: Renouncing ownership will leave the contract without an owner, thereby disabling any functionality that is only available to the owner."
      },
      "safeTransferFrom(address,address,uint256)": {
        "details": "See {IERC721-safeTransferFrom}."
      },
      "safeTransferFrom(address,address,uint256,bytes)": {
        "details": "See {IERC721-safeTransferFrom}."
      },
      "setApprovalForAll(address,bool)": {
        "details": "See {IERC721-setApprovalForAll}."
      },
      "symbol()": {
        "details": "See {IERC721Metadata-symbol}."
      },
      "tokenByIndex(uint256)": {
        "details": "See {IERC721Enumerable-tokenByIndex}."
      },
      "tokenOfOwnerByIndex(address,uint256)": {
        "details": "See {IERC721Enumerable-tokenOfOwnerByIndex}."
      },
      "totalSupply()": {
        "details": "See {IERC721Enumerable-totalSupply}."
      },
      "transferFrom(address,address,uint256)": {
        "details": "See {IERC721-transferFrom}."
      },
      "transferOwnership(address)": {
        "details": "Transfers ownership of the contract to a new account (`newOwner`). Can only be called by the current owner."
      }
    },
    "version": 1
  },
  "userdoc": {
    "kind": "user",
    "methods": {},
    "version": 1
  },
  "storageLayout": {
    "storage": [
      {
        "astId": 964,
        "contract": "contracts/VaultNft.sol:VaultNft",
        "label": "_name",
        "offset": 0,
        "slot": "0",
        "type": "t_string_storage"
      },
      {
        "astId": 966,
        "contract": "contracts/VaultNft.sol:VaultNft",
        "label": "_symbol",
        "offset": 0,
        "slot": "1",
        "type": "t_string_storage"
      },
      {
        "astId": 970,
        "contract": "contracts/VaultNft.sol:VaultNft",
        "label": "_owners",
        "offset": 0,
        "slot": "2",
        "type": "t_mapping(t_uint256,t_address)"
      },
      {
        "astId": 974,
        "contract": "contracts/VaultNft.sol:VaultNft",
        "label": "_balances",
        "offset": 0,
        "slot": "3",
        "type": "t_mapping(t_address,t_uint256)"
      },
      {
        "astId": 978,
        "contract": "contracts/VaultNft.sol:VaultNft",
        "label": "_tokenApprovals",
        "offset": 0,
        "slot": "4",
        "type": "t_mapping(t_uint256,t_address)"
      },
      {
        "astId": 984,
        "contract": "contracts/VaultNft.sol:VaultNft",
        "label": "_operatorApprovals",
        "offset": 0,
        "slot": "5",
        "type": "t_mapping(t_address,t_mapping(t_address,t_bool))"
      },
      {
        "astId": 2044,
        "contract": "contracts/VaultNft.sol:VaultNft",
        "label": "_ownedTokens",
        "offset": 0,
        "slot": "6",
        "type": "t_mapping(t_address,t_mapping(t_uint256,t_uint256))"
      },
      {
        "astId": 2048,
        "contract": "contracts/VaultNft.sol:VaultNft",
        "label": "_ownedTokensIndex",
        "offset": 0,
        "slot": "7",
        "type": "t_mapping(t_uint256,t_uint256)"
      },
      {
        "astId": 2051,
        "contract": "contracts/VaultNft.sol:VaultNft",
        "label": "_allTokens",
        "offset": 0,
        "slot": "8",
        "type": "t_array(t_uint256)dyn_storage"
      },
      {
        "astId": 2055,
        "contract": "contracts/VaultNft.sol:VaultNft",
        "label": "_allTokensIndex",
        "offset": 0,
        "slot": "9",
        "type": "t_mapping(t_uint256,t_uint256)"
      },
      {
        "astId": 2399,
        "contract": "contracts/VaultNft.sol:VaultNft",
        "label": "_tokenURIs",
        "offset": 0,
        "slot": "10",
        "type": "t_mapping(t_uint256,t_string_storage)"
      },
      {
        "astId": 158,
        "contract": "contracts/VaultNft.sol:VaultNft",
        "label": "_paused",
        "offset": 0,
        "slot": "11",
        "type": "t_bool"
      },
      {
        "astId": 7,
        "contract": "contracts/VaultNft.sol:VaultNft",
        "label": "_owner",
        "offset": 1,
        "slot": "11",
        "type": "t_address"
      },
      {
        "astId": 4908,
        "contract": "contracts/VaultNft.sol:VaultNft",
        "label": "allowlist",
        "offset": 0,
        "slot": "12",
        "type": "t_mapping(t_address,t_bool)"
      },
      {
        "astId": 4911,
        "contract": "contracts/VaultNft.sol:VaultNft",
        "label": "allowListEnabled",
        "offset": 0,
        "slot": "13",
        "type": "t_bool"
      },
      {
        "astId": 6065,
        "contract": "contracts/VaultNft.sol:VaultNft",
        "label": "_tokenIdCounter",
        "offset": 0,
        "slot": "14",
        "type": "t_struct(Counter)2982_storage"
      },
      {
        "astId": 6068,
        "contract": "contracts/VaultNft.sol:VaultNft",
        "label": "mintFee",
        "offset": 0,
        "slot": "15",
        "type": "t_uint256"
      },
      {
        "astId": 6071,
        "contract": "contracts/VaultNft.sol:VaultNft",
        "label": "maxSupply",
        "offset": 0,
        "slot": "16",
        "type": "t_uint256"
      },
      {
        "astId": 6074,
        "contract": "contracts/VaultNft.sol:VaultNft",
        "label": "maxBatchMint",
        "offset": 0,
        "slot": "17",
        "type": "t_uint256"
      },
      {
        "astId": 6077,
        "contract": "contracts/VaultNft.sol:VaultNft",
        "label": "singleNftMeta",
        "offset": 0,
        "slot": "18",
        "type": "t_bool"
      },
      {
        "astId": 6079,
        "contract": "contracts/VaultNft.sol:VaultNft",
        "label": "redeemAuthorizer",
        "offset": 1,
        "slot": "18",
        "type": "t_address"
      },
      {
        "astId": 6081,
        "contract": "contracts/VaultNft.sol:VaultNft",
        "label": "destination",
        "offset": 0,
        "slot": "19",
        "type": "t_address_payable"
      },
      {
        "astId": 6083,
        "contract": "contracts/VaultNft.sol:VaultNft",
        "label": "baseURI",
        "offset": 0,
        "slot": "20",
        "type": "t_string_storage"
      }
    ],
    "types": {
      "t_address": {
        "encoding": "inplace",
        "label": "address",
        "numberOfBytes": "20"
      },
      "t_address_payable": {
        "encoding": "inplace",
        "label": "address payable",
        "numberOfBytes": "20"
      },
      "t_array(t_uint256)dyn_storage": {
        "base": "t_uint256",
        "encoding": "dynamic_array",
        "label": "uint256[]",
        "numberOfBytes": "32"
      },
      "t_bool": {
        "encoding": "inplace",
        "label": "bool",
        "numberOfBytes": "1"
      },
      "t_mapping(t_address,t_bool)": {
        "encoding": "mapping",
        "key": "t_address",
        "label": "mapping(address => bool)",
        "numberOfBytes": "32",
        "value": "t_bool"
      },
      "t_mapping(t_address,t_mapping(t_address,t_bool))": {
        "encoding": "mapping",
        "key": "t_address",
        "label": "mapping(address => mapping(address => bool))",
        "numberOfBytes": "32",
        "value": "t_mapping(t_address,t_bool)"
      },
      "t_mapping(t_address,t_mapping(t_uint256,t_uint256))": {
        "encoding": "mapping",
        "key": "t_address",
        "label": "mapping(address => mapping(uint256 => uint256))",
        "numberOfBytes": "32",
        "value": "t_mapping(t_uint256,t_uint256)"
      },
      "t_mapping(t_address,t_uint256)": {
        "encoding": "mapping",
        "key": "t_address",
        "label": "mapping(address => uint256)",
        "numberOfBytes": "32",
        "value": "t_uint256"
      },
      "t_mapping(t_uint256,t_address)": {
        "encoding": "mapping",
        "key": "t_uint256",
        "label": "mapping(uint256 => address)",
        "numberOfBytes": "32",
        "value": "t_address"
      },
      "t_mapping(t_uint256,t_string_storage)": {
        "encoding": "mapping",
        "key": "t_uint256",
        "label": "mapping(uint256 => string)",
        "numberOfBytes": "32",
        "value": "t_string_storage"
      },
      "t_mapping(t_uint256,t_uint256)": {
        "encoding": "mapping",
        "key": "t_uint256",
        "label": "mapping(uint256 => uint256)",
        "numberOfBytes": "32",
        "value": "t_uint256"
      },
      "t_string_storage": {
        "encoding": "bytes",
        "label": "string",
        "numberOfBytes": "32"
      },
      "t_struct(Counter)2982_storage": {
        "encoding": "inplace",
        "label": "struct Counters.Counter",
        "members": [
          {
            "astId": 2981,
            "contract": "contracts/VaultNft.sol:VaultNft",
            "label": "_value",
            "offset": 0,
            "slot": "0",
            "type": "t_uint256"
          }
        ],
        "numberOfBytes": "32"
      },
      "t_uint256": {
        "encoding": "inplace",
        "label": "uint256",
        "numberOfBytes": "32"
      }
    }
  }
}